{"abi":[{"type":"constructor","inputs":[],"stateMutability":"nonpayable"},{"type":"function","name":"MAX_FEE","inputs":[],"outputs":[{"name":"","type":"uint256","internalType":"uint256"}],"stateMutability":"view"},{"type":"function","name":"UPGRADE_INTERFACE_VERSION","inputs":[],"outputs":[{"name":"","type":"string","internalType":"string"}],"stateMutability":"view"},{"type":"function","name":"ZERO_FEE_INDICATOR","inputs":[],"outputs":[{"name":"","type":"uint256","internalType":"uint256"}],"stateMutability":"view"},{"type":"function","name":"allPoolsLength","inputs":[],"outputs":[{"name":"","type":"uint256","internalType":"uint256"}],"stateMutability":"view"},{"type":"function","name":"createPool","inputs":[{"name":"tokenA","type":"address","internalType":"address"},{"name":"tokenB","type":"address","internalType":"address"},{"name":"stable","type":"bool","internalType":"bool"}],"outputs":[{"name":"pool","type":"address","internalType":"address"}],"stateMutability":"nonpayable"},{"type":"function","name":"customFee","inputs":[{"name":"pool","type":"address","internalType":"address"}],"outputs":[{"name":"","type":"uint256","internalType":"uint256"}],"stateMutability":"view"},{"type":"function","name":"feeManager","inputs":[],"outputs":[{"name":"","type":"address","internalType":"address"}],"stateMutability":"view"},{"type":"function","name":"getFee","inputs":[{"name":"pool","type":"address","internalType":"address"},{"name":"stable","type":"bool","internalType":"bool"}],"outputs":[{"name":"","type":"uint256","internalType":"uint256"}],"stateMutability":"view"},{"type":"function","name":"getPool","inputs":[{"name":"tokenA","type":"address","internalType":"address"},{"name":"tokenB","type":"address","internalType":"address"},{"name":"stable","type":"bool","internalType":"bool"}],"outputs":[{"name":"","type":"address","internalType":"address"}],"stateMutability":"view"},{"type":"function","name":"implementation","inputs":[],"outputs":[{"name":"","type":"address","internalType":"address"}],"stateMutability":"view"},{"type":"function","name":"initialize","inputs":[{"name":"_implementation","type":"address","internalType":"address"},{"name":"_voter","type":"address","internalType":"address"}],"outputs":[],"stateMutability":"nonpayable"},{"type":"function","name":"isPaused","inputs":[],"outputs":[{"name":"","type":"bool","internalType":"bool"}],"stateMutability":"view"},{"type":"function","name":"isPool","inputs":[{"name":"pool","type":"address","internalType":"address"}],"outputs":[{"name":"","type":"bool","internalType":"bool"}],"stateMutability":"view"},{"type":"function","name":"owner","inputs":[],"outputs":[{"name":"","type":"address","internalType":"address"}],"stateMutability":"view"},{"type":"function","name":"pauser","inputs":[],"outputs":[{"name":"","type":"address","internalType":"address"}],"stateMutability":"view"},{"type":"function","name":"proxiableUUID","inputs":[],"outputs":[{"name":"","type":"bytes32","internalType":"bytes32"}],"stateMutability":"view"},{"type":"function","name":"renounceOwnership","inputs":[],"outputs":[],"stateMutability":"nonpayable"},{"type":"function","name":"setCustomFee","inputs":[{"name":"pool","type":"address","internalType":"address"},{"name":"fee","type":"uint256","internalType":"uint256"}],"outputs":[],"stateMutability":"nonpayable"},{"type":"function","name":"setFeeManager","inputs":[{"name":"_feeManager","type":"address","internalType":"address"}],"outputs":[],"stateMutability":"nonpayable"},{"type":"function","name":"setImplementation","inputs":[{"name":"_implementation","type":"address","internalType":"address"}],"outputs":[],"stateMutability":"nonpayable"},{"type":"function","name":"setPauseState","inputs":[{"name":"state","type":"bool","internalType":"bool"}],"outputs":[],"stateMutability":"nonpayable"},{"type":"function","name":"setPauser","inputs":[{"name":"_pauser","type":"address","internalType":"address"}],"outputs":[],"stateMutability":"nonpayable"},{"type":"function","name":"setStableFee","inputs":[{"name":"fee","type":"uint256","internalType":"uint256"}],"outputs":[],"stateMutability":"nonpayable"},{"type":"function","name":"setVolatileFee","inputs":[{"name":"fee","type":"uint256","internalType":"uint256"}],"outputs":[],"stateMutability":"nonpayable"},{"type":"function","name":"setVoter","inputs":[{"name":"_voter","type":"address","internalType":"address"}],"outputs":[],"stateMutability":"nonpayable"},{"type":"function","name":"stableFee","inputs":[],"outputs":[{"name":"","type":"uint256","internalType":"uint256"}],"stateMutability":"view"},{"type":"function","name":"transferOwnership","inputs":[{"name":"newOwner","type":"address","internalType":"address"}],"outputs":[],"stateMutability":"nonpayable"},{"type":"function","name":"upgradeToAndCall","inputs":[{"name":"newImplementation","type":"address","internalType":"address"},{"name":"data","type":"bytes","internalType":"bytes"}],"outputs":[],"stateMutability":"payable"},{"type":"function","name":"volatileFee","inputs":[],"outputs":[{"name":"","type":"uint256","internalType":"uint256"}],"stateMutability":"view"},{"type":"function","name":"voter","inputs":[],"outputs":[{"name":"","type":"address","internalType":"address"}],"stateMutability":"view"},{"type":"event","name":"Initialized","inputs":[{"name":"version","type":"uint64","indexed":false,"internalType":"uint64"}],"anonymous":false},{"type":"event","name":"OwnershipTransferred","inputs":[{"name":"previousOwner","type":"address","indexed":true,"internalType":"address"},{"name":"newOwner","type":"address","indexed":true,"internalType":"address"}],"anonymous":false},{"type":"event","name":"PoolCreated","inputs":[{"name":"token0","type":"address","indexed":true,"internalType":"address"},{"name":"token1","type":"address","indexed":true,"internalType":"address"},{"name":"stable","type":"bool","indexed":false,"internalType":"bool"},{"name":"pool","type":"address","indexed":false,"internalType":"address"},{"name":"allPoolsLength","type":"uint256","indexed":false,"internalType":"uint256"}],"anonymous":false},{"type":"event","name":"SetCustomFee","inputs":[{"name":"pool","type":"address","indexed":true,"internalType":"address"},{"name":"fee","type":"uint256","indexed":false,"internalType":"uint256"}],"anonymous":false},{"type":"event","name":"SetFeeManager","inputs":[{"name":"feeManager","type":"address","indexed":true,"internalType":"address"}],"anonymous":false},{"type":"event","name":"SetPauseState","inputs":[{"name":"state","type":"bool","indexed":false,"internalType":"bool"}],"anonymous":false},{"type":"event","name":"SetPauser","inputs":[{"name":"pauser","type":"address","indexed":true,"internalType":"address"}],"anonymous":false},{"type":"event","name":"SetStableFee","inputs":[{"name":"fee","type":"uint256","indexed":false,"internalType":"uint256"}],"anonymous":false},{"type":"event","name":"SetVolatileFee","inputs":[{"name":"fee","type":"uint256","indexed":false,"internalType":"uint256"}],"anonymous":false},{"type":"event","name":"Upgraded","inputs":[{"name":"implementation","type":"address","indexed":true,"internalType":"address"}],"anonymous":false},{"type":"error","name":"AddressEmptyCode","inputs":[{"name":"target","type":"address","internalType":"address"}]},{"type":"error","name":"ERC1967InvalidImplementation","inputs":[{"name":"implementation","type":"address","internalType":"address"}]},{"type":"error","name":"ERC1967NonPayable","inputs":[]},{"type":"error","name":"FailedCall","inputs":[]},{"type":"error","name":"FailedDeployment","inputs":[]},{"type":"error","name":"FeeInvalid","inputs":[]},{"type":"error","name":"FeeTooHigh","inputs":[]},{"type":"error","name":"IdenticalAddresses","inputs":[]},{"type":"error","name":"InsufficientBalance","inputs":[{"name":"balance","type":"uint256","internalType":"uint256"},{"name":"needed","type":"uint256","internalType":"uint256"}]},{"type":"error","name":"InvalidInitialization","inputs":[]},{"type":"error","name":"NotFeeManager","inputs":[]},{"type":"error","name":"NotInitializing","inputs":[]},{"type":"error","name":"NotPauser","inputs":[]},{"type":"error","name":"OwnableInvalidOwner","inputs":[{"name":"owner","type":"address","internalType":"address"}]},{"type":"error","name":"OwnableUnauthorizedAccount","inputs":[{"name":"account","type":"address","internalType":"address"}]},{"type":"error","name":"PoolDoesNotExist","inputs":[]},{"type":"error","name":"PoolExists","inputs":[]},{"type":"error","name":"SameState","inputs":[]},{"type":"error","name":"UUPSUnauthorizedCallContext","inputs":[]},{"type":"error","name":"UUPSUnsupportedProxiableUUID","inputs":[{"name":"slot","type":"bytes32","internalType":"bytes32"}]},{"type":"error","name":"ZeroAddress","inputs":[]}],"bytecode":{"object":"0x60a080604052346100c257306080525f5160206114065f395f51905f525460ff8160401c166100b3576002600160401b03196001600160401b03821601610060575b60405161133f90816100c7823960805181818161071701526108130152f35b6001600160401b0319166001600160401b039081175f5160206114065f395f51905f525581527fc7f505b2f371ae2175ee4913f4499e1f2633a7b5936321eed1cdaeb6115181d290602090a15f80610041565b63f92ee8a960e01b5f5260045ffd5b5f80fdfe60806040526004361015610011575f80fd5b5f5f3560e01c80632d88af4a1461101757806336bf95a014610cf657806338c55d4614610cda57806340bbd77514610cbc57806346c96aac14610c93578063472d35b914610c10578063485cc95514610a3c5780634bc2a657146109fc5780634d419abc146109c35780634f1ef286146107895780635084ed031461076b57806352d1902d146107045780635b16ebb7146106c55780635c60da1b1461069e578063715018a61461063557806379bc57d5146105c65780638da5cb5b146105915780639fd0506d14610568578063ad3cb1cc1461050c578063b187bd26146104e6578063bc063e1a146104c9578063c0e08d4e14610466578063cc56b2c51461042b578063cdb88ad114610381578063d0fb020314610358578063d49466a814610284578063d65ae0ec14610203578063d784d426146101b1578063efde4e64146101935763f2fde38b14610164575f80fd5b346101905760203660031901126101905761018d61018061107f565b6101886111a4565b611133565b80f35b80fd5b50346101905780600319360112610190576020600854604051908152f35b5034610190576020366003190112610190576101cb61107f565b6101d36111a4565b6001600160a01b031680156101f45781546001600160a01b03191617815580f35b63d92e233d60e01b8252600482fd5b503461019057602036600319011261019057600354600435906001600160a01b03163303610275576101f48111610266576020817fce3d3a3c29b8fc58f63db750147e796fa1488f967a0dcf16b0255ad5002bb08a92600555604051908152a180f35b63cd4e616760e01b8252600482fd5b63f5d267eb60e01b8252600482fd5b50346101905760403660031901126101905761029e61107f565b60035460243591906001600160a01b03163303610349576101f482118061033e575b61032f576001600160a01b03168083526009602052604083205490919060ff16156103205760207fae468ce586f9a87660fdffc1448cee942042c16ae2f02046b134b5224f31936b9183855260068252806040862055604051908152a280f35b6302721e1f60e61b8352600483fd5b63cd4e616760e01b8352600483fd5b505f198214156102c0565b63f5d267eb60e01b8352600483fd5b50346101905780600319360112610190576003546040516001600160a01b039091168152602090f35b503461019057602036600319011261019057600435801515809103610427576002546001600160a01b03163303610418576003548160ff8260a01c161515146104095760ff60a01b191660a082901b60ff60a01b16176003556040519081527f0d76538efc408318a051137c2720a9e82902acdbd46b802d488b74ca3a09a11690602090a180f35b631490ad1160e01b8352600483fd5b63492f678160e01b8252600482fd5b5080fd5b50346101905760403660031901126101905761044561107f565b60243591821515830361019057602061045e84846110f0565b604051908152f35b503461019057602036600319011261019057600354600435906001600160a01b03163303610275576101f48111610266576020817f8d1be01b4f416b14b1dacff8744a16622315bc1fc9fb2e64d0ea0c3fdb5a914f92600455604051908152a180f35b503461019057806003193601126101905760206040516101f48152f35b5034610190578060031936011261019057602060ff60035460a01c166040519015158152f35b50346101905780600319360112610190576040805161052b82826110ba565b6005815260208101640352e302e360dc1b81528251938492602084525180928160208601528585015e828201840152601f01601f19168101030190f35b50346101905780600319360112610190576002546040516001600160a01b039091168152602090f35b50346101905780600319360112610190575f5160206112aa5f395f51905f52546040516001600160a01b039091168152602090f35b5034610190576060366003190112610190576020906105e361107f565b6105fc6105ee611095565b6105f66110ab565b926111d7565b6001600160a01b0391821684526007855260408085209183165f9081529186529081902092151584529184529181902054905191168152f35b503461019057806003193601126101905761064e6111a4565b5f5160206112aa5f395f51905f5280546001600160a01b0319811690915581906001600160a01b03167f8be0079c531659141344cd1fd0a4f28419497f9722a3daafe3b4186f6b6457e08280a380f35b5034610190578060031936011261019057546040516001600160a01b039091168152602090f35b50346101905760203660031901126101905760209060ff906040906001600160a01b036106f061107f565b168152600984522054166040519015158152f35b50346101905780600319360112610190577f00000000000000000000000000000000000000000000000000000000000000006001600160a01b0316300361075c5760206040515f5160206112ca5f395f51905f528152f35b63703e46dd60e11b8152600490fd5b50346101905780600319360112610190576020600454604051908152f35b5060403660031901126101905761079e61107f565b906024359167ffffffffffffffff8311610427573660238401121561042757826004013567ffffffffffffffff81116109af57604051936107e9601f8301601f1916602001866110ba565b81855236602483830101116109ab5781849260246020930183880137850101526001600160a01b037f000000000000000000000000000000000000000000000000000000000000000016308114908115610989575b5061097a5761084b6111a4565b6040516352d1902d60e01b8152926001600160a01b0382169190602085600481865afa80958596610942575b5061089057634c9c8ce360e01b84526004839052602484fd5b9091845f5160206112ca5f395f51905f5281036109305750823b1561091e575f5160206112ca5f395f51905f5280546001600160a01b031916821790557fbc7cd75a20ee27fd9adebab32041f755214dbc6bffa90cc0225b39da2e5c2d3b8480a2805115610905576109019161121d565b5080f35b50503461090f5780f35b63b398979f60e01b8152600490fd5b634c9c8ce360e01b8452600452602483fd5b632a87526960e21b8552600452602484fd5b9095506020813d602011610972575b8161095e602093836110ba565b8101031261096e5751945f610877565b8480fd5b3d9150610951565b63703e46dd60e11b8252600482fd5b5f5160206112ca5f395f51905f52546001600160a01b0316141590505f61083e565b8380fd5b634e487b7160e01b83526041600452602483fd5b5034610190576020366003190112610190576020906040906001600160a01b036109eb61107f565b168152600683522054604051908152f35b503461019057602036600319011261019057610a1661107f565b610a1e6111a4565b60018060a01b03166001600160601b0360a01b600154161760015580f35b503461019057604036600319011261019057610a5661107f565b610a5e611095565b5f5160206112ea5f395f51905f52549160ff8360401c16159267ffffffffffffffff811680159081610c08575b6001149081610bfe575b159081610bf5575b50610be65767ffffffffffffffff1981166001175f5160206112ea5f395f51905f525583610bba575b506001600160a01b03168015610bab57610ade6111f2565b610ae66111f2565b610aef33611133565b6001600160601b0360a01b84541617835560018060a01b03166001600160601b0360a01b6001541617600155336001600160601b0360a01b6002541617600255336001600160601b0360a01b6003541617600355601e60045560058055610b535780f35b68ff0000000000000000195f5160206112ea5f395f51905f5254165f5160206112ea5f395f51905f52557fc7f505b2f371ae2175ee4913f4499e1f2633a7b5936321eed1cdaeb6115181d2602060405160018152a180f35b63d92e233d60e01b8452600484fd5b68ffffffffffffffffff191668010000000000000001175f5160206112ea5f395f51905f52555f610ac6565b63f92ee8a960e01b8552600485fd5b9050155f610a9d565b303b159150610a95565b859150610a8b565b503461019057602036600319011261019057610c2a61107f565b600354906001600160a01b0382163303610349576001600160a01b0316908115610c84576001600160a01b03191681176003557f5d0517e3a4eabea892d9750138cd21d4a6cf3b935b43d0598df7055f463819b28280a280f35b63d92e233d60e01b8352600483fd5b50346101905780600319360112610190576001546040516001600160a01b039091168152602090f35b50346101905780600319360112610190576020600554604051908152f35b503461019057806003193601126101905760206040515f198152f35b5034610fd7576060366003190112610fd757610d1061107f565b610d18611095565b90610d216110ab565b916001600160a01b038281169082161461100857610d3e916111d7565b906001600160a01b038116908115610ff9575f8281526007602090815260408083206001600160a01b038781168552908352818420971515808552979092529091205416610fea5760405160208101916001600160601b03199060601b16825260018060a01b038416936001600160601b03199060601b1660348201528460f81b604882015260298152610dd36049826110ba565b5190205f8054608881901c62ffffff16763d602d80600a3d3981f3363d3d373d3d3d363d7300000017825260781b6effffffffffffffffffffffffffffff19166e5af43d82803e903d91602b57fd5bf3176020526001600160a01b039190603790600990f516928315610fdb57833b15610fd757604051631c9776b560e31b81528260048201528360248201528160448201525f8160648183895af18015610fcc57610fb7575b50818552600760205260408520835f5260205260405f2081865260205260408520846001600160601b0360a01b825416179055828552600760205260408520825f5260205260405f2081865260205260408520846001600160601b0360a01b82541617905560085468010000000000000000811015610fa3576001810180600855811015610f8f577f2128d88d14c80cb081c1252a5acff7a264671bf199ce226b53788fb26065005e9160406020976060937ff3f7a9fe364faab93b216da50a3214154f22a0a2b415b23a84c8169e8b636ee301886001600160601b0360a01b8254161790558781526009895220600160ff1982541617905560085460405191825286888301526040820152a3604051908152f35b634e487b7160e01b86526032600452602486fd5b634e487b7160e01b86526041600452602486fd5b610fc49195505f906110ba565b5f935f610e7a565b6040513d5f823e3d90fd5b5f80fd5b63b06ebf3d60e01b5f5260045ffd5b637a471e1360e11b5f5260045ffd5b63d92e233d60e01b5f5260045ffd5b630bd969eb60e41b5f5260045ffd5b34610fd7576020366003190112610fd75761103061107f565b6110386111a4565b6001600160a01b03168015610ff957600280546001600160a01b031916821790557fe02efb9e8f0fc21546730ab32d594f62d586e1bbb15bb5045edd0b1878a77b355f80a2005b600435906001600160a01b0382168203610fd757565b602435906001600160a01b0382168203610fd757565b604435908115158203610fd757565b90601f8019910116810190811067ffffffffffffffff8211176110dc57604052565b634e487b7160e01b5f52604160045260245ffd5b6001600160a01b03165f90815260066020526040902054905f19821461112d57811561111a575090565b1590506111275760055490565b60045490565b50505f90565b6001600160a01b03168015611191575f5160206112aa5f395f51905f5280546001600160a01b0319811683179091556001600160a01b03167f8be0079c531659141344cd1fd0a4f28419497f9722a3daafe3b4186f6b6457e05f80a3565b631e4fbdf760e01b5f525f60045260245ffd5b5f5160206112aa5f395f51905f52546001600160a01b031633036111c457565b63118cdaa760e01b5f523360045260245ffd5b6001600160a01b0382811690821610156111ee5791565b9091565b60ff5f5160206112ea5f395f51905f525460401c161561120e57565b631afcd79f60e31b5f5260045ffd5b905f8091602081519101845af48080611296575b156112515750506040513d81523d5f602083013e60203d82010160405290565b1561127657639996b31560e01b5f9081526001600160a01b0391909116600452602490fd5b3d15611287576040513d5f823e3d90fd5b63d6bda27560e01b5f5260045ffd5b503d1515806112315750813b151561123156fe9016d09d72d40fdae2fd8ceac6b6234c7706214fd39c1cd1e609a0528c199300360894a13ba1a3210667c828492db98dca3e2076cc3735a920a3ca505d382bbcf0c57e16840df040f15088dc2f81fe391c3923bec73e23a9662efc9c229c6a00a26469706673582212201490baf7c0a7e365a83bb1318629707c9d9fff4bf038504f34e86ba78ced860064736f6c634300081b0033f0c57e16840df040f15088dc2f81fe391c3923bec73e23a9662efc9c229c6a00","linkReferences":{}},"methodIdentifiers":{"MAX_FEE()":"bc063e1a","UPGRADE_INTERFACE_VERSION()":"ad3cb1cc","ZERO_FEE_INDICATOR()":"38c55d46","allPoolsLength()":"efde4e64","createPool(address,address,bool)":"36bf95a0","customFee(address)":"4d419abc","feeManager()":"d0fb0203","getFee(address,bool)":"cc56b2c5","getPool(address,address,bool)":"79bc57d5","implementation()":"5c60da1b","initialize(address,address)":"485cc955","isPaused()":"b187bd26","isPool(address)":"5b16ebb7","owner()":"8da5cb5b","pauser()":"9fd0506d","proxiableUUID()":"52d1902d","renounceOwnership()":"715018a6","setCustomFee(address,uint256)":"d49466a8","setFeeManager(address)":"472d35b9","setImplementation(address)":"d784d426","setPauseState(bool)":"cdb88ad1","setPauser(address)":"2d88af4a","setStableFee(uint256)":"d65ae0ec","setVolatileFee(uint256)":"c0e08d4e","setVoter(address)":"4bc2a657","stableFee()":"40bbd775","transferOwnership(address)":"f2fde38b","upgradeToAndCall(address,bytes)":"4f1ef286","volatileFee()":"5084ed03","voter()":"46c96aac"},"id":83}