{"abi":[{"type":"constructor","inputs":[{"name":"_factory","type":"address","internalType":"address"},{"name":"_WETH9","type":"address","internalType":"address"}],"stateMutability":"nonpayable"},{"type":"receive","stateMutability":"payable"},{"type":"function","name":"WETH9","inputs":[],"outputs":[{"name":"","type":"address","internalType":"address"}],"stateMutability":"view"},{"type":"function","name":"approve","inputs":[{"name":"to","type":"address","internalType":"address"},{"name":"tokenId","type":"uint256","internalType":"uint256"}],"outputs":[],"stateMutability":"nonpayable"},{"type":"function","name":"balanceOf","inputs":[{"name":"owner","type":"address","internalType":"address"}],"outputs":[{"name":"","type":"uint256","internalType":"uint256"}],"stateMutability":"view"},{"type":"function","name":"burn","inputs":[{"name":"tokenId","type":"uint256","internalType":"uint256"}],"outputs":[],"stateMutability":"nonpayable"},{"type":"function","name":"collect","inputs":[{"name":"params","type":"tuple","internalType":"struct INonfungiblePositionManager.CollectParams","components":[{"name":"tokenId","type":"uint256","internalType":"uint256"},{"name":"recipient","type":"address","internalType":"address"},{"name":"amount0Max","type":"uint128","internalType":"uint128"},{"name":"amount1Max","type":"uint128","internalType":"uint128"}]}],"outputs":[{"name":"amount0","type":"uint256","internalType":"uint256"},{"name":"amount1","type":"uint256","internalType":"uint256"}],"stateMutability":"nonpayable"},{"type":"function","name":"decreaseLiquidity","inputs":[{"name":"params","type":"tuple","internalType":"struct INonfungiblePositionManager.DecreaseLiquidityParams","components":[{"name":"tokenId","type":"uint256","internalType":"uint256"},{"name":"liquidity","type":"uint128","internalType":"uint128"},{"name":"amount0Min","type":"uint256","internalType":"uint256"},{"name":"amount1Min","type":"uint256","internalType":"uint256"},{"name":"deadline","type":"uint256","internalType":"uint256"}]}],"outputs":[{"name":"amount0","type":"uint256","internalType":"uint256"},{"name":"amount1","type":"uint256","internalType":"uint256"}],"stateMutability":"nonpayable"},{"type":"function","name":"factory","inputs":[],"outputs":[{"name":"","type":"address","internalType":"address"}],"stateMutability":"view"},{"type":"function","name":"getApproved","inputs":[{"name":"tokenId","type":"uint256","internalType":"uint256"}],"outputs":[{"name":"","type":"address","internalType":"address"}],"stateMutability":"view"},{"type":"function","name":"increaseLiquidity","inputs":[{"name":"params","type":"tuple","internalType":"struct INonfungiblePositionManager.IncreaseLiquidityParams","components":[{"name":"tokenId","type":"uint256","internalType":"uint256"},{"name":"amount0Desired","type":"uint256","internalType":"uint256"},{"name":"amount1Desired","type":"uint256","internalType":"uint256"},{"name":"amount0Min","type":"uint256","internalType":"uint256"},{"name":"amount1Min","type":"uint256","internalType":"uint256"},{"name":"deadline","type":"uint256","internalType":"uint256"}]}],"outputs":[{"name":"liquidity","type":"uint128","internalType":"uint128"},{"name":"amount0","type":"uint256","internalType":"uint256"},{"name":"amount1","type":"uint256","internalType":"uint256"}],"stateMutability":"payable"},{"type":"function","name":"isApprovedForAll","inputs":[{"name":"owner","type":"address","internalType":"address"},{"name":"operator","type":"address","internalType":"address"}],"outputs":[{"name":"","type":"bool","internalType":"bool"}],"stateMutability":"view"},{"type":"function","name":"mint","inputs":[{"name":"params","type":"tuple","internalType":"struct INonfungiblePositionManager.MintParams","components":[{"name":"token0","type":"address","internalType":"address"},{"name":"token1","type":"address","internalType":"address"},{"name":"tickSpacing","type":"int24","internalType":"int24"},{"name":"tickLower","type":"int24","internalType":"int24"},{"name":"tickUpper","type":"int24","internalType":"int24"},{"name":"amount0Desired","type":"uint256","internalType":"uint256"},{"name":"amount1Desired","type":"uint256","internalType":"uint256"},{"name":"amount0Min","type":"uint256","internalType":"uint256"},{"name":"amount1Min","type":"uint256","internalType":"uint256"},{"name":"recipient","type":"address","internalType":"address"},{"name":"deadline","type":"uint256","internalType":"uint256"}]}],"outputs":[{"name":"tokenId","type":"uint256","internalType":"uint256"},{"name":"liquidity","type":"uint128","internalType":"uint128"},{"name":"amount0","type":"uint256","internalType":"uint256"},{"name":"amount1","type":"uint256","internalType":"uint256"}],"stateMutability":"payable"},{"type":"function","name":"name","inputs":[],"outputs":[{"name":"","type":"string","internalType":"string"}],"stateMutability":"view"},{"type":"function","name":"ownerOf","inputs":[{"name":"tokenId","type":"uint256","internalType":"uint256"}],"outputs":[{"name":"","type":"address","internalType":"address"}],"stateMutability":"view"},{"type":"function","name":"positions","inputs":[{"name":"tokenId","type":"uint256","internalType":"uint256"}],"outputs":[{"name":"","type":"tuple","internalType":"struct INonfungiblePositionManager.Position","components":[{"name":"token0","type":"address","internalType":"address"},{"name":"token1","type":"address","internalType":"address"},{"name":"tickSpacing","type":"int24","internalType":"int24"},{"name":"tickLower","type":"int24","internalType":"int24"},{"name":"tickUpper","type":"int24","internalType":"int24"},{"name":"liquidity","type":"uint128","internalType":"uint128"},{"name":"feeGrowthInside0LastX128","type":"uint256","internalType":"uint256"},{"name":"feeGrowthInside1LastX128","type":"uint256","internalType":"uint256"},{"name":"tokensOwed0","type":"uint128","internalType":"uint128"},{"name":"tokensOwed1","type":"uint128","internalType":"uint128"}]}],"stateMutability":"view"},{"type":"function","name":"safeTransferFrom","inputs":[{"name":"from","type":"address","internalType":"address"},{"name":"to","type":"address","internalType":"address"},{"name":"tokenId","type":"uint256","internalType":"uint256"}],"outputs":[],"stateMutability":"nonpayable"},{"type":"function","name":"safeTransferFrom","inputs":[{"name":"from","type":"address","internalType":"address"},{"name":"to","type":"address","internalType":"address"},{"name":"tokenId","type":"uint256","internalType":"uint256"},{"name":"data","type":"bytes","internalType":"bytes"}],"outputs":[],"stateMutability":"nonpayable"},{"type":"function","name":"setApprovalForAll","inputs":[{"name":"operator","type":"address","internalType":"address"},{"name":"approved","type":"bool","internalType":"bool"}],"outputs":[],"stateMutability":"nonpayable"},{"type":"function","name":"supportsInterface","inputs":[{"name":"interfaceId","type":"bytes4","internalType":"bytes4"}],"outputs":[{"name":"","type":"bool","internalType":"bool"}],"stateMutability":"view"},{"type":"function","name":"symbol","inputs":[],"outputs":[{"name":"","type":"string","internalType":"string"}],"stateMutability":"view"},{"type":"function","name":"tokenByIndex","inputs":[{"name":"index","type":"uint256","internalType":"uint256"}],"outputs":[{"name":"","type":"uint256","internalType":"uint256"}],"stateMutability":"view"},{"type":"function","name":"tokenOfOwnerByIndex","inputs":[{"name":"owner","type":"address","internalType":"address"},{"name":"index","type":"uint256","internalType":"uint256"}],"outputs":[{"name":"","type":"uint256","internalType":"uint256"}],"stateMutability":"view"},{"type":"function","name":"tokenURI","inputs":[{"name":"tokenId","type":"uint256","internalType":"uint256"}],"outputs":[{"name":"","type":"string","internalType":"string"}],"stateMutability":"view"},{"type":"function","name":"totalSupply","inputs":[],"outputs":[{"name":"","type":"uint256","internalType":"uint256"}],"stateMutability":"view"},{"type":"function","name":"transferFrom","inputs":[{"name":"from","type":"address","internalType":"address"},{"name":"to","type":"address","internalType":"address"},{"name":"tokenId","type":"uint256","internalType":"uint256"}],"outputs":[],"stateMutability":"nonpayable"},{"type":"event","name":"Approval","inputs":[{"name":"owner","type":"address","indexed":true,"internalType":"address"},{"name":"approved","type":"address","indexed":true,"internalType":"address"},{"name":"tokenId","type":"uint256","indexed":true,"internalType":"uint256"}],"anonymous":false},{"type":"event","name":"ApprovalForAll","inputs":[{"name":"owner","type":"address","indexed":true,"internalType":"address"},{"name":"operator","type":"address","indexed":true,"internalType":"address"},{"name":"approved","type":"bool","indexed":false,"internalType":"bool"}],"anonymous":false},{"type":"event","name":"Collect","inputs":[{"name":"tokenId","type":"uint256","indexed":true,"internalType":"uint256"},{"name":"recipient","type":"address","indexed":false,"internalType":"address"},{"name":"amount0","type":"uint256","indexed":false,"internalType":"uint256"},{"name":"amount1","type":"uint256","indexed":false,"internalType":"uint256"}],"anonymous":false},{"type":"event","name":"DecreaseLiquidity","inputs":[{"name":"tokenId","type":"uint256","indexed":true,"internalType":"uint256"},{"name":"liquidity","type":"uint128","indexed":false,"internalType":"uint128"},{"name":"amount0","type":"uint256","indexed":false,"internalType":"uint256"},{"name":"amount1","type":"uint256","indexed":false,"internalType":"uint256"}],"anonymous":false},{"type":"event","name":"IncreaseLiquidity","inputs":[{"name":"tokenId","type":"uint256","indexed":true,"internalType":"uint256"},{"name":"liquidity","type":"uint128","indexed":false,"internalType":"uint128"},{"name":"amount0","type":"uint256","indexed":false,"internalType":"uint256"},{"name":"amount1","type":"uint256","indexed":false,"internalType":"uint256"}],"anonymous":false},{"type":"event","name":"Transfer","inputs":[{"name":"from","type":"address","indexed":true,"internalType":"address"},{"name":"to","type":"address","indexed":true,"internalType":"address"},{"name":"tokenId","type":"uint256","indexed":true,"internalType":"uint256"}],"anonymous":false},{"type":"error","name":"DeadlineExpired","inputs":[]},{"type":"error","name":"ERC721EnumerableForbiddenBatchMint","inputs":[]},{"type":"error","name":"ERC721IncorrectOwner","inputs":[{"name":"sender","type":"address","internalType":"address"},{"name":"tokenId","type":"uint256","internalType":"uint256"},{"name":"owner","type":"address","internalType":"address"}]},{"type":"error","name":"ERC721InsufficientApproval","inputs":[{"name":"operator","type":"address","internalType":"address"},{"name":"tokenId","type":"uint256","internalType":"uint256"}]},{"type":"error","name":"ERC721InvalidApprover","inputs":[{"name":"approver","type":"address","internalType":"address"}]},{"type":"error","name":"ERC721InvalidOperator","inputs":[{"name":"operator","type":"address","internalType":"address"}]},{"type":"error","name":"ERC721InvalidOwner","inputs":[{"name":"owner","type":"address","internalType":"address"}]},{"type":"error","name":"ERC721InvalidReceiver","inputs":[{"name":"receiver","type":"address","internalType":"address"}]},{"type":"error","name":"ERC721InvalidSender","inputs":[{"name":"sender","type":"address","internalType":"address"}]},{"type":"error","name":"ERC721NonexistentToken","inputs":[{"name":"tokenId","type":"uint256","internalType":"uint256"}]},{"type":"error","name":"ERC721OutOfBoundsIndex","inputs":[{"name":"owner","type":"address","internalType":"address"},{"name":"index","type":"uint256","internalType":"uint256"}]},{"type":"error","name":"InvalidPool","inputs":[]},{"type":"error","name":"InvalidRecipient","inputs":[]},{"type":"error","name":"NotApprovedOrOwner","inputs":[]},{"type":"error","name":"ReentrancyGuardReentrantCall","inputs":[]},{"type":"error","name":"SafeERC20FailedOperation","inputs":[{"name":"token","type":"address","internalType":"address"}]},{"type":"error","name":"SlippageExceeded","inputs":[]}],"bytecode":{"object":"0x60c06040523461039b57612e8e6040813803918261001c8161039f565b93849283398101031261039b5761003e6020610037836103c4565b92016103c4565b90610049604061039f565b91600f83526e212a211021a6102837b9b4ba34b7b760891b6020840152610070604061039f565b600a8152694254422d434c2d504f5360b01b602082015283519092906001600160401b0381116102af575f54600181811c91168015610391575b602082101461029157601f811161032f575b50602094601f82116001146102ce579481929394955f926102c3575b50508160011b915f199060031b1c1916175f555b82516001600160401b0381116102af57600154600181811c911680156102a5575b602082101461029157601f811161022e575b506020601f82116001146101cb57819293945f926101c0575b50508160011b915f199060031b1c1916176001555b60017f9b779b17422d0df92223018b32b4d1fa46e071723d6817e2486d003becc55f00556001600a5560805260a052604051612ab590816103d982396080518181816101b5015281816104ae01528181610920015281816114570152611748015260a05181818161102c01526126c80152f35b015190505f80610138565b601f1982169060015f52805f20915f5b818110610216575095836001959697106101fe575b505050811b0160015561014d565b01515f1960f88460031b161c191690555f80806101f0565b9192602060018192868b0151815501940192016101db565b60015f527fb10e2d527612073b26eecdfd717e6a320cf44b4afac2b0732d9fcbe2b7fa0cf6601f830160051c81019160208410610287575b601f0160051c01905b81811061027c575061011f565b5f815560010161026f565b9091508190610266565b634e487b7160e01b5f52602260045260245ffd5b90607f169061010d565b634e487b7160e01b5f52604160045260245ffd5b015190505f806100d8565b601f198216955f8052805f20915f5b888110610317575083600195969798106102ff575b505050811b015f556100ec565b01515f1960f88460031b161c191690555f80806102f2565b919260206001819286850151815501940192016102dd565b5f80527f290decd9548b62a8d60345a988386fc84ba6bc95484008f6362f93160ef3e563601f830160051c81019160208410610387575b601f0160051c01905b81811061037c57506100bc565b5f815560010161036f565b9091508190610366565b90607f16906100aa565b5f80fd5b6040519190601f01601f191682016001600160401b038111838210176102af57604052565b51906001600160a01b038216820361039b5756fe608080604052600436101561001c575b50361561001a575f80fd5b005b5f905f3560e01c90816301ffc9a714611b055750806306fdde0314611a4d578063081812fc14611a11578063095ea7b3146119275780630c49ccbe146116bd57806318160ddd146116a0578063219f5d17146113cc57806323b872dd146113b55780632f745c591461134357806342842e0e1461131a57806342966c681461105b5780634aa4a4fc146110175780634f6ccce714610fc95780636352211e14610f995780636d70c415146108b057806370a082311461088557806395d89b411461077d57806399fbab8814610619578063a22cb46514610565578063b88d4fde146104dd578063c45a015514610499578063c87b56dd14610440578063e985e9c5146103e85763fc6f78650361000f57346103e55760803660031901126103e5576101456121c2565b60043590818152600b6020526040812061016983610162816121a0565b33906121fa565b156103d657805460018201546040516328af8d0b60e01b81526001600160a01b039283166004820152918116602483015260a081901c60020b60448301529390602081806064810103817f00000000000000000000000000000000000000000000000000000000000000006001600160a01b03165afa9081156103cb57849161039c575b506101f6611fe9565b94604435956001600160801b038716968781036103985750606435906001600160801b038216918281036103985760409460a49389925086519a8b9687956309e3d67b60e31b875260018060a01b031660048701528060b81c60020b602487015260d01c60020b60448601526064850152608484015260018060a01b03165af191821561038d576040948493610352575b5060056102ed91016001600160801b036102a681871682845416611cba565b166001600160801b03198254161781556102cd6001600160801b038516825460801c611cba565b81546001600160801b031660809190911b6001600160801b031916179055565b7f40d0efd1a53d60ecbf40971b9daf7dc90178c3aadc7aab1765632738fa8b8f016060610318611fe9565b86516001600160a01b03909116815260208101869052808701859052a260015f516020612a605f395f51905f525582519182526020820152f35b600594506102ed91935061037b90863d8811610386575b6103738183611c31565b810190611ca4565b949094939150610287565b503d610369565b6040513d85823e3d90fd5b5f80fd5b6103be915060203d6020116103c4575b6103b68183611c31565b810190611c6f565b5f6101ed565b503d6103ac565b6040513d86823e3d90fd5b63390cdd9b60e21b8252600482fd5b80fd5b50346103e55760403660031901126103e5576040610404611bae565b9161040d611bc4565b9260018060a01b031681526005602052209060018060a01b03165f52602052602060ff60405f2054166040519015158152f35b346103985760203660031901126103985761045c6004356121a0565b505f60405161046c602082611c31565b5261049560405161047e602082611c31565b5f8152604051918291602083526020830190611b8a565b0390f35b34610398575f366003190112610398576040517f00000000000000000000000000000000000000000000000000000000000000006001600160a01b03168152602090f35b34610398576080366003190112610398576104f6611bae565b6104fe611bc4565b6064359167ffffffffffffffff831161039857366023840112156103985782600401359161052b83611c53565b926105396040519485611c31565b8084523660248287010111610398576020815f92602461001a9801838801378501015260443591612060565b346103985760403660031901126103985761057e611bae565b60243590811515809203610398573315610606576001600160a01b03169081156105f357335f52600560205260405f20825f5260205260405f2060ff1981541660ff83161790556040519081527f17307eab39ab6107e8899845ad3d59bd9653f200f220920489ca2b5937696c3160203392a3005b50630b61174360e31b5f5260045260245ffd5b63a9fbf51f60e01b5f525f60045260245ffd5b34610398576020366003190112610398575f61012060405161063a81611c14565b8281528260208201528260408201528260608201528260808201528260a08201528260c08201528260e08201528261010082015201526004355f52600b60205261014060405f206001600160801b036040519161069683611c14565b8160018060a01b0382541693848152600183015492602082019360018060a01b03811685528360408401918060a01c60020b835260608501908060b81c60020b8252608086019060d01c60020b8152826002860154169160a0870192835260038601549460c08801958652600560048801549760e08a019889520154996101206101008a0199878d168b52019a60801c8b526040519c8d5260018060a01b0390511660208d01525160020b60408c01525160020b60608b01525160020b60808a0152511660a08801525160c08701525160e086015251166101008401525116610120820152f35b34610398575f366003190112610398576040515f6001548060011c9060018116801561087b575b6020831081146108675782855290811561084357506001146107e5575b610495836107d181850382611c31565b604051918291602083526020830190611b8a565b91905060015f527fb10e2d527612073b26eecdfd717e6a320cf44b4afac2b0732d9fcbe2b7fa0cf6915f905b808210610829575090915081016020016107d16107c1565b919260018160209254838588010152019101909291610811565b60ff191660208086019190915291151560051b840190910191506107d190506107c1565b634e487b7160e01b5f52602260045260245ffd5b91607f16916107a4565b346103985760203660031901126103985760206108a86108a3611bae565b61202f565b604051908152f35b610160366003190112610398576108c56121c2565b610144354211610f8a576108d7611fd3565b60206108e1611fe9565b6108e9611fff565b6040516328af8d0b60e01b81526001600160a01b039485166004820152918416602483015260020b604482015291829060649082907f0000000000000000000000000000000000000000000000000000000000000000165afa908115610f1b575f91610f6b575b506001600160a01b0381168015610f5d57604051633850c7bd60e01b815291606083600481855afa928315610f1b575f93610f26575b506109dd9061099b61099661200f565b612285565b906109cf6109be6109ad61099661201f565b9660a435809860c435968793612623565b95826109c8611fd3565b33906126be565b336109d8611fe9565b6126be565b6040826109e861200f565b926109f161201f565b5f84519533602088015260208752610a098688611c31565b610a29865197889687958694633c8a7d8d60e01b86523060048701611d39565b03925af1908115610f1b575f905f92610ef9575b5060e43581108015610eed575b610ede57600a54925f198414610df35760018401600a55610124356001600160a01b038116808203610398578015610ecb575f868152600260205260409020546001600160a01b031680158015939192919084610e98575b825f52600360205260405f2060018154019055885f52600260205260405f20836001600160601b0360a01b8254161790558883857fddf252ad1be2c89b69c2b068fc378daa952ba7f163c4a11628f55a4df523b3ef5f80a415610e1b57600854885f5260096020528060405f2055600160401b811015610e075788610b30826001610b489401600855611fa7565b90919082549060031b91821b915f19901b1916179055565b818303610db3575b505050610da057838383610b62611fd3565b93610b6b611fe9565b94610b74611fff565b610b7c61200f565b91610b8561201f565b9260405191610b9383611c14565b600160a01b600190031682526020820198600160a01b60019003168952604082019260020b8352606082019060020b8152608082019360020b845260a08201986001600160801b038616998a815260c08401915f835260e08501935f85526101008601975f89526101208701975f89528d5f52600b60205260405f2097600160a01b6001900390600160a01b60019003905116166001600160601b0360a01b8954161788556001880193600160a01b6001900390600160a01b60019003905116166001600160601b0360a01b85541617845551918354905160b81b915160d01b62ffffff60d01b169262ffffff60a01b9060a01b169068ffffffffffffffffff60a01b1916179062ffffff60b81b1617179055516001600160801b031660028401906001600160801b03166001600160801b031982541617905551600383015551600482015560050191516001600160801b03166001600160801b03166001600160801b0319835416178255516001600160801b0316610d2791906001600160801b0382549181199060801b169116179055565b604051928392610d5192846040919493926001600160801b03606083019616825260208201520152565b037f3067048beee31b25b2f1681f88dac838c8bba36af25bfb2b7cf7473a5847e35f91a260015f516020612a605f395f51905f5255604051938452602084015260408301526060820152608090f35b6339e3563760e11b5f525f60045260245ffd5b610dbc9061202f565b5f19810191908211610df3575f52600660205260405f20815f526020528660405f2055865f52600760205260405f20558680610b50565b634e487b7160e01b5f52601160045260245ffd5b634e487b7160e01b5f52604160045260245ffd5b828214610b4857610e2b8361202f565b885f52600760205260405f205490845f52600660205260405f2091818103610e6d575b50895f5260076020525f60408120555f526020525f6040812055610b48565b815f528260205260405f2054815f52836020528060405f20555f52600760205260405f20558a610e4e565b5f89815260046020526040902080546001600160a01b0319169055835f52600360205260405f205f198154019055610aa2565b633250574960e11b5f525f60045260245ffd5b638199f5f360e01b5f5260045ffd5b50610104358210610a4a565b9050610f14915060403d604011610386576103738183611c31565b9083610a3d565b6040513d5f823e3d90fd5b6109dd919350610f4d9060603d606011610f56575b610f458183611c31565b810190611cfa565b50509290610986565b503d610f3b565b62820f3560e61b5f5260045ffd5b610f84915060203d6020116103c4576103b68183611c31565b81610950565b631ab7da6b60e01b5f5260045ffd5b34610398576020366003190112610398576020610fb76004356121a0565b6040516001600160a01b039091168152f35b346103985760203660031901126103985760043560085481101561100157610ff2602091611fa7565b90549060031b1c604051908152f35b63295f44f760e21b5f525f60045260245260445ffd5b34610398575f366003190112610398576040517f00000000000000000000000000000000000000000000000000000000000000006001600160a01b03168152602090f35b34610398576020366003190112610398576004356110776121c2565b61108481610162816121a0565b1561130b57805f52600b60205260405f206001600160801b0360028201541615908115916112f4575b81156112e3575b50610f5d57805f52600b6020525f6005604082208281558260018201558260028201558260038201558260048201550155805f52600260205260018060a01b0360405f2054168015908115806112b0575b5f84815260026020526040812080546001600160a01b03191690558490837fddf252ad1be2c89b69c2b068fc378daa952ba7f163c4a11628f55a4df523b3ef8280a482156112355750600854835f5260096020528060405f2055600160401b811015610e075783610b3082600161117f9401600855611fa7565b6008545f198101908111610df357835f5260096020526111a360405f205491611fa7565b90549060031b1c6111b781610b3084611fa7565b5f52600960205260405f2055825f5260096020525f60408120556008548015611221575f19016111e681611fa7565b8154905f199060031b1b191690556008555061120f5760015f516020612a605f395f51905f5255005b637e27328960e01b5f5260045260245ffd5b634e487b7160e01b5f52603160045260245ffd5b1561117f576112438161202f565b835f52600760205260405f205490825f52600660205260405f2091818103611285575b50845f5260076020525f60408120555f526020525f604081205561117f565b815f528260205260405f2054815f52836020528060405f20555f52600760205260405f205585611266565b5f84815260046020526040902080546001600160a01b0319169055815f52600360205260405f205f198154019055611105565b60059150015460801c1515826110b4565b60058101546001600160801b0316151591506110ad565b63390cdd9b60e21b5f5260045ffd5b346103985761001a61132b36611bda565b906040519261133b602085611c31565b5f8452612060565b346103985760403660031901126103985761135c611bae565b602435906113698161202f565b8210156113985760018060a01b03165f52600660205260405f20905f52602052602060405f2054604051908152f35b63295f44f760e21b5f5260018060a01b031660045260245260445ffd5b346103985761001a6113c636611bda565b91611d7b565b60c0366003190112610398576113e06121c2565b60a4354211610f8a57600435805f52600b60205260405f2061140582610162816121a0565b1561130b5780546001820180546040516328af8d0b60e01b81526001600160a01b0393841660048201819052938216602482015260a082901c60020b60448201529492939291602086806064810103817f00000000000000000000000000000000000000000000000000000000000000006001600160a01b03165afa958615610f1b575f9661167f575b50604051633850c7bd60e01b8152916001600160a01b0387169190606084600481865afa908115610f1b576115639861150b61151d936040975f9161165e575b50826115036114f26114e68760b81c60020b612285565b9660d01c60020b612285565b926024358094604435988993612623565b9b33906126be565b835433906001600160a01b03166126be565b5490855f845193336020860152602085526115388686611c31565b8551998a9586948593633c8a7d8d60e01b85528060d01c60020b9060b81c60020b3060048701611d39565b03925af1908115610f1b575f945f9261163a575b506064358510801561162f575b610ede57600261049593016001600160801b036115a48682845416611cda565b82546001600160801b0319169116179055604080516001600160801b0386168152602081018790529081018390527f3067048beee31b25b2f1681f88dac838c8bba36af25bfb2b7cf7473a5847e35f90606090a260015f516020612a605f395f51905f5255604051938493846040919493926001600160801b03606083019616825260208201520152565b506084358210611584565b909450611656915060403d604011610386576103738183611c31565b909385611577565b611677915060603d606011610f5657610f458183611c31565b50508c6114cf565b61169991965060203d6020116103c4576103b68183611c31565b948661148f565b34610398575f366003190112610398576020600854604051908152f35b346103985760a0366003190112610398576116d66121c2565b6084354211610f8a57600435805f52600b60205260405f20906116fc81610162816121a0565b1561130b57815460018301546040516328af8d0b60e01b81526001600160a01b039283166004820152918116602483015260a081901c60020b60448301529190602081806064810103817f00000000000000000000000000000000000000000000000000000000000000006001600160a01b03165afa8015610f1b576001600160801b03936040925f92611903575b506064905f611798611c8e565b938551978895869463a34123a760e01b86528060b81c60020b600487015260d01c60020b602486015216604484015260018060a01b03165af1908115610f1b575f925f926118df575b50604435831080156118d4575b610ede5761186a6005604095611802611c8e565b6001600160801b0361181b600284019282845416611cba565b166001600160801b0319825416179055016001600160801b0361184381871682845416611cda565b166001600160801b03198254161781556102cd6001600160801b038516825460801c611cda565b7f26f6a048ee9138f2c0ce266f322cb99228e8d619ae2bff30c67f8dcf9d2377b483611894611c8e565b86516001600160801b03919091168152602081019190915260408101849052606090a260015f516020612a605f395f51905f525582519182526020820152f35b5060643582106117ee565b9092506118fb915060403d604011610386576103738183611c31565b9091846117e1565b60649192506119209060203d6020116103c4576103b68183611c31565b919061178b565b3461039857604036600319011261039857611940611bae565b60243561194c816121a0565b331515806119fe575b806119d1575b6119be5781906001600160a01b0384811691167f8c5be1e5ebec7d5bd14f71427d1e84f3dd0314c0f7b2291e5b200ac8c7c3b9255f80a45f90815260046020526040902080546001600160a01b0319166001600160a01b03909216919091179055005b63a9fbf51f60e01b5f523360045260245ffd5b506001600160a01b0381165f90815260056020908152604080832033845290915290205460ff161561195b565b506001600160a01b038116331415611955565b3461039857602036600319011261039857600435611a2e816121a0565b505f526004602052602060018060a01b0360405f205416604051908152f35b34610398575f366003190112610398576040515f5f548060011c90600181168015611afb575b602083108114610867578285529081156108435750600114611a9f57610495836107d181850382611c31565b5f8080527f290decd9548b62a8d60345a988386fc84ba6bc95484008f6362f93160ef3e563939250905b808210611ae1575090915081016020016107d16107c1565b919260018160209254838588010152019101909291611ac9565b91607f1691611a73565b34610398576020366003190112610398576004359063ffffffff60e01b82168092036103985760209163780e9d6360e01b8114908115611b47575b5015158152f35b6380ac58cd60e01b811491508115611b79575b8115611b68575b5083611b40565b6301ffc9a760e01b14905083611b61565b635b5e139f60e01b81149150611b5a565b805180835260209291819084018484015e5f828201840152601f01601f1916010190565b600435906001600160a01b038216820361039857565b602435906001600160a01b038216820361039857565b6060906003190112610398576004356001600160a01b038116810361039857906024356001600160a01b0381168103610398579060443590565b610140810190811067ffffffffffffffff821117610e0757604052565b90601f8019910116810190811067ffffffffffffffff821117610e0757604052565b67ffffffffffffffff8111610e0757601f01601f191660200190565b9081602091031261039857516001600160a01b03811681036103985790565b6024356001600160801b03811681036103985790565b9190826040910312610398576020825192015190565b906001600160801b03809116911603906001600160801b038211610df357565b906001600160801b03809116911601906001600160801b038211610df357565b908160609103126103985780516001600160a01b0381168103610398579160208201518060020b81036103985760409092015180151581036103985790565b919360a093611d7896956001600160801b0393600180881b0316855260020b602085015260020b60408401521660608201528160808201520190611b8a565b90565b9091906001600160a01b0383168015610ecb575f838152600260205260409020546001600160a01b03169333611f6a575b84158015611f37575b825f52600360205260405f2060018154019055845f52600260205260405f20836001600160601b0360a01b8254161790558483877fddf252ad1be2c89b69c2b068fc378daa952ba7f163c4a11628f55a4df523b3ef5f80a415611eba57600854845f5260096020528060405f2055600160401b811015610e075784610b30826001611e439401600855611fa7565b818503611e7a575b50506001600160a01b0316808303611e6257505050565b6364283d7b60e01b5f5260045260245260445260645ffd5b611e839061202f565b5f19810191908211610df3575f52600660205260405f20815f526020528260405f2055825f52600760205260405f20555f80611e4b565b848214611e4357611eca8561202f565b845f52600760205260405f205490865f52600660205260405f2091818103611f0c575b50855f5260076020525f60408120555f526020525f6040812055611e43565b815f528260205260405f2054815f52836020528060405f20555f52600760205260405f20555f611eed565b5f85815260046020526040902080546001600160a01b0319169055855f52600360205260405f205f198154019055611db5565b611f758433876121fa565b611dac578385611f9157637e27328960e01b5f5260045260245ffd5b63177e802f60e01b5f523360045260245260445ffd5b600854811015611fbf5760085f5260205f2001905f90565b634e487b7160e01b5f52603260045260245ffd5b6004356001600160a01b03811681036103985790565b6024356001600160a01b03811681036103985790565b6044358060020b81036103985790565b6064358060020b81036103985790565b6084358060020b81036103985790565b6001600160a01b0316801561204d575f52600360205260405f205490565b6322718ad960e21b5f525f60045260245ffd5b929161206d818386611d7b565b813b61207a575b50505050565b604051630a85bd0160e11b81523360048201526001600160a01b03948516602482015260448101919091526080606482015292169190602090829081906120c5906084830190611b8a565b03815f865af15f918161215b575b5061212857503d15612121573d6120e981611c53565b906120f76040519283611c31565b81523d5f602083013e5b8051908161211c5782633250574960e11b5f5260045260245ffd5b602001fd5b6060612101565b6001600160e01b03191663757a42ff60e11b0161214957505f808080612074565b633250574960e11b5f5260045260245ffd5b9091506020813d602011612198575b8161217760209383611c31565b8101031261039857516001600160e01b03198116810361039857905f6120d3565b3d915061216a565b5f818152600260205260409020546001600160a01b031690811561120f575090565b60025f516020612a605f395f51905f5254146121eb5760025f516020612a605f395f51905f5255565b633ee5aeb560e01b5f5260045ffd5b6001600160a01b03909116801515929183612216575b50505090565b6001600160a01b031680821493509091908315612262575b508215612240575b50505f8080612210565b5f908152600460205260408120546001600160a01b0316909114915080612236565b9092505f52600560205260405f20815f5260205260ff60405f205416915f61222e565b60020b5f81121561261d57805f03905b620d89e882116125f45760018216156125e2576001600160881b036ffffcb933bd6fad37aa2d162d1a5940015b1691600281166125c6575b600481166125aa575b6008811661258e575b60108116612572575b60208116612556575b6040811661253a575b6080811661251e575b6101008116612502575b61020081166124e6575b61040081166124ca575b61080081166124ae575b6110008116612492575b6120008116612476575b614000811661245a575b618000811661243e575b620100008116612422575b620200008116612407575b6204000081166123ec575b62080000166123d3575b5f126123b1575b63ffffffff81166123a9575f905b60201c60ff91909116016001600160a01b031690565b600190612393565b80156123bf575f1904612385565b634e487b7160e01b5f52601260045260245ffd5b6b048a170391f7dc42444e8fa290910260801c9061237e565b6d2216e584f5fa1ea926041bedfe9890920260801c91612374565b916e5d6af8dedb81196699c329225ee6040260801c91612369565b916f09aa508b5b7a84e1c677de54f3e99bc90260801c9161235e565b916f31be135f97d08fd981231505542fcfa60260801c91612353565b916f70d869a156d2a1b890bb3df62baf32f70260801c91612349565b916fa9f746462d870fdf8a65dc1f90e061e50260801c9161233f565b916fd097f3bdfd2022b8845ad8f792aa58250260801c91612335565b916fe7159475a2c29b7443b29c7fa6e889d90260801c9161232b565b916ff3392b0822b70005940c7a398e4b70f30260801c91612321565b916ff987a7253ac413176f2b074cf7815e540260801c91612317565b916ffcbe86c7900a88aedcffc83b479aa3a40260801c9161230d565b916ffe5dee046a99a2a811c461f1969c30530260801c91612303565b916fff2ea16466c96a3843ec78b326b528610260801c916122fa565b916fff973b41fa98c081472e6896dfb254c00260801c916122f1565b916fffcb9843d60f6159c9db58835c9266440260801c916122e8565b916fffe5caca7e10e4e61c3624eaa0941cd00260801c916122df565b916ffff2e50f5f656932ef12357cf3c7fdcc0260801c916122d6565b916ffff97272373d413259a46990580e213a0260801c916122cd565b6001600160881b03600160801b6122c2565b60405162461bcd60e51b81526020600482015260016024820152601560fa1b6044820152606490fd5b80612295565b936001600160a01b03838116908316116126b6575b6001600160a01b03858116959083168611612659575050611d7893506128a6565b919490939192906001600160a01b03821611156126aa5782916126809161268695946128a6565b9361285f565b6001600160801b0381166001600160801b038316105f146126a5575090565b905090565b915050611d789261285f565b909190612638565b6001600160a01b037f0000000000000000000000000000000000000000000000000000000000000000811693929116908184148061283c575b156127b5575050813b1561039857604051630d0e30db60e41b81525f9390848160048185885af18015610f1b576127a0575b5060405163a9059cbb60e01b85526001600160a01b0390921660045260245260208360448180865af190600184511482161561277f575b6040521561276c575050565b635274afe760e01b825260045260249150fd5b90600181151661279757823b15153d15161690612760565b503d83823e3d90fd5b6127ad9194505f90611c31565b5f925f612729565b6040516323b872dd60e01b5f9081526001600160a01b039283166004529390911660245260449490945292915060209060648180865af19060015f511482161561281b575b6040525f606052156128095750565b635274afe760e01b5f5260045260245ffd5b90600181151661283357823b15153d151616906127fa565b503d5f823e3d90fd5b50843410156126f7565b6001600160a01b039182169082160391908211610df357565b6001600160801b039261289c9290916001600160a01b03808316908216116128a0575b6001600160a01b03916128959190612846565b16906128ff565b1690565b90612882565b6001600160801b039261289c929091906001600160a01b03808216908316116128f9575b6128f26128e36001600160a01b0383811690851661298d565b926001600160a01b0392612846565b16916129da565b906128ca565b5f19600160601b8209918160601b918280851094039380850394146129805783821115610398578190600160601b9009815f0382168092046002816003021880820260020302808202600203028082026002030280820260020302808202600203028091026002030293600183805f03040190848311900302920304170290565b5080925015610398570490565b5f91905f1982820991808202938480851094039380850394146129d057600160601b8410156103e55750600160601b910990828211900360a01b910360601c1790565b5050505060601c90565b915f198284099282810292838086109503948086039514612a51578483111561039857829109815f0382168092046002816003021880820260020302808202600203028082026002030280820260020302808202600203028091026002030293600183805f03040190848311900302920304170290565b50508092501561039857049056fe9b779b17422d0df92223018b32b4d1fa46e071723d6817e2486d003becc55f00a26469706673582212203dfeac5d814cf4ab5ab22281385ecd3f97e20da70c6c55f8b95447bd55d8831964736f6c634300081b0033","linkReferences":{}},"methodIdentifiers":{"WETH9()":"4aa4a4fc","approve(address,uint256)":"095ea7b3","balanceOf(address)":"70a08231","burn(uint256)":"42966c68","collect((uint256,address,uint128,uint128))":"fc6f7865","decreaseLiquidity((uint256,uint128,uint256,uint256,uint256))":"0c49ccbe","factory()":"c45a0155","getApproved(uint256)":"081812fc","increaseLiquidity((uint256,uint256,uint256,uint256,uint256,uint256))":"219f5d17","isApprovedForAll(address,address)":"e985e9c5","mint((address,address,int24,int24,int24,uint256,uint256,uint256,uint256,address,uint256))":"6d70c415","name()":"06fdde03","ownerOf(uint256)":"6352211e","positions(uint256)":"99fbab88","safeTransferFrom(address,address,uint256)":"42842e0e","safeTransferFrom(address,address,uint256,bytes)":"b88d4fde","setApprovalForAll(address,bool)":"a22cb465","supportsInterface(bytes4)":"01ffc9a7","symbol()":"95d89b41","tokenByIndex(uint256)":"4f6ccce7","tokenOfOwnerByIndex(address,uint256)":"2f745c59","tokenURI(uint256)":"c87b56dd","totalSupply()":"18160ddd","transferFrom(address,address,uint256)":"23b872dd"},"id":113}