{"abi":[{"type":"constructor","inputs":[],"stateMutability":"nonpayable"},{"type":"function","name":"CLOCK_MODE","inputs":[],"outputs":[{"name":"","type":"string","internalType":"string"}],"stateMutability":"pure"},{"type":"function","name":"DOMAIN_SEPARATOR","inputs":[],"outputs":[{"name":"","type":"bytes32","internalType":"bytes32"}],"stateMutability":"view"},{"type":"function","name":"MAX_SUPPLY","inputs":[],"outputs":[{"name":"","type":"uint256","internalType":"uint256"}],"stateMutability":"view"},{"type":"function","name":"UPGRADE_INTERFACE_VERSION","inputs":[],"outputs":[{"name":"","type":"string","internalType":"string"}],"stateMutability":"view"},{"type":"function","name":"allowance","inputs":[{"name":"owner","type":"address","internalType":"address"},{"name":"spender","type":"address","internalType":"address"}],"outputs":[{"name":"","type":"uint256","internalType":"uint256"}],"stateMutability":"view"},{"type":"function","name":"approve","inputs":[{"name":"spender","type":"address","internalType":"address"},{"name":"value","type":"uint256","internalType":"uint256"}],"outputs":[{"name":"","type":"bool","internalType":"bool"}],"stateMutability":"nonpayable"},{"type":"function","name":"balanceOf","inputs":[{"name":"account","type":"address","internalType":"address"}],"outputs":[{"name":"","type":"uint256","internalType":"uint256"}],"stateMutability":"view"},{"type":"function","name":"burn","inputs":[{"name":"value","type":"uint256","internalType":"uint256"}],"outputs":[],"stateMutability":"nonpayable"},{"type":"function","name":"burnFrom","inputs":[{"name":"account","type":"address","internalType":"address"},{"name":"value","type":"uint256","internalType":"uint256"}],"outputs":[],"stateMutability":"nonpayable"},{"type":"function","name":"checkpoints","inputs":[{"name":"account","type":"address","internalType":"address"},{"name":"pos","type":"uint32","internalType":"uint32"}],"outputs":[{"name":"","type":"tuple","internalType":"struct Checkpoints.Checkpoint208","components":[{"name":"_key","type":"uint48","internalType":"uint48"},{"name":"_value","type":"uint208","internalType":"uint208"}]}],"stateMutability":"view"},{"type":"function","name":"clock","inputs":[],"outputs":[{"name":"","type":"uint48","internalType":"uint48"}],"stateMutability":"view"},{"type":"function","name":"decimals","inputs":[],"outputs":[{"name":"","type":"uint8","internalType":"uint8"}],"stateMutability":"view"},{"type":"function","name":"delegate","inputs":[{"name":"delegatee","type":"address","internalType":"address"}],"outputs":[],"stateMutability":"nonpayable"},{"type":"function","name":"delegateBySig","inputs":[{"name":"delegatee","type":"address","internalType":"address"},{"name":"nonce","type":"uint256","internalType":"uint256"},{"name":"expiry","type":"uint256","internalType":"uint256"},{"name":"v","type":"uint8","internalType":"uint8"},{"name":"r","type":"bytes32","internalType":"bytes32"},{"name":"s","type":"bytes32","internalType":"bytes32"}],"outputs":[],"stateMutability":"nonpayable"},{"type":"function","name":"delegates","inputs":[{"name":"account","type":"address","internalType":"address"}],"outputs":[{"name":"","type":"address","internalType":"address"}],"stateMutability":"view"},{"type":"function","name":"eip712Domain","inputs":[],"outputs":[{"name":"fields","type":"bytes1","internalType":"bytes1"},{"name":"name","type":"string","internalType":"string"},{"name":"version","type":"string","internalType":"string"},{"name":"chainId","type":"uint256","internalType":"uint256"},{"name":"verifyingContract","type":"address","internalType":"address"},{"name":"salt","type":"bytes32","internalType":"bytes32"},{"name":"extensions","type":"uint256[]","internalType":"uint256[]"}],"stateMutability":"view"},{"type":"function","name":"getPastTotalSupply","inputs":[{"name":"timepoint","type":"uint256","internalType":"uint256"}],"outputs":[{"name":"","type":"uint256","internalType":"uint256"}],"stateMutability":"view"},{"type":"function","name":"getPastVotes","inputs":[{"name":"account","type":"address","internalType":"address"},{"name":"timepoint","type":"uint256","internalType":"uint256"}],"outputs":[{"name":"","type":"uint256","internalType":"uint256"}],"stateMutability":"view"},{"type":"function","name":"getVotes","inputs":[{"name":"account","type":"address","internalType":"address"}],"outputs":[{"name":"","type":"uint256","internalType":"uint256"}],"stateMutability":"view"},{"type":"function","name":"initialize","inputs":[{"name":"initialOwner","type":"address","internalType":"address"},{"name":"initialMinter","type":"address","internalType":"address"}],"outputs":[],"stateMutability":"nonpayable"},{"type":"function","name":"mint","inputs":[{"name":"to","type":"address","internalType":"address"},{"name":"amount","type":"uint256","internalType":"uint256"}],"outputs":[],"stateMutability":"nonpayable"},{"type":"function","name":"minter","inputs":[],"outputs":[{"name":"","type":"address","internalType":"address"}],"stateMutability":"view"},{"type":"function","name":"name","inputs":[],"outputs":[{"name":"","type":"string","internalType":"string"}],"stateMutability":"view"},{"type":"function","name":"nonces","inputs":[{"name":"owner","type":"address","internalType":"address"}],"outputs":[{"name":"","type":"uint256","internalType":"uint256"}],"stateMutability":"view"},{"type":"function","name":"numCheckpoints","inputs":[{"name":"account","type":"address","internalType":"address"}],"outputs":[{"name":"","type":"uint32","internalType":"uint32"}],"stateMutability":"view"},{"type":"function","name":"owner","inputs":[],"outputs":[{"name":"","type":"address","internalType":"address"}],"stateMutability":"view"},{"type":"function","name":"permit","inputs":[{"name":"owner","type":"address","internalType":"address"},{"name":"spender","type":"address","internalType":"address"},{"name":"value","type":"uint256","internalType":"uint256"},{"name":"deadline","type":"uint256","internalType":"uint256"},{"name":"v","type":"uint8","internalType":"uint8"},{"name":"r","type":"bytes32","internalType":"bytes32"},{"name":"s","type":"bytes32","internalType":"bytes32"}],"outputs":[],"stateMutability":"nonpayable"},{"type":"function","name":"proxiableUUID","inputs":[],"outputs":[{"name":"","type":"bytes32","internalType":"bytes32"}],"stateMutability":"view"},{"type":"function","name":"renounceOwnership","inputs":[],"outputs":[],"stateMutability":"nonpayable"},{"type":"function","name":"setMinter","inputs":[{"name":"newMinter","type":"address","internalType":"address"}],"outputs":[],"stateMutability":"nonpayable"},{"type":"function","name":"symbol","inputs":[],"outputs":[{"name":"","type":"string","internalType":"string"}],"stateMutability":"view"},{"type":"function","name":"totalSupply","inputs":[],"outputs":[{"name":"","type":"uint256","internalType":"uint256"}],"stateMutability":"view"},{"type":"function","name":"transfer","inputs":[{"name":"to","type":"address","internalType":"address"},{"name":"value","type":"uint256","internalType":"uint256"}],"outputs":[{"name":"","type":"bool","internalType":"bool"}],"stateMutability":"nonpayable"},{"type":"function","name":"transferFrom","inputs":[{"name":"from","type":"address","internalType":"address"},{"name":"to","type":"address","internalType":"address"},{"name":"value","type":"uint256","internalType":"uint256"}],"outputs":[{"name":"","type":"bool","internalType":"bool"}],"stateMutability":"nonpayable"},{"type":"function","name":"transferOwnership","inputs":[{"name":"newOwner","type":"address","internalType":"address"}],"outputs":[],"stateMutability":"nonpayable"},{"type":"function","name":"upgradeToAndCall","inputs":[{"name":"newImplementation","type":"address","internalType":"address"},{"name":"data","type":"bytes","internalType":"bytes"}],"outputs":[],"stateMutability":"payable"},{"type":"event","name":"Approval","inputs":[{"name":"owner","type":"address","indexed":true,"internalType":"address"},{"name":"spender","type":"address","indexed":true,"internalType":"address"},{"name":"value","type":"uint256","indexed":false,"internalType":"uint256"}],"anonymous":false},{"type":"event","name":"DelegateChanged","inputs":[{"name":"delegator","type":"address","indexed":true,"internalType":"address"},{"name":"fromDelegate","type":"address","indexed":true,"internalType":"address"},{"name":"toDelegate","type":"address","indexed":true,"internalType":"address"}],"anonymous":false},{"type":"event","name":"DelegateVotesChanged","inputs":[{"name":"delegate","type":"address","indexed":true,"internalType":"address"},{"name":"previousVotes","type":"uint256","indexed":false,"internalType":"uint256"},{"name":"newVotes","type":"uint256","indexed":false,"internalType":"uint256"}],"anonymous":false},{"type":"event","name":"EIP712DomainChanged","inputs":[],"anonymous":false},{"type":"event","name":"Initialized","inputs":[{"name":"version","type":"uint64","indexed":false,"internalType":"uint64"}],"anonymous":false},{"type":"event","name":"MinterSet","inputs":[{"name":"oldMinter","type":"address","indexed":true,"internalType":"address"},{"name":"newMinter","type":"address","indexed":true,"internalType":"address"}],"anonymous":false},{"type":"event","name":"OwnershipTransferred","inputs":[{"name":"previousOwner","type":"address","indexed":true,"internalType":"address"},{"name":"newOwner","type":"address","indexed":true,"internalType":"address"}],"anonymous":false},{"type":"event","name":"Transfer","inputs":[{"name":"from","type":"address","indexed":true,"internalType":"address"},{"name":"to","type":"address","indexed":true,"internalType":"address"},{"name":"value","type":"uint256","indexed":false,"internalType":"uint256"}],"anonymous":false},{"type":"event","name":"Upgraded","inputs":[{"name":"implementation","type":"address","indexed":true,"internalType":"address"}],"anonymous":false},{"type":"error","name":"AddressEmptyCode","inputs":[{"name":"target","type":"address","internalType":"address"}]},{"type":"error","name":"CheckpointUnorderedInsertion","inputs":[]},{"type":"error","name":"ECDSAInvalidSignature","inputs":[]},{"type":"error","name":"ECDSAInvalidSignatureLength","inputs":[{"name":"length","type":"uint256","internalType":"uint256"}]},{"type":"error","name":"ECDSAInvalidSignatureS","inputs":[{"name":"s","type":"bytes32","internalType":"bytes32"}]},{"type":"error","name":"ERC1967InvalidImplementation","inputs":[{"name":"implementation","type":"address","internalType":"address"}]},{"type":"error","name":"ERC1967NonPayable","inputs":[]},{"type":"error","name":"ERC20ExceededSafeSupply","inputs":[{"name":"increasedSupply","type":"uint256","internalType":"uint256"},{"name":"cap","type":"uint256","internalType":"uint256"}]},{"type":"error","name":"ERC20InsufficientAllowance","inputs":[{"name":"spender","type":"address","internalType":"address"},{"name":"allowance","type":"uint256","internalType":"uint256"},{"name":"needed","type":"uint256","internalType":"uint256"}]},{"type":"error","name":"ERC20InsufficientBalance","inputs":[{"name":"sender","type":"address","internalType":"address"},{"name":"balance","type":"uint256","internalType":"uint256"},{"name":"needed","type":"uint256","internalType":"uint256"}]},{"type":"error","name":"ERC20InvalidApprover","inputs":[{"name":"approver","type":"address","internalType":"address"}]},{"type":"error","name":"ERC20InvalidReceiver","inputs":[{"name":"receiver","type":"address","internalType":"address"}]},{"type":"error","name":"ERC20InvalidSender","inputs":[{"name":"sender","type":"address","internalType":"address"}]},{"type":"error","name":"ERC20InvalidSpender","inputs":[{"name":"spender","type":"address","internalType":"address"}]},{"type":"error","name":"ERC2612ExpiredSignature","inputs":[{"name":"deadline","type":"uint256","internalType":"uint256"}]},{"type":"error","name":"ERC2612InvalidSigner","inputs":[{"name":"signer","type":"address","internalType":"address"},{"name":"owner","type":"address","internalType":"address"}]},{"type":"error","name":"ERC5805FutureLookup","inputs":[{"name":"timepoint","type":"uint256","internalType":"uint256"},{"name":"clock","type":"uint48","internalType":"uint48"}]},{"type":"error","name":"ERC6372InconsistentClock","inputs":[]},{"type":"error","name":"FailedCall","inputs":[]},{"type":"error","name":"InvalidAccountNonce","inputs":[{"name":"account","type":"address","internalType":"address"},{"name":"currentNonce","type":"uint256","internalType":"uint256"}]},{"type":"error","name":"InvalidInitialization","inputs":[]},{"type":"error","name":"MaxSupplyExceeded","inputs":[]},{"type":"error","name":"NotInitializing","inputs":[]},{"type":"error","name":"NotMinter","inputs":[]},{"type":"error","name":"OwnableInvalidOwner","inputs":[{"name":"owner","type":"address","internalType":"address"}]},{"type":"error","name":"OwnableUnauthorizedAccount","inputs":[{"name":"account","type":"address","internalType":"address"}]},{"type":"error","name":"SafeCastOverflowedUintDowncast","inputs":[{"name":"bits","type":"uint8","internalType":"uint8"},{"name":"value","type":"uint256","internalType":"uint256"}]},{"type":"error","name":"UUPSUnauthorizedCallContext","inputs":[]},{"type":"error","name":"UUPSUnsupportedProxiableUUID","inputs":[{"name":"slot","type":"bytes32","internalType":"bytes32"}]},{"type":"error","name":"VotesExpiredSignature","inputs":[{"name":"expiry","type":"uint256","internalType":"uint256"}]},{"type":"error","name":"ZeroAddress","inputs":[]}],"bytecode":{"object":"0x60a080604052346100c257306080525f51602061311d5f395f51905f525460ff8160401c166100b3576002600160401b03196001600160401b03821601610060575b60405161305690816100c782396080518181816109d901526118ee0152f35b6001600160401b0319166001600160401b039081175f51602061311d5f395f51905f525581527fc7f505b2f371ae2175ee4913f4499e1f2633a7b5936321eed1cdaeb6115181d290602090a15f80610041565b63f92ee8a960e01b5f5260045ffd5b5f80fdfe60806040526004361015610011575f80fd5b5f3560e01c806306fdde0314610254578063075461721461024f578063095ea7b31461024a57806318160ddd1461024557806323b872dd14610240578063313ce5671461023b57806332cb6b0c146102365780633644e515146102315780633a46b1a81461022c57806340c10f191461022757806342966c6814610222578063485cc9551461021d5780634bf5d7e9146102185780634f1ef2861461021357806352d1902d1461020e578063587cde1e146102095780635c19a95c146102045780636fcfff45146101ff57806370a08231146101fa578063715018a6146101f557806379cc6790146101f05780637ecebe00146101eb57806384b0196e146101e65780638da5cb5b146101e15780638e539e8c146101dc57806391ddadf4146101d757806395d89b41146101d25780639ab24eb0146101cd578063a9059cbb146101c8578063ad3cb1cc146101c3578063c3cda520146101be578063d505accf146101b9578063dd62ed3e146101b4578063f1127ed8146101af578063f2fde38b146101aa5763fca3b5aa146101a5575f80fd5b6113d9565b6113b0565b61130c565b6112bf565b61117c565b61104e565b610fe7565b610fc1565b610f8a565b610ecd565b610eab565b610dbc565b610d88565b610cb8565b610bde565b610bae565b610b47565b610af0565b610a9b565b610a79565b610a2d565b6109c7565b610950565b61087c565b610709565b6106ec565b6105a8565b6104cf565b6104ad565b610487565b61046c565b610434565b61040b565b6103da565b610387565b610291565b805180835260209291819084018484015e5f828201840152601f01601f1916010190565b90602061028e928181520190610259565b90565b34610383575f366003190112610383576040515f5f516020612f015f395f51905f52546102bd81611440565b808452906001811690811561035f57506001146102f5575b6102f1836102e581850382610901565b6040519182918261027d565b0390f35b5f516020612f015f395f51905f525f9081527f2ae08a8e29253f69ac5d979a101956ab8f8d9d7ded63fa7a83b16fc47648eab0939250905b808210610345575090915081016020016102e56102d5565b91926001816020925483858801015201910190929161032d565b60ff191660208086019190915291151560051b840190910191506102e590506102d5565b5f80fd5b34610383575f366003190112610383575f546040516001600160a01b039091168152602090f35b600435906001600160a01b038216820361038357565b602435906001600160a01b038216820361038357565b34610383576040366003190112610383576104006103f66103ae565b6024359033612093565b602060405160018152f35b34610383575f3660031901126103835760205f516020612f815f395f51905f5254604051908152f35b34610383576060366003190112610383576104006104506103ae565b6104586103c4565b60443591610467833383611a9b565b611b3f565b34610383575f36600319011261038357602060405160128152f35b34610383575f3660031901126103835760206040516b033b2e3c9fd0803ce80000008152f35b34610383575f3660031901126103835760206104c76120f1565b604051908152f35b34610383576040366003190112610383576104e86103ae565b6104fd6104f7602435926115f2565b91611bff565b8154905f829160058411610550575b6105179350846122d4565b908161053557505060205f5b6040516001600160d01b039091168152f35b610540602092611c56565b905f52815f20015460301c610523565b919261055b81612176565b81039081116105a35761051793855f5265ffffffffffff8260205f2001541665ffffffffffff8516105f1461059157509161050c565b92915061059d906116ae565b9061050c565b61169a565b34610383576040366003190112610383576105c16103ae565b6024355f546001600160a01b031633036106dd575f516020612f815f395f51905f52548181018091116105a3576b033b2e3c9fd0803ce8000000106106ce576001600160a01b03821680156106bb5761063c61062b835f516020612f815f395f51905f52546116bc565b5f516020612f815f395f51905f5255565b6106458361162a565b8054830190556040518281525f907fddf252ad1be2c89b69c2b068fc378daa952ba7f163c4a11628f55a4df523b3ef90602090a35f516020612f815f395f51905f5254916001600160d01b038084116106a4576106a28383612c8f565b005b630e58ae9360e11b5f52600484905260245260445ffd5b63ec442f0560e01b5f525f60045260245ffd5b638a164f6360e01b5f5260045ffd5b633e34a41b60e21b5f5260045ffd5b34610383576020366003190112610383576106a260043533611c64565b34610383576040366003190112610383576107226103ae565b61072a6103c4565b5f5160206130015f395f51905f5254919067ffffffffffffffff61075e60ff604086901c16159467ffffffffffffffff1690565b1680159081610874575b600114908161086a575b159081610861575b50610852576107be91836107b5600167ffffffffffffffff195f5160206130015f395f51905f525416175f5160206130015f395f51905f5255565b61081d576116f2565b6107c457005b6107ee60ff60401b195f5160206130015f395f51905f5254165f5160206130015f395f51905f5255565b604051600181527fc7f505b2f371ae2175ee4913f4499e1f2633a7b5936321eed1cdaeb6115181d290602090a1005b61084d600160401b60ff60401b195f5160206130015f395f51905f525416175f5160206130015f395f51905f5255565b6116f2565b63f92ee8a960e01b5f5260045ffd5b9050155f61077a565b303b159150610772565b849150610768565b34610383575f366003190112610383576102f160405161089d604082610901565b600e81526d06d6f64653d74696d657374616d760941b6020820152604051918291602083526020830190610259565b634e487b7160e01b5f52604160045260245ffd5b6040810190811067ffffffffffffffff8211176108fc57604052565b6108cc565b90601f8019910116810190811067ffffffffffffffff8211176108fc57604052565b60405190610932604083610901565b565b67ffffffffffffffff81116108fc57601f01601f191660200190565b6040366003190112610383576109646103ae565b6024359067ffffffffffffffff821161038357366023830112156103835781600401359061099182610934565b9161099f6040519384610901565b8083523660248286010111610383576020815f9260246106a2970183870137840101526118e2565b34610383575f366003190112610383577f00000000000000000000000000000000000000000000000000000000000000006001600160a01b03163003610a1e5760206040515f516020612fc15f395f51905f528152f35b63703e46dd60e11b5f5260045ffd5b34610383576020366003190112610383576001600160a01b03610a4e6103ae565b165f525f516020612ee15f395f51905f52602052602060018060a01b0360405f205416604051908152f35b34610383576020366003190112610383576106a2610a956103ae565b33611f55565b3461038357602036600319011261038357610abc610ab76103ae565b6115f2565b5463ffffffff8111610ad95760209063ffffffff60405191168152f35b6306dfcc6560e41b5f52602060045260245260445ffd5b346103835760203660031901126103835760206104c7610b0e6103ae565b6001600160a01b03165f9081527f52c63247e1f47db19d5ce0460030c497f067ca4cebf71ba98eeadabe20bace00602052604090205490565b34610383575f36600319011261038357610b5f612001565b5f516020612f615f395f51905f5280546001600160a01b031981169091555f906001600160a01b03167f8be0079c531659141344cd1fd0a4f28419497f9722a3daafe3b4186f6b6457e08280a3005b34610383576040366003190112610383576106a2610bca6103ae565b60243590610bd9823383611a9b565b611c64565b34610383576020366003190112610383576001600160a01b03610bff6103ae565b165f527f5ab42ced628888259c08ac98db1eb0cf702fc1501344311d8b100cd1bfe4bb00602052602060405f2054604051908152f35b929391610c57610c6592600f60f81b865260e0602087015260e0860190610259565b908482036040860152610259565b92606083015260018060a01b031660808201525f60a082015260c0818303910152602080835192838152019201905f5b818110610ca25750505090565b8251845260209384019390920191600101610c95565b34610383575f366003190112610383577fa16a46d94261c7517cc8ff89f61c0ce93598e3c849801011dee649a6a557d100541580610d5f575b15610d2257610cfe611478565b610d06611545565b906102f1610d126119f7565b6040519384933091469186610c35565b60405162461bcd60e51b81526020600482015260156024820152741152540dcc4c8e88155b9a5b9a5d1a585b1a5e9959605a1b6044820152606490fd5b507fa16a46d94261c7517cc8ff89f61c0ce93598e3c849801011dee649a6a557d1015415610cf1565b34610383575f366003190112610383575f516020612f615f395f51905f52546040516001600160a01b039091168152602090f35b3461038357602036600319011261038357610dd8600435611bff565b5f516020612fe15f395f51905f5254905f829160058411610e4b575b610e0c93505f516020612fe15f395f51905f526122d4565b80610e1d57506040515f8152602090f35b610e46610e2b602092611c56565b5f516020612fe15f395f51905f525f52825f20015460301c90565b610523565b9192610e5681612176565b81039081116105a357610e0c935f516020612fe15f395f51905f525f5265ffffffffffff8260205f2001541665ffffffffffff8516105f14610e99575091610df4565b929150610ea5906116ae565b90610df4565b34610383575f36600319011261038357602060405165ffffffffffff42168152f35b34610383575f366003190112610383576040515f5f516020612f415f395f51905f5254610ef981611440565b808452906001811690811561035f5750600114610f20576102f1836102e581850382610901565b5f516020612f415f395f51905f525f9081527f46a2803e59a4de4e7a4c574b1243f25977ac4c77d5a1a4a609b5394cebb4a2aa939250905b808210610f70575090915081016020016102e56102d5565b919260018160209254838588010152019101909291610f58565b346103835760203660031901126103835760206001600160d01b03610fb8610fb3610ab76103ae565b612034565b16604051908152f35b3461038357604036600319011261038357610400610fdd6103ae565b6024359033611b3f565b34610383575f366003190112610383576102f1604051611008604082610901565b60058152640352e302e360dc1b6020820152604051918291602083526020830190610259565b6064359060ff8216820361038357565b6084359060ff8216820361038357565b346103835760c0366003190112610383576110676103ae565b6024359060443561107661102e565b6084359060a4359280421161116a57916110fb93916110ed6110f29460405160208101917fe48329057bfd03d55e49b547132e39cffd9c1820ad7b9d4c5307691425d15adf835260018060a01b038a1660408301528a60608301526080820152608081526110e560a082610901565b51902061205e565b61282d565b909291926128d2565b6001600160a01b0381165f9081527f5ab42ced628888259c08ac98db1eb0cf702fc1501344311d8b100cd1bfe4bb006020526040902080546001810190915580930361114b576106a29250611f55565b90506301d4b62360e61b5f5260018060a01b031660045260245260445ffd5b632341d78760e11b5f5260045260245ffd5b346103835760e0366003190112610383576111956103ae565b61119d6103c4565b60443590606435926111ad61103e565b60a43560c435908642116112ac576001600160a01b0384165f9081527f5ab42ced628888259c08ac98db1eb0cf702fc1501344311d8b100cd1bfe4bb0060205260409020805460018101909155611271939061126c909860405160208101917f6e71edae12b1b97f4d1f60370fef10105fa2faae0126114a169c64845d6126c9835260018060a01b0389169b8c604084015260018060a01b038b1660608401528b608084015260a083015260c082015260c081526110e560e082610901565b612084565b936001600160a01b0385160361128b576106a29350612093565b6325c0072360e11b5f526001600160a01b038085166004521660245260445ffd5b8663313c898160e11b5f5260045260245ffd5b346103835760403660031901126103835760206113036112dd6103ae565b6112ee6112e86103c4565b91611662565b9060018060a01b03165f5260205260405f2090565b54604051908152f35b34610383576040366003190112610383576113256103ae565b6024359063ffffffff82168203610383576102f19161135861136692611349611a12565b50611352611a12565b506115f2565b611360611a12565b5061294e565b5060405190611374826108e0565b5465ffffffffffff811680835260309190911c60209283019081526040805192835290516001600160d01b031692820192909252918291820190565b34610383576020366003190112610383576106a26113cc6103ae565b6113d4612001565b611a2a565b34610383576020366003190112610383576113f26103ae565b6113fa612001565b5f80546001600160a01b039283166001600160a01b03198216811783559216907f02b23d62d8f733974f8cb13eb804b20135521322b70997c991fc01406632389f9080a3005b90600182811c9216801561146e575b602083101461145a57565b634e487b7160e01b5f52602260045260245ffd5b91607f169161144f565b604051905f825f516020612f215f395f51905f52549161149783611440565b808352926001811690811561152657506001146114bb575b61093292500383610901565b505f516020612f215f395f51905f525f90815290917f42ad5d3e1f2e6e70edcf6d991b8a3023d3fca8047a131592f9edb9fd9b89d57d5b81831061150a575050906020610932928201016114af565b60209193508060019154838589010152019101909184926114f2565b6020925061093294915060ff191682840152151560051b8201016114af565b604051905f825f516020612fa15f395f51905f52549161156483611440565b808352926001811690811561152657506001146115875761093292500383610901565b505f516020612fa15f395f51905f525f90815290917f5f9ce34815f8e11431c7bb75a8e6886a91478f7ffc1dbb0a98dc240fddd76b755b8183106115d6575050906020610932928201016114af565b60209193508060019154838589010152019101909184926115be565b6001600160a01b03165f9081527fe8b26c30fad74198956032a3533d903385d56dd795af560196f9c78d4af40d016020526040902090565b6001600160a01b03165f9081527f52c63247e1f47db19d5ce0460030c497f067ca4cebf71ba98eeadabe20bace006020526040902090565b6001600160a01b03165f9081527f52c63247e1f47db19d5ce0460030c497f067ca4cebf71ba98eeadabe20bace016020526040902090565b634e487b7160e01b5f52601160045260245ffd5b90600182018092116105a357565b919082018092116105a357565b604051906116d8604083610901565b600b82526a4254422046696e616e636560a81b6020830152565b6001600160a01b038116156118d3576117096116c9565b60405190611718604083610901565b6003825262212a2160e91b602083015261173061232d565b61173861232d565b80519067ffffffffffffffff82116108fc5761176a826117655f516020612f015f395f51905f5254611440565b612358565b602090601f831160011461183057826117b6936117db9695936117a2935f92611825575b50508160011b915f199060031b1c19161790565b5f516020612f015f395f51905f525561245f565b6117be61232d565b6117ce6117c96116c9565b611d92565b6117d661232d565b611f27565b5f80546001600160a01b0319166001600160a01b0383161790556001600160a01b03165f7f02b23d62d8f733974f8cb13eb804b20135521322b70997c991fc01406632389f8180a3565b015190505f8061178e565b5f516020612f015f395f51905f525f52601f19831691907f2ae08a8e29253f69ac5d979a101956ab8f8d9d7ded63fa7a83b16fc47648eab0925f5b8181106118bb57509260019285926117b6966117db999896106118a3575b505050811b015f516020612f015f395f51905f525561245f565b01515f1960f88460031b161c191690555f8080611889565b9293602060018192878601518155019501930161186b565b63d92e233d60e01b5f5260045ffd5b90916001600160a01b037f0000000000000000000000000000000000000000000000000000000000000000163081149081156119d5575b50610a1e57611926612001565b6040516352d1902d60e01b8152926020846004816001600160a01b0387165afa5f94816119a4575b5061196f57634c9c8ce360e01b5f526001600160a01b03831660045260245ffd5b90915f516020612fc15f395f51905f52840361199057610932929350612687565b632a87526960e21b5f52600484905260245ffd5b6119c791955060203d6020116119ce575b6119bf8183610901565b810190611f3b565b935f61194e565b503d6119b5565b5f516020612fc15f395f51905f52546001600160a01b0316141590505f611919565b60405190611a06602083610901565b5f808352366020840137565b60405190611a1f826108e0565b5f6020838281520152565b6001600160a01b03168015611a88575f516020612f615f395f51905f5280546001600160a01b0319811683179091556001600160a01b03167f8be0079c531659141344cd1fd0a4f28419497f9722a3daafe3b4186f6b6457e05f80a3565b631e4fbdf760e01b5f525f60045260245ffd5b9190611aaa816112ee85611662565b545f198110611aba575b50505050565b828110611b1e576001600160a01b03841615611b0b576001600160a01b03821615611af857611aee926112ee910393611662565b555f808080611ab4565b634a1406b160e11b5f525f60045260245ffd5b63e602df0560e01b5f525f60045260245ffd5b90637dc7a0d960e11b5f5260018060a01b031660045260245260445260645ffd5b6001600160a01b038116939291908415611bec576001600160a01b03821680156106bb57611b6c8261162a565b5495848710611bc65784610932969703611b858461162a565b55611b8f8461162a565b8054860190556040518581527fddf252ad1be2c89b69c2b068fc378daa952ba7f163c4a11628f55a4df523b3ef90602090a3612d14565b63391434e360e21b5f526001600160a01b0383166004526024879052604485905260645ffd5b634b637e8f60e11b5f525f60045260245ffd5b65ffffffffffff421680821015611c40575065ffffffffffff8111611c295765ffffffffffff1690565b6306dfcc6560e41b5f52603060045260245260445ffd5b90637669fc0f60e11b5f5260045260245260445ffd5b5f198101919082116105a357565b6001600160a01b038116908115611bec57611c7e8161162a565b54838110611d6d5790611c9884610932959493039161162a565b55815f516020612f815f395f51905f5254035f516020612f815f395f51905f52555f817fddf252ad1be2c89b69c2b068fc378daa952ba7f163c4a11628f55a4df523b3ef60405180602081018782520390a38015611d55575b611d02611cfd83612b5c565b612c43565b50505f9081525f516020612ee15f395f51905f5260205260408120549080527fd4fb29e10204005f1a39963c6862b79a755e22f0177c53f05cdc3786c702f974546001600160a01b039081169116612729565b611d66611d6183612b5c565b612bf7565b5050611cf1565b63391434e360e21b5f526001600160a01b03909116600452602452604482905260645ffd5b611d9a61232d565b60405190611da9604083610901565b60018252603160f81b6020830152611dbf61232d565b80519067ffffffffffffffff82116108fc57611df182611dec5f516020612f215f395f51905f5254611440565b6123b4565b602090601f8311600114611e88579180611e2492611e3895945f926118255750508160011b915f199060031b1c19161790565b5f516020612f215f395f51905f5255612573565b611e605f7fa16a46d94261c7517cc8ff89f61c0ce93598e3c849801011dee649a6a557d10055565b6109325f7fa16a46d94261c7517cc8ff89f61c0ce93598e3c849801011dee649a6a557d10155565b5f516020612f215f395f51905f525f52601f19831691907f42ad5d3e1f2e6e70edcf6d991b8a3023d3fca8047a131592f9edb9fd9b89d57d925f5b818110611f0f5750916001939185611e3897969410611ef7575b505050811b015f516020612f215f395f51905f5255612573565b01515f1960f88460031b161c191690555f8080611edd565b92936020600181928786015181550195019301611ec3565b61093290611f3361232d565b6113d461232d565b90816020910312610383575190565b6040513d5f823e3d90fd5b6001600160a01b038181165f8181525f516020612ee15f395f51905f526020526040812080548685166001600160a01b03198216811790925561093296941694611ffb9390928691907f3134e8a2e6d97e929a7e54011ea5485d7d196dd5f0ba4d4ef95803e8e3fc257f9080a46001600160a01b03165f9081527f52c63247e1f47db19d5ce0460030c497f067ca4cebf71ba98eeadabe20bace00602052604090205490565b91612729565b5f516020612f615f395f51905f52546001600160a01b0316330361202157565b63118cdaa760e01b5f523360045260245ffd5b805490816120425750505f90565b815f198101116105a3575f525f199060205f2001015460301c90565b6042906120696120f1565b906040519161190160f01b8352600283015260228201522090565b9161028e93916110f29361282d565b6001600160a01b03811691908215611b0b576001600160a01b038216938415611af857806120e77f8c5be1e5ebec7d5bd14f71427d1e84f3dd0314c0f7b2291e5b200ac8c7c3b925946112ee602095611662565b55604051908152a3565b6120f9612977565b612101612aa4565b6040519060208201927f8b73c3c69bb8fe3d512ecc4cf759cc79239f7b179b0ffacaa9a75d522b39400f8452604083015260608201524660808201523060a082015260a0815261215260c082610901565b51902090565b8115612162570490565b634e487b7160e01b5f52601260045260245ffd5b600181111561028e57806001600160801b821015612297575b61223d61223361222961221f61221561220b6121fa6122449760048a600160401b6122499c101561228a575b64010000000081101561227d575b62010000811015612270575b610100811015612263575b6010811015612256575b101561224e575b60030260011c90565b612204818b612158565b0160011c90565b612204818a612158565b6122048189612158565b6122048188612158565b6122048187612158565b6122048186612158565b8093612158565b821190565b900390565b60011b6121f1565b60041c9160021b916121ea565b60081c9160041b916121e0565b60101c9160081b916121d5565b60201c9160101b916121c9565b60401c9160201b916121bb565b505061224961224461223d61223361222961221f61221561220b6121fa6122be8a60801c90565b9850600160401b975061218f9650505050505050565b905b8383106122e35750505090565b90919280841860011c8185160190835f5265ffffffffffff8260205f2001541665ffffffffffff8416105f1461231d5750925b91906122d6565b9350612328906116ae565b612316565b60ff5f5160206130015f395f51905f525460401c161561234957565b631afcd79f60e31b5f5260045ffd5b601f8111612364575050565b5f516020612f015f395f51905f525f5260205f20906020601f840160051c830193106123aa575b601f0160051c01905b81811061239f575050565b5f8155600101612394565b909150819061238b565b601f81116123c0575050565b5f516020612f215f395f51905f525f5260205f20906020601f840160051c83019310612406575b601f0160051c01905b8181106123fb575050565b5f81556001016123f0565b90915081906123e7565b601f821161241d57505050565b5f5260205f20906020601f840160051c83019310612455575b601f0160051c01905b81811061244a575050565b5f815560010161243f565b9091508190612436565b90815167ffffffffffffffff81116108fc5761249f8161248c5f516020612f415f395f51905f5254611440565b5f516020612f415f395f51905f52612410565b602092601f82116001146124df576124ce929382915f926118255750508160011b915f199060031b1c19161790565b5f516020612f415f395f51905f5255565b5f516020612f415f395f51905f525f52601f198216937f46a2803e59a4de4e7a4c574b1243f25977ac4c77d5a1a4a609b5394cebb4a2aa915f5b86811061255b5750836001959610612543575b505050811b015f516020612f415f395f51905f5255565b01515f1960f88460031b161c191690555f808061252c565b91926020600181928685015181550194019201612519565b90815167ffffffffffffffff81116108fc576125b3816125a05f516020612fa15f395f51905f5254611440565b5f516020612fa15f395f51905f52612410565b602092601f82116001146125f3576125e2929382915f926118255750508160011b915f199060031b1c19161790565b5f516020612fa15f395f51905f5255565b5f516020612fa15f395f51905f525f52601f198216937f5f9ce34815f8e11431c7bb75a8e6886a91478f7ffc1dbb0a98dc240fddd76b75915f5b86811061266f5750836001959610612657575b505050811b015f516020612fa15f395f51905f5255565b01515f1960f88460031b161c191690555f8080612640565b9192602060018192868501518155019401920161262d565b90813b15612708575f516020612fc15f395f51905f5280546001600160a01b0319166001600160a01b0384169081179091557fbc7cd75a20ee27fd9adebab32041f755214dbc6bffa90cc0225b39da2e5c2d3b5f80a28051156126f0576126ed91612ae9565b50565b5050346126f957565b63b398979f60e01b5f5260045ffd5b50634c9c8ce360e01b5f9081526001600160a01b0391909116600452602490fd5b6001600160a01b03808316939291908116908185141580612824575b612751575b5050505050565b816127c6575b505082612766575b808061274a565b7fdec2bacdd2f05b59de34da9b523dff8be42e5e38e818c82fdb0bae774387a7249161279d6127976127a3936115f2565b91612b5c565b90612bc4565b604080516001600160d01b039384168152919092166020820152a25f808061275f565b6128026127f37fdec2bacdd2f05b59de34da9b523dff8be42e5e38e818c82fdb0bae774387a724926115f2565b6127fc86612b5c565b90612b8d565b604080516001600160d01b039384168152919092166020820152a25f80612757565b50831515612745565b91907f7fffffffffffffffffffffffffffffff5d576e7357a4501ddfe92f46681b20a084116128a9579160209360809260ff5f9560405194855216868401526040830152606082015282805260015afa156128a4575f516001600160a01b0381161561289a57905f905f90565b505f906001905f90565b611f4a565b5050505f9160039190565b600411156128be57565b634e487b7160e01b5f52602160045260245ffd5b6128db816128b4565b806128e4575050565b6128ed816128b4565b600181036129045763f645eedf60e01b5f5260045ffd5b61290d816128b4565b60028103612928575063fce698f760e01b5f5260045260245ffd5b806129346003926128b4565b1461293c5750565b6335e2f38360e21b5f5260045260245ffd5b8054821015612963575f5260205f2001905f90565b634e487b7160e01b5f52603260045260245ffd5b6040515f516020612f215f395f51905f5254905f8161299584611440565b9182825260208201946001811690815f14612a885750600114612a1d575b6129bf92500382610901565b519081156129cb572090565b50507fa16a46d94261c7517cc8ff89f61c0ce93598e3c849801011dee649a6a557d1005480156129f85790565b507fc5d2460186f7233c927e7db2dcc703c0e500b653ca82273b7bfad8045d85a47090565b505f516020612f215f395f51905f525f90815290917f42ad5d3e1f2e6e70edcf6d991b8a3023d3fca8047a131592f9edb9fd9b89d57d5b818310612a6c5750509060206129bf928201016129b3565b6020919350806001915483858801015201910190918392612a54565b60ff19168652506129bf92151560051b820160200190506129b3565b612aac611545565b8051908115612abc576020012090565b50507fa16a46d94261c7517cc8ff89f61c0ce93598e3c849801011dee649a6a557d1015480156129f85790565b905f8091602081519101845af48080612b49575b15612b0c57505061028e612d96565b15612b3157639996b31560e01b5f9081526001600160a01b0391909116600452602490fd5b3d15155f03611f4a5763d6bda27560e01b5f5260045ffd5b503d151580612afd5750813b1515612afd565b6001600160d01b038111612b76576001600160d01b031690565b6306dfcc6560e41b5f5260d060045260245260445ffd5b90612b9782612034565b6001600160d01b03918216908216039081116105a357612bc09165ffffffffffff421690612e0a565b9091565b90612bce82612034565b6001600160d01b03918216908216019081116105a357612bc09165ffffffffffff421690612e0a565b612c0d5f516020612fe15f395f51905f52612034565b6001600160d01b03918216908216019081116105a357612bc0904265ffffffffffff165f516020612fe15f395f51905f52612e0a565b612c595f516020612fe15f395f51905f52612034565b6001600160d01b03918216908216039081116105a357612bc0904265ffffffffffff165f516020612fe15f395f51905f52612e0a565b9061093291612ca0611d6183612b5c565b50506001600160a01b03168015612d01575b5f516020612ee15f395f51905f526020527fd4fb29e10204005f1a39963c6862b79a755e22f0177c53f05cdc3786c702f974545f9182526040909120546001600160a01b039081169116612729565b612d0d611cfd83612b5c565b5050612cb2565b61093292916001600160a01b03909116908115612d83575b6001600160a01b0316908115612d70575b5f9081525f516020612ee15f395f51905f526020526040808220549282529020546001600160a01b039081169116612729565b612d7c611cfd84612b5c565b5050612d3d565b612d8f611d6184612b5c565b5050612d2c565b604051903d82523d5f602084013e60203d830101604052565b8054600160401b8110156108fc57612dcc9160018201815561294e565b612df757815160209092015160301b65ffffffffffff191665ffffffffffff92909216919091179055565b634e487b7160e01b5f525f60045260245ffd5b80549293928015612eb657612e21612e2c91611c56565b825f5260205f200190565b8054603081901c9365ffffffffffff91821692918116808411612ea757879303612e735750612e6f92509065ffffffffffff82549181199060301b169116179055565b9190565b915050612e6f91612e93612e85610923565b65ffffffffffff9093168352565b6001600160d01b0386166020830152612daf565b632520601d60e01b5f5260045ffd5b5090612edb91612ec7612e85610923565b6001600160d01b0385166020830152612daf565b5f919056fee8b26c30fad74198956032a3533d903385d56dd795af560196f9c78d4af40d0052c63247e1f47db19d5ce0460030c497f067ca4cebf71ba98eeadabe20bace03a16a46d94261c7517cc8ff89f61c0ce93598e3c849801011dee649a6a557d10252c63247e1f47db19d5ce0460030c497f067ca4cebf71ba98eeadabe20bace049016d09d72d40fdae2fd8ceac6b6234c7706214fd39c1cd1e609a0528c19930052c63247e1f47db19d5ce0460030c497f067ca4cebf71ba98eeadabe20bace02a16a46d94261c7517cc8ff89f61c0ce93598e3c849801011dee649a6a557d103360894a13ba1a3210667c828492db98dca3e2076cc3735a920a3ca505d382bbce8b26c30fad74198956032a3533d903385d56dd795af560196f9c78d4af40d02f0c57e16840df040f15088dc2f81fe391c3923bec73e23a9662efc9c229c6a00a2646970667358221220959979a3765e35a8b270f7b097afbf7ede6f6310be5f98932c19397bfb3b94a064736f6c634300081b0033f0c57e16840df040f15088dc2f81fe391c3923bec73e23a9662efc9c229c6a00","linkReferences":{}},"methodIdentifiers":{"CLOCK_MODE()":"4bf5d7e9","DOMAIN_SEPARATOR()":"3644e515","MAX_SUPPLY()":"32cb6b0c","UPGRADE_INTERFACE_VERSION()":"ad3cb1cc","allowance(address,address)":"dd62ed3e","approve(address,uint256)":"095ea7b3","balanceOf(address)":"70a08231","burn(uint256)":"42966c68","burnFrom(address,uint256)":"79cc6790","checkpoints(address,uint32)":"f1127ed8","clock()":"91ddadf4","decimals()":"313ce567","delegate(address)":"5c19a95c","delegateBySig(address,uint256,uint256,uint8,bytes32,bytes32)":"c3cda520","delegates(address)":"587cde1e","eip712Domain()":"84b0196e","getPastTotalSupply(uint256)":"8e539e8c","getPastVotes(address,uint256)":"3a46b1a8","getVotes(address)":"9ab24eb0","initialize(address,address)":"485cc955","mint(address,uint256)":"40c10f19","minter()":"07546172","name()":"06fdde03","nonces(address)":"7ecebe00","numCheckpoints(address)":"6fcfff45","owner()":"8da5cb5b","permit(address,address,uint256,uint256,uint8,bytes32,bytes32)":"d505accf","proxiableUUID()":"52d1902d","renounceOwnership()":"715018a6","setMinter(address)":"fca3b5aa","symbol()":"95d89b41","totalSupply()":"18160ddd","transfer(address,uint256)":"a9059cbb","transferFrom(address,address,uint256)":"23b872dd","transferOwnership(address)":"f2fde38b","upgradeToAndCall(address,bytes)":"4f1ef286"},"id":40}