{"abi":[{"type":"constructor","inputs":[{"name":"_stakingToken","type":"address","internalType":"address"},{"name":"_rewardToken","type":"address","internalType":"address"},{"name":"_voter","type":"address","internalType":"address"}],"stateMutability":"nonpayable"},{"type":"function","name":"balanceOf","inputs":[{"name":"account","type":"address","internalType":"address"}],"outputs":[{"name":"","type":"uint256","internalType":"uint256"}],"stateMutability":"view"},{"type":"function","name":"deposit","inputs":[{"name":"amount","type":"uint256","internalType":"uint256"},{"name":"recipient","type":"address","internalType":"address"}],"outputs":[],"stateMutability":"nonpayable"},{"type":"function","name":"deposit","inputs":[{"name":"amount","type":"uint256","internalType":"uint256"}],"outputs":[],"stateMutability":"nonpayable"},{"type":"function","name":"earned","inputs":[{"name":"account","type":"address","internalType":"address"}],"outputs":[{"name":"","type":"uint256","internalType":"uint256"}],"stateMutability":"view"},{"type":"function","name":"getReward","inputs":[{"name":"account","type":"address","internalType":"address"}],"outputs":[],"stateMutability":"nonpayable"},{"type":"function","name":"lastTimeRewardApplicable","inputs":[],"outputs":[{"name":"","type":"uint256","internalType":"uint256"}],"stateMutability":"view"},{"type":"function","name":"lastUpdateTime","inputs":[],"outputs":[{"name":"","type":"uint256","internalType":"uint256"}],"stateMutability":"view"},{"type":"function","name":"left","inputs":[],"outputs":[{"name":"","type":"uint256","internalType":"uint256"}],"stateMutability":"view"},{"type":"function","name":"notifyRewardAmount","inputs":[{"name":"amount","type":"uint256","internalType":"uint256"}],"outputs":[],"stateMutability":"nonpayable"},{"type":"function","name":"periodFinish","inputs":[],"outputs":[{"name":"","type":"uint256","internalType":"uint256"}],"stateMutability":"view"},{"type":"function","name":"rewardPerToken","inputs":[],"outputs":[{"name":"","type":"uint256","internalType":"uint256"}],"stateMutability":"view"},{"type":"function","name":"rewardPerTokenStored","inputs":[],"outputs":[{"name":"","type":"uint256","internalType":"uint256"}],"stateMutability":"view"},{"type":"function","name":"rewardRate","inputs":[],"outputs":[{"name":"","type":"uint256","internalType":"uint256"}],"stateMutability":"view"},{"type":"function","name":"rewardToken","inputs":[],"outputs":[{"name":"","type":"address","internalType":"address"}],"stateMutability":"view"},{"type":"function","name":"rewards","inputs":[{"name":"","type":"address","internalType":"address"}],"outputs":[{"name":"","type":"uint256","internalType":"uint256"}],"stateMutability":"view"},{"type":"function","name":"stakingToken","inputs":[],"outputs":[{"name":"","type":"address","internalType":"address"}],"stateMutability":"view"},{"type":"function","name":"totalSupply","inputs":[],"outputs":[{"name":"","type":"uint256","internalType":"uint256"}],"stateMutability":"view"},{"type":"function","name":"userRewardPerTokenPaid","inputs":[{"name":"","type":"address","internalType":"address"}],"outputs":[{"name":"","type":"uint256","internalType":"uint256"}],"stateMutability":"view"},{"type":"function","name":"voter","inputs":[],"outputs":[{"name":"","type":"address","internalType":"address"}],"stateMutability":"view"},{"type":"function","name":"withdraw","inputs":[{"name":"amount","type":"uint256","internalType":"uint256"}],"outputs":[],"stateMutability":"nonpayable"},{"type":"event","name":"ClaimRewards","inputs":[{"name":"from","type":"address","indexed":true,"internalType":"address"},{"name":"amount","type":"uint256","indexed":false,"internalType":"uint256"}],"anonymous":false},{"type":"event","name":"Deposit","inputs":[{"name":"from","type":"address","indexed":true,"internalType":"address"},{"name":"to","type":"address","indexed":true,"internalType":"address"},{"name":"amount","type":"uint256","indexed":false,"internalType":"uint256"}],"anonymous":false},{"type":"event","name":"NotifyReward","inputs":[{"name":"from","type":"address","indexed":true,"internalType":"address"},{"name":"amount","type":"uint256","indexed":false,"internalType":"uint256"}],"anonymous":false},{"type":"event","name":"Withdraw","inputs":[{"name":"from","type":"address","indexed":true,"internalType":"address"},{"name":"amount","type":"uint256","indexed":false,"internalType":"uint256"}],"anonymous":false},{"type":"error","name":"NotAlive","inputs":[]},{"type":"error","name":"NotVoter","inputs":[]},{"type":"error","name":"ReentrancyGuardReentrantCall","inputs":[]},{"type":"error","name":"RewardRateTooHigh","inputs":[]},{"type":"error","name":"SafeERC20FailedOperation","inputs":[{"name":"token","type":"address","internalType":"address"}]},{"type":"error","name":"ZeroAmount","inputs":[]}],"bytecode":{"object":"0x60e0346100e257601f610d2938819003918201601f19168301916001600160401b038311848410176100e6578084926060946040528339810103126100e257610047816100fa565b906100606040610059602084016100fa565b92016100fa565b9160017f9b779b17422d0df92223018b32b4d1fa46e071723d6817e2486d003becc55f005560805260a05260c052604051610c1a908161010f82396080518181816102de015281816103df015281816104b50152610806015260a0518181816101090152818161025101526105cf015260c05181818161053601526105830152f35b5f80fd5b634e487b7160e01b5f52604160045260245ffd5b51906001600160a01b03821682036100e25756fe60806040526004361015610011575f80fd5b5f3560e01c80628cc262146108e05780630700037d146108a857806316e640481461088e57806318160ddd146108725780632e1a7d4d146107ae5780633c6b16ab1461056557806346c96aac146105215780636e553f651461044657806370a082311461040e57806372f702f3146103ca5780637b0a47ee146103ad57806380faa57d146103935780638b8763471461035b578063b6b55f2514610285578063c00007b0146101b5578063c8f33c9114610198578063cd3daf9d14610176578063df136d6514610159578063ebe2b12b1461013c5763f7c618c1146100f4575f80fd5b34610138575f366003190112610138576040517f00000000000000000000000000000000000000000000000000000000000000006001600160a01b03168152602090f35b5f80fd5b34610138575f366003190112610138576020600254604051908152f35b34610138575f366003190112610138576020600354604051908152f35b34610138575f3660031901126101385760206101906109f3565b604051908152f35b34610138575f366003190112610138576020600454604051908152f35b34610138576020366003190112610138576101ce610903565b6101d6610a50565b6101df81610a88565b6001600160a01b0381165f81815260076020526040902054909181610212575b60015f516020610bc55f395f51905f5255005b816102767f1f89f96333d3133000ee447473151fa9606543368f02271c9d95ae14f13bcc6793602093865f52600785525f604081205560018060a01b037f000000000000000000000000000000000000000000000000000000000000000016610ada565b604051908152a28080806101ff565b34610138576020366003190112610138576004356102a1610a50565b801561034c576102b033610a88565b6102bb815f54610957565b5f55335f52600560205260405f206102d4828254610957565b905561030b8130337f00000000000000000000000000000000000000000000000000000000000000006001600160a01b0316610b5b565b60405190815233907f5548c837ab068cf56a2c2479df0882a4922fd203edb7517321831d95078c5f6260203392a360015f516020610bc55f395f51905f5255005b631f2a200560e01b5f5260045ffd5b34610138576020366003190112610138576001600160a01b0361037c610903565b165f526006602052602060405f2054604051908152f35b34610138575f3660031901126101385760206101906109e2565b34610138575f366003190112610138576020600154604051908152f35b34610138575f366003190112610138576040517f00000000000000000000000000000000000000000000000000000000000000006001600160a01b03168152602090f35b34610138576020366003190112610138576001600160a01b0361042f610903565b165f526005602052602060405f2054604051908152f35b34610138576040366003190112610138576024356001600160a01b038116906004359082810361013857610478610a50565b811561034c5761048790610a88565b610492815f54610957565b5f55815f52600560205260405f206104ab828254610957565b90556104e28130337f00000000000000000000000000000000000000000000000000000000000000006001600160a01b0316610b5b565b6040519081527f5548c837ab068cf56a2c2479df0882a4922fd203edb7517321831d95078c5f6260203392a360015f516020610bc55f395f51905f5255005b34610138575f366003190112610138576040517f00000000000000000000000000000000000000000000000000000000000000006001600160a01b03168152602090f35b3461013857602036600319011261013857600435610581610a50565b7f00000000000000000000000000000000000000000000000000000000000000006001600160a01b0316330361079f57801561034c576105bf6109f3565b6003556105ca6109e2565b6004557f00000000000000000000000000000000000000000000000000000000000000006001600160a01b031661060382303384610b5b565b62093a80420462093a8081029080820462093a80149015171561078b5762093a80810180911161078b57602061063c6024924290610919565b9260025484814210155f1461075b57610656915086610939565b6001555b6040516370a0823160e01b815230600482015292839182905afa908115610750575f916106f4575b506106908260015492610939565b106106e5576106a3904260045542610957565b6002556040519081527f095667752957714306e1a6ad83495404412df6fdb932fca6dc849a7ee910d4c160203392a260015f516020610bc55f395f51905f5255005b633c6be1b360e01b5f5260045ffd5b905060203d602011610749575b601f8101601f1916820167ffffffffffffffff81118382101761073557602091839160405281010312610138575183610682565b634e487b7160e01b5f52604160045260245ffd5b503d610701565b6040513d5f823e3d90fd5b61077e61077861076f610783944290610919565b60015490610926565b88610957565b610939565b60015561065a565b634e487b7160e01b5f52601160045260245ffd5b63c18384c160e01b5f5260045ffd5b34610138576020366003190112610138576004356107ca610a50565b801561034c576107d933610a88565b6107e4815f54610919565b5f55335f52600560205260405f206107fd828254610919565b905561083381337f00000000000000000000000000000000000000000000000000000000000000006001600160a01b0316610ada565b6040519081527f884edad9ce6fa2440d8a54cc123490eb96d2768479d49ff9c7366125a942436460203392a260015f516020610bc55f395f51905f5255005b34610138575f3660031901126101385760205f54604051908152f35b34610138575f3660031901126101385760206101906109c4565b34610138576020366003190112610138576001600160a01b036108c9610903565b165f526007602052602060405f2054604051908152f35b346101385760203660031901126101385760206101906108fe610903565b610964565b600435906001600160a01b038216820361013857565b9190820391821161078b57565b8181029291811591840414171561078b57565b8115610943570490565b634e487b7160e01b5f52601260045260245ffd5b9190820180921161078b57565b6109c19060018060a01b0316805f526005602052670de0b6b3a76400006109ad60405f20546109a76109946109f3565b855f52600660205260405f205490610919565b90610926565b04905f52600760205260405f205490610957565b90565b600254804210156109dd5761076f6109c1914290610919565b505f90565b6002548042105f146109c157504290565b5f548015610a4957600354610a1561076f610a0c6109e2565b60045490610919565b670de0b6b3a7640000810290808204670de0b6b3a7640000149015171561078b576109c192610a4391610939565b90610957565b5060035490565b60025f516020610bc55f395f51905f525414610a795760025f516020610bc55f395f51905f5255565b633ee5aeb560e01b5f5260045ffd5b610a906109f3565b600355610a9b6109e2565b6004556001600160a01b0381169081610ab2575050565b610abb90610964565b815f52600760205260405f2055600354905f52600660205260405f2055565b916040519163a9059cbb60e01b5f5260018060a01b031660045260245260205f60448180865af19060015f5114821615610b3a575b60405215610b1a5750565b635274afe760e01b5f9081526001600160a01b0391909116600452602490fd5b906001811516610b5257823b15153d15161690610b0f565b503d5f823e3d90fd5b6040516323b872dd60e01b5f9081526001600160a01b039384166004529290931660245260449390935260209060648180865af19060015f5114821615610bac575b6040525f60605215610b1a5750565b906001811516610b5257823b15153d15161690610b9d56fe9b779b17422d0df92223018b32b4d1fa46e071723d6817e2486d003becc55f00a2646970667358221220e46676a02ad7cd3ede7e956a3abdefaa2c002a92487ada4c346cda3472e0306464736f6c634300081b0033","linkReferences":{}},"methodIdentifiers":{"balanceOf(address)":"70a08231","deposit(uint256)":"b6b55f25","deposit(uint256,address)":"6e553f65","earned(address)":"008cc262","getReward(address)":"c00007b0","lastTimeRewardApplicable()":"80faa57d","lastUpdateTime()":"c8f33c91","left()":"16e64048","notifyRewardAmount(uint256)":"3c6b16ab","periodFinish()":"ebe2b12b","rewardPerToken()":"cd3daf9d","rewardPerTokenStored()":"df136d65","rewardRate()":"7b0a47ee","rewardToken()":"f7c618c1","rewards(address)":"0700037d","stakingToken()":"72f702f3","totalSupply()":"18160ddd","userRewardPerTokenPaid(address)":"8b876347","voter()":"46c96aac","withdraw(uint256)":"2e1a7d4d"},"id":25}