{"abi":[{"type":"constructor","inputs":[{"name":"_poolManager","type":"address","internalType":"address"},{"name":"_reclammManager","type":"address","internalType":"address"},{"name":"_feeRecipient","type":"address","internalType":"address"}],"stateMutability":"nonpayable"},{"type":"function","name":"authorizeSolver","inputs":[{"name":"solver","type":"address","internalType":"address"},{"name":"authorized","type":"bool","internalType":"bool"}],"outputs":[],"stateMutability":"nonpayable"},{"type":"function","name":"authorizedSolvers","inputs":[{"name":"","type":"address","internalType":"address"}],"outputs":[{"name":"","type":"bool","internalType":"bool"}],"stateMutability":"view"},{"type":"function","name":"batchExecuteIntents","inputs":[{"name":"intents","type":"tuple[]","internalType":"struct IntentRouter.Intent[]","components":[{"name":"user","type":"address","internalType":"address"},{"name":"tokenIn","type":"address","internalType":"address"},{"name":"tokenOut","type":"address","internalType":"address"},{"name":"amountIn","type":"uint256","internalType":"uint256"},{"name":"minAmountOut","type":"uint256","internalType":"uint256"},{"name":"deadline","type":"uint256","internalType":"uint256"},{"name":"useRFQ","type":"bool","internalType":"bool"},{"name":"poolId","type":"bytes32","internalType":"bytes32"}]},{"name":"quotes","type":"tuple[]","internalType":"struct IntentRouter.RFQQuote[]","components":[{"name":"solver","type":"address","internalType":"address"},{"name":"amountOut","type":"uint256","internalType":"uint256"},{"name":"validUntil","type":"uint256","internalType":"uint256"},{"name":"signature","type":"bytes","internalType":"bytes"}]}],"outputs":[{"name":"amountsOut","type":"uint256[]","internalType":"uint256[]"}],"stateMutability":"nonpayable"},{"type":"function","name":"executeIntent","inputs":[{"name":"intent","type":"tuple","internalType":"struct IntentRouter.Intent","components":[{"name":"user","type":"address","internalType":"address"},{"name":"tokenIn","type":"address","internalType":"address"},{"name":"tokenOut","type":"address","internalType":"address"},{"name":"amountIn","type":"uint256","internalType":"uint256"},{"name":"minAmountOut","type":"uint256","internalType":"uint256"},{"name":"deadline","type":"uint256","internalType":"uint256"},{"name":"useRFQ","type":"bool","internalType":"bool"},{"name":"poolId","type":"bytes32","internalType":"bytes32"}]},{"name":"quote","type":"tuple","internalType":"struct IntentRouter.RFQQuote","components":[{"name":"solver","type":"address","internalType":"address"},{"name":"amountOut","type":"uint256","internalType":"uint256"},{"name":"validUntil","type":"uint256","internalType":"uint256"},{"name":"signature","type":"bytes","internalType":"bytes"}]}],"outputs":[{"name":"amountOut","type":"uint256","internalType":"uint256"}],"stateMutability":"nonpayable"},{"type":"function","name":"executeIntentWithETH","inputs":[{"name":"intent","type":"tuple","internalType":"struct IntentRouter.Intent","components":[{"name":"user","type":"address","internalType":"address"},{"name":"tokenIn","type":"address","internalType":"address"},{"name":"tokenOut","type":"address","internalType":"address"},{"name":"amountIn","type":"uint256","internalType":"uint256"},{"name":"minAmountOut","type":"uint256","internalType":"uint256"},{"name":"deadline","type":"uint256","internalType":"uint256"},{"name":"useRFQ","type":"bool","internalType":"bool"},{"name":"poolId","type":"bytes32","internalType":"bytes32"}]},{"name":"quote","type":"tuple","internalType":"struct IntentRouter.RFQQuote","components":[{"name":"solver","type":"address","internalType":"address"},{"name":"amountOut","type":"uint256","internalType":"uint256"},{"name":"validUntil","type":"uint256","internalType":"uint256"},{"name":"signature","type":"bytes","internalType":"bytes"}]}],"outputs":[{"name":"amountOut","type":"uint256","internalType":"uint256"}],"stateMutability":"payable"},{"type":"function","name":"feeRecipient","inputs":[],"outputs":[{"name":"","type":"address","internalType":"address"}],"stateMutability":"view"},{"type":"function","name":"filledIntents","inputs":[{"name":"","type":"bytes32","internalType":"bytes32"}],"outputs":[{"name":"","type":"uint256","internalType":"uint256"}],"stateMutability":"view"},{"type":"function","name":"getBestRoute","inputs":[{"name":"intent","type":"tuple","internalType":"struct IntentRouter.Intent","components":[{"name":"user","type":"address","internalType":"address"},{"name":"tokenIn","type":"address","internalType":"address"},{"name":"tokenOut","type":"address","internalType":"address"},{"name":"amountIn","type":"uint256","internalType":"uint256"},{"name":"minAmountOut","type":"uint256","internalType":"uint256"},{"name":"deadline","type":"uint256","internalType":"uint256"},{"name":"useRFQ","type":"bool","internalType":"bool"},{"name":"poolId","type":"bytes32","internalType":"bytes32"}]}],"outputs":[{"name":"route","type":"tuple","internalType":"struct IntentRouter.Route","components":[{"name":"pools","type":"address[]","internalType":"address[]"},{"name":"amounts","type":"uint256[]","internalType":"uint256[]"},{"name":"isRFQ","type":"bool","internalType":"bool"},{"name":"rfqSolver","type":"address","internalType":"address"}]}],"stateMutability":"view"},{"type":"function","name":"nonces","inputs":[{"name":"","type":"address","internalType":"address"}],"outputs":[{"name":"","type":"uint256","internalType":"uint256"}],"stateMutability":"view"},{"type":"function","name":"owner","inputs":[],"outputs":[{"name":"","type":"address","internalType":"address"}],"stateMutability":"view"},{"type":"function","name":"poolManager","inputs":[],"outputs":[{"name":"","type":"address","internalType":"contract MEVProtectedPoolManager"}],"stateMutability":"view"},{"type":"function","name":"quoteAMM","inputs":[{"name":"tokenIn","type":"address","internalType":"address"},{"name":"tokenOut","type":"address","internalType":"address"},{"name":"amountIn","type":"uint256","internalType":"uint256"}],"outputs":[{"name":"amountOut","type":"uint256","internalType":"uint256"}],"stateMutability":"view"},{"type":"function","name":"reclammManager","inputs":[],"outputs":[{"name":"","type":"address","internalType":"contract ReCLAMMPoolManager"}],"stateMutability":"view"},{"type":"function","name":"rfqFeeBps","inputs":[],"outputs":[{"name":"","type":"uint256","internalType":"uint256"}],"stateMutability":"view"},{"type":"function","name":"rfqThreshold","inputs":[],"outputs":[{"name":"","type":"uint256","internalType":"uint256"}],"stateMutability":"view"},{"type":"function","name":"setFeeRecipient","inputs":[{"name":"newRecipient","type":"address","internalType":"address"}],"outputs":[],"stateMutability":"nonpayable"},{"type":"function","name":"setRFQFee","inputs":[{"name":"newFeeBps","type":"uint256","internalType":"uint256"}],"outputs":[],"stateMutability":"nonpayable"},{"type":"function","name":"setRFQThreshold","inputs":[{"name":"newThreshold","type":"uint256","internalType":"uint256"}],"outputs":[],"stateMutability":"nonpayable"},{"type":"function","name":"shouldUseRFQ","inputs":[{"name":"intent","type":"tuple","internalType":"struct IntentRouter.Intent","components":[{"name":"user","type":"address","internalType":"address"},{"name":"tokenIn","type":"address","internalType":"address"},{"name":"tokenOut","type":"address","internalType":"address"},{"name":"amountIn","type":"uint256","internalType":"uint256"},{"name":"minAmountOut","type":"uint256","internalType":"uint256"},{"name":"deadline","type":"uint256","internalType":"uint256"},{"name":"useRFQ","type":"bool","internalType":"bool"},{"name":"poolId","type":"bytes32","internalType":"bytes32"}]}],"outputs":[{"name":"","type":"bool","internalType":"bool"}],"stateMutability":"view"},{"type":"event","name":"IntentExecuted","inputs":[{"name":"intentHash","type":"bytes32","indexed":true,"internalType":"bytes32"},{"name":"user","type":"address","indexed":true,"internalType":"address"},{"name":"tokenIn","type":"address","indexed":false,"internalType":"address"},{"name":"tokenOut","type":"address","indexed":false,"internalType":"address"},{"name":"amountIn","type":"uint256","indexed":false,"internalType":"uint256"},{"name":"amountOut","type":"uint256","indexed":false,"internalType":"uint256"},{"name":"usedRFQ","type":"bool","indexed":false,"internalType":"bool"}],"anonymous":false},{"type":"event","name":"RFQQuoteAccepted","inputs":[{"name":"intentHash","type":"bytes32","indexed":true,"internalType":"bytes32"},{"name":"solver","type":"address","indexed":true,"internalType":"address"},{"name":"amountOut","type":"uint256","indexed":false,"internalType":"uint256"}],"anonymous":false},{"type":"event","name":"SolverAuthorized","inputs":[{"name":"solver","type":"address","indexed":true,"internalType":"address"},{"name":"authorized","type":"bool","indexed":false,"internalType":"bool"}],"anonymous":false},{"type":"error","name":"InsufficientLiquidity","inputs":[]},{"type":"error","name":"IntentExpired","inputs":[]},{"type":"error","name":"InvalidSignature","inputs":[]},{"type":"error","name":"NotOwner","inputs":[]},{"type":"error","name":"QuoteExpired","inputs":[]},{"type":"error","name":"ReentrancyGuardReentrantCall","inputs":[]},{"type":"error","name":"SafeERC20FailedOperation","inputs":[{"name":"token","type":"address","internalType":"address"}]},{"type":"error","name":"SlippageExceeded","inputs":[]},{"type":"error","name":"UnauthorizedSolver","inputs":[]}],"bytecode":{"object":"0x6080346100ea57601f6116af38819003918201601f19168301916001600160401b038311848410176100ee578084926060946040528339810103126100ea5761004781610102565b90610060604061005960208401610102565b9201610102565b60017f9b779b17422d0df92223018b32b4d1fa46e071723d6817e2486d003becc55f008190556402540be400600555600a6006555f80546001600160a01b03199081166001600160a01b0396871617909155815481169385169390931790556007805483169390911692909217909155600880549091163317905560405161159890816101178239f35b5f80fd5b634e487b7160e01b5f52604160045260245ffd5b51906001600160a01b03821682036100ea5756fe60806040526004361015610011575f80fd5b5f3560e01c8063261eb0d714610144578063469048401461013f57806351aa7eda1461013a578063570232631461013557806365785f04146101305780636ba2eed21461012b5780637ac2b46c146101265780637ecebe00146101215780638da5cb5b1461011c5780639672fb2e14610117578063abd8c8fd14610112578063b0ac814e1461010d578063bb7af69b14610108578063c1cf9e7e14610103578063c4b73480146100fe578063d2d6f5d6146100f9578063dc4c90d3146100f4578063e74b981b146100ef5763e7de2248146100ea575f80fd5b6108a8565b610857565b610830565b610808565b6107de565b61074e565b6106ef565b610619565b61053d565b6104fd565b6104d5565b61049a565b610433565b6103f9565b6103aa565b61031c565b6102ae565b610286565b6101a2565b61010090600319011261015b57600490565b5f80fd5b906003198201610120811261015b576101001361015b57600491610104359067ffffffffffffffff821161015b57608090829003600319011261015b5760040190565b6101ab3661015f565b906101b4610d8e565b60208101356101c2816102e9565b6001600160a01b031661024d57606081013534036102115761020d916101e791610def565b6101fd60015f5160206115435f395f51905f5255565b6040519081529081906020820190565b0390f35b60405162461bcd60e51b8152602060048201526014602482015273125b98dbdc9c9958dd0811551208185b5bdd5b9d60621b6044820152606490fd5b60405162461bcd60e51b8152602060048201526011602482015270135d5cdd08189948115512081a5b9c1d5d607a1b6044820152606490fd5b3461015b575f36600319011261015b576007546040516001600160a01b039091168152602090f35b3461015b57602036600319011261015b57600854600435906001600160a01b031633036102da57600555005b6330cd747160e01b5f5260045ffd5b6001600160a01b0381160361015b57565b3590610305826102e9565b565b8015150361015b57565b359061030582610307565b3461015b57604036600319011261015b57600435610339816102e9565b6024359061034682610307565b6008546001600160a01b031633036102da5760207f56acf19e182e3e8a10a6e33c6df3f53c25228315dbbcebe12422b34333f5b8599160018060a01b031692835f526002825260405f209015159060ff1981541660ff8316179055604051908152a2005b3461015b5761010036600319011261015b5760206103c736610149565b606081013560055411908115916103e4575b506040519015158152f35b60c0915001356103f381610307565b5f6103d9565b3461015b57602061041a61040c3661015f565b90610415610d8e565b610def565b60015f5160206115435f395f51905f5255604051908152f35b3461015b57602036600319011261015b576004356008546001600160a01b031633036102da576064811161046657600655005b60405162461bcd60e51b815260206004820152600c60248201526b08ccaca40e8dede40d0d2ced60a31b6044820152606490fd5b3461015b57602036600319011261015b576004356104b7816102e9565b60018060a01b03165f526004602052602060405f2054604051908152f35b3461015b575f36600319011261015b576008546040516001600160a01b039091168152602090f35b3461015b57602036600319011261015b5760043561051a816102e9565b60018060a01b03165f526002602052602060ff60405f2054166040519015158152f35b3461015b575f36600319011261015b576020600654604051908152f35b90602080835192838152019201905f5b8181106105775750505090565b825184526020938401939092019160010161056a565b6020815260a08101825190608060208401528151809152602060c084019201905f5b8181106105fa5750505090608060606105db6105f7946020870151601f1986830301604087015261055a565b60408601511515848301529401516001600160a01b0316910152565b90565b82516001600160a01b03168452602093840193909201916001016105af565b3461015b5761010036600319011261015b5761020d61063736610149565b606061064161099f565b9161064e60208201610941565b5061065b60408201610941565b50013561066781610f87565b61067a610673826109e8565b6064900490565b91600554118015906106db575b156106b85750600160408301526106aa61069f610a5d565b806020850152610ac5565b525b6040519182918261058d565b90505f60408301526106c8610a5d565b82526106d561069f610a5d565b526106ac565b506106e8610673826109fe565b8211610687565b3461015b575f36600319011261015b576020600554604051908152f35b9181601f8401121561015b5782359167ffffffffffffffff831161015b576020808501948460051b01011161015b57565b9060206105f792818152019061055a565b3461015b57604036600319011261015b5760043567ffffffffffffffff811161015b573660238201121561015b57806004013567ffffffffffffffff811161015b573660248260081b8401011161015b5760243567ffffffffffffffff811161015b5761020d926107d2926107c9602493369060040161070c565b93909201610aeb565b6040519182918261073d565b3461015b57602036600319011261015b576004355f526003602052602060405f2054604051908152f35b3461015b575f36600319011261015b576001546040516001600160a01b039091168152602090f35b3461015b575f36600319011261015b575f546040516001600160a01b039091168152602090f35b3461015b57602036600319011261015b57600435610874816102e9565b6008546001600160a01b031633036102da57600780546001600160a01b0319166001600160a01b0392909216919091179055005b3461015b57606036600319011261015b576108c46004356102e9565b6108cf6024356102e9565b6044356103e58102908082046103e5148115171561093c576b0338b2f64c64197405000000029080820469d3c21bcecceda1000000148115171561093c576b033b2e3c9fd0803ce80000000190816b033b2e3c9fd0803ce80000001161093c5761020d916101fd91610a27565b6109d4565b356105f7816102e9565b356105f781610307565b634e487b7160e01b5f52604160045260245ffd5b90601f8019910116810190811067ffffffffffffffff82111761098b57604052565b610955565b60405190610305606083610969565b604051906080820182811067ffffffffffffffff82111761098b576040525f6060838181528160208201528260408201520152565b634e487b7160e01b5f52601160045260245ffd5b9060668202918083046066149015171561093c57565b9060658202918083046065149015171561093c57565b8181029291811591840414171561093c57565b8115610a31570490565b634e487b7160e01b5f52601260045260245ffd5b67ffffffffffffffff811161098b5760051b60200190565b60408051909190610a6e8382610969565b6001815291601f1901366020840137565b90610a8982610a45565b610a966040519182610969565b8281528092610aa7601f1991610a45565b0190602036910137565b634e487b7160e01b5f52603260045260245ffd5b805115610ad25760200190565b610ab1565b8051821015610ad25760209160051b010190565b919092610af6610d8e565b610b01818514610bc3565b610b0a84610a7f565b935f5b818110610b305750505050509061030560015f5160206115435f395f51905f5255565b806020610b41610b68938589610c01565b610b4c838789610c11565b6040516335d1776960e11b815294859283929060048401610cf4565b03815f305af18015610bbe576001925f91610b90575b50610b898289610ad7565b5201610b0d565b610bb1915060203d8111610bb7575b610ba98183610969565b810190610c33565b5f610b7e565b503d610b9f565b610d83565b15610bca57565b60405162461bcd60e51b815260206004820152600f60248201526e098cadccee8d040dad2e6dac2e8c6d608b1b6044820152606490fd5b9190811015610ad25760081b0190565b9190811015610ad25760051b81013590607e198136030182121561015b570190565b9081602091031261015b575190565b60e080918035610c51816102e9565b6001600160a01b031684526020810135610c6a816102e9565b6001600160a01b03166020850152610c97610c87604083016102fa565b6001600160a01b03166040860152565b606081013560608501526080810135608085015260a081013560a0850152610ccd610cc460c08301610311565b151560c0860152565b0135910152565b908060209392818452848401375f828201840152601f01601f1916010190565b919082610d0091610c42565b6101206101008301528035610d14816102e9565b6001600160a01b031661012083015260208101356101408301526040810135610160830152606081013536829003601e190181121561015b57016020813591019067ffffffffffffffff811161015b57803603821361015b576101a08360806101806105f79601520191610cd4565b6040513d5f823e3d90fd5b60025f5160206115435f395f51905f525414610db75760025f5160206115435f395f51905f5255565b633ee5aeb560e01b5f5260045ffd5b5f19811461093c5760010190565b6101009093929193610deb81610120810196610c42565b0152565b9060a08201354211610f7857610e20610e0783610941565b6001600160a01b03165f90815260046020526040902090565b805490610e2c82610dc6565b9055604051610e5281610e4460208201948786610dd4565b03601f198101835282610969565b519020610e6160c0840161094b565b918215610f66575b8215610f58575b818380610f3e575b15610f2d57610e8791856111fd565b925b60808101358410610f1e5780610ebf7f27854aa66fb69dad4ad6496ee339b6beb6b3904a1b45c78481ea75eaa12191b392610941565b610f18610ece60208401610941565b95876060610ede60408701610941565b604080516001600160a01b039b8c168152918b166020830152919096013590860152606085015215156080840152941693819060a0820190565b0390a390565b638199f5f360e01b5f5260045ffd5b610f38915084610fec565b92610e89565b506001600160a01b03610f5083610941565b161515610e78565b602081013515159250610e70565b91506060830135600554111591610e69565b631022c88d60e21b5f5260045ffd5b6103e58102908082046103e5148115171561093c576b0338b2f64c64197405000000029080820469d3c21bcecceda1000000148115171561093c576b033b2e3c9fd0803ce800000001806b033b2e3c9fd0803ce80000001161093c576105f791610a27565b60e0810135801561114d576110f2905b60208301602061100b82610941565b92604086019361102961101d86610941565b6001600160a01b031690565b9060018060a01b0316109061108a60608801358098611050611049610990565b9515158652565b81868601525f604086015261107061106a61101d89610941565b91610941565b5f54611084906001600160a01b031661101d565b91611427565b5f5461109e906001600160a01b031661101d565b604080516302f929c160e31b815260048101939093528351151560248401526020840151604484015292909201516001600160a01b0316606482015294859190829066038d7ea4c680009082906084820190565b03925af1908115610bbe576111109361110a92611130575b50610941565b5061112c61111d82610f87565b925f52600360205260405f2090565b5590565b6111489060203d602011610bb757610ba98183610969565b61110a565b506110f261117261116060208401610941565b61116c60408501610941565b906113db565b610ffc565b903590601e198136030182121561015b570180359067ffffffffffffffff821161015b5760200191813603831361015b57565b92919267ffffffffffffffff821161098b57604051916111d4601f8201601f191660200184610969565b82948184528183011161015b578281602093845f960137010152565b9190820391821161093c57565b9161123461123061122961121085610941565b6001600160a01b03165f90815260026020526040902090565b5460ff1690565b1590565b6113cc576040820135918242116113bd5761129660208201359360405161127681610e4460208201948989876040919493926060820195825260208201520152565b5190206112906112896060850185611177565b36916111aa565b906114b4565b6112a261101d83610941565b6001600160a01b03909116036113ae57610f187fa84151bc9fec93ccb0a33405457a129c6f26800bf0d7e5ec999775f879959782916112ee6112e660065487610a14565b612710900490565b956113776112fc88886111f0565b9761135d61101d61131261101d60208701610941565b9461133661131f82610941565b9661132989610941565b6060840135988992611427565b6113588c604083019261134b61101d85610941565b9061108461106a8c610941565b610941565b61136685610941565b6007546001600160a01b0316611084565b611389855f52600360205260405f2090565b556001600160a01b039061139c90610941565b60405195865216939081906020820190565b638baa579f60e01b5f5260045ffd5b638727a7f960e01b5f5260045ffd5b6348422a6160e01b5f5260045ffd5b906040519060208201926bffffffffffffffffffffffff199060601b1683526bffffffffffffffffffffffff199060601b16603482015260288152611421604882610969565b51902090565b6040516323b872dd60e01b5f9081526001600160a01b039384166004529290931660245260449390935260209060648180865af160015f5114811615611495575b6040919091525f6060521561147a5750565b635274afe760e01b5f526001600160a01b031660045260245ffd5b60018115166114ab573d15833b15151616611468565b503d5f823e3d90fd5b60418251036114fd5760208281015160408085015160609586015182519586525f90811a868601529185019290925293830152828052919060809060015afa15610bbe575f5190565b60405162461bcd60e51b815260206004820152601860248201527f496e76616c6964207369676e6174757265206c656e67746800000000000000006044820152606490fdfe9b779b17422d0df92223018b32b4d1fa46e071723d6817e2486d003becc55f00a2646970667358221220a50291c153be0fe47e498cb9a25f62863224bb656f02d1c79b7d473c71a737b164736f6c634300081b0033","linkReferences":{}},"methodIdentifiers":{"authorizeSolver(address,bool)":"57023263","authorizedSolvers(address)":"9672fb2e","batchExecuteIntents((address,address,address,uint256,uint256,uint256,bool,bytes32)[],(address,uint256,uint256,bytes)[])":"c1cf9e7e","executeIntent((address,address,address,uint256,uint256,uint256,bool,bytes32),(address,uint256,uint256,bytes))":"6ba2eed2","executeIntentWithETH((address,address,address,uint256,uint256,uint256,bool,bytes32),(address,uint256,uint256,bytes))":"261eb0d7","feeRecipient()":"46904840","filledIntents(bytes32)":"c4b73480","getBestRoute((address,address,address,uint256,uint256,uint256,bool,bytes32))":"b0ac814e","nonces(address)":"7ecebe00","owner()":"8da5cb5b","poolManager()":"dc4c90d3","quoteAMM(address,address,uint256)":"e7de2248","reclammManager()":"d2d6f5d6","rfqFeeBps()":"abd8c8fd","rfqThreshold()":"bb7af69b","setFeeRecipient(address)":"e74b981b","setRFQFee(uint256)":"7ac2b46c","setRFQThreshold(uint256)":"51aa7eda","shouldUseRFQ((address,address,address,uint256,uint256,uint256,bool,bytes32))":"65785f04"},"id":110}