{"abi":[{"type":"constructor","inputs":[{"name":"_feeRecipient","type":"address","internalType":"address"}],"stateMutability":"nonpayable"},{"type":"function","name":"authorizeSolver","inputs":[{"name":"solver","type":"address","internalType":"address"},{"name":"authorized","type":"bool","internalType":"bool"}],"outputs":[],"stateMutability":"nonpayable"},{"type":"function","name":"authorizedSolvers","inputs":[{"name":"","type":"address","internalType":"address"}],"outputs":[{"name":"","type":"bool","internalType":"bool"}],"stateMutability":"view"},{"type":"function","name":"executeIntent","inputs":[{"name":"intent","type":"tuple","internalType":"struct IntentRouter.Intent","components":[{"name":"user","type":"address","internalType":"address"},{"name":"tokenIn","type":"address","internalType":"address"},{"name":"tokenOut","type":"address","internalType":"address"},{"name":"amountIn","type":"uint256","internalType":"uint256"},{"name":"minAmountOut","type":"uint256","internalType":"uint256"},{"name":"deadline","type":"uint256","internalType":"uint256"},{"name":"useRfq","type":"bool","internalType":"bool"}]},{"name":"quote","type":"tuple","internalType":"struct IntentRouter.RfqQuote","components":[{"name":"solver","type":"address","internalType":"address"},{"name":"amountOut","type":"uint256","internalType":"uint256"},{"name":"validUntil","type":"uint256","internalType":"uint256"},{"name":"signature","type":"bytes","internalType":"bytes"}]}],"outputs":[{"name":"amountOut","type":"uint256","internalType":"uint256"}],"stateMutability":"nonpayable"},{"type":"function","name":"feeRecipient","inputs":[],"outputs":[{"name":"","type":"address","internalType":"address"}],"stateMutability":"view"},{"type":"function","name":"nonces","inputs":[{"name":"","type":"address","internalType":"address"}],"outputs":[{"name":"","type":"uint256","internalType":"uint256"}],"stateMutability":"view"},{"type":"function","name":"owner","inputs":[],"outputs":[{"name":"","type":"address","internalType":"address"}],"stateMutability":"view"},{"type":"function","name":"rfqFeeBps","inputs":[],"outputs":[{"name":"","type":"uint256","internalType":"uint256"}],"stateMutability":"view"},{"type":"function","name":"rfqThreshold","inputs":[],"outputs":[{"name":"","type":"uint256","internalType":"uint256"}],"stateMutability":"view"},{"type":"function","name":"setRfqThreshold","inputs":[{"name":"newThreshold","type":"uint256","internalType":"uint256"}],"outputs":[],"stateMutability":"nonpayable"},{"type":"function","name":"transferOwnership","inputs":[{"name":"newOwner","type":"address","internalType":"address"}],"outputs":[],"stateMutability":"nonpayable"},{"type":"event","name":"IntentExecuted","inputs":[{"name":"intentHash","type":"bytes32","indexed":true,"internalType":"bytes32"},{"name":"user","type":"address","indexed":true,"internalType":"address"},{"name":"tokenIn","type":"address","indexed":false,"internalType":"address"},{"name":"tokenOut","type":"address","indexed":false,"internalType":"address"},{"name":"amountIn","type":"uint256","indexed":false,"internalType":"uint256"},{"name":"amountOut","type":"uint256","indexed":false,"internalType":"uint256"},{"name":"usedRfq","type":"bool","indexed":false,"internalType":"bool"}],"anonymous":false},{"type":"event","name":"SolverAuthorized","inputs":[{"name":"solver","type":"address","indexed":true,"internalType":"address"},{"name":"authorized","type":"bool","indexed":false,"internalType":"bool"}],"anonymous":false},{"type":"error","name":"IntentExpired","inputs":[]},{"type":"error","name":"NotOwner","inputs":[]},{"type":"error","name":"QuoteExpired","inputs":[]},{"type":"error","name":"ReentrancyGuardReentrantCall","inputs":[]},{"type":"error","name":"SafeERC20FailedOperation","inputs":[{"name":"token","type":"address","internalType":"address"}]},{"type":"error","name":"SlippageExceeded","inputs":[]},{"type":"error","name":"UnauthorizedSolver","inputs":[]}],"bytecode":{"object":"0x60803460ae57601f6108c838819003918201601f19168301916001600160401b0383118484101760b25780849260209460405283398101031260ae57516001600160a01b0381169081900360ae5760017f9b779b17422d0df92223018b32b4d1fa46e071723d6817e2486d003becc55f008190556402540be400600455600a60055580546001600160a01b03199081169290921790555f80549091163317905560405161080190816100c78239f35b5f80fd5b634e487b7160e01b5f52604160045260245ffdfe6080806040526004361015610012575f80fd5b5f3560e01c9081630991550c1461029257508063469048401461026a57806352a92b6e1461024057806357023263146101ba5780637ecebe00146101825780638da5cb5b1461015b5780639672fb2e1461011e578063abd8c8fd14610101578063bb7af69b146100e45763f2fde38b1461008a575f80fd5b346100e05760203660031901126100e0576100a36106cd565b5f54906001600160a01b03821633036100d1576001600160a01b03166001600160a01b031991909116175f55005b6330cd747160e01b5f5260045ffd5b5f80fd5b346100e0575f3660031901126100e0576020600454604051908152f35b346100e0575f3660031901126100e0576020600554604051908152f35b346100e05760203660031901126100e0576001600160a01b0361013f6106cd565b165f526002602052602060ff60405f2054166040519015158152f35b346100e0575f3660031901126100e0575f546040516001600160a01b039091168152602090f35b346100e05760203660031901126100e0576001600160a01b036101a36106cd565b165f526003602052602060405f2054604051908152f35b346100e05760403660031901126100e0576101d36106cd565b602435908115158092036100e0575f546001600160a01b031633036100d15760207f56acf19e182e3e8a10a6e33c6df3f53c25228315dbbcebe12422b34333f5b8599160018060a01b031692835f526002825260405f2060ff1981541660ff8316179055604051908152a2005b346100e05760203660031901126100e0575f546001600160a01b031633036100d157600480359055005b346100e0575f3660031901126100e0576001546040516001600160a01b039091168152602090f35b346100e057366003190161010081126100e05760e0136100e05760e4359067ffffffffffffffff82116100e0578160040191608060031982360301126100e05760027f9b779b17422d0df92223018b32b4d1fa46e071723d6817e2486d003becc55f0054146106be5760027f9b779b17422d0df92223018b32b4d1fa46e071723d6817e2486d003becc55f005560a435918242116106af576001600160a01b0361033a6106e3565b165f52600360205260405f20938454945f1986146105a25760018601905560208201926001600160a01b0361036d6106cd565b1684526024356001600160a01b038116908190036100e05760408401526044356001600160a01b038116908190036100e057606084015260643593846080850152608435958660a086015260c085015260c4359384159788158087036100e05760e08301526101008201526101008152610120810181811067ffffffffffffffff82111761069b57604052519020929561068e575b8515610680575b8580610666575b156105d4576001600160a01b0361042683610725565b165f52600260205260ff60405f205416156105c557604481013542116105b65760240135906005548083029083820414831517156105a25761271090048083039283116105a2576104ef9161049d866001600160a01b036104856106f9565b1661048e6106e3565b61049785610725565b91610739565b6104c3846001600160a01b036104b161070f565b166104bb84610725565b6104976106e3565b6104dd6001600160a01b036104d661070f565b1691610725565b6001546001600160a01b031691610739565b925b8310610593577f27854aa66fb69dad4ad6496ee339b6beb6b3904a1b45c78481ea75eaa12191b360a06020956105256106e3565b9061052e6106f9565b9561053761070f565b604080515f196001881b01998a1681529189168b830152810191909152606081018890529015156080820152941693a360017f9b779b17422d0df92223018b32b4d1fa46e071723d6817e2486d003becc55f0055604051908152f35b638199f5f360e01b5f5260045ffd5b634e487b7160e01b5f52601160045260245ffd5b638727a7f960e01b5f5260045ffd5b6348422a6160e01b5f5260045ffd5b50506105de6106f9565b506105e761070f565b506103e582028281046103e514831517156105a2576b0338b2f64c6419740500000083029080820469d3c21bcecceda100000014811517156105a2576b033b2e3c9fd0803ce80000000190816b033b2e3c9fd0803ce8000000116105a25781156106525704926104f1565b634e487b7160e01b5f52601260045260245ffd5b506001600160a01b0361067883610725565b161515610410565b602481013515159550610409565b6004548410159550610402565b634e487b7160e01b5f52604160045260245ffd5b631022c88d60e21b5f5260045ffd5b633ee5aeb560e01b5f5260045ffd5b600435906001600160a01b03821682036100e057565b6004356001600160a01b03811681036100e05790565b6024356001600160a01b03811681036100e05790565b6044356001600160a01b03811681036100e05790565b356001600160a01b03811681036100e05790565b6040516323b872dd60e01b5f9081526001600160a01b039384166004529290931660245260449390935260209060648180865af19060015f51148216156107aa575b6040525f6060521561078a5750565b635274afe760e01b5f9081526001600160a01b0391909116600452602490fd5b9060018115166107c257823b15153d1516169061077b565b503d5f823e3d90fdfea2646970667358221220da5209ecd5a53e3e802108328e5e59bfd0a5965ff9288edcfbbce6c62fec042164736f6c634300081b0033","linkReferences":{}},"methodIdentifiers":{"authorizeSolver(address,bool)":"57023263","authorizedSolvers(address)":"9672fb2e","executeIntent((address,address,address,uint256,uint256,uint256,bool),(address,uint256,uint256,bytes))":"0991550c","feeRecipient()":"46904840","nonces(address)":"7ecebe00","owner()":"8da5cb5b","rfqFeeBps()":"abd8c8fd","rfqThreshold()":"bb7af69b","setRfqThreshold(uint256)":"52a92b6e","transferOwnership(address)":"f2fde38b"},"id":10}