{"abi":[{"type":"constructor","inputs":[{"name":"_factory","type":"address","internalType":"address"},{"name":"_WETH9","type":"address","internalType":"address"}],"stateMutability":"nonpayable"},{"type":"receive","stateMutability":"payable"},{"type":"function","name":"WETH9","inputs":[],"outputs":[{"name":"","type":"address","internalType":"address"}],"stateMutability":"view"},{"type":"function","name":"exactInput","inputs":[{"name":"params","type":"tuple","internalType":"struct ICLRouter.ExactInputParams","components":[{"name":"path","type":"bytes","internalType":"bytes"},{"name":"recipient","type":"address","internalType":"address"},{"name":"deadline","type":"uint256","internalType":"uint256"},{"name":"amountIn","type":"uint256","internalType":"uint256"},{"name":"amountOutMinimum","type":"uint256","internalType":"uint256"}]}],"outputs":[{"name":"amountOut","type":"uint256","internalType":"uint256"}],"stateMutability":"payable"},{"type":"function","name":"exactInputSingle","inputs":[{"name":"params","type":"tuple","internalType":"struct ICLRouter.ExactInputSingleParams","components":[{"name":"tokenIn","type":"address","internalType":"address"},{"name":"tokenOut","type":"address","internalType":"address"},{"name":"tickSpacing","type":"int24","internalType":"int24"},{"name":"recipient","type":"address","internalType":"address"},{"name":"deadline","type":"uint256","internalType":"uint256"},{"name":"amountIn","type":"uint256","internalType":"uint256"},{"name":"amountOutMinimum","type":"uint256","internalType":"uint256"},{"name":"sqrtPriceLimitX96","type":"uint160","internalType":"uint160"}]}],"outputs":[{"name":"amountOut","type":"uint256","internalType":"uint256"}],"stateMutability":"payable"},{"type":"function","name":"exactOutput","inputs":[{"name":"params","type":"tuple","internalType":"struct ICLRouter.ExactOutputParams","components":[{"name":"path","type":"bytes","internalType":"bytes"},{"name":"recipient","type":"address","internalType":"address"},{"name":"deadline","type":"uint256","internalType":"uint256"},{"name":"amountOut","type":"uint256","internalType":"uint256"},{"name":"amountInMaximum","type":"uint256","internalType":"uint256"}]}],"outputs":[{"name":"amountIn","type":"uint256","internalType":"uint256"}],"stateMutability":"payable"},{"type":"function","name":"exactOutputSingle","inputs":[{"name":"params","type":"tuple","internalType":"struct ICLRouter.ExactOutputSingleParams","components":[{"name":"tokenIn","type":"address","internalType":"address"},{"name":"tokenOut","type":"address","internalType":"address"},{"name":"tickSpacing","type":"int24","internalType":"int24"},{"name":"recipient","type":"address","internalType":"address"},{"name":"deadline","type":"uint256","internalType":"uint256"},{"name":"amountOut","type":"uint256","internalType":"uint256"},{"name":"amountInMaximum","type":"uint256","internalType":"uint256"},{"name":"sqrtPriceLimitX96","type":"uint160","internalType":"uint160"}]}],"outputs":[{"name":"amountIn","type":"uint256","internalType":"uint256"}],"stateMutability":"payable"},{"type":"function","name":"factory","inputs":[],"outputs":[{"name":"","type":"address","internalType":"address"}],"stateMutability":"view"},{"type":"error","name":"Expired","inputs":[]},{"type":"error","name":"InsufficientOutputAmount","inputs":[]},{"type":"error","name":"InvalidPath","inputs":[]},{"type":"error","name":"SafeERC20FailedOperation","inputs":[{"name":"token","type":"address","internalType":"address"}]},{"type":"error","name":"TooLittleReceived","inputs":[]},{"type":"error","name":"TooMuchRequested","inputs":[]}],"bytecode":{"object":"0x60c0346100ae57601f61106938819003918201601f19168301916001600160401b038311848410176100b25780849260409485528339810103126100ae57610052602061004b836100c6565b92016100c6565b905f195f5560805260a052604051610f8e90816100db8239608051818181610161015281816104ba015281816106c60152610771015260a0518181816093015281816101c70152818161044e015281816107c50152610cfd0152f35b5f80fd5b634e487b7160e01b5f52604160045260245ffd5b51906001600160a01b03821682036100ae5756fe60806040526004361015610022575b3615610018575f80fd5b610020610cfb565b005b5f3560e01c80634aa4a4fc14610081578063a026383e1461007c578063c04b8d5914610077578063c45a015514610072578063c714e8381461006d5763f28c04980361000e576109c8565b6106f5565b6106b1565b610410565b6100e5565b346100c5575f3660031901126100c5577f00000000000000000000000000000000000000000000000000000000000000006001600160a01b03166080908152602090f35b5f80fd5b5f9103126100c557565b6101009060031901126100c557600490565b6101003660031901126100c5576100fb366100d3565b608081013542116103d25761010f81610af4565b60208201602061011e82610af4565b61012a60408601610b01565b6040516328af8d0b60e01b81526001600160a01b039586166004820152918516602483015260020b604482015292839060649082907f0000000000000000000000000000000000000000000000000000000000000000165afa91821561031d575f926103a1575b506101b36101a76101a185610af4565b92610af4565b6001600160a01b031690565b6001600160a01b03909116103415610368577f00000000000000000000000000000000000000000000000000000000000000006001600160a01b0316803b156100c557604051630d0e30db60e41b8152905f8260048134855af191821561031d5761022a9261034e575b508360a086013591610deb565b604061023860608501610af4565b9260a0850135908360e087016001600160a01b0361025582610af4565b1661033e575050831561032257835f6401000276a45b965b61028c865198899687958694630251596160e31b865260048601610b94565b03926001600160a01b03165af1801561031d5760c0926102bb925f915f936102ea575b50156102e35750610bcc565b91013581106102d45760405190815280602081015b0390f35b63c9f52c7160e01b5f5260045ffd5b9050610bcc565b90925061030f915060403d604011610316575b6103078183610b23565b810190610b7e565b915f6102af565b503d6102fd565b610b5f565b835f73fffd8963efd1fc6a506488495d951d5263988d2561026b565b6103485f91610af4565b9661026d565b8061035c5f61036293610b23565b806100c9565b5f61021d565b61039c6103776101a785610af4565b61038a60a0860135809230903390610d5d565b836103976101a787610af4565b610deb565b61022a565b6103c491925060203d6020116103cb575b6103bc8183610b23565b810190610b4a565b905f610191565b503d6103b2565b630407b05b60e31b5f5260045ffd5b60206003198201126100c55760043567ffffffffffffffff81116100c55760a090600401809203126100c55790565b610419366103e1565b604081013542116103d25761044061043b6104348380610be1565b3691610c42565b610e7c565b9192919083341561068e57507f00000000000000000000000000000000000000000000000000000000000000006001600160a01b0316803b156100c5575f60049160405192838092630d0e30db60e41b825234905af1801561031d5761067a575b5092905b6060830135936104b86104348580610be1565b7f00000000000000000000000000000000000000000000000000000000000000006001600160a01b031695909290610538905b84516042111595861561066757602030945b6040516328af8d0b60e01b81526001600160a01b0380851660048301528816602482015260029190910b604482015293849081906064820190565b03818c5afa801561031d57826040945f92610645575b506001600160a01b039687169690921695861095909161056f918390610deb565b841561062857845f6401000276a4955b61059e865197889687958694630251596160e31b865260048601610b94565b03926001600160a01b03165af190811561031d576105ca925f915f9361060d5750156102e35750610bcc565b91156105f657906105dd61053892610ec3565b936105e785610e7c565b929691949193909291906104eb565b50906080013581106102d457604051908152602090f35b90925061030f915060403d8111610316576103078183610b23565b845f73fffd8963efd1fc6a506488495d951d5263988d259561057f565b61056f92506106619060203d81116103cb576103bc8183610b23565b9161054e565b6020610674818a01610af4565b946104fd565b8061035c5f61068893610b23565b5f6104a1565b6106aa90606085013590309033906001600160a01b0316610d5d565b92906104a5565b346100c5575f3660031901126100c5576040517f00000000000000000000000000000000000000000000000000000000000000006001600160a01b03168152602090f35b6101003660031901126100c55761070b366100d3565b608081013542116103d25761071f81610af4565b60208201602061072e82610af4565b61073a60408601610b01565b6040516328af8d0b60e01b81526001600160a01b039586166004820152918516602483015260020b604482015292839060649082907f0000000000000000000000000000000000000000000000000000000000000000165afa91821561031d575f926109a7575b506107b16101a76101a185610af4565b6001600160a01b03909116103415610980577f00000000000000000000000000000000000000000000000000000000000000006001600160a01b0316803b156100c557604051630d0e30db60e41b8152905f8260048134855af191821561031d576108289261096c575b508360c086013591610deb565b604061083660608501610af4565b9261084460a0860135610bcc565b908360e087016001600160a01b0361085b82610af4565b1661095c575050831561094057835f6401000276a45b965b610892865198899687958694630251596160e31b865260048601610b94565b03926001600160a01b03165af190811561031d575f925f9261091c575b501561091557505b60c082013591828211610906576108d1826102d094610c78565b806108e9575b50506040519081529081906020820190565b6108f86101a76108ff93610af4565b3390610deb565b5f806108d7565b6324df576f60e01b5f5260045ffd5b90506108b7565b909250610938915060403d604011610316576103078183610b23565b90915f6108af565b835f73fffd8963efd1fc6a506488495d951d5263988d25610871565b6109665f91610af4565b96610873565b8061035c5f61097a93610b23565b5f61081b565b6109a261098f6101a785610af4565b61038a60c0860135809230903390610d5d565b610828565b6109c191925060203d6020116103cb576103bc8183610b23565b905f6107a1565b6109d1366103e1565b6040810135908142116103d257610a8c91610a5d826109f861043b61043483602097610be1565b610a4d610a0b8886989597949801610af4565b91610a436080606088013597013597610a34610a25610c14565b6001600160a01b03909b168b52565b6001600160a01b0316898b0152565b60020b6040880152565b6001600160a01b03166060860152565b608084015260a083015260c08201525f60e0820152604051809381926318e29d0760e31b835260048301610c94565b03815f305af1801561031d576102d0915f91610ab4575b506040519081529081906020820190565b610ad6915060203d602011610adc575b610ace8183610b23565b810190610c85565b5f610aa3565b503d610ac4565b6001600160a01b038116036100c557565b35610afe81610ae3565b90565b358060020b81036100c55790565b634e487b7160e01b5f52604160045260245ffd5b90601f8019910116810190811067ffffffffffffffff821117610b4557604052565b610b0f565b908160209103126100c55751610afe81610ae3565b6040513d5f823e3d90fd5b634e487b7160e01b5f52601160045260245ffd5b91908260409103126100c5576020825192015190565b6001600160a01b039182168152911515602083015260408201929092529116606082015260a0608082018190525f9082015260c00190565b600160ff1b8114610bdc575f0390565b610b6a565b903590601e19813603018212156100c5570180359067ffffffffffffffff82116100c5576020019181360383136100c557565b60405190610c2461010083610b23565b565b67ffffffffffffffff8111610b4557601f01601f191660200190565b929192610c4e82610c26565b91610c5c6040519384610b23565b8294818452818301116100c5578281602093845f960137010152565b91908203918211610bdc57565b908160209103126100c5575190565b81516001600160a01b03908116825260208084015182169083015260408084015160020b908301526060808401518216908301526080808401519083015260a0808401519083015260c0808401519083015260e09283015116918101919091526101000190565b7f00000000000000000000000000000000000000000000000000000000000000006001600160a01b03163303610d2d57565b60405162461bcd60e51b815260206004820152600860248201526709cdee840ae8aa8960c31b6044820152606490fd5b6040516323b872dd60e01b5f9081526001600160a01b039384166004529290931660245260449390935260209060648180865af160015f5114811615610dcc575b6040919091525f606052155b610db15750565b635274afe760e01b5f526001600160a01b031660045260245ffd5b6001811516610de2573d15833b15151616610d9e565b503d5f823e3d90fd5b916040519163a9059cbb60e01b5f5260018060a01b031660045260245260205f60448180865af160015f5114811615610e2b575b60409190915215610daa565b6001811516610de2573d15833b15151616610e1f565b15610e4857565b60405162461bcd60e51b815260206004820152600c60248201526b092dcecc2d8d2c840e0c2e8d60a31b6044820152606490fd5b90610e8b602b83511015610e41565b601482015191602b601782015191015191565b908151811015610eaf570160200190565b634e487b7160e01b5f52603260045260245ffd5b610ed1602b82511015610e41565b8051601619810191908211610bdc57610ee982610c26565b91610ef76040519384610b23565b808352601f19610f0682610c26565b013660208501375f5b818110610f1c5750505090565b6017810190818111610bdc57610f45610f3760019386610e9e565b516001600160f81b03191690565b5f1a610f518287610e9e565b5301610f0f56fea2646970667358221220d89a764355f6d55b0538fadd4d05354cc1b0c5124744a8e78a4581c15756af4864736f6c634300081b0033","linkReferences":{}},"methodIdentifiers":{"WETH9()":"4aa4a4fc","exactInput((bytes,address,uint256,uint256,uint256))":"c04b8d59","exactInputSingle((address,address,int24,address,uint256,uint256,uint256,uint160))":"a026383e","exactOutput((bytes,address,uint256,uint256,uint256))":"f28c0498","exactOutputSingle((address,address,int24,address,uint256,uint256,uint256,uint160))":"c714e838","factory()":"c45a0155"},"id":99}