{"abi":[{"type":"constructor","inputs":[{"name":"_rewardsDistributor","type":"address","internalType":"address"},{"name":"_btbToken","type":"address","internalType":"address"}],"stateMutability":"nonpayable"},{"type":"function","name":"authorizePool","inputs":[{"name":"pool","type":"address","internalType":"address"},{"name":"authorized","type":"bool","internalType":"bool"}],"outputs":[],"stateMutability":"nonpayable"},{"type":"function","name":"authorizedPools","inputs":[{"name":"","type":"address","internalType":"address"}],"outputs":[{"name":"","type":"bool","internalType":"bool"}],"stateMutability":"view"},{"type":"function","name":"btbToken","inputs":[],"outputs":[{"name":"","type":"address","internalType":"address"}],"stateMutability":"view"},{"type":"function","name":"collectFees","inputs":[{"name":"token","type":"address","internalType":"address"},{"name":"amount","type":"uint256","internalType":"uint256"}],"outputs":[],"stateMutability":"nonpayable"},{"type":"function","name":"depositBTB","inputs":[{"name":"amount","type":"uint256","internalType":"uint256"}],"outputs":[],"stateMutability":"nonpayable"},{"type":"function","name":"distributeFees","inputs":[],"outputs":[],"stateMutability":"nonpayable"},{"type":"function","name":"owner","inputs":[],"outputs":[{"name":"","type":"address","internalType":"address"}],"stateMutability":"view"},{"type":"function","name":"rescueTokens","inputs":[{"name":"token","type":"address","internalType":"address"},{"name":"amount","type":"uint256","internalType":"uint256"}],"outputs":[],"stateMutability":"nonpayable"},{"type":"function","name":"rewardsDistributor","inputs":[],"outputs":[{"name":"","type":"address","internalType":"contract IRewardsDistributor"}],"stateMutability":"view"},{"type":"function","name":"transferOwnership","inputs":[{"name":"newOwner","type":"address","internalType":"address"}],"outputs":[],"stateMutability":"nonpayable"},{"type":"event","name":"FeesCollected","inputs":[{"name":"pool","type":"address","indexed":true,"internalType":"address"},{"name":"token","type":"address","indexed":true,"internalType":"address"},{"name":"amount","type":"uint256","indexed":false,"internalType":"uint256"}],"anonymous":false},{"type":"event","name":"PoolAuthorized","inputs":[{"name":"pool","type":"address","indexed":true,"internalType":"address"},{"name":"authorized","type":"bool","indexed":false,"internalType":"bool"}],"anonymous":false},{"type":"error","name":"NotAuthorized","inputs":[]},{"type":"error","name":"NotOwner","inputs":[]},{"type":"error","name":"ReentrancyGuardReentrantCall","inputs":[]},{"type":"error","name":"SafeERC20FailedOperation","inputs":[{"name":"token","type":"address","internalType":"address"}]}],"bytecode":{"object":"0x60803460b857601f61085c38819003918201601f19168301916001600160401b0383118484101760bc57808492604094855283398101031260b857604b602060458360d0565b920160d0565b60017f9b779b17422d0df92223018b32b4d1fa46e071723d6817e2486d003becc55f008190555f80546001600160a01b03199081166001600160a01b0395861617909155815481169390921692909217909155600380549091163317905560405161077890816100e48239f35b5f80fd5b634e487b7160e01b5f52604160045260245ffd5b51906001600160a01b038216820360b85756fe6080806040526004361015610012575f80fd5b5f905f3560e01c9081633f2a55401461058457508063479cf1de1461055c57806357376198146104ad5780638da5cb5b14610485578063a033fcd414610420578063bb57ad20146102be578063c6f8824d146101b4578063c921634414610127578063e816b393146100e85763f2fde38b1461008c575f80fd5b346100e55760203660031901126100e5576100a56105a6565b600354906001600160a01b03821633036100d6576001600160a01b03166001600160a01b0319919091161760035580f35b6330cd747160e01b8352600483fd5b80fd5b50346100e55760203660031901126100e55760209060ff906040906001600160a01b036101136105a6565b168152600284522054166040519015158152f35b50346100e55760403660031901126100e5576101416105a6565b602435908115158092036101b0576003546001600160a01b031633036100d65760207fe36c1c5646056c35ea7cf47929401e11acbbe689ed31e681ae372723ce3621dc9160018060a01b031692838552600282526040852060ff1981541660ff8316179055604051908152a280f35b8280fd5b50346100e55760203660031901126100e557806004356101e28160018060a01b036001541630903390610690565b600154825460405163095ea7b360e01b81526001600160a01b0391821660048201526024810184905291602091839160449183918891165af180156102b357610286575b5081546001600160a01b031690813b15610282578291602483926040519485938492636d88f45160e01b845260048401525af18015610277576102665750f35b816102709161060a565b6100e55780f35b6040513d84823e3d90fd5b5050fd5b6102a79060203d6020116102ac575b61029f818361060a565b810190610640565b610226565b503d610295565b6040513d85823e3d90fd5b50346103cb575f3660031901126103cb576102d7610658565b6001546040516370a0823160e01b8152306004820152906001600160a01b0316602082602481845afa9182156103c0575f926103ec575b508161032a575b8260015f5160206107235f395f51905f525580f35b5f805460405163095ea7b360e01b81526001600160a01b0390911660048201526024810184905291602091839160449183915af180156103c0576103cf575b505f546001600160a01b031690813b156103cb575f91602483926040519485938492636d88f45160e01b845260048401525af180156103c0576103ad575b80610315565b6103b991505f9061060a565b5f5f6103a7565b6040513d5f823e3d90fd5b5f80fd5b6103e79060203d6020116102ac5761029f818361060a565b610369565b9091506020813d602011610418575b816104086020938361060a565b810103126103cb5751905f61030e565b3d91506103fb565b346103cb5760403660031901126103cb576104396105a6565b335f52600260205260ff60405f20541615610476576104639061045a610658565b602435906105bc565b60015f5160206107235f395f51905f5255005b63ea8e4eb560e01b5f5260045ffd5b346103cb575f3660031901126103cb576003546040516001600160a01b039091168152602090f35b346103cb5760403660031901126103cb576104c66105a6565b6003546001600160a01b0316903382900361054d5760018060a01b0316906040519063a9059cbb60e01b5f5260045260243560245260205f60448180865af19060015f511482161561052d575b501561051b57005b635274afe760e01b5f5260045260245ffd5b60018215166105455750813b15153d15161682610513565b3d5f823e3d90fd5b6330cd747160e01b5f5260045ffd5b346103cb575f3660031901126103cb576001546040516001600160a01b039091168152602090f35b346103cb575f3660031901126103cb575f546001600160a01b03168152602090f35b600435906001600160a01b03821682036103cb57565b8115610606576001600160a01b0316906105d881303385610690565b6040519081527f9bcb6d1f38f6800906185471a11ede9a8e16200853225aa62558db6076490f2d60203392a3565b5050565b90601f8019910116810190811067ffffffffffffffff82111761062c57604052565b634e487b7160e01b5f52604160045260245ffd5b908160209103126103cb575180151581036103cb5790565b60025f5160206107235f395f51905f5254146106815760025f5160206107235f395f51905f5255565b633ee5aeb560e01b5f5260045ffd5b6040516323b872dd60e01b5f9081526001600160a01b039384166004529290931660245260449390935260209060648180865af19060015f5114821615610701575b6040525f606052156106e15750565b635274afe760e01b5f9081526001600160a01b0391909116600452602490fd5b90600181151661071957823b15153d151616906106d2565b503d5f823e3d90fdfe9b779b17422d0df92223018b32b4d1fa46e071723d6817e2486d003becc55f00a264697066735822122073d3afbd33c0f7a748ae87c23d7a3db26c77688bc270950b49f5e4e4ba37b90564736f6c634300081b0033","linkReferences":{}},"methodIdentifiers":{"authorizePool(address,bool)":"c9216344","authorizedPools(address)":"e816b393","btbToken()":"479cf1de","collectFees(address,uint256)":"a033fcd4","depositBTB(uint256)":"c6f8824d","distributeFees()":"bb57ad20","owner()":"8da5cb5b","rescueTokens(address,uint256)":"57376198","rewardsDistributor()":"3f2a5540","transferOwnership(address)":"f2fde38b"},"id":88}