{"abi":[{"type":"constructor","inputs":[{"name":"_rewardsDistributor","type":"address","internalType":"address"},{"name":"_btbToken","type":"address","internalType":"address"}],"stateMutability":"nonpayable"},{"type":"function","name":"authorizePool","inputs":[{"name":"pool","type":"address","internalType":"address"},{"name":"authorized","type":"bool","internalType":"bool"}],"outputs":[],"stateMutability":"nonpayable"},{"type":"function","name":"authorizedPools","inputs":[{"name":"","type":"address","internalType":"address"}],"outputs":[{"name":"","type":"bool","internalType":"bool"}],"stateMutability":"view"},{"type":"function","name":"btbToken","inputs":[],"outputs":[{"name":"","type":"address","internalType":"address"}],"stateMutability":"view"},{"type":"function","name":"collectFees","inputs":[{"name":"token","type":"address","internalType":"address"},{"name":"amount","type":"uint256","internalType":"uint256"}],"outputs":[],"stateMutability":"nonpayable"},{"type":"function","name":"distributeFees","inputs":[],"outputs":[],"stateMutability":"nonpayable"},{"type":"function","name":"owner","inputs":[],"outputs":[{"name":"","type":"address","internalType":"address"}],"stateMutability":"view"},{"type":"function","name":"rescueTokens","inputs":[{"name":"token","type":"address","internalType":"address"},{"name":"amount","type":"uint256","internalType":"uint256"}],"outputs":[],"stateMutability":"nonpayable"},{"type":"function","name":"rewardsDistributor","inputs":[],"outputs":[{"name":"","type":"address","internalType":"contract IRewardsDistributor"}],"stateMutability":"view"},{"type":"event","name":"FeesCollected","inputs":[{"name":"pool","type":"address","indexed":true,"internalType":"address"},{"name":"token","type":"address","indexed":true,"internalType":"address"},{"name":"amount","type":"uint256","indexed":false,"internalType":"uint256"}],"anonymous":false},{"type":"error","name":"NotAuthorized","inputs":[]},{"type":"error","name":"NotOwner","inputs":[]},{"type":"error","name":"ReentrancyGuardReentrantCall","inputs":[]},{"type":"error","name":"SafeERC20FailedOperation","inputs":[{"name":"token","type":"address","internalType":"address"}]}],"bytecode":{"object":"0x60803460b857601f61069438819003918201601f19168301916001600160401b0383118484101760bc57808492604094855283398101031260b857604b602060458360d0565b920160d0565b60017f9b779b17422d0df92223018b32b4d1fa46e071723d6817e2486d003becc55f008190555f80546001600160a01b03199081166001600160a01b039586161790915581548116939092169290921790915560038054909116331790556040516105b090816100e48239f35b5f80fd5b634e487b7160e01b5f52604160045260245ffd5b51906001600160a01b038216820360b85756fe6080806040526004361015610012575f80fd5b5f905f3560e01c9081633f2a55401461040757508063479cf1de146103df57806357376198146103305780638da5cb5b14610308578063a033fcd4146102a3578063bb57ad2014610127578063c9216344146100b75763e816b39314610076575f80fd5b346100b45760203660031901126100b45760209060ff906040906001600160a01b036100a0610429565b168152600284522054166040519015158152f35b80fd5b50346100b45760403660031901126100b4576100d1610429565b60243590811515809203610123576003546001600160a01b031633036101145760018060a01b031682526002602052604082209060ff8019835416911617905580f35b6330cd747160e01b8352600483fd5b8280fd5b5034610234575f36600319011261023457610140610522565b6001546040516370a0823160e01b8152306004820152906001600160a01b0316602082602481845afa918215610229575f9261026f575b5081610193575b8260015f51602061055b5f395f51905f525580f35b5f805460405163095ea7b360e01b81526001600160a01b0390911660048201526024810184905291602091839160449183915af1801561022957610238575b505f546001600160a01b031690813b15610234575f91602483926040519485938492636d88f45160e01b845260048401525af1801561022957610216575b8061017e565b61022291505f906104ec565b5f5f610210565b6040513d5f823e3d90fd5b5f80fd5b6020813d602011610267575b81610251602093836104ec565b81010312610234575180151581146101d2575f80fd5b3d9150610244565b9091506020813d60201161029b575b8161028b602093836104ec565b810103126102345751905f610177565b3d915061027e565b34610234576040366003190112610234576102bc610429565b335f52600260205260ff60405f205416156102f9576102e6906102dd610522565b6024359061043f565b60015f51602061055b5f395f51905f5255005b63ea8e4eb560e01b5f5260045ffd5b34610234575f366003190112610234576003546040516001600160a01b039091168152602090f35b3461023457604036600319011261023457610349610429565b6003546001600160a01b031690338290036103d05760018060a01b0316906040519063a9059cbb60e01b5f5260045260243560245260205f60448180865af19060015f51148216156103b0575b501561039e57005b635274afe760e01b5f5260045260245ffd5b60018215166103c85750813b15153d15161682610396565b3d5f823e3d90fd5b6330cd747160e01b5f5260045ffd5b34610234575f366003190112610234576001546040516001600160a01b039091168152602090f35b34610234575f366003190112610234575f546001600160a01b03168152602090f35b600435906001600160a01b038216820361023457565b81156104e85760018060a01b031690604051906323b872dd60e01b5f5233600452306024528060445260205f60648180875af160015f51148116156104c9575b826040525f606052156104b65781527f9bcb6d1f38f6800906185471a11ede9a8e16200853225aa62558db6076490f2d60203392a3565b82635274afe760e01b5f5260045260245ffd5b60018115166104df57833b15153d15161661047f565b823d5f823e3d90fd5b5050565b90601f8019910116810190811067ffffffffffffffff82111761050e57604052565b634e487b7160e01b5f52604160045260245ffd5b60025f51602061055b5f395f51905f52541461054b5760025f51602061055b5f395f51905f5255565b633ee5aeb560e01b5f5260045ffdfe9b779b17422d0df92223018b32b4d1fa46e071723d6817e2486d003becc55f00a2646970667358221220b51582916917eb19edb5c233b471d5cc739d5d69ecebbacea3ebbdcb557715c364736f6c634300081b0033","linkReferences":{}},"methodIdentifiers":{"authorizePool(address,bool)":"c9216344","authorizedPools(address)":"e816b393","btbToken()":"479cf1de","collectFees(address,uint256)":"a033fcd4","distributeFees()":"bb57ad20","owner()":"8da5cb5b","rescueTokens(address,uint256)":"57376198","rewardsDistributor()":"3f2a5540"},"id":8}