{"abi":[{"type":"constructor","inputs":[{"name":"_ve","type":"address","internalType":"address"}],"stateMutability":"nonpayable"},{"type":"function","name":"checkpointToken","inputs":[],"outputs":[],"stateMutability":"nonpayable"},{"type":"function","name":"checkpointTotalSupply","inputs":[],"outputs":[],"stateMutability":"nonpayable"},{"type":"function","name":"claim","inputs":[{"name":"tokenId","type":"uint256","internalType":"uint256"}],"outputs":[{"name":"","type":"uint256","internalType":"uint256"}],"stateMutability":"nonpayable"},{"type":"function","name":"claimMany","inputs":[{"name":"tokenIds","type":"uint256[]","internalType":"uint256[]"}],"outputs":[{"name":"","type":"bool","internalType":"bool"}],"stateMutability":"nonpayable"},{"type":"function","name":"claimable","inputs":[{"name":"tokenId","type":"uint256","internalType":"uint256"}],"outputs":[{"name":"","type":"uint256","internalType":"uint256"}],"stateMutability":"view"},{"type":"function","name":"claimed","inputs":[{"name":"","type":"uint256","internalType":"uint256"},{"name":"","type":"uint256","internalType":"uint256"}],"outputs":[{"name":"","type":"bool","internalType":"bool"}],"stateMutability":"view"},{"type":"function","name":"depositFor","inputs":[{"name":"amount","type":"uint256","internalType":"uint256"}],"outputs":[],"stateMutability":"nonpayable"},{"type":"function","name":"depositor","inputs":[],"outputs":[{"name":"","type":"address","internalType":"address"}],"stateMutability":"view"},{"type":"function","name":"lastTokenTime","inputs":[],"outputs":[{"name":"","type":"uint256","internalType":"uint256"}],"stateMutability":"view"},{"type":"function","name":"setDepositor","inputs":[{"name":"_depositor","type":"address","internalType":"address"}],"outputs":[],"stateMutability":"nonpayable"},{"type":"function","name":"setTeam","inputs":[{"name":"_team","type":"address","internalType":"address"}],"outputs":[],"stateMutability":"nonpayable"},{"type":"function","name":"startTime","inputs":[],"outputs":[{"name":"","type":"uint256","internalType":"uint256"}],"stateMutability":"view"},{"type":"function","name":"team","inputs":[],"outputs":[{"name":"","type":"address","internalType":"address"}],"stateMutability":"view"},{"type":"function","name":"timeCursor","inputs":[],"outputs":[{"name":"","type":"uint256","internalType":"uint256"}],"stateMutability":"view"},{"type":"function","name":"timeCursorOf","inputs":[{"name":"","type":"uint256","internalType":"uint256"}],"outputs":[{"name":"","type":"uint256","internalType":"uint256"}],"stateMutability":"view"},{"type":"function","name":"token","inputs":[],"outputs":[{"name":"","type":"address","internalType":"address"}],"stateMutability":"view"},{"type":"function","name":"tokenLastBalance","inputs":[],"outputs":[{"name":"","type":"uint256","internalType":"uint256"}],"stateMutability":"view"},{"type":"function","name":"tokensPerEpoch","inputs":[{"name":"","type":"uint256","internalType":"uint256"}],"outputs":[{"name":"","type":"uint256","internalType":"uint256"}],"stateMutability":"view"},{"type":"function","name":"ve","inputs":[],"outputs":[{"name":"","type":"address","internalType":"address"}],"stateMutability":"view"},{"type":"function","name":"veSupplyPerEpoch","inputs":[{"name":"","type":"uint256","internalType":"uint256"}],"outputs":[{"name":"","type":"uint256","internalType":"uint256"}],"stateMutability":"view"},{"type":"event","name":"CheckpointToken","inputs":[{"name":"time","type":"uint256","indexed":false,"internalType":"uint256"},{"name":"tokens","type":"uint256","indexed":false,"internalType":"uint256"}],"anonymous":false},{"type":"event","name":"Claimed","inputs":[{"name":"tokenId","type":"uint256","indexed":true,"internalType":"uint256"},{"name":"amount","type":"uint256","indexed":false,"internalType":"uint256"},{"name":"epochStart","type":"uint256","indexed":false,"internalType":"uint256"},{"name":"epochEnd","type":"uint256","indexed":false,"internalType":"uint256"}],"anonymous":false},{"type":"error","name":"NotDepositor","inputs":[]},{"type":"error","name":"NotTeam","inputs":[]},{"type":"error","name":"ReentrancyGuardReentrantCall","inputs":[]},{"type":"error","name":"SafeERC20FailedOperation","inputs":[{"name":"token","type":"address","internalType":"address"}]},{"type":"error","name":"ZeroAmount","inputs":[]}],"bytecode":{"object":"0x60c0806040523461016757602061002e6004926111608038038091610024828561016b565b83398101906101a2565b60017f9b779b17422d0df92223018b32b4d1fa46e071723d6817e2486d003becc55f00556080819052604051637e062a3560e11b815292839182906001600160a01b03165afa90811561015c575f9161012d575b5060a0523360018060a01b03195f5416175f553360018060a01b0319600154161760015562093a80420462093a8081029080820462093a801490151715610119578060055580600255600455604051610f9e90816101c28239608051818181610297015281816106f9015281816108170152610960015260a05181818161010a0152818161057701528181610b9d0152610d2d0152f35b634e487b7160e01b5f52601160045260245ffd5b61014f915060203d602011610155575b610147818361016b565b8101906101a2565b5f610082565b503d61013d565b6040513d5f823e3d90fd5b5f80fd5b601f909101601f19168101906001600160401b0382119082101761018e57604052565b634e487b7160e01b5f52604160045260245ffd5b9081602091031261016757516001600160a01b0381168103610167579056fe60806040526004361015610011575f80fd5b5f3560e01c8063095cf5c6146107285780631f850716146106e45780632506b932146106ba578063326a9407146106a2578063379607f5146106625780634607bf60146106385780635093444d1461060e5780636d88f4511461053e57806378e979251461052157806385f2aef2146104f95780638736659b146104dc5780638ec8468a146104bf578063925489a814610423578063939ea66b14610406578063a54ab457146103cb578063bee5dc32146103b1578063c7c4ff461461038a578063d1d58b251461019e578063f2c098b71461013d5763fc0c546a146100f5575f80fd5b34610139575f366003190112610139576040517f00000000000000000000000000000000000000000000000000000000000000006001600160a01b03168152602090f35b5f80fd5b34610139576020366003190112610139576004356001600160a01b03811690819003610139576001546001600160a01b0316330361018f576bffffffffffffffffffffffff60a01b5f5416175f555f80f35b633a7cfa5d60e21b5f5260045ffd5b3461013957602036600319011261013957600435805f52600660205260405f20548015610381575b62093a805f910462093a8081029080820462093a801490151715610252579162093a8042049162093a8083029280840462093a801490151715610252575f935b6032851080610378575b1561036d57825f52600760205260405f20815f5260205260ff60405f20541615610266575b62093a8081018091116102525761024c90946107a2565b93610206565b634e487b7160e01b5f52601160045260245ffd5b62093a80810180821161025257604051637028a55d60e11b81526004810185905260248101919091526020816044817f00000000000000000000000000000000000000000000000000000000000000006001600160a01b03165afa908115610362575f91610331575b50815f52600960205260405f205490825f52600860205260405f205482151580610328575b610301575b505050610235565b916103146103199261031f95969461078f565b610771565b906107b0565b908580806102f9565b508115156102f4565b90506020813d821161035a575b8161034b602093836107bd565b810103126101395751866102cf565b3d915061033e565b6040513d5f823e3d90fd5b602082604051908152f35b50838110610210565b506005546101c6565b34610139575f366003190112610139575f546040516001600160a01b039091168152602090f35b34610139575f366003190112610139576103c9610d12565b005b34610139576040366003190112610139576004355f52600760205260405f206024355f52602052602060ff60405f2054166040519015158152f35b34610139575f366003190112610139576020600254604051908152f35b346101395760203660031901126101395760043567ffffffffffffffff8111610139573660238201121561013957806004013567ffffffffffffffff8111610139573660248260051b840101116101395761047c6108fc565b5f5b818110156104a35760019061049c3360248360051b87010135610941565b500161047e565b60015f516020610f495f395f51905f5255602060405160018152f35b34610139575f366003190112610139576020600354604051908152f35b34610139575f366003190112610139576020600454604051908152f35b34610139575f366003190112610139576001546040516001600160a01b039091168152602090f35b34610139575f366003190112610139576020600554604051908152f35b346101395760203660031901126101395760043580156105ff576040516323b872dd60e01b5f90815233600452306024526044929092527f00000000000000000000000000000000000000000000000000000000000000006001600160a01b03169160209060648180865af19060015f51148216156105de575b6040525f606052156105cc576103c9610d12565b635274afe760e01b5f5260045260245ffd5b9060018115166105f657823b15153d151616906105b8565b503d5f823e3d90fd5b631f2a200560e01b5f5260045ffd5b34610139576020366003190112610139576004355f526009602052602060405f2054604051908152f35b34610139576020366003190112610139576004355f526006602052602060405f2054604051908152f35b346101395760203660031901126101395761067b6108fc565b602061068933600435610941565b60015f516020610f495f395f51905f5255604051908152f35b34610139575f366003190112610139576103c96107f3565b34610139576020366003190112610139576004355f526008602052602060405f2054604051908152f35b34610139575f366003190112610139576040517f00000000000000000000000000000000000000000000000000000000000000006001600160a01b03168152602090f35b34610139576020366003190112610139576004356001600160a01b03811690819003610139576001546001600160a01b038116330361018f576001600160a01b03191617600155005b811561077b570490565b634e487b7160e01b5f52601260045260245ffd5b8181029291811591840414171561025257565b5f1981146102525760010190565b9190820180921161025257565b90601f8019910116810190811067ffffffffffffffff8211176107df57604052565b634e487b7160e01b5f52604160045260245ffd5b6004549062093a8042049162093a8083029280840462093a801490151715610252577f00000000000000000000000000000000000000000000000000000000000000006001600160a01b031692915f915b60148310806108f3575b156108ea5762093a808101808211610252579262093a808201918281116102525760405192630981b24d60e41b845260048401526020836024818a5afa908115610362575f916108b5575b6108af93505f52600960205260405f20556107a2565b91610844565b90506020833d82116108e2575b816108cf602093836107bd565b81010312610139576108af925190610899565b3d91506108c2565b60045592505050565b5083811061084e565b60025f516020610f495f395f51905f5254146109255760025f516020610f495f395f51905f5255565b633ee5aeb560e01b5f5260045ffd5b9190820391821161025257565b60405163430c208160e01b8152336004820152602481018290529192917f00000000000000000000000000000000000000000000000000000000000000006001600160a01b031690602081604481855afa908115610362575f91610cd7575b5015610c62575b620151806109b760025442610934565b11610c4d575b815f52600660205260405f2054928315610c43575b5f9062093a80850462093a8081029080820462093a801490151715610252579562093a8042049562093a8087029680880462093a801490151715610252575f975b6032891080610c3a575b15610b4557865f52600760205260405f20815f5260205260ff60405f20541615610a5f575b62093a80810180911161025257610a5990986107a2565b97610a13565b62093a8081018082116102525760405190637028a55d60e11b825288600483015260248201526020816044818a5afa908115610362575f91610b14575b50815f52600960205260405f205490825f52600860205260405f205482151580610b0b575b610aef575b505050865f52600760205260405f20815f5260205260405f20600160ff19825416179055610a42565b9161031461031992610b0295999461078f565b935f8080610ac6565b50811515610ac1565b90506020813d8211610b3d575b81610b2e602093836107bd565b8101031261013957515f610a9c565b3d9150610b21565b9396509196509250835f5260066020528160405f205584610b68575b5050505090565b610b7485600354610934565b60035560405163a9059cbb60e01b5f9081526001600160a01b03948516600452602487905290937f0000000000000000000000000000000000000000000000000000000000000000169060209060448180855af160015f5114811615610c1b575b84604052156105cc5750848352602083015260408201527fcae2990aa9af8eb1c64713b7eddb3a80bf18e49a94a13fe0d0002b5d61d58f0090606090a25f808080610b61565b6001811516610c3157813b15153d151616610bd5565b843d5f823e3d90fd5b50878110610a1d565b60055493506109d2565b610c55610d12565b610c5d6107f3565b6109bd565b92506040516331a9108f60e11b8152816004820152602081602481875afa908115610362575f91610c95575b50926109a7565b90506020813d602011610ccf575b81610cb0602093836107bd565b8101031261013957516001600160a01b0381168103610139575f610c8e565b3d9150610ca3565b90506020813d602011610d0a575b81610cf2602093836107bd565b8101031261013957518015158103610139575f6109a0565b3d9150610ce5565b6040516370a0823160e01b81523060048201526020816024817f00000000000000000000000000000000000000000000000000000000000000006001600160a01b03165afa908115610362575f91610f16575b50610d7260035482610934565b90600355600254610d838142610934565b904260025562093a80810462093a8081029080820462093a80149015171561025257915f5b6014811080610f0d575b15610ee05762093a808401808511610252578042105f14610e67575050917fce749457b74e10f393f2c6b1ce4261b78791376db5a3f501477a809f03f500d69391836040941580610e5e575b15610e2b5750505f526008602052815f20610e1a8282546107b0565b90555b8151904282526020820152a1565b610314610e3b610e419342610934565b8561078f565b905f526008602052610e57835f209182546107b0565b9055610e1d565b50814214610dfe565b9282809592951580610ed7575b15610ea35750505f52600860205260405f20610e918582546107b0565b90555b610e9e82936107a2565b610da8565b610314610eb3610eb99387610934565b8861078f565b905f526008602052610ed060405f209182546107b0565b9055610e94565b50818514610e74565b5050505060407fce749457b74e10f393f2c6b1ce4261b78791376db5a3f501477a809f03f500d691610e1d565b50841515610db2565b90506020813d602011610f40575b81610f31602093836107bd565b8101031261013957515f610d65565b3d9150610f2456fe9b779b17422d0df92223018b32b4d1fa46e071723d6817e2486d003becc55f00a264697066735822122079fe0319beed4103aedd8df434daf8c5b63c364551544b2b66e81c6548459ccb64736f6c634300081b0033","linkReferences":{}},"methodIdentifiers":{"checkpointToken()":"bee5dc32","checkpointTotalSupply()":"326a9407","claim(uint256)":"379607f5","claimMany(uint256[])":"925489a8","claimable(uint256)":"d1d58b25","claimed(uint256,uint256)":"a54ab457","depositFor(uint256)":"6d88f451","depositor()":"c7c4ff46","lastTokenTime()":"939ea66b","setDepositor(address)":"f2c098b7","setTeam(address)":"095cf5c6","startTime()":"78e97925","team()":"85f2aef2","timeCursor()":"8736659b","timeCursorOf(uint256)":"4607bf60","token()":"fc0c546a","tokenLastBalance()":"8ec8468a","tokensPerEpoch(uint256)":"2506b932","ve()":"1f850716","veSupplyPerEpoch(uint256)":"5093444d"},"id":11}