{"abi":[{"type":"constructor","inputs":[],"stateMutability":"nonpayable"},{"type":"function","name":"burn","inputs":[{"name":"tickLower","type":"int24","internalType":"int24"},{"name":"tickUpper","type":"int24","internalType":"int24"},{"name":"amount","type":"uint128","internalType":"uint128"}],"outputs":[{"name":"amount0","type":"uint256","internalType":"uint256"},{"name":"amount1","type":"uint256","internalType":"uint256"}],"stateMutability":"nonpayable"},{"type":"function","name":"collect","inputs":[{"name":"recipient","type":"address","internalType":"address"},{"name":"tickLower","type":"int24","internalType":"int24"},{"name":"tickUpper","type":"int24","internalType":"int24"},{"name":"amount0Requested","type":"uint128","internalType":"uint128"},{"name":"amount1Requested","type":"uint128","internalType":"uint128"}],"outputs":[{"name":"amount0","type":"uint256","internalType":"uint256"},{"name":"amount1","type":"uint256","internalType":"uint256"}],"stateMutability":"nonpayable"},{"type":"function","name":"factory","inputs":[],"outputs":[{"name":"","type":"address","internalType":"address"}],"stateMutability":"view"},{"type":"function","name":"fee","inputs":[],"outputs":[{"name":"","type":"uint24","internalType":"uint24"}],"stateMutability":"view"},{"type":"function","name":"feeGrowthGlobal0X128","inputs":[],"outputs":[{"name":"","type":"uint256","internalType":"uint256"}],"stateMutability":"view"},{"type":"function","name":"feeGrowthGlobal1X128","inputs":[],"outputs":[{"name":"","type":"uint256","internalType":"uint256"}],"stateMutability":"view"},{"type":"function","name":"initialize","inputs":[{"name":"sqrtPriceX96","type":"uint160","internalType":"uint160"}],"outputs":[],"stateMutability":"nonpayable"},{"type":"function","name":"initializePool","inputs":[{"name":"_factory","type":"address","internalType":"address"},{"name":"_token0","type":"address","internalType":"address"},{"name":"_token1","type":"address","internalType":"address"},{"name":"_tickSpacing","type":"int24","internalType":"int24"},{"name":"_fee","type":"uint24","internalType":"uint24"}],"outputs":[],"stateMutability":"nonpayable"},{"type":"function","name":"liquidity","inputs":[],"outputs":[{"name":"","type":"uint128","internalType":"uint128"}],"stateMutability":"view"},{"type":"function","name":"mint","inputs":[{"name":"recipient","type":"address","internalType":"address"},{"name":"tickLower","type":"int24","internalType":"int24"},{"name":"tickUpper","type":"int24","internalType":"int24"},{"name":"amount","type":"uint128","internalType":"uint128"},{"name":"","type":"bytes","internalType":"bytes"}],"outputs":[{"name":"amount0","type":"uint256","internalType":"uint256"},{"name":"amount1","type":"uint256","internalType":"uint256"}],"stateMutability":"nonpayable"},{"type":"function","name":"positions","inputs":[{"name":"key","type":"bytes32","internalType":"bytes32"}],"outputs":[{"name":"","type":"tuple","internalType":"struct ICLPool.Position","components":[{"name":"liquidity","type":"uint128","internalType":"uint128"},{"name":"feeGrowthInside0LastX128","type":"uint256","internalType":"uint256"},{"name":"feeGrowthInside1LastX128","type":"uint256","internalType":"uint256"},{"name":"tokensOwed0","type":"uint128","internalType":"uint128"},{"name":"tokensOwed1","type":"uint128","internalType":"uint128"}]}],"stateMutability":"view"},{"type":"function","name":"slot0","inputs":[],"outputs":[{"name":"sqrtPriceX96","type":"uint160","internalType":"uint160"},{"name":"tick","type":"int24","internalType":"int24"},{"name":"unlocked","type":"bool","internalType":"bool"}],"stateMutability":"view"},{"type":"function","name":"swap","inputs":[{"name":"recipient","type":"address","internalType":"address"},{"name":"zeroForOne","type":"bool","internalType":"bool"},{"name":"amountSpecified","type":"int256","internalType":"int256"},{"name":"sqrtPriceLimitX96","type":"uint160","internalType":"uint160"},{"name":"","type":"bytes","internalType":"bytes"}],"outputs":[{"name":"amount0","type":"int256","internalType":"int256"},{"name":"amount1","type":"int256","internalType":"int256"}],"stateMutability":"nonpayable"},{"type":"function","name":"tickSpacing","inputs":[],"outputs":[{"name":"","type":"int24","internalType":"int24"}],"stateMutability":"view"},{"type":"function","name":"ticks","inputs":[{"name":"tick","type":"int24","internalType":"int24"}],"outputs":[{"name":"","type":"tuple","internalType":"struct ICLPool.TickInfo","components":[{"name":"liquidityGross","type":"uint128","internalType":"uint128"},{"name":"liquidityNet","type":"int128","internalType":"int128"},{"name":"feeGrowthOutside0X128","type":"uint256","internalType":"uint256"},{"name":"feeGrowthOutside1X128","type":"uint256","internalType":"uint256"},{"name":"initialized","type":"bool","internalType":"bool"}]}],"stateMutability":"view"},{"type":"function","name":"token0","inputs":[],"outputs":[{"name":"","type":"address","internalType":"address"}],"stateMutability":"view"},{"type":"function","name":"token1","inputs":[],"outputs":[{"name":"","type":"address","internalType":"address"}],"stateMutability":"view"},{"type":"event","name":"Burn","inputs":[{"name":"owner","type":"address","indexed":true,"internalType":"address"},{"name":"tickLower","type":"int24","indexed":true,"internalType":"int24"},{"name":"tickUpper","type":"int24","indexed":true,"internalType":"int24"},{"name":"amount","type":"uint128","indexed":false,"internalType":"uint128"},{"name":"amount0","type":"uint256","indexed":false,"internalType":"uint256"},{"name":"amount1","type":"uint256","indexed":false,"internalType":"uint256"}],"anonymous":false},{"type":"event","name":"Collect","inputs":[{"name":"owner","type":"address","indexed":true,"internalType":"address"},{"name":"recipient","type":"address","indexed":false,"internalType":"address"},{"name":"tickLower","type":"int24","indexed":true,"internalType":"int24"},{"name":"tickUpper","type":"int24","indexed":true,"internalType":"int24"},{"name":"amount0","type":"uint256","indexed":false,"internalType":"uint256"},{"name":"amount1","type":"uint256","indexed":false,"internalType":"uint256"}],"anonymous":false},{"type":"event","name":"CollectFees","inputs":[{"name":"recipient","type":"address","indexed":true,"internalType":"address"},{"name":"amount0","type":"uint256","indexed":false,"internalType":"uint256"},{"name":"amount1","type":"uint256","indexed":false,"internalType":"uint256"}],"anonymous":false},{"type":"event","name":"Initialize","inputs":[{"name":"sqrtPriceX96","type":"uint160","indexed":false,"internalType":"uint160"},{"name":"tick","type":"int24","indexed":false,"internalType":"int24"}],"anonymous":false},{"type":"event","name":"Mint","inputs":[{"name":"sender","type":"address","indexed":true,"internalType":"address"},{"name":"owner","type":"address","indexed":true,"internalType":"address"},{"name":"tickLower","type":"int24","indexed":true,"internalType":"int24"},{"name":"tickUpper","type":"int24","indexed":false,"internalType":"int24"},{"name":"amount","type":"uint128","indexed":false,"internalType":"uint128"},{"name":"amount0","type":"uint256","indexed":false,"internalType":"uint256"},{"name":"amount1","type":"uint256","indexed":false,"internalType":"uint256"}],"anonymous":false},{"type":"event","name":"Swap","inputs":[{"name":"sender","type":"address","indexed":true,"internalType":"address"},{"name":"recipient","type":"address","indexed":true,"internalType":"address"},{"name":"amount0","type":"int256","indexed":false,"internalType":"int256"},{"name":"amount1","type":"int256","indexed":false,"internalType":"int256"},{"name":"sqrtPriceX96","type":"uint160","indexed":false,"internalType":"uint160"},{"name":"liquidity","type":"uint128","indexed":false,"internalType":"uint128"},{"name":"tick","type":"int24","indexed":false,"internalType":"int24"}],"anonymous":false},{"type":"error","name":"AlreadyInitialized","inputs":[]},{"type":"error","name":"InsufficientInputAmount","inputs":[]},{"type":"error","name":"InsufficientOutputAmount","inputs":[]},{"type":"error","name":"InvalidSqrtPrice","inputs":[]},{"type":"error","name":"InvalidTick","inputs":[]},{"type":"error","name":"InvalidTickRange","inputs":[]},{"type":"error","name":"Locked","inputs":[]},{"type":"error","name":"NotInitialized","inputs":[]},{"type":"error","name":"SafeERC20FailedOperation","inputs":[{"name":"token","type":"address","internalType":"address"}]},{"type":"error","name":"TickSpacingTooLarge","inputs":[]},{"type":"error","name":"TickSpacingTooSmall","inputs":[]},{"type":"error","name":"TransferFailed","inputs":[]},{"type":"error","name":"ZeroLiquidity","inputs":[]}],"bytecode":{"object":"0x60808060405234601557612254908161001a8239f35b5f80fdfe6080806040526004361015610012575f80fd5b5f3560e01c9081630dfe16811461114d57508063128acb0814610dac5780631a68650214610d865780633850c7bd14610d3f5780633c8a7d8d1461088657806346141319146108695780634f1eb3d8146106ee578063514ea4bf14610652578063a34123a714610420578063a4984bcc14610351578063c45a01551461032a578063d0c93a7c14610307578063d21220a7146102df578063ddca3f43146102ba578063f30583991461029d578063f30dba93146101f25763f637731d146100d7575f80fd5b346101ee5760203660031901126101ee576100f0611170565b6003546001600160a01b03166101e0576001600160a01b038116906401000276a3821080156101c2575b6101b3577f98636036cb66a9c19a37435efc1e90142190214e8abeb821bdba3f2990dd4c959161014b60409261167d565b8251906101578261122a565b828252600281900b602080840182905260019386019390935260038054600160b81b60a09490941b62ffffff60a01b166001600160c01b031990911663ffffffff60a01b198716171792909217909155835192835290820152a1005b63063df5fd60e31b5f5260045ffd5b5073fffd8963efd1fc6a506488495d951d5263988d2682101561011a565b62dc149f60e41b5f5260045ffd5b5f80fd5b346101ee5760203660031901126101ee5761020b6111d4565b610213611360565b5060020b5f52600760205260a060405f20604051610230816111fa565b8154916001600160801b03831692838352602083019060801d600f0b815260018201549060408401918252608060ff6003600286015495606088019687520154169401931515845260405194855251600f0b60208501525160408401525160608301525115156080820152f35b346101ee575f3660031901126101ee576020600554604051908152f35b346101ee575f3660031901126101ee57602062ffffff60025460b81c16604051908152f35b346101ee575f3660031901126101ee576002546040516001600160a01b039091168152602090f35b346101ee575f3660031901126101ee57602060025460a01c60020b604051908152f35b346101ee575f3660031901126101ee575f546040516001600160a01b039091168152602090f35b346101ee5760a03660031901126101ee5761036a611170565b6024356001600160a01b038116908190036101ee576044356001600160a01b038116908190036101ee57606435918260020b83036101ee576084359362ffffff851685036101ee575f54906001600160a01b0382166101e05760018060a01b0316906001600160601b0360a01b16175f556001600160601b0360a01b60015416176001556002549262ffffff60b81b9060b81b169265ffffffffffff60d01b16179060a01b62ffffff60a01b1617176002555f80f35b346101ee5760603660031901126101ee576104396111d4565b6104416111b4565b906044356001600160801b0381168082036101ee5761045e6113a1565b6003805460ff60b81b19169055610476848433612110565b5f52600860205260405f20926001600160801b038454168211610643576040946020936104a1611268565b95610595600360018060a01b03895116926105116104df6104c189611a3b565b956104cb89611a3b565b8b600f0b976104d98961138a565b92611dc5565b9a909b01946104fc865160020b6104f58361138a565b908b611e75565b61050a865160020b9161138a565b9088611ff4565b6001600160801b036105268682845416611340565b166001600160801b0319825416178155016001600160801b0361054e818b1682845416611320565b166001600160801b03198254161781556105756001600160801b038916825460801c611320565b81546001600160801b031660809190911b6001600160801b031916179055565b5160020b9260020b92838112159081610636575b50610609575b50600160b81b60ff60b81b1960035416176003558551928352846020840152838684015260020b917f0c396cd989a39f4459b5fa1aed6a9a8dcdbc45908acfd67e028cd568da98982c60603392a482519182526020820152f35b6001600160801b0361062060045492828416611340565b16906001600160801b03191617600455866105af565b90508260020b13886105a9565b630200e8a960e31b5f5260045ffd5b346101ee5760203660031901126101ee5761066b611360565b506004355f52600860205260a060405f206001600160801b0360405191610691836111fa565b81808254169384815260018301549260208201938452600360028201549160408401928352015493608060608401938587168552019460801c85526040519687525160208701525160408601525116606084015251166080820152f35b346101ee5760a03660031901126101ee57610707611170565b61070f6111b4565b906107186111c4565b916107216111e4565b90608435926001600160801b038416948585036101ee57604095610746828533612110565b5f5260086020526003875f2001906001600160801b038254918183169788838216115f14610862575081885b1698899360801c8092115f1461085b57505b169581610818575b5050846107e7575b5085519160018060a01b03168252846020830152838683015260020b9160020b907fa89c1c8a741251492622c95237828c75d1dbb03ea956f09e3792ff2a14f4fe6260603392a482519182526020820152f35b80610575866107f9935460801c611340565b60025461081290859084906001600160a01b0316611951565b86610794565b6001600160801b039161082a91611340565b82546001600160801b031916911617815560015461085490879085906001600160a01b0316611951565b858861078c565b9050610784565b8290610772565b346101ee575f3660031901126101ee576020600654604051908152f35b346101ee5760a03660031901126101ee5761089f611170565b6108a76111b4565b6108af6111c4565b906108b86111e4565b60843567ffffffffffffffff81116101ee576108d8903690600401611186565b50506001600160801b038116938415610643578360020b908360020b9282841215610d3157620d89e71984128015610d25575b610d005760025460a01c60020b61092281876112fa565b60020b1590811591610d0f575b50610d005760209461093f6113a1565b6003805460ff60b81b191690556109ae610957611268565b9760018060a01b03895116926109a861098961097283611a3b565b958d61097d86611a3b565b90600f0b978892611dc5565b9a909b019461099d81875160020b85611e75565b855160020b84611ff4565b85612110565b5f52600860205260405f206001600160801b036109ce8482845416611320565b166001600160801b03198254161790555160020b83858212159182610cf6575b5050610cc9575b506001546040516370a0823160e01b8152306004820152906001600160a01b0316602082602481845afa918215610b99575f92610c95575b506002546040516370a0823160e01b815230600482015290602090829060249082906001600160a01b03165afa918215610b995788915f93610c5e575b508115159182610c4a575b50508615159283610c2a575b81610ba4575b50610b045781610b13575b50610b04576003805460ff60b81b1916600160b81b179055604080519283526020830196909652818601859052606082018490526001600160a01b03169033907f7a53080ba414158be7ec69b987b5fb7d07dee101fe85488f0853ae16239d0bde90608090a482519182526020820152f35b6312171d8360e31b5f5260045ffd5b6002546040516370a0823160e01b8152306004820152919250602090829060249082906001600160a01b03165afa908115610b995786905f92610b63575b50610b5c91926112ed565b1187610a92565b9150506020813d602011610b91575b81610b7f60209383611246565b810103126101ee575185610b5c610b51565b3d9150610b72565b6040513d5f823e3d90fd5b6001546040516370a0823160e01b8152306004820152919250602090829060249082906001600160a01b03165afa908115610b995789905f92610bf4575b50610bed91926112ed565b1189610a87565b9150506020813d602011610c22575b81610c1060209383611246565b810103126101ee575188610bed610be2565b3d9150610c03565b600254610c45908990309033906001600160a01b03166119d2565b610a81565b610c5791309033906119d2565b8988610a75565b915091506020813d602011610c8d575b81610c7b60209383611246565b810103126101ee57879051918a610a6a565b3d9150610c6e565b9091506020813d602011610cc1575b81610cb160209383611246565b810103126101ee57519088610a2d565b3d9150610ca4565b6001600160801b03610ce060045492828416611320565b16906001600160801b03191617600455866109f5565b12905083896109ee565b6333a3bdff60e21b5f5260045ffd5b610d1a9150876112fa565b60020b15158861092f565b50620d89e8831361090b565b6264847d60e41b5f5260045ffd5b346101ee575f3660031901126101ee576060610d59611268565b60018060a01b03815116906040602082015160020b91015115159060405192835260208301526040820152f35b346101ee575f3660031901126101ee5760206001600160801b0360045416604051908152f35b346101ee5760a03660031901126101ee57610dc5611170565b6024359081151582036101ee57604435916064356001600160a01b03811691908290036101ee5760843567ffffffffffffffff81116101ee57610e0c903690600401611186565b50505f925f92851561113e57610e206113a1565b6003805460ff60b81b19169055610e35611268565b9083156110fc5781516001600160a01b03168110801591906110ec575b506101b3576040955b5f8113156110dd57905b60018060a01b03905116926001600160801b036004541691821515806110d4575b610fc9575b506003546001600160a01b038516948590610ea59061167d565b60a01b62ffffff60a01b169168ffffffffffffffffff60b81b1617176003555f14610f82575f8412610f5d575b600154610eed908690309033906001600160a01b03166119d2565b600160b81b60ff60b81b196003541617908160035586519386855285602086015287850152606084015260a01c60020b608083015260018060a01b0316907fc42079f94a6350d7e6235f29174924f928cc2ac818eb64fed8004e115fbcca6760a03392a382519182526020820152f35b600254610f7d906001600160a01b031683610f77876112a0565b91611951565b610ed2565b5f8512610faa575b600254610fa5908590309033906001600160a01b03166119d2565b610eed565b600154610fc4906001600160a01b031683610f77886112a0565b610f8a565b9550909350918215611091576001600160a01b031692610fe984806112c4565b60601c928161271061104e611027826110216110068c9a8d6114c3565b62ffffff61101a8160025460b81c166112d7565b16906112c4565b046112a0565b976001600160a01b039061103a90611510565b16965b62ffffff60025460b81c16906112c4565b0482156110745761106a9161106291611577565b6005546112ed565b6005555b87610e8b565b6110899161108191611577565b6006546112ed565b60065561106e565b9261109c84806112c4565b60601c928161271061104e6110b9826110216110068c9a8d6113c0565b98976001600160a01b03906110cd9061144e565b169661103d565b50801515610e86565b6110e6906112a0565b90610e65565b6401000276a39150111587610e52565b81516001600160a01b031681118015919061111f575b506101b357604095610e5b565b73fffd8963efd1fc6a506488495d951d5263988d269150101587611112565b63098fb56160e01b5f5260045ffd5b346101ee575f3660031901126101ee576001546001600160a01b03168152602090f35b600435906001600160a01b03821682036101ee57565b9181601f840112156101ee5782359167ffffffffffffffff83116101ee57602083818601950101116101ee57565b602435908160020b82036101ee57565b604435908160020b82036101ee57565b600435908160020b82036101ee57565b606435906001600160801b03821682036101ee57565b60a0810190811067ffffffffffffffff82111761121657604052565b634e487b7160e01b5f52604160045260245ffd5b6060810190811067ffffffffffffffff82111761121657604052565b90601f8019910116810190811067ffffffffffffffff82111761121657604052565b604051906112758261122a565b6003546001600160a01b038116835260a081901c60020b602084015260b81c60ff1615156040830152565b600160ff1b81146112b0575f0390565b634e487b7160e01b5f52601160045260245ffd5b818102929181159184041417156112b057565b62ffffff16612710039062ffffff82116112b057565b919082018092116112b057565b9060020b90811561130c5760020b0790565b634e487b7160e01b5f52601260045260245ffd5b906001600160801b03809116911601906001600160801b0382116112b057565b906001600160801b03809116911603906001600160801b0382116112b057565b6040519061136d826111fa565b5f6080838281528260208201528260408201528260608201520152565b600f0b60016001607f1b031981146112b0575f0390565b60ff60035460b81c16156113b157565b6303cb96db60e21b5f5260045ffd5b5f19600160601b8209918160601b9182808510940393808503941461144157838211156101ee578190600160601b9009815f0382168092046002816003021880820260020302808202600203028082026002030280820260020302808202600203028091026002030293600183805f03040190848311900302920304170290565b50809250156101ee570490565b905f5f1961271a840961271a8402918280831092039180830392146114b8578161271011156114b5575061271061271a7fbc01a36e2eb1c432ca57a786c226809d495182a9930be0ded288ce703afb7e9194950990828211900360fc1b910360041c170290565b80fd5b505061271090049150565b5f91905f19828209918082029384808510940393808503941461150657600160601b8410156114b55750600160601b910990828211900360a01b910360601c1790565b5050505060601c90565b905f5f1961270684096127068402918280831092039180830392146114b8578161271011156114b557506127106127067fbc01a36e2eb1c432ca57a786c226809d495182a9930be0ded288ce703afb7e9194950990828211900360fc1b910360041c170290565b5f19600160801b8209918160801b9182808510940393808503941461144157838211156101ee578190600160801b9009815f0382168092046002816003021880820260020302808202600203028082026002030280820260020302808202600203028091026002030293600183805f03040190848311900302920304170290565b915f19828409928281029283808610950394808603951461166f57848311156101ee57829109815f0382168092046002816003021880820260020302808202600203028082026002030280820260020302808202600203028091026002030293600183805f03040190848311900302920304170290565b5050809250156101ee570490565b6001600160a01b038116906401000276a382101580611934575b1561190b57640100000000600160c01b039060201b16806001600160801b03811160071b90811c67ffffffffffffffff811160061b90811c63ffffffff811160051b90811c61ffff811160041b90811c9060ff821160031b91821c92600f841160021b93841c94600160038711811b96871c1196171717171717179060808210155f1461190157607e1982011c5b800280607f1c8160ff1c1c800280607f1c8160ff1c1c800280607f1c8160ff1c1c800280607f1c8160ff1c1c800280607f1c8160ff1c1c800280607f1c8160ff1c1c80029081607f1c8260ff1c1c80029283607f1c8460ff1c1c80029485607f1c8660ff1c1c80029687607f1c8860ff1c1c80029889607f1c8a60ff1c1c80029a8b607f1c8c60ff1c1c80029c8d80607f1c9060ff1c1c800260cd1c6604000000000000169d60cc1c6608000000000000169c60cb1c6610000000000000169b60ca1c6620000000000000169a60c91c6640000000000000169960c81c6680000000000000169860c71c670100000000000000169760c61c670200000000000000169660c51c670400000000000000169560c41c670800000000000000169460c31c671000000000000000169360c21c672000000000000000169260c11c674000000000000000169160c01c6780000000000000001690607f190160401b1717171717171717171717171717693627a301d71055774c85026f028f6481ab7f045a5af012a19d003aa919810160801d60020b906fdb2df09e81959a81455e260799a0632f0160801d60020b918282145f146118e1575090505b90565b6001600160a01b036118f284611a3b565b16116118fc575090565b905090565b81607f031b611725565b60405162461bcd60e51b81526020600482015260016024820152602960f91b6044820152606490fd5b5073fffd8963efd1fc6a506488495d951d5263988d268210611697565b916040519163a9059cbb60e01b5f5260018060a01b031660045260245260205f60448180865af19060015f51148216156119b1575b604052156119915750565b635274afe760e01b5f9081526001600160a01b0391909116600452602490fd5b9060018115166119c957823b15153d15161690611986565b503d5f823e3d90fd5b6040516323b872dd60e01b5f9081526001600160a01b039384166004529290931660245260449390935260209060648180865af19060015f5114821615611a23575b6040525f606052156119915750565b9060018115166119c957823b15153d15161690611a14565b60020b5f811215611dbf57805f03905b620d89e88211611d96576001821615611d84576001600160881b036ffffcb933bd6fad37aa2d162d1a5940015b169160028116611d68575b60048116611d4c575b60088116611d30575b60108116611d14575b60208116611cf8575b60408116611cdc575b60808116611cc0575b6101008116611ca4575b6102008116611c88575b6104008116611c6c575b6108008116611c50575b6110008116611c34575b6120008116611c18575b6140008116611bfc575b6180008116611be0575b620100008116611bc4575b620200008116611ba9575b620400008116611b8e575b6208000016611b75575b5f12611b67575b63ffffffff8116611b5f575f905b60201c60ff91909116016001600160a01b031690565b600190611b49565b801561130c575f1904611b3b565b6b048a170391f7dc42444e8fa290910260801c90611b34565b6d2216e584f5fa1ea926041bedfe9890920260801c91611b2a565b916e5d6af8dedb81196699c329225ee6040260801c91611b1f565b916f09aa508b5b7a84e1c677de54f3e99bc90260801c91611b14565b916f31be135f97d08fd981231505542fcfa60260801c91611b09565b916f70d869a156d2a1b890bb3df62baf32f70260801c91611aff565b916fa9f746462d870fdf8a65dc1f90e061e50260801c91611af5565b916fd097f3bdfd2022b8845ad8f792aa58250260801c91611aeb565b916fe7159475a2c29b7443b29c7fa6e889d90260801c91611ae1565b916ff3392b0822b70005940c7a398e4b70f30260801c91611ad7565b916ff987a7253ac413176f2b074cf7815e540260801c91611acd565b916ffcbe86c7900a88aedcffc83b479aa3a40260801c91611ac3565b916ffe5dee046a99a2a811c461f1969c30530260801c91611ab9565b916fff2ea16466c96a3843ec78b326b528610260801c91611ab0565b916fff973b41fa98c081472e6896dfb254c00260801c91611aa7565b916fffcb9843d60f6159c9db58835c9266440260801c91611a9e565b916fffe5caca7e10e4e61c3624eaa0941cd00260801c91611a95565b916ffff2e50f5f656932ef12357cf3c7fdcc0260801c91611a8c565b916ffff97272373d413259a46990580e213a0260801c91611a83565b6001600160881b03600160801b611a78565b60405162461bcd60e51b81526020600482015260016024820152601560fa1b6044820152606490fd5b80611a4b565b9093925f92839290916001600160a01b0380841690881611611e6d575b5f600f82900b12611e55576001600160801b0316925b6001600160a01b038281169088168111611e1d57505050611e1a9293946121ab565b91565b93945090926001600160a01b0383161115611e49575090611e43836118de9493836121ab565b94612168565b946118de939250612168565b611e5e9061138a565b6001600160801b031692611df8565b959195611de2565b91909160020b805f52600760205260405f209260038401805460ff811615611fc3575b505050506001600160801b0382541681600f0b915f83125f14611f6857611ec1611ed09161138a565b6001600160801b031682611340565b906001600160801b0382161015611f3e576001600160801b03905b83546001600160801b03191691161780835560801d600f0b0160016001607f1b03811360016001607f1b03198212176112b05781546001600160801b031660809190911b6001600160801b031916179055565b60405162461bcd60e51b81526020600482015260026024820152614c5360f01b6044820152606490fd5b611f7b906001600160801b031682611320565b906001600160801b03821610611f99576001600160801b0390611eeb565b60405162461bcd60e51b81526020600482015260026024820152614c4160f01b6044820152606490fd5b60ff1916600117905560020b1215611fdf575b5f808080611e98565b60055460018301556006546002830155611fd6565b91909160020b805f52600760205260405f209260038401805460ff8116156120df575b505050506001600160801b0382541681600f0b915f83125f146120ae57611ec16120409161138a565b906001600160801b0382161015611f3e576001600160801b03905b83546001600160801b03191691161780835560801d600f0b0360016001607f1b0319811260016001607f1b038213176112b05781546001600160801b031660809190911b6001600160801b031916179055565b6120c1906001600160801b031682611320565b906001600160801b03821610611f99576001600160801b039061205b565b60ff1916600117905560020b12156120fb575b5f808080612017565b600554600183015560065460028301556120f2565b916040519160208301936001600160601b03199060601b16845260e81b603483015260e81b6037820152601a8152612149603a82611246565b51902090565b6001600160a01b0391821690821603919082116112b057565b6118de92916001600160801b03916001600160a01b03808316908216116121a5575b6001600160a01b039161219d919061214f565b1691166114c3565b9061218a565b91612202916001600160a01b0380821690851611612218575b6001600160a01b036121d6858361214f565b6001600160a01b039092169291169060601b6fffffffffffffffffffffffffffffffff60601b166115f8565b6001600160a01b0390911690811561130c570490565b926121c456fea2646970667358221220f3dccb318b61ccad9e1f76dff268281e72dbf09bec96eb4f031171983f213f8864736f6c634300081b0033","linkReferences":{}},"methodIdentifiers":{"burn(int24,int24,uint128)":"a34123a7","collect(address,int24,int24,uint128,uint128)":"4f1eb3d8","factory()":"c45a0155","fee()":"ddca3f43","feeGrowthGlobal0X128()":"f3058399","feeGrowthGlobal1X128()":"46141319","initialize(uint160)":"f637731d","initializePool(address,address,address,int24,uint24)":"a4984bcc","liquidity()":"1a686502","mint(address,int24,int24,uint128,bytes)":"3c8a7d8d","positions(bytes32)":"514ea4bf","slot0()":"3850c7bd","swap(address,bool,int256,uint160,bytes)":"128acb08","tickSpacing()":"d0c93a7c","ticks(int24)":"f30dba93","token0()":"0dfe1681","token1()":"d21220a7"},"id":84}