{"abi":[{"type":"constructor","inputs":[{"name":"_ve","type":"address","internalType":"address"},{"name":"_rewardToken","type":"address","internalType":"address"}],"stateMutability":"nonpayable"},{"type":"function","name":"allPools","inputs":[{"name":"","type":"uint256","internalType":"uint256"}],"outputs":[{"name":"","type":"address","internalType":"address"}],"stateMutability":"pure"},{"type":"function","name":"createGauge","inputs":[{"name":"","type":"address","internalType":"address"}],"outputs":[{"name":"","type":"address","internalType":"address"}],"stateMutability":"pure"},{"type":"function","name":"distribute","inputs":[{"name":"","type":"address","internalType":"address"}],"outputs":[],"stateMutability":"pure"},{"type":"function","name":"distributeAll","inputs":[],"outputs":[],"stateMutability":"pure"},{"type":"function","name":"gauges","inputs":[{"name":"pool","type":"address","internalType":"address"}],"outputs":[{"name":"","type":"address","internalType":"address"}],"stateMutability":"pure"},{"type":"function","name":"getPoolRewards","inputs":[{"name":"pool","type":"address","internalType":"address"}],"outputs":[{"name":"","type":"uint256","internalType":"uint256"}],"stateMutability":"view"},{"type":"function","name":"governor","inputs":[],"outputs":[{"name":"","type":"address","internalType":"address"}],"stateMutability":"view"},{"type":"function","name":"isAlive","inputs":[{"name":"","type":"address","internalType":"address"}],"outputs":[{"name":"","type":"bool","internalType":"bool"}],"stateMutability":"pure"},{"type":"function","name":"isGauge","inputs":[{"name":"","type":"address","internalType":"address"}],"outputs":[{"name":"","type":"bool","internalType":"bool"}],"stateMutability":"pure"},{"type":"function","name":"isWhitelistedToken","inputs":[{"name":"","type":"address","internalType":"address"}],"outputs":[{"name":"","type":"bool","internalType":"bool"}],"stateMutability":"pure"},{"type":"function","name":"killGauge","inputs":[{"name":"","type":"address","internalType":"address"}],"outputs":[],"stateMutability":"pure"},{"type":"function","name":"lastVoted","inputs":[{"name":"","type":"uint256","internalType":"uint256"}],"outputs":[{"name":"","type":"uint256","internalType":"uint256"}],"stateMutability":"pure"},{"type":"function","name":"minter","inputs":[],"outputs":[{"name":"","type":"address","internalType":"address"}],"stateMutability":"pure"},{"type":"function","name":"notifyRewardAmount","inputs":[{"name":"","type":"uint256","internalType":"uint256"}],"outputs":[],"stateMutability":"pure"},{"type":"function","name":"poke","inputs":[{"name":"tokenId","type":"uint256","internalType":"uint256"}],"outputs":[],"stateMutability":"nonpayable"},{"type":"function","name":"poolForGauge","inputs":[{"name":"gauge","type":"address","internalType":"address"}],"outputs":[{"name":"","type":"address","internalType":"address"}],"stateMutability":"pure"},{"type":"function","name":"poolsLength","inputs":[],"outputs":[{"name":"","type":"uint256","internalType":"uint256"}],"stateMutability":"pure"},{"type":"function","name":"reset","inputs":[{"name":"tokenId","type":"uint256","internalType":"uint256"}],"outputs":[],"stateMutability":"nonpayable"},{"type":"function","name":"reviveGauge","inputs":[{"name":"","type":"address","internalType":"address"}],"outputs":[],"stateMutability":"pure"},{"type":"function","name":"rewardToken","inputs":[],"outputs":[{"name":"","type":"address","internalType":"address"}],"stateMutability":"view"},{"type":"function","name":"setGovernor","inputs":[{"name":"_governor","type":"address","internalType":"address"}],"outputs":[],"stateMutability":"nonpayable"},{"type":"function","name":"totalRewards","inputs":[{"name":"","type":"address","internalType":"address"}],"outputs":[{"name":"","type":"uint256","internalType":"uint256"}],"stateMutability":"view"},{"type":"function","name":"totalWeight","inputs":[],"outputs":[{"name":"","type":"uint256","internalType":"uint256"}],"stateMutability":"view"},{"type":"function","name":"usedWeights","inputs":[{"name":"tokenId","type":"uint256","internalType":"uint256"}],"outputs":[{"name":"","type":"uint256","internalType":"uint256"}],"stateMutability":"view"},{"type":"function","name":"ve","inputs":[],"outputs":[{"name":"","type":"address","internalType":"address"}],"stateMutability":"view"},{"type":"function","name":"vote","inputs":[{"name":"tokenId","type":"uint256","internalType":"uint256"},{"name":"pools","type":"address[]","internalType":"address[]"},{"name":"weights_","type":"uint256[]","internalType":"uint256[]"}],"outputs":[],"stateMutability":"nonpayable"},{"type":"function","name":"votes","inputs":[{"name":"tokenId","type":"uint256","internalType":"uint256"},{"name":"pool","type":"address","internalType":"address"}],"outputs":[{"name":"","type":"uint256","internalType":"uint256"}],"stateMutability":"view"},{"type":"function","name":"weights","inputs":[{"name":"pool","type":"address","internalType":"address"}],"outputs":[{"name":"","type":"uint256","internalType":"uint256"}],"stateMutability":"view"},{"type":"function","name":"whitelistToken","inputs":[{"name":"","type":"address","internalType":"address"},{"name":"","type":"bool","internalType":"bool"}],"outputs":[],"stateMutability":"pure"},{"type":"event","name":"Abstained","inputs":[{"name":"voter","type":"address","indexed":true,"internalType":"address"},{"name":"tokenId","type":"uint256","indexed":true,"internalType":"uint256"},{"name":"weight","type":"uint256","indexed":false,"internalType":"uint256"}],"anonymous":false},{"type":"event","name":"DistributeReward","inputs":[{"name":"sender","type":"address","indexed":true,"internalType":"address"},{"name":"gauge","type":"address","indexed":true,"internalType":"address"},{"name":"amount","type":"uint256","indexed":false,"internalType":"uint256"}],"anonymous":false},{"type":"event","name":"GaugeCreated","inputs":[{"name":"pool","type":"address","indexed":true,"internalType":"address"},{"name":"gauge","type":"address","indexed":true,"internalType":"address"},{"name":"creator","type":"address","indexed":true,"internalType":"address"}],"anonymous":false},{"type":"event","name":"GaugeKilled","inputs":[{"name":"gauge","type":"address","indexed":true,"internalType":"address"}],"anonymous":false},{"type":"event","name":"GaugeRevived","inputs":[{"name":"gauge","type":"address","indexed":true,"internalType":"address"}],"anonymous":false},{"type":"event","name":"NotifyReward","inputs":[{"name":"sender","type":"address","indexed":true,"internalType":"address"},{"name":"reward","type":"address","indexed":true,"internalType":"address"},{"name":"amount","type":"uint256","indexed":false,"internalType":"uint256"}],"anonymous":false},{"type":"event","name":"Voted","inputs":[{"name":"voter","type":"address","indexed":true,"internalType":"address"},{"name":"tokenId","type":"uint256","indexed":true,"internalType":"uint256"},{"name":"pool","type":"address","indexed":true,"internalType":"address"},{"name":"weight","type":"uint256","indexed":false,"internalType":"uint256"}],"anonymous":false},{"type":"event","name":"WhitelistToken","inputs":[{"name":"token","type":"address","indexed":true,"internalType":"address"},{"name":"status","type":"bool","indexed":true,"internalType":"bool"}],"anonymous":false},{"type":"error","name":"AlreadyVotedThisEpoch","inputs":[]},{"type":"error","name":"InvalidWeights","inputs":[]},{"type":"error","name":"NotApprovedOrOwner","inputs":[]},{"type":"error","name":"NotGauge","inputs":[]},{"type":"error","name":"NotGovernor","inputs":[]},{"type":"error","name":"NotWhitelisted","inputs":[]},{"type":"error","name":"PoolNotAlive","inputs":[]},{"type":"error","name":"ReentrancyGuardReentrantCall","inputs":[]},{"type":"error","name":"TooManyPools","inputs":[]},{"type":"error","name":"ZeroAddress","inputs":[]},{"type":"error","name":"ZeroAmount","inputs":[]}],"bytecode":{"object":"0x60803460b857601f61115738819003918201601f19168301916001600160401b0383118484101760bc57808492604094855283398101031260b857604b602060458360d0565b920160d0565b60017f9b779b17422d0df92223018b32b4d1fa46e071723d6817e2486d003becc55f008190555f80546001600160a01b03199081166001600160a01b0395861617909155600280548216949093169390931790915580549091163317905560405161107390816100e48239f35b5f80fd5b634e487b7160e01b5f52604160045260245ffd5b51906001600160a01b038216820360b85756fe60806040526004361015610011575f80fd5b5f5f3560e01c806306d6a1b21461025f5780630754617214610bff5780630c340a2414610c675780630ffb1d8b14610c405780631703e5f91461029d5780631f85071614610c195780632716ae6614610bff578063310bd74b14610b6257806332145f90146108fb5780633c6b16ab146108e657806341d1de9714610184578063436596c4146108d257806363453ae11461030157806379e93824146108a85780637ac09bf71461032457806396c82e5714610306578063992a7933146103015780639f06247b14610301578063a5f4301e146102db578063a7cac846146102a2578063aa79979b1461029d578063ab37f4861461029d578063ab7573dd14610264578063add1739a14610264578063b9a09fd51461025f578063c42cf535146101f2578063d23254b4146101a1578063f3594be0146101845763f7c618c114610159575f80fd5b346101815780600319360112610181576002546040516001600160a01b039091168152602090f35b80fd5b503461018157602036600319011261018157602090604051908152f35b503461018157604036600319011261018157602435906001600160a01b03821682036101815760409060043581526005602052209060018060a01b03165f52602052602060405f2054604051908152f35b50346101815760203660031901126101815761020c610c8f565b600154906001600160a01b0382163303610250576001600160a01b0316908115610241576001600160a01b0319161760015580f35b63d92e233d60e01b8352600483fd5b633b8d9d7560e21b8352600483fd5b610ca5565b5034610181576020366003190112610181576020906040906001600160a01b0361028c610c8f565b168152600883522054604051908152f35b610cd2565b5034610181576020366003190112610181576020906040906001600160a01b036102ca610c8f565b168152600483522054604051908152f35b5034610181576020366003190112610181576020906102f8610c8f565b50604051908152f35b610cf7565b50346101815780600319360112610181576020600354604051908152f35b5034610181576060366003190112610181576004359060243567ffffffffffffffff811161053c5761035a903690600401610d12565b909260443567ffffffffffffffff81116108a45761037c903690600401610d12565b94610385610e48565b845460405163430c208160e01b8152336004820152602481018590526001600160a01b039091169290602081604481875afa908115610806578791610875575b50156108665786850361084857601e8511610857578415610848576040516339f890b560e21b81526004810185905292602084602481845afa938415610806578794610811575b5090602060249260405193848092637be9df7d60e11b82528960048301525afa9182156108065787926107ce575b5083156107bf5781156107b05761045085610e8d565b8697875b8181106107905750881561078157879896989688995b808b1061054f578989818a61048f8b8284526006602052806040852055600354610de1565b60035581546001600160a01b031690813b1561054b578291604483926040519485938492632d27a2cd60e11b84526004840152600160248401525af1801561054057610527575b50506002546040519182526001600160a01b03169033907ff70d5c697de7ea828df48e5c4573cb2194c659f1901f70110c52b066dcf5082690602090a360015f51602061101e5f395f51905f525580f35b8161053191610d43565b61053c5781836104d6565b5080fd5b6040513d84823e3d90fd5b8280fd5b61055a8b8288610dd1565b356001600160a01b0381169081900361077d578015610770576105918361058c6105858f888a610dd1565b3589610e02565b610e15565b806105ac575b505060018a9b9a999a5b019a5098979861046a565b8b54919a90916001600160a01b0316803b1561076c578c8c60648d836040519586948593632b562ce760e01b8552600485015260248401528860448401525af18015610761578b8f8f928f94918a8f928b948e91610736575b50604095936106206106279461066299979461058c94610dd1565b3590610e02565b9082526005602052828220855f52602052825f20558d81526005602052818120845f52602052815f2054938152600460205220918254610de1565b9055898c52600760205260408c208054906801000000000000000082101561072257928d9e9260408e9f9e8f906106a3866001998a6106d599018155610e33565b81549060031b9083821b918b8060a01b03901b191617905581526008602052206106ce838254610de1565b9055610de1565b9b8a8c52600560205260408c20815f526020528a60405f20546040519081527fecf612ba4699d1adae61f25a29d86224891134426a6f3e515be94947fd96e12160203392a49b9a99610597565b634e487b7160e01b8e52604160045260248efd5b94505050505082935061074a929150610d43565b61075d578a8c8b8f8c88918a8c5f610605565b8b80fd5b6040513d8f823e3d90fd5b8c80fd5b5060018a9b9a999a6105a1565b8a80fd5b63108cef9d60e31b8852600488fd5b986107a96001916107a28c8587610dd1565b3590610de1565b9901610454565b631f2a200560e01b8752600487fd5b630b094f2760e31b8752600487fd5b9091506020813d6020116107fe575b816107ea60209383610d43565b810103126107fa5751905f61043a565b5f80fd5b3d91506107dd565b6040513d89823e3d90fd5b919093506020823d602011610840575b8161082e60209383610d43565b810103126107fa57905192602061040c565b3d9150610821565b63108cef9d60e31b8652600486fd5b63ebcfae4b60e01b8652600486fd5b63390cdd9b60e21b8652600486fd5b610897915060203d60201161089d575b61088f8183610d43565b810190610d79565b5f6103c5565b503d610885565b8380fd5b50346101815760203660031901126101815760406020916004358152600683522054604051908152f35b503461018157806003193601126101815780f35b50346101815760203660031901126101815780f35b50346107fa5760203660031901126107fa57600435610918610e48565b5f5460405163430c208160e01b81523360048201526024810183905290602090829060449082906001600160a01b03165afa908115610acc575f91610b43575b5015610b3457805f52600760205260405f2090604051808160208554928381520180955f5260205f20925f5b818110610b1257505061099992500382610d43565b8051916109be6109a884610d91565b936109b66040519586610d43565b808552610d91565b6020840190601f19013682375f5b8351811015610a1c575f838152600560205260409020600191906001600160a01b036109f88388610da9565b5116838060a01b03165f5260205260405f2054610a158288610da9565b52016109cc565b509290939193610a2b81610e8d565b303b156107fa57604051637ac09bf760e01b81526004810191909152606060248201529351606485018190528493926084850192915f5b818110610af05750505060209060031985840301604486015251918281520191905f5b818110610ad75750505090805f92038183305af18015610acc57610ab9575b5060015f51602061101e5f395f51905f525580f35b610ac591505f90610d43565b5f5f610aa4565b6040513d5f823e3d90fd5b8251845285945060209384019390920191600101610a85565b82516001600160a01b0316855287965060209485019490920191600101610a62565b84546001600160a01b0316835260019485019486945060209093019201610984565b63390cdd9b60e21b5f5260045ffd5b610b5c915060203d60201161089d5761088f8183610d43565b5f610958565b346107fa5760203660031901126107fa57600435610b7e610e48565b5f5460405163430c208160e01b81523360048201526024810183905290602090829060449082906001600160a01b03165afa908115610acc575f91610be0575b5015610b3457610bcd90610e8d565b60015f51602061101e5f395f51905f5255005b610bf9915060203d60201161089d5761088f8183610d43565b82610bbe565b346107fa575f3660031901126107fa5760206040515f8152f35b346107fa575f3660031901126107fa575f546040516001600160a01b039091168152602090f35b346107fa5760403660031901126107fa57610c59610c8f565b50602435801515036107fa57005b346107fa575f3660031901126107fa576001546040516001600160a01b039091168152602090f35b600435906001600160a01b03821682036107fa57565b346107fa5760203660031901126107fa576020610cc0610c8f565b6040516001600160a01b039091168152f35b346107fa5760203660031901126107fa57610ceb610c8f565b50602060405160018152f35b346107fa5760203660031901126107fa57610d10610c8f565b005b9181601f840112156107fa5782359167ffffffffffffffff83116107fa576020808501948460051b0101116107fa57565b90601f8019910116810190811067ffffffffffffffff821117610d6557604052565b634e487b7160e01b5f52604160045260245ffd5b908160209103126107fa575180151581036107fa5790565b67ffffffffffffffff8111610d655760051b60200190565b8051821015610dbd5760209160051b010190565b634e487b7160e01b5f52603260045260245ffd5b9190811015610dbd5760051b0190565b91908201809211610dee57565b634e487b7160e01b5f52601160045260245ffd5b81810292918115918404141715610dee57565b8115610e1f570490565b634e487b7160e01b5f52601260045260245ffd5b8054821015610dbd575f5260205f2001905f90565b60025f51602061101e5f395f51905f525414610e715760025f51602061101e5f395f51905f5255565b633ee5aeb560e01b5f5260045ffd5b91908203918211610dee57565b90815f52600760205260405f20915f5f905b8454821015610f8057610eb28286610e33565b90545f85815260056020908152604080832060039590951b9390931c6001600160a01b031680835293905220549290849084610ef5575b50506001019150610e9f565b8460019482610f49935f52600460205260405f20610f14848254610e80565b9055610f2283600354610e80565b600355845f52600560205260405f2090878060a01b03165f526020525f6040812055610de1565b936040519081527ff5b051ec7078e53f3f902bbcf246389c73a0dd976bbb8bf014d2bfa64b85ca9660203392a3829150835f610ee9565b5050909150805f52600760205260405f208054905f815581610fff575b50505f818152600660205260408120819055546001600160a01b031690813b156107fa575f91604483926040519485938492632d27a2cd60e11b845260048401528160248401525af18015610acc57610ff35750565b5f610ffd91610d43565b565b5f5260205f20908101905b81811015610f9d575f815560010161100a56fe9b779b17422d0df92223018b32b4d1fa46e071723d6817e2486d003becc55f00a2646970667358221220a57f0146735c57f4db4f6c8862c99ee55eadd7d80b2788cf9df673f5331f75b664736f6c634300081b0033","linkReferences":{}},"methodIdentifiers":{"allPools(uint256)":"41d1de97","createGauge(address)":"a5f4301e","distribute(address)":"63453ae1","distributeAll()":"436596c4","gauges(address)":"b9a09fd5","getPoolRewards(address)":"add1739a","governor()":"0c340a24","isAlive(address)":"1703e5f9","isGauge(address)":"aa79979b","isWhitelistedToken(address)":"ab37f486","killGauge(address)":"992a7933","lastVoted(uint256)":"f3594be0","minter()":"07546172","notifyRewardAmount(uint256)":"3c6b16ab","poke(uint256)":"32145f90","poolForGauge(address)":"06d6a1b2","poolsLength()":"2716ae66","reset(uint256)":"310bd74b","reviveGauge(address)":"9f06247b","rewardToken()":"f7c618c1","setGovernor(address)":"c42cf535","totalRewards(address)":"ab7573dd","totalWeight()":"96c82e57","usedWeights(uint256)":"79e93824","ve()":"1f850716","vote(uint256,address[],uint256[])":"7ac09bf7","votes(uint256,address)":"d23254b4","weights(address)":"a7cac846","whitelistToken(address,bool)":"0ffb1d8b"},"id":86}