{"abi":[{"type":"constructor","inputs":[{"name":"_ve","type":"address","internalType":"address"},{"name":"_rewardToken","type":"address","internalType":"address"}],"stateMutability":"nonpayable"},{"type":"function","name":"allPools","inputs":[{"name":"index_","type":"uint256","internalType":"uint256"}],"outputs":[{"name":"","type":"address","internalType":"address"}],"stateMutability":"view"},{"type":"function","name":"claimable","inputs":[{"name":"","type":"address","internalType":"address"}],"outputs":[{"name":"","type":"uint256","internalType":"uint256"}],"stateMutability":"view"},{"type":"function","name":"createGauge","inputs":[{"name":"pool","type":"address","internalType":"address"}],"outputs":[{"name":"gauge","type":"address","internalType":"address"}],"stateMutability":"nonpayable"},{"type":"function","name":"distribute","inputs":[{"name":"gauge","type":"address","internalType":"address"}],"outputs":[],"stateMutability":"nonpayable"},{"type":"function","name":"distributeAll","inputs":[],"outputs":[],"stateMutability":"nonpayable"},{"type":"function","name":"gauges","inputs":[{"name":"pool","type":"address","internalType":"address"}],"outputs":[{"name":"","type":"address","internalType":"address"}],"stateMutability":"view"},{"type":"function","name":"governor","inputs":[],"outputs":[{"name":"","type":"address","internalType":"address"}],"stateMutability":"view"},{"type":"function","name":"index","inputs":[],"outputs":[{"name":"","type":"uint256","internalType":"uint256"}],"stateMutability":"view"},{"type":"function","name":"isAlive","inputs":[{"name":"gauge","type":"address","internalType":"address"}],"outputs":[{"name":"","type":"bool","internalType":"bool"}],"stateMutability":"view"},{"type":"function","name":"isGauge","inputs":[{"name":"gauge","type":"address","internalType":"address"}],"outputs":[{"name":"","type":"bool","internalType":"bool"}],"stateMutability":"view"},{"type":"function","name":"isWhitelistedToken","inputs":[{"name":"token","type":"address","internalType":"address"}],"outputs":[{"name":"","type":"bool","internalType":"bool"}],"stateMutability":"view"},{"type":"function","name":"killGauge","inputs":[{"name":"gauge","type":"address","internalType":"address"}],"outputs":[],"stateMutability":"nonpayable"},{"type":"function","name":"lastVoted","inputs":[{"name":"tokenId","type":"uint256","internalType":"uint256"}],"outputs":[{"name":"","type":"uint256","internalType":"uint256"}],"stateMutability":"view"},{"type":"function","name":"minter","inputs":[],"outputs":[{"name":"","type":"address","internalType":"address"}],"stateMutability":"view"},{"type":"function","name":"notifyRewardAmount","inputs":[{"name":"amount","type":"uint256","internalType":"uint256"}],"outputs":[],"stateMutability":"nonpayable"},{"type":"function","name":"poke","inputs":[{"name":"tokenId","type":"uint256","internalType":"uint256"}],"outputs":[],"stateMutability":"nonpayable"},{"type":"function","name":"poolForGauge","inputs":[{"name":"gauge","type":"address","internalType":"address"}],"outputs":[{"name":"","type":"address","internalType":"address"}],"stateMutability":"view"},{"type":"function","name":"poolsLength","inputs":[],"outputs":[{"name":"","type":"uint256","internalType":"uint256"}],"stateMutability":"view"},{"type":"function","name":"reset","inputs":[{"name":"tokenId","type":"uint256","internalType":"uint256"}],"outputs":[],"stateMutability":"nonpayable"},{"type":"function","name":"reviveGauge","inputs":[{"name":"gauge","type":"address","internalType":"address"}],"outputs":[],"stateMutability":"nonpayable"},{"type":"function","name":"rewardToken","inputs":[],"outputs":[{"name":"","type":"address","internalType":"address"}],"stateMutability":"view"},{"type":"function","name":"setGovernor","inputs":[{"name":"_governor","type":"address","internalType":"address"}],"outputs":[],"stateMutability":"nonpayable"},{"type":"function","name":"setMinter","inputs":[{"name":"_minter","type":"address","internalType":"address"}],"outputs":[],"stateMutability":"nonpayable"},{"type":"function","name":"supplyIndex","inputs":[{"name":"","type":"address","internalType":"address"}],"outputs":[{"name":"","type":"uint256","internalType":"uint256"}],"stateMutability":"view"},{"type":"function","name":"totalWeight","inputs":[],"outputs":[{"name":"","type":"uint256","internalType":"uint256"}],"stateMutability":"view"},{"type":"function","name":"usedWeights","inputs":[{"name":"tokenId","type":"uint256","internalType":"uint256"}],"outputs":[{"name":"","type":"uint256","internalType":"uint256"}],"stateMutability":"view"},{"type":"function","name":"ve","inputs":[],"outputs":[{"name":"","type":"address","internalType":"address"}],"stateMutability":"view"},{"type":"function","name":"vote","inputs":[{"name":"tokenId","type":"uint256","internalType":"uint256"},{"name":"pools","type":"address[]","internalType":"address[]"},{"name":"weights_","type":"uint256[]","internalType":"uint256[]"}],"outputs":[],"stateMutability":"nonpayable"},{"type":"function","name":"votes","inputs":[{"name":"tokenId","type":"uint256","internalType":"uint256"},{"name":"pool","type":"address","internalType":"address"}],"outputs":[{"name":"","type":"uint256","internalType":"uint256"}],"stateMutability":"view"},{"type":"function","name":"weights","inputs":[{"name":"pool","type":"address","internalType":"address"}],"outputs":[{"name":"","type":"uint256","internalType":"uint256"}],"stateMutability":"view"},{"type":"function","name":"whitelistToken","inputs":[{"name":"token","type":"address","internalType":"address"},{"name":"status","type":"bool","internalType":"bool"}],"outputs":[],"stateMutability":"nonpayable"},{"type":"event","name":"Abstained","inputs":[{"name":"voter","type":"address","indexed":true,"internalType":"address"},{"name":"tokenId","type":"uint256","indexed":true,"internalType":"uint256"},{"name":"weight","type":"uint256","indexed":false,"internalType":"uint256"}],"anonymous":false},{"type":"event","name":"DistributeReward","inputs":[{"name":"sender","type":"address","indexed":true,"internalType":"address"},{"name":"gauge","type":"address","indexed":true,"internalType":"address"},{"name":"amount","type":"uint256","indexed":false,"internalType":"uint256"}],"anonymous":false},{"type":"event","name":"GaugeCreated","inputs":[{"name":"pool","type":"address","indexed":true,"internalType":"address"},{"name":"gauge","type":"address","indexed":true,"internalType":"address"},{"name":"creator","type":"address","indexed":true,"internalType":"address"}],"anonymous":false},{"type":"event","name":"GaugeKilled","inputs":[{"name":"gauge","type":"address","indexed":true,"internalType":"address"}],"anonymous":false},{"type":"event","name":"GaugeRevived","inputs":[{"name":"gauge","type":"address","indexed":true,"internalType":"address"}],"anonymous":false},{"type":"event","name":"NotifyReward","inputs":[{"name":"sender","type":"address","indexed":true,"internalType":"address"},{"name":"reward","type":"address","indexed":true,"internalType":"address"},{"name":"amount","type":"uint256","indexed":false,"internalType":"uint256"}],"anonymous":false},{"type":"event","name":"Voted","inputs":[{"name":"voter","type":"address","indexed":true,"internalType":"address"},{"name":"tokenId","type":"uint256","indexed":true,"internalType":"uint256"},{"name":"pool","type":"address","indexed":true,"internalType":"address"},{"name":"weight","type":"uint256","indexed":false,"internalType":"uint256"}],"anonymous":false},{"type":"event","name":"WhitelistToken","inputs":[{"name":"token","type":"address","indexed":true,"internalType":"address"},{"name":"status","type":"bool","indexed":true,"internalType":"bool"}],"anonymous":false},{"type":"error","name":"AlreadyVotedThisEpoch","inputs":[]},{"type":"error","name":"InvalidWeights","inputs":[]},{"type":"error","name":"NotApprovedOrOwner","inputs":[]},{"type":"error","name":"NotGauge","inputs":[]},{"type":"error","name":"NotGovernor","inputs":[]},{"type":"error","name":"NotWhitelisted","inputs":[]},{"type":"error","name":"PoolNotAlive","inputs":[]},{"type":"error","name":"ReentrancyGuardReentrantCall","inputs":[]},{"type":"error","name":"SafeERC20FailedOperation","inputs":[{"name":"token","type":"address","internalType":"address"}]},{"type":"error","name":"TooManyPools","inputs":[]},{"type":"error","name":"ZeroAddress","inputs":[]},{"type":"error","name":"ZeroAmount","inputs":[]}],"bytecode":{"object":"0x60803460c457601f61262c38819003918201601f19168301916001600160401b0383118484101760c857808492604094855283398101031260c457604b602060458360dc565b920160dc565b60017f9b779b17422d0df92223018b32b4d1fa46e071723d6817e2486d003becc55f008190555f80546001600160a01b03199081166001600160a01b0395861617909155600380548216949093169390931790915580548216339081179091556002805490921617905560405161253c90816100f08239f35b5f80fd5b634e487b7160e01b5f52604160045260245ffd5b51906001600160a01b038216820360c45756fe6080806040526004361015610012575f80fd5b5f3560e01c90816306d6a1b214610fcd575080630754617214610fa55780630c340a2414610f7d5780630ffb1d8b14610efb5780631703e5f914610ebe5780631f85071614610e975780632716ae6614610e7a5780632986c0e514610e5d578063310bd74b14610db757806332145f9014610c455780633c6b16ab14610af2578063402914f514610aba57806341d1de9714610a83578063436596c414610a1e57806363453ae1146109fb57806379e93824146109d15780637ac09bf7146107d057806396c82e57146107b3578063992a79331461072f5780639f06247b1461069a578063a5f4301e14610401578063a7cac846146103c9578063aa79979b1461038c578063ab37f4861461034f578063b9a09fd51461030f578063c42cf535146102c2578063d23254b414610273578063e380fcad1461023b578063f3594be014610211578063f7c618c1146101e95763fca3b5aa14610171575f80fd5b346101e55760203660031901126101e55761018a61100c565b6001546001600160a01b031633036101d6576001600160a01b031680156101c7576bffffffffffffffffffffffff60a01b60025416176002555f80f35b63d92e233d60e01b5f5260045ffd5b633b8d9d7560e21b5f5260045ffd5b5f80fd5b346101e5575f3660031901126101e5576003546040516001600160a01b039091168152602090f35b346101e55760203660031901126101e5576004355f52600c602052602060405f2054604051908152f35b346101e55760203660031901126101e5576001600160a01b0361025c61100c565b165f526012602052602060405f2054604051908152f35b346101e55760403660031901126101e5576024356001600160a01b03811681036101e5576004355f52600a60205260405f209060018060a01b03165f52602052602060405f2054604051908152f35b346101e55760203660031901126101e5576102db61100c565b600154906001600160a01b03821633036101d6576001600160a01b03169081156101c7576001600160a01b03191617600155005b346101e55760203660031901126101e5576001600160a01b0361033061100c565b165f526005602052602060018060a01b0360405f205416604051908152f35b346101e55760203660031901126101e5576001600160a01b0361037061100c565b165f52600e602052602060ff60405f2054166040519015158152f35b346101e55760203660031901126101e5576001600160a01b036103ad61100c565b165f526007602052602060ff60405f2054166040519015158152f35b346101e55760203660031901126101e5576001600160a01b036103ea61100c565b165f526009602052602060405f2054604051908152f35b346101e55760203660031901126101e55761041a61100c565b6001600160a01b038181165f818152600560205260409020549092911661065b575f8080806040516020810190630dfe168160e01b825260048152610460602482611053565b5190865afa61046d611724565b908061068e575b61047d90611763565b80516001600160a01b039161049a9181016020908101910161179e565b1692604051602081019063d21220a760e01b8252600481526104bd602482611053565b51915afa6104c9611724565b9080610682575b6104d990611763565b80516001600160a01b03916104f69181016020908101910161179e565b16905f52600e60205260ff60405f20541615908161066a575b5061065b57600354604051906001600160a01b0316610d2980830167ffffffffffffffff81118482101761063c5760609284926117be843985825260208201523060408201520301905ff08015610650575f82815260056020908152604080832080546001600160a01b03199081166001600160a01b03969096169586179091558484526006835281842080549091168617905560078252808320805460ff1990811660019081179092556008909352922080549091169091179055600f549190600160401b83101561063c576105f083600160209501600f55600f611123565b81546001600160a01b0360039290921b91821b19169084901b17905560405191339082907f9b8203efe7fe42185a7755b0510f87c8b693971d6a7c22520aaf683e6b1242615f80a48152f35b634e487b7160e01b5f52604160045260245ffd5b6040513d5f823e3d90fd5b630b094f2760e31b5f5260045ffd5b90505f52600e60205260ff60405f205416158261050f565b508051602011156104d0565b50805160201115610474565b346101e55760203660031901126101e5576106b361100c565b6001546001600160a01b031633036101d6576001600160a01b03165f8181526008602052604090205460ff1661072057805f52600860205260405f20600160ff198254161790557fed18e9faa3dccfd8aa45f69c4de40546b2ca9cccc4538a2323531656516db1aa5f80a2005b63036924b960e21b5f5260045ffd5b346101e55760203660031901126101e55761074861100c565b6001546001600160a01b031633036101d6576001600160a01b03165f8181526008602052604090205460ff161561072057805f52600860205260405f2060ff1981541690557f04a5d3f5d80d22d9345acc80618f4a4e7e663cf9e1aed23b57d975acec002ba75f80a2005b346101e5575f3660031901126101e5576020600454604051908152f35b346101e55760603660031901126101e55760043560243567ffffffffffffffff81116101e557610804903690600401611022565b9060443567ffffffffffffffff81116101e557610825903690600401611022565b9390926108306112de565b5f5460405163430c208160e01b81523360048201526024810184905290602090829060449082906001600160a01b03165afa908115610650575f916109a2575b50156109935784810361098457601e81116109755761088e42611316565b825f52600c60205260405f20541015610966576108aa82611343565b6108b38161108d565b926108c16040519485611053565b818452602084019160051b8101903682116101e557915b818310610946575050506108eb8461108d565b926108f96040519485611053565b848452602084019460051b8101903682116101e557945b81861061093657505061092393506114bd565b60015f5160206124e75f395f51905f5255005b8535815260209586019501610910565b82356001600160a01b03811681036101e5578152602092830192016108d8565b630ecfc01360e11b5f5260045ffd5b63ebcfae4b60e01b5f5260045ffd5b63108cef9d60e31b5f5260045ffd5b63390cdd9b60e21b5f5260045ffd5b6109c4915060203d6020116109ca575b6109bc8183611053565b810190611075565b86610870565b503d6109b2565b346101e55760203660031901126101e5576004355f52600b602052602060405f2054604051908152f35b346101e55760203660031901126101e557610a1c610a1761100c565b611138565b005b346101e5575f3660031901126101e5575f5b600f54811015610a1c5780610a4660019261110b565b838060a01b0391549060031b1c165f526005602052818060a01b0360405f20541680610a74575b5001610a30565b610a7d90611138565b82610a6d565b346101e55760203660031901126101e5576020610aa160043561110b565b905460405160039290921b1c6001600160a01b03168152f35b346101e55760203660031901126101e5576001600160a01b03610adb61100c565b165f526010602052602060405f2054604051908152f35b346101e55760203660031901126101e557600435610b0e6112de565b8015610c365760018060a01b03600354166040516323b872dd60e01b5f5233600452306024528260445260205f60648180865af19060015f5114821615610c15575b6040525f60605215610c03575060045480610bb5575b506003546040519182526001600160a01b03169033907ff70d5c697de7ea828df48e5c4573cb2194c659f1901f70110c52b066dcf5082690602090a360015f5160206124e75f395f51905f5255005b670de0b6b3a76400008202828104670de0b6b3a764000003610bef57610be691610bde916110e0565b6011546110fe565b60115581610b66565b634e487b7160e01b5f52601160045260245ffd5b635274afe760e01b5f5260045260245ffd5b906001811516610c2d57823b15153d15161690610b50565b503d5f823e3d90fd5b631f2a200560e01b5f5260045ffd5b346101e55760203660031901126101e557600435610c616112de565b5f5460405163430c208160e01b81523360048201526024810183905290602090829060449082906001600160a01b03165afa908115610650575f91610d98575b501561099357805f52600d60205260405f20604051808260208294549384815201905f5260205f20925f5b818110610d76575050610ce192500382611053565b8051610cec8161108d565b90610cfa6040519283611053565b808252610d09601f199161108d565b013660208301375f5b8251811015610d62575f848152600a60205260409020600191906001600160a01b03610d3e83876110a5565b5116838060a01b03165f5260205260405f2054610d5b82856110a5565b5201610d12565b509061092392610d7181611343565b6114bd565b84546001600160a01b0316835260019485019486945060209093019201610ccc565b610db1915060203d6020116109ca576109bc8183611053565b82610ca1565b346101e55760203660031901126101e557600435610dd36112de565b5f5460405163430c208160e01b81523360048201526024810183905290602090829060449082906001600160a01b03165afa908115610650575f91610e3e575b501561099357610e2242611316565b815f52600c60205260405f205410156109665761092390611343565b610e57915060203d6020116109ca576109bc8183611053565b82610e13565b346101e5575f3660031901126101e5576020601154604051908152f35b346101e5575f3660031901126101e5576020600f54604051908152f35b346101e5575f3660031901126101e5575f546040516001600160a01b039091168152602090f35b346101e55760203660031901126101e5576001600160a01b03610edf61100c565b165f526008602052602060ff60405f2054166040519015158152f35b346101e55760403660031901126101e557610f1461100c565b602435908115158092036101e5576001546001600160a01b031633036101d6576001600160a01b03165f818152600e60205260408120805460ff191660ff85161790557f06a27d2e85b249c0d83da8b892fb8e69167e1319fb3bb86f860b245f9e0d729f9080a3005b346101e5575f3660031901126101e5576001546040516001600160a01b039091168152602090f35b346101e5575f3660031901126101e5576002546040516001600160a01b039091168152602090f35b346101e55760203660031901126101e5576020906001600160a01b03610ff161100c565b165f9081526006835260409020546001600160a01b03168152f35b600435906001600160a01b03821682036101e557565b9181601f840112156101e55782359167ffffffffffffffff83116101e5576020808501948460051b0101116101e557565b90601f8019910116810190811067ffffffffffffffff82111761063c57604052565b908160209103126101e5575180151581036101e55790565b67ffffffffffffffff811161063c5760051b60200190565b80518210156110b95760209160051b010190565b634e487b7160e01b5f52603260045260245ffd5b81810292918115918404141715610bef57565b81156110ea570490565b634e487b7160e01b5f52601260045260245ffd5b91908201809211610bef57565b600f548110156110b957600f5f5260205f2001905f90565b80548210156110b9575f5260205f2001905f90565b60018060a01b03811690815f52600660205260018060a01b0360405f2054165f52600960205260405f20548061127e575b50815f52601060205260405f20549081151580611268575b61118a57505050565b5f838152601060209081526040808320839055600354905163095ea7b360e01b81526001600160a01b039485166004820152602481018690529391928492604492849291165af180156106505761124b575b50813b156101e557604051633c6b16ab60e01b8152600481018290525f8160248183875af180156106505761123b575b506040519081527f4fa9693cae526341d334e2862ca2413b2e503f1266255f9e0869fb36e6d89b1760203392a3565b5f61124591611053565b5f61120c565b6112639060203d6020116109ca576109bc8183611053565b6111dc565b50825f52600860205260ff60405f205416611181565b5f83815260126020526040902080546011549182905561129d91611336565b90816112aa575b50611169565b670de0b6b3a7640000916112bd916110cd565b04825f5260106020526112d560405f209182546110fe565b90555f806112a4565b60025f5160206124e75f395f51905f5254146113075760025f5160206124e75f395f51905f5255565b633ee5aeb560e01b5f5260045ffd5b62093a80900462093a8081029080820462093a801490151715610bef5790565b91908203918211610bef57565b90815f52600d60205260405f20915f5b835481101561142157808261136a60019387611123565b848060a01b0391549060031b1c16815f52600a60205260405f20848060a01b0382165f5260205260405f205490816113a6575b50505001611353565b805f52600960205260405f206113bd838254611336565b90556113cb82600454611336565b600455825f52600a60205260405f2090858060a01b03165f526020525f60408120556040519081527ff5b051ec7078e53f3f902bbcf246389c73a0dd976bbb8bf014d2bfa64b85ca9660203392a3825f8061139d565b50909150805f52600d60205260405f208054905f81558161149f575b50505f818152600b60205260408120819055546001600160a01b031690813b156101e5575f91604483926040519485938492632d27a2cd60e11b845260048401528160248401525af18015610650576114935750565b5f61149d91611053565b565b5f5260205f20908101905b8181101561143d575f81556001016114aa565b929060249291602060018060a01b035f5416604051958680926339f890b560e21b82528960048301525afa938415610650575f946116f0575b505f94855b84518710156115235761151b60019161151489886110a5565b51906110fe565b9601956114fb565b5f965091949092865b815188101561167c576001600160a01b0361154789846110a5565b51165f818152600560205260409020549098906001600160a01b03168015611671575f52600860205260ff60405f20541615611667576115ec61159d8661159887611592868d6110a5565b516110cd565b6110e0565b8093885f52600a60205260405f2060018060a01b038d165f526020528160405f20558b5f52600960205260405f206115d68382546110fe565b90556115e4826004546110fe565b6004556110fe565b98865f52600d60205260405f2092835490600160401b82101561063c5761161b82600196878c95018155611123565b81549060031b9085821b91888060a01b03901b19161790556040519081527fecf612ba4699d1adae61f25a29d86224891134426a6f3e515be94947fd96e12160203392a45b019661152c565b6001919850611660565b506001919850611660565b9450505050919250815f52600b60205260405f205561169a42611316565b5f828152600c6020526040812091909155546001600160a01b031690813b156101e5575f91604483926040519485938492632d27a2cd60e11b84526004840152600160248401525af18015610650576114935750565b9093506020813d60201161171c575b8161170c60209383611053565b810103126101e55751925f6114f6565b3d91506116ff565b3d1561175e573d9067ffffffffffffffff821161063c5760405191611753601f8201601f191660200184611053565b82523d5f602084013e565b606090565b1561176a57565b60405162461bcd60e51b815260206004820152600c60248201526b125b9d985b1a59081c1bdbdb60a21b6044820152606490fd5b908160209103126101e557516001600160a01b03811681036101e5579056fe60e0346100e257601f610d2938819003918201601f19168301916001600160401b038311848410176100e6578084926060946040528339810103126100e257610047816100fa565b906100606040610059602084016100fa565b92016100fa565b9160017f9b779b17422d0df92223018b32b4d1fa46e071723d6817e2486d003becc55f005560805260a05260c052604051610c1a908161010f82396080518181816102de015281816103df015281816104b50152610806015260a0518181816101090152818161025101526105cf015260c05181818161053601526105830152f35b5f80fd5b634e487b7160e01b5f52604160045260245ffd5b51906001600160a01b03821682036100e25756fe60806040526004361015610011575f80fd5b5f3560e01c80628cc262146108e05780630700037d146108a857806316e640481461088e57806318160ddd146108725780632e1a7d4d146107ae5780633c6b16ab1461056557806346c96aac146105215780636e553f651461044657806370a082311461040e57806372f702f3146103ca5780637b0a47ee146103ad57806380faa57d146103935780638b8763471461035b578063b6b55f2514610285578063c00007b0146101b5578063c8f33c9114610198578063cd3daf9d14610176578063df136d6514610159578063ebe2b12b1461013c5763f7c618c1146100f4575f80fd5b34610138575f366003190112610138576040517f00000000000000000000000000000000000000000000000000000000000000006001600160a01b03168152602090f35b5f80fd5b34610138575f366003190112610138576020600254604051908152f35b34610138575f366003190112610138576020600354604051908152f35b34610138575f3660031901126101385760206101906109f3565b604051908152f35b34610138575f366003190112610138576020600454604051908152f35b34610138576020366003190112610138576101ce610903565b6101d6610a50565b6101df81610a88565b6001600160a01b0381165f81815260076020526040902054909181610212575b60015f516020610bc55f395f51905f5255005b816102767f1f89f96333d3133000ee447473151fa9606543368f02271c9d95ae14f13bcc6793602093865f52600785525f604081205560018060a01b037f000000000000000000000000000000000000000000000000000000000000000016610ada565b604051908152a28080806101ff565b34610138576020366003190112610138576004356102a1610a50565b801561034c576102b033610a88565b6102bb815f54610957565b5f55335f52600560205260405f206102d4828254610957565b905561030b8130337f00000000000000000000000000000000000000000000000000000000000000006001600160a01b0316610b5b565b60405190815233907f5548c837ab068cf56a2c2479df0882a4922fd203edb7517321831d95078c5f6260203392a360015f516020610bc55f395f51905f5255005b631f2a200560e01b5f5260045ffd5b34610138576020366003190112610138576001600160a01b0361037c610903565b165f526006602052602060405f2054604051908152f35b34610138575f3660031901126101385760206101906109e2565b34610138575f366003190112610138576020600154604051908152f35b34610138575f366003190112610138576040517f00000000000000000000000000000000000000000000000000000000000000006001600160a01b03168152602090f35b34610138576020366003190112610138576001600160a01b0361042f610903565b165f526005602052602060405f2054604051908152f35b34610138576040366003190112610138576024356001600160a01b038116906004359082810361013857610478610a50565b811561034c5761048790610a88565b610492815f54610957565b5f55815f52600560205260405f206104ab828254610957565b90556104e28130337f00000000000000000000000000000000000000000000000000000000000000006001600160a01b0316610b5b565b6040519081527f5548c837ab068cf56a2c2479df0882a4922fd203edb7517321831d95078c5f6260203392a360015f516020610bc55f395f51905f5255005b34610138575f366003190112610138576040517f00000000000000000000000000000000000000000000000000000000000000006001600160a01b03168152602090f35b3461013857602036600319011261013857600435610581610a50565b7f00000000000000000000000000000000000000000000000000000000000000006001600160a01b0316330361079f57801561034c576105bf6109f3565b6003556105ca6109e2565b6004557f00000000000000000000000000000000000000000000000000000000000000006001600160a01b031661060382303384610b5b565b62093a80420462093a8081029080820462093a80149015171561078b5762093a80810180911161078b57602061063c6024924290610919565b9260025484814210155f1461075b57610656915086610939565b6001555b6040516370a0823160e01b815230600482015292839182905afa908115610750575f916106f4575b506106908260015492610939565b106106e5576106a3904260045542610957565b6002556040519081527f095667752957714306e1a6ad83495404412df6fdb932fca6dc849a7ee910d4c160203392a260015f516020610bc55f395f51905f5255005b633c6be1b360e01b5f5260045ffd5b905060203d602011610749575b601f8101601f1916820167ffffffffffffffff81118382101761073557602091839160405281010312610138575183610682565b634e487b7160e01b5f52604160045260245ffd5b503d610701565b6040513d5f823e3d90fd5b61077e61077861076f610783944290610919565b60015490610926565b88610957565b610939565b60015561065a565b634e487b7160e01b5f52601160045260245ffd5b63c18384c160e01b5f5260045ffd5b34610138576020366003190112610138576004356107ca610a50565b801561034c576107d933610a88565b6107e4815f54610919565b5f55335f52600560205260405f206107fd828254610919565b905561083381337f00000000000000000000000000000000000000000000000000000000000000006001600160a01b0316610ada565b6040519081527f884edad9ce6fa2440d8a54cc123490eb96d2768479d49ff9c7366125a942436460203392a260015f516020610bc55f395f51905f5255005b34610138575f3660031901126101385760205f54604051908152f35b34610138575f3660031901126101385760206101906109c4565b34610138576020366003190112610138576001600160a01b036108c9610903565b165f526007602052602060405f2054604051908152f35b346101385760203660031901126101385760206101906108fe610903565b610964565b600435906001600160a01b038216820361013857565b9190820391821161078b57565b8181029291811591840414171561078b57565b8115610943570490565b634e487b7160e01b5f52601260045260245ffd5b9190820180921161078b57565b6109c19060018060a01b0316805f526005602052670de0b6b3a76400006109ad60405f20546109a76109946109f3565b855f52600660205260405f205490610919565b90610926565b04905f52600760205260405f205490610957565b90565b600254804210156109dd5761076f6109c1914290610919565b505f90565b6002548042105f146109c157504290565b5f548015610a4957600354610a1561076f610a0c6109e2565b60045490610919565b670de0b6b3a7640000810290808204670de0b6b3a7640000149015171561078b576109c192610a4391610939565b90610957565b5060035490565b60025f516020610bc55f395f51905f525414610a795760025f516020610bc55f395f51905f5255565b633ee5aeb560e01b5f5260045ffd5b610a906109f3565b600355610a9b6109e2565b6004556001600160a01b0381169081610ab2575050565b610abb90610964565b815f52600760205260405f2055600354905f52600660205260405f2055565b916040519163a9059cbb60e01b5f5260018060a01b031660045260245260205f60448180865af19060015f5114821615610b3a575b60405215610b1a5750565b635274afe760e01b5f9081526001600160a01b0391909116600452602490fd5b906001811516610b5257823b15153d15161690610b0f565b503d5f823e3d90fd5b6040516323b872dd60e01b5f9081526001600160a01b039384166004529290931660245260449390935260209060648180865af19060015f5114821615610bac575b6040525f60605215610b1a5750565b906001811516610b5257823b15153d15161690610b9d56fe9b779b17422d0df92223018b32b4d1fa46e071723d6817e2486d003becc55f00a2646970667358221220e46676a02ad7cd3ede7e956a3abdefaa2c002a92487ada4c346cda3472e0306464736f6c634300081b00339b779b17422d0df92223018b32b4d1fa46e071723d6817e2486d003becc55f00a264697066735822122097a522867bf6294d8d500b799decbff2953d54fc1170f5f78a7d83e6d8557c3b64736f6c634300081b0033","linkReferences":{}},"methodIdentifiers":{"allPools(uint256)":"41d1de97","claimable(address)":"402914f5","createGauge(address)":"a5f4301e","distribute(address)":"63453ae1","distributeAll()":"436596c4","gauges(address)":"b9a09fd5","governor()":"0c340a24","index()":"2986c0e5","isAlive(address)":"1703e5f9","isGauge(address)":"aa79979b","isWhitelistedToken(address)":"ab37f486","killGauge(address)":"992a7933","lastVoted(uint256)":"f3594be0","minter()":"07546172","notifyRewardAmount(uint256)":"3c6b16ab","poke(uint256)":"32145f90","poolForGauge(address)":"06d6a1b2","poolsLength()":"2716ae66","reset(uint256)":"310bd74b","reviveGauge(address)":"9f06247b","rewardToken()":"f7c618c1","setGovernor(address)":"c42cf535","setMinter(address)":"fca3b5aa","supplyIndex(address)":"e380fcad","totalWeight()":"96c82e57","usedWeights(uint256)":"79e93824","ve()":"1f850716","vote(uint256,address[],uint256[])":"7ac09bf7","votes(uint256,address)":"d23254b4","weights(address)":"a7cac846","whitelistToken(address,bool)":"0ffb1d8b"},"id":80}