{"abi":[{"type":"constructor","inputs":[{"name":"_pool","type":"address","internalType":"address"},{"name":"_nft","type":"address","internalType":"address"},{"name":"_rewardToken","type":"address","internalType":"address"},{"name":"_voter","type":"address","internalType":"address"}],"stateMutability":"nonpayable"},{"type":"function","name":"deposit","inputs":[{"name":"tokenId","type":"uint256","internalType":"uint256"}],"outputs":[],"stateMutability":"nonpayable"},{"type":"function","name":"earned","inputs":[{"name":"tokenId","type":"uint256","internalType":"uint256"}],"outputs":[{"name":"","type":"uint256","internalType":"uint256"}],"stateMutability":"view"},{"type":"function","name":"getReward","inputs":[{"name":"tokenId","type":"uint256","internalType":"uint256"}],"outputs":[],"stateMutability":"nonpayable"},{"type":"function","name":"lastTimeRewardApplicable","inputs":[],"outputs":[{"name":"","type":"uint256","internalType":"uint256"}],"stateMutability":"view"},{"type":"function","name":"lastUpdateTime","inputs":[],"outputs":[{"name":"","type":"uint256","internalType":"uint256"}],"stateMutability":"view"},{"type":"function","name":"left","inputs":[],"outputs":[{"name":"","type":"uint256","internalType":"uint256"}],"stateMutability":"view"},{"type":"function","name":"nft","inputs":[],"outputs":[{"name":"","type":"address","internalType":"address"}],"stateMutability":"view"},{"type":"function","name":"notifyRewardAmount","inputs":[{"name":"amount","type":"uint256","internalType":"uint256"}],"outputs":[],"stateMutability":"nonpayable"},{"type":"function","name":"onERC721Received","inputs":[{"name":"","type":"address","internalType":"address"},{"name":"","type":"address","internalType":"address"},{"name":"","type":"uint256","internalType":"uint256"},{"name":"","type":"bytes","internalType":"bytes"}],"outputs":[{"name":"","type":"bytes4","internalType":"bytes4"}],"stateMutability":"pure"},{"type":"function","name":"periodFinish","inputs":[],"outputs":[{"name":"","type":"uint256","internalType":"uint256"}],"stateMutability":"view"},{"type":"function","name":"pool","inputs":[],"outputs":[{"name":"","type":"address","internalType":"address"}],"stateMutability":"view"},{"type":"function","name":"rewardPerToken","inputs":[],"outputs":[{"name":"","type":"uint256","internalType":"uint256"}],"stateMutability":"view"},{"type":"function","name":"rewardPerTokenStored","inputs":[],"outputs":[{"name":"","type":"uint256","internalType":"uint256"}],"stateMutability":"view"},{"type":"function","name":"rewardRate","inputs":[],"outputs":[{"name":"","type":"uint256","internalType":"uint256"}],"stateMutability":"view"},{"type":"function","name":"rewardToken","inputs":[],"outputs":[{"name":"","type":"address","internalType":"address"}],"stateMutability":"view"},{"type":"function","name":"rewards","inputs":[{"name":"","type":"uint256","internalType":"uint256"}],"outputs":[{"name":"","type":"uint256","internalType":"uint256"}],"stateMutability":"view"},{"type":"function","name":"stakedPositions","inputs":[{"name":"tokenId","type":"uint256","internalType":"uint256"}],"outputs":[{"name":"owner","type":"address","internalType":"address"},{"name":"liquidity","type":"uint128","internalType":"uint128"},{"name":"tickLower","type":"int24","internalType":"int24"},{"name":"tickUpper","type":"int24","internalType":"int24"}],"stateMutability":"view"},{"type":"function","name":"stakedTokenIds","inputs":[{"name":"owner","type":"address","internalType":"address"}],"outputs":[{"name":"","type":"uint256[]","internalType":"uint256[]"}],"stateMutability":"view"},{"type":"function","name":"totalSupply","inputs":[],"outputs":[{"name":"","type":"uint256","internalType":"uint256"}],"stateMutability":"view"},{"type":"function","name":"userRewardPerTokenPaid","inputs":[{"name":"","type":"uint256","internalType":"uint256"}],"outputs":[{"name":"","type":"uint256","internalType":"uint256"}],"stateMutability":"view"},{"type":"function","name":"voter","inputs":[],"outputs":[{"name":"","type":"address","internalType":"address"}],"stateMutability":"view"},{"type":"function","name":"withdraw","inputs":[{"name":"tokenId","type":"uint256","internalType":"uint256"}],"outputs":[],"stateMutability":"nonpayable"},{"type":"event","name":"ClaimRewards","inputs":[{"name":"user","type":"address","indexed":true,"internalType":"address"},{"name":"tokenId","type":"uint256","indexed":true,"internalType":"uint256"},{"name":"amount","type":"uint256","indexed":false,"internalType":"uint256"}],"anonymous":false},{"type":"event","name":"Deposit","inputs":[{"name":"user","type":"address","indexed":true,"internalType":"address"},{"name":"tokenId","type":"uint256","indexed":true,"internalType":"uint256"},{"name":"liquidity","type":"uint128","indexed":false,"internalType":"uint128"}],"anonymous":false},{"type":"event","name":"NotifyReward","inputs":[{"name":"from","type":"address","indexed":true,"internalType":"address"},{"name":"amount","type":"uint256","indexed":false,"internalType":"uint256"}],"anonymous":false},{"type":"event","name":"Withdraw","inputs":[{"name":"user","type":"address","indexed":true,"internalType":"address"},{"name":"tokenId","type":"uint256","indexed":true,"internalType":"uint256"},{"name":"liquidity","type":"uint128","indexed":false,"internalType":"uint128"}],"anonymous":false},{"type":"error","name":"InvalidReward","inputs":[]},{"type":"error","name":"NotAlive","inputs":[]},{"type":"error","name":"NotOwner","inputs":[]},{"type":"error","name":"NotStaked","inputs":[]},{"type":"error","name":"NotVoter","inputs":[]},{"type":"error","name":"PositionNotInRange","inputs":[]},{"type":"error","name":"ReentrancyGuardReentrantCall","inputs":[]},{"type":"error","name":"SafeERC20FailedOperation","inputs":[{"name":"token","type":"address","internalType":"address"}]},{"type":"error","name":"ZeroAmount","inputs":[]}],"bytecode":{"object":"0x6101003461010257601f61137938819003918201601f19168301916001600160401b0383118484101761010657808492608094604052833981010312610102576100488161011a565b906100556020820161011a565b61006d60606100666040850161011a565b930161011a565b9260017f9b779b17422d0df92223018b32b4d1fa46e071723d6817e2486d003becc55f005560805260e05260c05260a05260405161124a908161012f8239608051818181610cd0015261111b015260a05181818161065601526106a4015260c0518181816101250152818161070c01528181610afa0152610c52015260e0518181816102270152818161061101526109ac0152f35b5f80fd5b634e487b7160e01b5f52604160045260245ffd5b51906001600160a01b03821682036101025756fe6080806040526004361015610012575f80fd5b5f905f3560e01c908163150b7a0214610d195750806316e6404814610cff57806316f0115b14610cbb57806318160ddd14610c9f5780631c4b774b14610b695780632e1a7d4d1461087a5780633c6b16ab1461068557806346c96aac1461064057806347ccca02146105fb5780634d6ed8c4146105dc5780636c6f858b146105b257806374d9df37146105305780637b0a47ee1461051257806380faa57d146104f75780639e71310314610442578063b6b55f25146101fe578063c8f33c91146101e0578063cd3daf9d146101bd578063df136d651461019f578063ebe2b12b14610181578063f301af42146101575763f7c618c114610110575f80fd5b346101545780600319360112610154576040517f00000000000000000000000000000000000000000000000000000000000000006001600160a01b03168152602090f35b80fd5b50346101545760203660031901126101545760406020916004358152600983522054604051908152f35b50346101545780600319360112610154576020600254604051908152f35b50346101545780600319360112610154576020600354604051908152f35b503461015457806003193601126101545760206101d8610f50565b604051908152f35b50346101545780600319360112610154576020600454604051908152f35b50346101545760203660031901126101545760043561021b610fad565b61022481610fe5565b817f00000000000000000000000000000000000000000000000000000000000000006001600160a01b0316803b1561043357604051632142170760e11b8152336004820152306024820152604481018490529082908290606490829084905af180156104375761041e575b505060405161029d81610df4565b3381526020810190670de0b6b3a764000082526040810190620d89b31982526001600160801b0360016060830192620d89b4845286885260056020526040882090828060a01b039051166bffffffffffffffffffffffff60a01b825416178155019351168354925160801b62ffffff60801b16915160981b62ffffff60981b169269ffffffffffffffffffff60b01b16171717905533825260066020526040822054818352600760205260408320553382526006602052604082208054906801000000000000000082101561040a57610380828492600161039895018155610f27565b90919082549060031b91821b915f19901b1916179055565b8154670de0b6b3a764000081018091116103f6578255604051670de0b6b3a764000081527f1c8ab8c7f45390d58f58f1d655213a82cca5d12179761a87c16f098813b8f21160203392a360015f5160206111f55f395f51905f525580f35b634e487b7160e01b83526011600452602483fd5b634e487b7160e01b84526041600452602484fd5b8161042891610e24565b61043357815f61028f565b5080fd5b6040513d84823e3d90fd5b5034610154576020366003190112610154576001600160a01b03610464610d87565b168152600660205260408120604051908160208254918281520190819285526020852090855b8181106104e157505050826104a0910383610e24565b604051928392602084019060208552518091526040840192915b8181106104c8575050500390f35b82518452859450602093840193909201916001016104ba565b825484526020909301926001928301920161048a565b503461015457806003193601126101545760206101d8610f16565b50346101545780600319360112610154576020600154604051908152f35b50346101545760203660031901126101545760406080916004358152600560205220606060405161056081610df4565b6001808060a01b03845416938483520154906001600160801b0382169081602082015282861c60020b9283604083015260981c60020b9384910152604051938452602084015260408301526060820152f35b50346101545760203660031901126101545760406020916004358152600883522054604051908152f35b50346101545760203660031901126101545760206101d8600435610e71565b50346101545780600319360112610154576040517f00000000000000000000000000000000000000000000000000000000000000006001600160a01b03168152602090f35b50346101545780600319360112610154576040517f00000000000000000000000000000000000000000000000000000000000000006001600160a01b03168152602090f35b5034610154576020366003190112610154576004356106a2610fad565b7f00000000000000000000000000000000000000000000000000000000000000006001600160a01b0316330361086b57801561085c576106e0610f50565b6003556106eb610f16565b60049081556040516323b872dd60e01b8452339091523060245260448290527f00000000000000000000000000000000000000000000000000000000000000006001600160a01b03169060208460648180865af190600185511482161561083b575b6040528360605215610829575062093a80420462093a8081029080820462093a8014901517156103f65762093a8081018091116103f6576107926107b6914290610db3565b600254814282116107f9576107a8915084610e53565b6001555b4260045542610e46565b6002556040519081527f095667752957714306e1a6ad83495404412df6fdb932fca6dc849a7ee910d4c160203392a260015f5160206111f55f395f51905f525580f35b61081c61081661080d610821944290610db3565b60015490610dc0565b86610e46565b610e53565b6001556107ac565b635274afe760e01b8352600452602482fd5b90600181151661085357823b15153d1516169061074d565b503d84823e3d90fd5b631f2a200560e01b8252600482fd5b63c18384c160e01b8252600482fd5b5034610a87576020366003190112610a8757600435610897610fad565b805f52600560205260405f20604051906108b082610df4565b6001808060a01b0382541691828452015491606060208201936001600160801b03811685528060801c60020b604084015260981c60020b9101523303610b5a576108f982610fe5565b61090e6001600160801b038251165f54610db3565b5f55815f5260096020528160405f205480610ae5575b5050335f52600660205260405f20825f52600760205260405f205481545f198101908111610ad157808203610a9f575b505080548015610a8b575f19019061096c8282610f27565b81545f1960039290921b9190911b19169055555f8281526007602090815260408083208390556005825280832083815560010183905560089091528120557f00000000000000000000000000000000000000000000000000000000000000006001600160a01b0316803b15610a8757604051632142170760e11b815230600482015233602482015260448101849052905f908290606490829084905af18015610a7c57610a60575b506001600160801b039051166040519081527f8903a5b5d08a841e7f68438387f1da20c84dea756379ed37e633ff3854b99b8460203392a360015f5160206111f55f395f51905f525580f35b610a6d9193505f90610e24565b5f916001600160801b03610a14565b6040513d5f823e3d90fd5b5f80fd5b634e487b7160e01b5f52603160045260245ffd5b610aa99083610f27565b90549060031b1c610abe816103808486610f27565b5f52600760205260405f20555f80610954565b634e487b7160e01b5f52601160045260245ffd5b5f82815260096020526040812055610b2781337f00000000000000000000000000000000000000000000000000000000000000006001600160a01b031661102b565b6040519081527f674a8930d4166ce2352c3dc1e9ff633595db479f71f3741270a0a73a52cb7b0f60203392a3815f610924565b6330cd747160e01b5f5260045ffd5b34610a87576020366003190112610a8757600435610b85610fad565b805f52600560205260405f2060405190610b9e82610df4565b6001808060a01b038254169182845201546001600160801b03811660208401528060801c60020b604084015260981c60020b606083015215610c9157610be382610fe5565b815f52600960205260405f20549081610c0a575b60015f5160206111f55f395f51905f5255005b60207f674a8930d4166ce2352c3dc1e9ff633595db479f71f3741270a0a73a52cb7b0f91845f52600982525f6040812055610c778460018060a01b0383511660018060a01b037f00000000000000000000000000000000000000000000000000000000000000001661102b565b516040519384526001600160a01b031692a3808080610bf7565b6273e5c360e31b5f5260045ffd5b34610a87575f366003190112610a875760205f54604051908152f35b34610a87575f366003190112610a87576040517f00000000000000000000000000000000000000000000000000000000000000006001600160a01b03168152602090f35b34610a87575f366003190112610a875760206101d8610dd3565b34610a87576080366003190112610a8757610d32610d87565b50610d3b610d9d565b5060643567ffffffffffffffff8111610a875736602382011215610a8757806004013567ffffffffffffffff8111610a875736910160240111610a8757630a85bd0160e11b8152602090f35b600435906001600160a01b0382168203610a8757565b602435906001600160a01b0382168203610a8757565b91908203918211610ad157565b81810292918115918404141715610ad157565b60025480421015610def5761080d610dec914290610db3565b90565b505f90565b6080810190811067ffffffffffffffff821117610e1057604052565b634e487b7160e01b5f52604160045260245ffd5b90601f8019910116810190811067ffffffffffffffff821117610e1057604052565b91908201809211610ad157565b8115610e5d570490565b634e487b7160e01b5f52601260045260245ffd5b805f52600560205260405f20604051610e8981610df4565b60606001808060a01b038454169384845201546001600160801b03811660208401528060801c60020b604084015260981c60020b91015215610def5780670de0b6b3a7640000610f02610ede610dec946110ac565b610efc610ee9610f50565b855f52600860205260405f205490610db3565b90610dc0565b04905f52600960205260405f205490610e46565b6002548042105f14610dec57504290565b8054821015610f3c575f5260205f2001905f90565b634e487b7160e01b5f52603260045260245ffd5b5f548015610fa657600354610f7261080d610f69610f16565b60045490610db3565b670de0b6b3a7640000810290808204670de0b6b3a76400001490151715610ad157610dec92610fa091610e53565b90610e46565b5060035490565b60025f5160206111f55f395f51905f525414610fd65760025f5160206111f55f395f51905f5255565b633ee5aeb560e01b5f5260045ffd5b610fed610f50565b600355610ff8610f16565b600455806110035750565b61100c81610e71565b815f52600960205260405f2055600354905f52600860205260405f2055565b916040519163a9059cbb60e01b5f5260018060a01b031660045260245260205f60448180865af19060015f511482161561108b575b6040521561106b5750565b635274afe760e01b5f9081526001600160a01b0391909116600452602490fd5b9060018115166110a357823b15153d15161690611060565b503d5f823e3d90fd5b5f52600560205260405f206040516110c381610df4565b6001808060a01b038354169283835201549060208101926001600160801b0383168452606060408301928460801c60020b8452019260981c60020b8352156111ed57604051633850c7bd60e01b8152906060826004817f00000000000000000000000000000000000000000000000000000000000000006001600160a01b03165afa918215610a7c575f9261118d575b505160020b9060020b90811215918261117f575b505061117257505f90565b516001600160801b031690565b5160020b1390505f80611167565b9091506060813d6060116111e5575b816111a960609383610e24565b81010312610a875780516001600160a01b03811603610a87576020810151908160020b8203610a87576040015180151503610a8757905f611153565b3d915061119c565b5050505f9056fe9b779b17422d0df92223018b32b4d1fa46e071723d6817e2486d003becc55f00a2646970667358221220e757c3ce958920ef82fb8468a7ee0df9a27cca0e3b70e0a7426c5b8aa3dcccb464736f6c634300081b0033","linkReferences":{}},"methodIdentifiers":{"deposit(uint256)":"b6b55f25","earned(uint256)":"4d6ed8c4","getReward(uint256)":"1c4b774b","lastTimeRewardApplicable()":"80faa57d","lastUpdateTime()":"c8f33c91","left()":"16e64048","nft()":"47ccca02","notifyRewardAmount(uint256)":"3c6b16ab","onERC721Received(address,address,uint256,bytes)":"150b7a02","periodFinish()":"ebe2b12b","pool()":"16f0115b","rewardPerToken()":"cd3daf9d","rewardPerTokenStored()":"df136d65","rewardRate()":"7b0a47ee","rewardToken()":"f7c618c1","rewards(uint256)":"f301af42","stakedPositions(uint256)":"74d9df37","stakedTokenIds(address)":"9e713103","totalSupply()":"18160ddd","userRewardPerTokenPaid(uint256)":"6c6f858b","voter()":"46c96aac","withdraw(uint256)":"2e1a7d4d"},"id":87}