{"abi":[{"type":"constructor","inputs":[],"stateMutability":"nonpayable"},{"type":"function","name":"UPGRADE_INTERFACE_VERSION","inputs":[],"outputs":[{"name":"","type":"string","internalType":"string"}],"stateMutability":"view"},{"type":"function","name":"allPoolsLength","inputs":[],"outputs":[{"name":"","type":"uint256","internalType":"uint256"}],"stateMutability":"view"},{"type":"function","name":"createPool","inputs":[{"name":"tokenA","type":"address","internalType":"address"},{"name":"tokenB","type":"address","internalType":"address"},{"name":"tickSpacing","type":"int24","internalType":"int24"},{"name":"sqrtPriceX96","type":"uint160","internalType":"uint160"}],"outputs":[{"name":"pool","type":"address","internalType":"address"}],"stateMutability":"nonpayable"},{"type":"function","name":"enableTickSpacing","inputs":[{"name":"tickSpacing","type":"int24","internalType":"int24"},{"name":"fee","type":"uint24","internalType":"uint24"}],"outputs":[],"stateMutability":"nonpayable"},{"type":"function","name":"getPool","inputs":[{"name":"tokenA","type":"address","internalType":"address"},{"name":"tokenB","type":"address","internalType":"address"},{"name":"tickSpacing","type":"int24","internalType":"int24"}],"outputs":[{"name":"","type":"address","internalType":"address"}],"stateMutability":"view"},{"type":"function","name":"implementation","inputs":[],"outputs":[{"name":"","type":"address","internalType":"address"}],"stateMutability":"view"},{"type":"function","name":"initialize","inputs":[{"name":"_implementation","type":"address","internalType":"address"}],"outputs":[],"stateMutability":"nonpayable"},{"type":"function","name":"isPool","inputs":[{"name":"pool","type":"address","internalType":"address"}],"outputs":[{"name":"","type":"bool","internalType":"bool"}],"stateMutability":"view"},{"type":"function","name":"owner","inputs":[],"outputs":[{"name":"","type":"address","internalType":"address"}],"stateMutability":"view"},{"type":"function","name":"proxiableUUID","inputs":[],"outputs":[{"name":"","type":"bytes32","internalType":"bytes32"}],"stateMutability":"view"},{"type":"function","name":"renounceOwnership","inputs":[],"outputs":[],"stateMutability":"nonpayable"},{"type":"function","name":"setImplementation","inputs":[{"name":"_implementation","type":"address","internalType":"address"}],"outputs":[],"stateMutability":"nonpayable"},{"type":"function","name":"setOwner","inputs":[{"name":"newOwner","type":"address","internalType":"address"}],"outputs":[],"stateMutability":"nonpayable"},{"type":"function","name":"tickSpacingToFee","inputs":[{"name":"","type":"int24","internalType":"int24"}],"outputs":[{"name":"","type":"uint24","internalType":"uint24"}],"stateMutability":"view"},{"type":"function","name":"transferOwnership","inputs":[{"name":"newOwner","type":"address","internalType":"address"}],"outputs":[],"stateMutability":"nonpayable"},{"type":"function","name":"upgradeToAndCall","inputs":[{"name":"newImplementation","type":"address","internalType":"address"},{"name":"data","type":"bytes","internalType":"bytes"}],"outputs":[],"stateMutability":"payable"},{"type":"event","name":"Initialized","inputs":[{"name":"version","type":"uint64","indexed":false,"internalType":"uint64"}],"anonymous":false},{"type":"event","name":"OwnerChanged","inputs":[{"name":"oldOwner","type":"address","indexed":true,"internalType":"address"},{"name":"newOwner","type":"address","indexed":true,"internalType":"address"}],"anonymous":false},{"type":"event","name":"OwnershipTransferred","inputs":[{"name":"previousOwner","type":"address","indexed":true,"internalType":"address"},{"name":"newOwner","type":"address","indexed":true,"internalType":"address"}],"anonymous":false},{"type":"event","name":"PoolCreated","inputs":[{"name":"token0","type":"address","indexed":true,"internalType":"address"},{"name":"token1","type":"address","indexed":true,"internalType":"address"},{"name":"tickSpacing","type":"int24","indexed":true,"internalType":"int24"},{"name":"pool","type":"address","indexed":false,"internalType":"address"},{"name":"allPoolsLength","type":"uint256","indexed":false,"internalType":"uint256"}],"anonymous":false},{"type":"event","name":"TickSpacingEnabled","inputs":[{"name":"tickSpacing","type":"int24","indexed":true,"internalType":"int24"},{"name":"fee","type":"uint24","indexed":true,"internalType":"uint24"}],"anonymous":false},{"type":"event","name":"Upgraded","inputs":[{"name":"implementation","type":"address","indexed":true,"internalType":"address"}],"anonymous":false},{"type":"error","name":"AddressEmptyCode","inputs":[{"name":"target","type":"address","internalType":"address"}]},{"type":"error","name":"ERC1967InvalidImplementation","inputs":[{"name":"implementation","type":"address","internalType":"address"}]},{"type":"error","name":"ERC1967NonPayable","inputs":[]},{"type":"error","name":"FailedCall","inputs":[]},{"type":"error","name":"FailedDeployment","inputs":[]},{"type":"error","name":"IdenticalAddresses","inputs":[]},{"type":"error","name":"InsufficientBalance","inputs":[{"name":"balance","type":"uint256","internalType":"uint256"},{"name":"needed","type":"uint256","internalType":"uint256"}]},{"type":"error","name":"InvalidInitialization","inputs":[]},{"type":"error","name":"InvalidTickSpacing","inputs":[]},{"type":"error","name":"NotInitializing","inputs":[]},{"type":"error","name":"NotOwner","inputs":[]},{"type":"error","name":"OwnableInvalidOwner","inputs":[{"name":"owner","type":"address","internalType":"address"}]},{"type":"error","name":"OwnableUnauthorizedAccount","inputs":[{"name":"account","type":"address","internalType":"address"}]},{"type":"error","name":"PoolExists","inputs":[]},{"type":"error","name":"UUPSUnauthorizedCallContext","inputs":[]},{"type":"error","name":"UUPSUnsupportedProxiableUUID","inputs":[{"name":"slot","type":"bytes32","internalType":"bytes32"}]},{"type":"error","name":"ZeroAddress","inputs":[]}],"bytecode":{"object":"0x60a080604052346100c257306080525f51602061104f5f395f51905f525460ff8160401c166100b3576002600160401b03196001600160401b03821601610060575b604051610f8890816100c7823960805181818161056501526106430152f35b6001600160401b0319166001600160401b039081175f51602061104f5f395f51905f525581527fc7f505b2f371ae2175ee4913f4499e1f2633a7b5936321eed1cdaeb6115181d290602090a15f80610041565b63f92ee8a960e01b5f5260045ffd5b5f80fdfe60806040526004361015610011575f80fd5b5f5f3560e01c806313af403514610c63578063232aa5ac146108a957806328af8d0b1461082e578063380dc1c2146107f75780634f1ef286146105b957806352d1902d146105525780635b16ebb7146105135780635c60da1b146104ec578063715018a6146104835780638da5cb5b1461044e578063ad3cb1cc146103f2578063c4d66de814610207578063d784d426146101b5578063eee0fdb414610117578063efde4e64146100f95763f2fde38b146100ca575f80fd5b346100f65760203660031901126100f6576100f36100e6610cea565b6100ee610e08565b610d6c565b80f35b80fd5b50346100f657806003193601126100f6576020600254604051908152f35b50346100f65760403660031901126100f657610131610d26565b6024359062ffffff82168092036101b15761014a610e08565b60020b808352600460205262ffffff6040842054166101a257808352600460205260408320805462ffffff1916831790557febafae466a4a780a1d87f5fab2f52fad33be9151a7f69d099e8934c8de85b7478380a380f35b63013840ad60e51b8352600483fd5b8280fd5b50346100f65760203660031901126100f6576101cf610cea565b6101d7610e08565b6001600160a01b031680156101f85781546001600160a01b03191617815580f35b63d92e233d60e01b8252600482fd5b50346100f65760203660031901126100f657610221610cea565b5f516020610f335f395f51905f52549060ff8260401c16159167ffffffffffffffff8116801590816103ea575b60011490816103e0575b1590816103d7575b506103c85767ffffffffffffffff1981166001175f516020610f335f395f51905f52558261039c575b506001600160a01b0316801561038d576102a1610e3b565b6102a9610e3b565b6102b233610d6c565b6001600160601b0360a01b83541617825560018252600460205260408220606462ffffff19825416179055600a82526004602052604082206101f462ffffff19825416179055603c8252600460205260408220610bb862ffffff1982541617905560c8825260046020526040822061271062ffffff198254161790556103355780f35b68ff0000000000000000195f516020610f335f395f51905f5254165f516020610f335f395f51905f52557fc7f505b2f371ae2175ee4913f4499e1f2633a7b5936321eed1cdaeb6115181d2602060405160018152a180f35b63d92e233d60e01b8352600483fd5b68ffffffffffffffffff191668010000000000000001175f516020610f335f395f51905f52555f610289565b63f92ee8a960e01b8452600484fd5b9050155f610260565b303b159150610258565b84915061024e565b50346100f657806003193601126100f657604080516104118282610d36565b6005815260208101640352e302e360dc1b81528251938492602084525180928160208601528585015e828201840152601f01601f19168101030190f35b50346100f657806003193601126100f6575f516020610ef35f395f51905f52546040516001600160a01b039091168152602090f35b50346100f657806003193601126100f65761049c610e08565b5f516020610ef35f395f51905f5280546001600160a01b0319811690915581906001600160a01b03167f8be0079c531659141344cd1fd0a4f28419497f9722a3daafe3b4186f6b6457e08280a380f35b50346100f657806003193601126100f657546040516001600160a01b039091168152602090f35b50346100f65760203660031901126100f65760209060ff906040906001600160a01b0361053e610cea565b168152600384522054166040519015158152f35b50346100f657806003193601126100f6577f00000000000000000000000000000000000000000000000000000000000000006001600160a01b031630036105aa5760206040515f516020610f135f395f51905f528152f35b63703e46dd60e11b8152600490fd5b5060403660031901126100f6576105ce610cea565b906024359167ffffffffffffffff83116107f357366023840112156107f357826004013567ffffffffffffffff81116107df5760405193610619601f8301601f191660200186610d36565b81855236602483830101116107db5781849260246020930183880137850101526001600160a01b037f0000000000000000000000000000000000000000000000000000000000000000163081149081156107b9575b506107aa5761067b610e08565b6040516352d1902d60e01b8152926001600160a01b0382169190602085600481865afa80958596610772575b506106c057634c9c8ce360e01b84526004839052602484fd5b9091845f516020610f135f395f51905f5281036107605750823b1561074e575f516020610f135f395f51905f5280546001600160a01b031916821790557fbc7cd75a20ee27fd9adebab32041f755214dbc6bffa90cc0225b39da2e5c2d3b8480a28051156107355761073191610e66565b5080f35b50503461073f5780f35b63b398979f60e01b8152600490fd5b634c9c8ce360e01b8452600452602483fd5b632a87526960e21b8552600452602484fd5b9095506020813d6020116107a2575b8161078e60209383610d36565b8101031261079e5751945f6106a7565b8480fd5b3d9150610781565b63703e46dd60e11b8252600482fd5b5f516020610f135f395f51905f52546001600160a01b0316141590505f61066e565b8380fd5b634e487b7160e01b83526041600452602483fd5b5080fd5b50346100f65760203660031901126100f65762ffffff604060209261081a610d26565b60020b815260048452205416604051908152f35b50346100f65760603660031901126100f657610848610cea565b906040610864610856610d00565b61085e610d16565b94610ded565b929060018060a01b031681526001602052209060018060a01b03165f5260205260405f209060020b5f52602052602060405f2060018060a01b03905416604051908152f35b5034610c14576080366003190112610c14576108c3610cea565b6108cb610d00565b6108d3610d16565b916064356001600160a01b0381169290839003610c14576001600160a01b0382811690821614610c545761090691610ded565b90916001600160a01b038316908115610c45575f8281526001602090815260408083206001600160a01b03878116855290835281842060028a900b85529092529091205416610c36578460020b93845f52600460205262ffffff60405f205416958615610c27576040519060208201926001600160601b03199060601b16835260018060a01b038616956001600160601b03199060601b16603483015260e81b6048820152602b81526109ba604b82610d36565b5190205f8054608881901c62ffffff16763d602d80600a3d3981f3363d3d373d3d3d363d7300000017825260781b6effffffffffffffffffffffffffffff19166e5af43d82803e903d91602b57fd5bf3176020526001600160a01b039190603790600990f516948515610c1857853b15610c14576040519063292612f360e21b825230600483015283602483015284604483015285606483015260848201525f8160a481838a5af18015610c0957610bf4575b508590853b156107f3576040519063f637731d60e01b825260048201528181602481838a5af18015610be957610bd4575b50819052600160205260408520825f5260205260405f20835f5260205260405f20846001600160601b0360a01b825416179055818552600160205260408520815f5260205260405f20835f5260205260405f20846001600160601b0360a01b82541617905560025468010000000000000000811015610bc0576001810180600255811015610bac576020956040917f405787fa12a823e0f2b7631cc41b3ba8828b3321ca811111fa75cd3aa3bb5ace01866001600160601b0360a01b8254161790558581526003875220600160ff198254161790557fb4b64a6a7c41cd0232bfad78d5f845870be74762857744ff02be28578c5f4cb9604060025481519087825288820152a4604051908152f35b634e487b7160e01b86526032600452602486fd5b634e487b7160e01b86526041600452602486fd5b81610bde91610d36565b61079e57845f610a9e565b6040513d84823e3d90fd5b610c019196505f90610d36565b5f945f610a6d565b6040513d5f823e3d90fd5b5f80fd5b63b06ebf3d60e01b5f5260045ffd5b63013840ad60e51b5f5260045ffd5b637a471e1360e11b5f5260045ffd5b63d92e233d60e01b5f5260045ffd5b630bd969eb60e41b5f5260045ffd5b34610c14576020366003190112610c1457610c7c610cea565b5f516020610ef35f395f51905f52546001600160a01b03163303610cdb576001600160a01b038116908115610c4557610cb490610d99565b337fb532073b38c83145e3e5135377a08bf9aab55bc0fd7c1179cd4fb995d2a5159c5f80a3005b6330cd747160e01b5f5260045ffd5b600435906001600160a01b0382168203610c1457565b602435906001600160a01b0382168203610c1457565b604435908160020b8203610c1457565b600435908160020b8203610c1457565b90601f8019910116810190811067ffffffffffffffff821117610d5857604052565b634e487b7160e01b5f52604160045260245ffd5b6001600160a01b03811615610d8657610d8490610d99565b565b631e4fbdf760e01b5f525f60045260245ffd5b5f516020610ef35f395f51905f5280546001600160a01b039283166001600160a01b0319821681179092559091167f8be0079c531659141344cd1fd0a4f28419497f9722a3daafe3b4186f6b6457e05f80a3565b6001600160a01b038281169082161015610e045791565b9091565b5f516020610ef35f395f51905f52546001600160a01b03163303610e2857565b63118cdaa760e01b5f523360045260245ffd5b60ff5f516020610f335f395f51905f525460401c1615610e5757565b631afcd79f60e31b5f5260045ffd5b905f8091602081519101845af48080610edf575b15610e9a5750506040513d81523d5f602083013e60203d82010160405290565b15610ebf57639996b31560e01b5f9081526001600160a01b0391909116600452602490fd5b3d15610ed0576040513d5f823e3d90fd5b63d6bda27560e01b5f5260045ffd5b503d151580610e7a5750813b1515610e7a56fe9016d09d72d40fdae2fd8ceac6b6234c7706214fd39c1cd1e609a0528c199300360894a13ba1a3210667c828492db98dca3e2076cc3735a920a3ca505d382bbcf0c57e16840df040f15088dc2f81fe391c3923bec73e23a9662efc9c229c6a00a2646970667358221220339fdfe6a43fdd558aa803d692d2443fa8411795e55025b4f2f7f8ea3d8f0ed264736f6c634300081b0033f0c57e16840df040f15088dc2f81fe391c3923bec73e23a9662efc9c229c6a00","linkReferences":{}},"methodIdentifiers":{"UPGRADE_INTERFACE_VERSION()":"ad3cb1cc","allPoolsLength()":"efde4e64","createPool(address,address,int24,uint160)":"232aa5ac","enableTickSpacing(int24,uint24)":"eee0fdb4","getPool(address,address,int24)":"28af8d0b","implementation()":"5c60da1b","initialize(address)":"c4d66de8","isPool(address)":"5b16ebb7","owner()":"8da5cb5b","proxiableUUID()":"52d1902d","renounceOwnership()":"715018a6","setImplementation(address)":"d784d426","setOwner(address)":"13af4035","tickSpacingToFee(int24)":"380dc1c2","transferOwnership(address)":"f2fde38b","upgradeToAndCall(address,bytes)":"4f1ef286"},"id":83}