{"abi":[{"type":"constructor","inputs":[{"name":"_protocolFeeRecipient","type":"address","internalType":"address"}],"stateMutability":"nonpayable"},{"type":"receive","stateMutability":"payable"},{"type":"function","name":"MAX_FEE","inputs":[],"outputs":[{"name":"","type":"uint256","internalType":"uint256"}],"stateMutability":"view"},{"type":"function","name":"MAX_TICK","inputs":[],"outputs":[{"name":"","type":"int24","internalType":"int24"}],"stateMutability":"view"},{"type":"function","name":"MEV_LP_SHARE","inputs":[],"outputs":[{"name":"","type":"uint256","internalType":"uint256"}],"stateMutability":"view"},{"type":"function","name":"MEV_PROTOCOL_SHARE","inputs":[],"outputs":[{"name":"","type":"uint256","internalType":"uint256"}],"stateMutability":"view"},{"type":"function","name":"MIN_TICK","inputs":[],"outputs":[{"name":"","type":"int24","internalType":"int24"}],"stateMutability":"view"},{"type":"function","name":"approveHook","inputs":[{"name":"hook","type":"address","internalType":"address"},{"name":"approved","type":"bool","internalType":"bool"}],"outputs":[],"stateMutability":"nonpayable"},{"type":"function","name":"approvedHooks","inputs":[{"name":"","type":"address","internalType":"address"}],"outputs":[{"name":"","type":"bool","internalType":"bool"}],"stateMutability":"view"},{"type":"function","name":"authorizeSettler","inputs":[{"name":"settler","type":"address","internalType":"address"},{"name":"authorized","type":"bool","internalType":"bool"}],"outputs":[],"stateMutability":"nonpayable"},{"type":"function","name":"authorizedSettlers","inputs":[{"name":"","type":"address","internalType":"address"}],"outputs":[{"name":"","type":"bool","internalType":"bool"}],"stateMutability":"view"},{"type":"function","name":"batches","inputs":[{"name":"","type":"uint256","internalType":"uint256"}],"outputs":[{"name":"totalVolume0","type":"uint256","internalType":"uint256"},{"name":"totalVolume1","type":"uint256","internalType":"uint256"},{"name":"settled","type":"bool","internalType":"bool"}],"stateMutability":"view"},{"type":"function","name":"blockMEV","inputs":[{"name":"","type":"uint256","internalType":"uint256"},{"name":"","type":"bytes32","internalType":"bytes32"}],"outputs":[{"name":"","type":"uint256","internalType":"uint256"}],"stateMutability":"view"},{"type":"function","name":"claimMEVRewards","inputs":[{"name":"poolId","type":"bytes32","internalType":"bytes32"}],"outputs":[],"stateMutability":"nonpayable"},{"type":"function","name":"currencyDeltas","inputs":[{"name":"","type":"address","internalType":"address"}],"outputs":[{"name":"","type":"int256","internalType":"int256"}],"stateMutability":"view"},{"type":"function","name":"initialize","inputs":[{"name":"key","type":"tuple","internalType":"struct PoolManager.PoolKey","components":[{"name":"token0","type":"address","internalType":"address"},{"name":"token1","type":"address","internalType":"address"},{"name":"fee","type":"uint24","internalType":"uint24"},{"name":"hooks","type":"address","internalType":"address"}]},{"name":"sqrtPriceX96","type":"uint160","internalType":"uint160"}],"outputs":[{"name":"poolId","type":"bytes32","internalType":"bytes32"}],"stateMutability":"nonpayable"},{"type":"function","name":"keeperReward","inputs":[],"outputs":[{"name":"","type":"uint256","internalType":"uint256"}],"stateMutability":"view"},{"type":"function","name":"mevRewards","inputs":[{"name":"","type":"bytes32","internalType":"bytes32"}],"outputs":[{"name":"","type":"uint256","internalType":"uint256"}],"stateMutability":"view"},{"type":"function","name":"minMEVBid","inputs":[],"outputs":[{"name":"","type":"uint256","internalType":"uint256"}],"stateMutability":"view"},{"type":"function","name":"modifyLiquidity","inputs":[{"name":"poolId","type":"bytes32","internalType":"bytes32"},{"name":"params","type":"tuple","internalType":"struct PoolManager.ModifyLiquidityParams","components":[{"name":"tickLower","type":"int24","internalType":"int24"},{"name":"tickUpper","type":"int24","internalType":"int24"},{"name":"liquidityDelta","type":"int128","internalType":"int128"}]},{"name":"hookData","type":"bytes","internalType":"bytes"}],"outputs":[{"name":"amount0","type":"int256","internalType":"int256"},{"name":"amount1","type":"int256","internalType":"int256"}],"stateMutability":"nonpayable"},{"type":"function","name":"owner","inputs":[],"outputs":[{"name":"","type":"address","internalType":"address"}],"stateMutability":"view"},{"type":"function","name":"pay","inputs":[{"name":"token","type":"address","internalType":"address"},{"name":"amount","type":"uint256","internalType":"uint256"}],"outputs":[],"stateMutability":"nonpayable"},{"type":"function","name":"poolHooks","inputs":[{"name":"","type":"bytes32","internalType":"bytes32"}],"outputs":[{"name":"","type":"address","internalType":"address"}],"stateMutability":"view"},{"type":"function","name":"pools","inputs":[{"name":"","type":"bytes32","internalType":"bytes32"}],"outputs":[{"name":"sqrtPriceX96","type":"uint160","internalType":"uint160"},{"name":"tick","type":"int24","internalType":"int24"},{"name":"feeProtocol","type":"uint24","internalType":"uint24"},{"name":"initialized","type":"bool","internalType":"bool"},{"name":"reserve0","type":"uint256","internalType":"uint256"},{"name":"reserve1","type":"uint256","internalType":"uint256"},{"name":"liquidity","type":"uint128","internalType":"uint128"}],"stateMutability":"view"},{"type":"function","name":"positions","inputs":[{"name":"","type":"bytes32","internalType":"bytes32"},{"name":"","type":"bytes32","internalType":"bytes32"}],"outputs":[{"name":"liquidity","type":"uint128","internalType":"uint128"},{"name":"feeGrowthInside0LastX128","type":"uint256","internalType":"uint256"},{"name":"feeGrowthInside1LastX128","type":"uint256","internalType":"uint256"},{"name":"tokensOwed0","type":"uint128","internalType":"uint128"},{"name":"tokensOwed1","type":"uint128","internalType":"uint128"}],"stateMutability":"view"},{"type":"function","name":"protocolFee","inputs":[],"outputs":[{"name":"","type":"uint24","internalType":"uint24"}],"stateMutability":"view"},{"type":"function","name":"protocolFeeRecipient","inputs":[],"outputs":[{"name":"","type":"address","internalType":"address"}],"stateMutability":"view"},{"type":"function","name":"queueSwap","inputs":[{"name":"poolId","type":"bytes32","internalType":"bytes32"},{"name":"params","type":"tuple","internalType":"struct PoolManager.SwapParams","components":[{"name":"zeroForOne","type":"bool","internalType":"bool"},{"name":"amountSpecified","type":"int256","internalType":"int256"},{"name":"sqrtPriceLimitX96","type":"uint160","internalType":"uint160"}]}],"outputs":[{"name":"orderId","type":"bytes32","internalType":"bytes32"}],"stateMutability":"payable"},{"type":"function","name":"setKeeperReward","inputs":[{"name":"newReward","type":"uint256","internalType":"uint256"}],"outputs":[],"stateMutability":"nonpayable"},{"type":"function","name":"setMinMEVBid","inputs":[{"name":"newBid","type":"uint256","internalType":"uint256"}],"outputs":[],"stateMutability":"nonpayable"},{"type":"function","name":"setProtocolFee","inputs":[{"name":"newFee","type":"uint24","internalType":"uint24"}],"outputs":[],"stateMutability":"nonpayable"},{"type":"function","name":"settle","inputs":[],"outputs":[],"stateMutability":"nonpayable"},{"type":"function","name":"settleBatch","inputs":[{"name":"blockNumber","type":"uint256","internalType":"uint256"},{"name":"poolId","type":"bytes32","internalType":"bytes32"}],"outputs":[],"stateMutability":"nonpayable"},{"type":"function","name":"swap","inputs":[{"name":"poolId","type":"bytes32","internalType":"bytes32"},{"name":"params","type":"tuple","internalType":"struct PoolManager.SwapParams","components":[{"name":"zeroForOne","type":"bool","internalType":"bool"},{"name":"amountSpecified","type":"int256","internalType":"int256"},{"name":"sqrtPriceLimitX96","type":"uint160","internalType":"uint160"}]},{"name":"hookData","type":"bytes","internalType":"bytes"}],"outputs":[{"name":"result","type":"tuple","internalType":"struct PoolManager.SwapResult","components":[{"name":"amount0","type":"int256","internalType":"int256"},{"name":"amount1","type":"int256","internalType":"int256"}]}],"stateMutability":"nonpayable"},{"type":"function","name":"take","inputs":[{"name":"token","type":"address","internalType":"address"},{"name":"to","type":"address","internalType":"address"},{"name":"amount","type":"uint256","internalType":"uint256"}],"outputs":[],"stateMutability":"nonpayable"},{"type":"function","name":"ticks","inputs":[{"name":"","type":"bytes32","internalType":"bytes32"},{"name":"","type":"int24","internalType":"int24"}],"outputs":[{"name":"liquidityGross","type":"uint128","internalType":"uint128"},{"name":"liquidityNet","type":"int128","internalType":"int128"},{"name":"feeGrowthOutside0X128","type":"uint256","internalType":"uint256"},{"name":"feeGrowthOutside1X128","type":"uint256","internalType":"uint256"},{"name":"initialized","type":"bool","internalType":"bool"}],"stateMutability":"view"},{"type":"function","name":"transferOwnership","inputs":[{"name":"newOwner","type":"address","internalType":"address"}],"outputs":[],"stateMutability":"nonpayable"},{"type":"event","name":"BatchSettled","inputs":[{"name":"blockNumber","type":"uint256","indexed":true,"internalType":"uint256"},{"name":"poolId","type":"bytes32","indexed":true,"internalType":"bytes32"},{"name":"orders","type":"uint256","indexed":false,"internalType":"uint256"},{"name":"mevCaptured","type":"uint256","indexed":false,"internalType":"uint256"}],"anonymous":false},{"type":"event","name":"HookApproved","inputs":[{"name":"hook","type":"address","indexed":true,"internalType":"address"},{"name":"approved","type":"bool","indexed":false,"internalType":"bool"}],"anonymous":false},{"type":"event","name":"LiquidityModified","inputs":[{"name":"poolId","type":"bytes32","indexed":true,"internalType":"bytes32"},{"name":"sender","type":"address","indexed":true,"internalType":"address"},{"name":"tickLower","type":"int24","indexed":false,"internalType":"int24"},{"name":"tickUpper","type":"int24","indexed":false,"internalType":"int24"},{"name":"liquidityDelta","type":"int128","indexed":false,"internalType":"int128"}],"anonymous":false},{"type":"event","name":"MEVDistributed","inputs":[{"name":"poolId","type":"bytes32","indexed":true,"internalType":"bytes32"},{"name":"lpAmount","type":"uint256","indexed":false,"internalType":"uint256"},{"name":"protocolAmount","type":"uint256","indexed":false,"internalType":"uint256"}],"anonymous":false},{"type":"event","name":"PoolInitialized","inputs":[{"name":"poolId","type":"bytes32","indexed":true,"internalType":"bytes32"},{"name":"token0","type":"address","indexed":true,"internalType":"address"},{"name":"token1","type":"address","indexed":true,"internalType":"address"},{"name":"fee","type":"uint24","indexed":false,"internalType":"uint24"},{"name":"hooks","type":"address","indexed":false,"internalType":"address"}],"anonymous":false},{"type":"event","name":"ProtocolFeeUpdated","inputs":[{"name":"newFee","type":"uint24","indexed":false,"internalType":"uint24"}],"anonymous":false},{"type":"event","name":"SettlerAuthorized","inputs":[{"name":"settler","type":"address","indexed":true,"internalType":"address"},{"name":"authorized","type":"bool","indexed":false,"internalType":"bool"}],"anonymous":false},{"type":"event","name":"Swap","inputs":[{"name":"poolId","type":"bytes32","indexed":true,"internalType":"bytes32"},{"name":"sender","type":"address","indexed":true,"internalType":"address"},{"name":"zeroForOne","type":"bool","indexed":false,"internalType":"bool"},{"name":"amount0","type":"int256","indexed":false,"internalType":"int256"},{"name":"amount1","type":"int256","indexed":false,"internalType":"int256"}],"anonymous":false},{"type":"event","name":"SwapQueued","inputs":[{"name":"orderId","type":"bytes32","indexed":true,"internalType":"bytes32"},{"name":"sender","type":"address","indexed":true,"internalType":"address"},{"name":"poolId","type":"bytes32","indexed":true,"internalType":"bytes32"},{"name":"blockNumber","type":"uint256","indexed":false,"internalType":"uint256"}],"anonymous":false},{"type":"error","name":"BatchAlreadySettled","inputs":[]},{"type":"error","name":"InsufficientMEVBid","inputs":[]},{"type":"error","name":"InvalidBlock","inputs":[]},{"type":"error","name":"InvalidFee","inputs":[]},{"type":"error","name":"InvalidHook","inputs":[]},{"type":"error","name":"InvalidSqrtPrice","inputs":[]},{"type":"error","name":"InvalidTickRange","inputs":[]},{"type":"error","name":"NotAuthorizedSettler","inputs":[]},{"type":"error","name":"NotOwner","inputs":[]},{"type":"error","name":"PoolAlreadyInitialized","inputs":[]},{"type":"error","name":"PoolNotInitialized","inputs":[]},{"type":"error","name":"ReentrancyGuardReentrantCall","inputs":[]},{"type":"error","name":"SafeERC20FailedOperation","inputs":[{"name":"token","type":"address","internalType":"address"}]},{"type":"error","name":"Unauthorized","inputs":[]}],"bytecode":{"object":"0x60803460bb57601f6129c538819003918201601f19168301916001600160401b0383118484101760bf5780849260209460405283398101031260bb57516001600160a01b0381169081900360bb5760017f9b779b17422d0df92223018b32b4d1fa46e071723d6817e2486d003becc55f0055600580546001600160a01b03191633179055600480546001600160b81b031916909117607d60a51b17905566038d7ea4c68000600c819055600d556040516128f190816100d48239f35b5f80fd5b634e487b7160e01b5f52604160045260245ffdfe6080604052600436101561001a575b3615610018575f80fd5b005b5f3560e01c80630b0d9c0914611ca857806311da60b414611c9057806313170bdc14611c1257806317c94e081461197a5780631fc981d11461194f5780633095b2c01461191757806343cc28fe146118f85780635678d3fd146118dd57806364df049e146118b55780636882a888146118985780637306b1991461187b578063744abbff1461184c5780637feedaa1146117bf5780638da5cb5b146117975780639797fab81461176c5780639fd70d8414611735578063a1634b1414611717578063a9ec75f6146116fa578063ad07978614611677578063b00476231461165c578063b0e21e8a14611637578063b32c4d8d146115ee578063b5217bb41461156a578063bbb62ba9146114f7578063bc063e1a146114da578063c407687614611406578063cccb649d146113c9578063d4f05d1a14610efb578063e5f070a414610ebe578063e67526f814610e94578063e8b068da14610e06578063ebedaed9146108db578063f2fde38b14610883578063f59990f8146108515763fe78a9640361000e573461084d57366003190160a0811261084d5760801361084d576084356001600160a01b0381169081810361084d57620f424062ffffff6101dd6122dd565b161161083e576401000276a382109081159182610821575b610812576001600160a01b036102096122ef565b161515806107eb575b6107dc5761021e612305565b6001600160a01b0361022e61231b565b166001600160a01b0390911610156107c557610248612305565b9061025161231b565b905b61025b6122dd565b926102646122ef565b6040519062ffffff602083019360018060a01b03169586855260018060a01b03169687604085015216606083015260018060a01b03166080820152608081526102ae60a082611e0d565b51902093845f525f60205260ff60405f205460d01c166107b65780610799575b1561077057640100000000600160c01b039060201b16806001600160801b03811160071b90811c67ffffffffffffffff811160061b90811c63ffffffff811160051b90811c61ffff811160041b90811c9060ff821160031b91821c92600f841160021b93841c94600160038711811b96871c1196171717171717179060808210155f1461076657607e1982011c5b800280607f1c8160ff1c1c800280607f1c8160ff1c1c800280607f1c8160ff1c1c800280607f1c8160ff1c1c800280607f1c8160ff1c1c800280607f1c8160ff1c1c80029081607f1c8260ff1c1c80029283607f1c8460ff1c1c80029485607f1c8660ff1c1c80029687607f1c8860ff1c1c80029889607f1c8a60ff1c1c80029a8b607f1c8c60ff1c1c80029c8d80607f1c9060ff1c1c800260cd1c6604000000000000169d60cc1c6608000000000000169c60cb1c6610000000000000169b60ca1c6620000000000000169a60c91c6640000000000000169960c81c6680000000000000169860c71c670100000000000000169760c61c670200000000000000169660c51c670400000000000000169560c41c670800000000000000169460c31c671000000000000000169360c21c672000000000000000169260c11c674000000000000000169160c01c6780000000000000001690607f190160401b1717171717171717171717171717693627a301d71055774c85026f028f6481ab7f045a5af012a19d003aa919810160801d60020b906fdb2df09e81959a81455e260799a0632f0160801d60020b8082145f1461074057505b62ffffff60045460a01c16906040519060e0820182811067ffffffffffffffff82111761072c57604090815287835260029190910b60208084018281528484019586526001606086019081525f6080870181815260a080890183815260c08a018481528e8552968490529790922097518854945190921b62ffffff60a01b166001600160a01b039092166001600160b81b03199094169390931717865592956001600160801b03946003948694939192519088549060ff60d01b9051151560d01b169162ffffff60b81b9060b81b169063ffffffff60b81b1916171787555160018701555160028601555116920191166001600160801b03198254161790556106196122ef565b5f85815260076020526040902080546001600160a01b0319166001600160a01b039283161790556106486122ef565b166106a9575b5060209350827fdbad4127ee35501700c969e3a62722a954cbfe650992b4ce3a72ef8cd19f20cd604061067f6122dd565b6106876122ef565b825162ffffff9290921682526001600160a01b031688820152a4604051908152f35b60209060646001600160a01b036106be6122ef565b16965f604051988994859363753b3e7560e01b85528a6004860152602485015260448401525af1938415610721576020941561064e5761071390853d871161071a575b61070b8183611e0d565b81019061216f565b505f61064e565b503d610701565b6040513d5f823e3d90fd5b634e487b7160e01b5f52604160045260245ffd5b90856001600160a01b0361075384612369565b161161075f5750610512565b9050610512565b81607f031b61035c565b60405162461bcd60e51b81526020600482015260016024820152602960f91b6044820152606490fd5b5073fffd8963efd1fc6a506488495d951d5263988d2685106102ce565b637983c05160e01b5f5260045ffd5b6107cd61231b565b906107d6612305565b90610253565b639c9d882360e01b5f5260045ffd5b506001600160a01b036107fc6122ef565b165f52600660205260ff60405f20541615610212565b63063df5fd60e31b5f5260045ffd5b5073fffd8963efd1fc6a506488495d951d5263988d2683116101f5565b6358d620b360e01b5f5260045ffd5b5f80fd5b3461084d57602036600319011261084d576004355f526007602052602060018060a01b0360405f205416604051908152f35b3461084d57602036600319011261084d5761089c611d48565b600554906001600160a01b03821633036108cc576001600160a01b03166001600160a01b03199190911617600555005b6330cd747160e01b5f5260045ffd5b3461084d576108e936611d91565b9192906108f4612331565b815f525f60205260405f209160ff835460d01c1615610df7575f818152600760205260409020546001600160a01b03168015159283610d63575b5f838152602081905260409020546001600160a01b03169161095761095289612261565b612369565b96602089019561096961095288612261565b9860408b01955f6109798861226f565b600f0b1315610d115761098b8761226f565b6001600160801b03169a6109ab6109a38d838661270c565b9c8285612783565b926001600160a01b03168211610cf8575050505f975b6109ca8b612261565b6109d389612261565b6040519060208201923360601b845260e81b603483015260e81b6037820152601a8152610a01603a82611e0d565b519020875f52600260205260405f20905f5260205260405f205f610a248861226f565b600f0b1315610c8a576001600160801b03610a4c610a418961226f565b8216828454166122bd565b166001600160801b0319825416179055610a658661226f565b6001600160801b03166001600160801b03610a876003840192828454166122bd565b166001600160801b03198254161790555b5f8a1315610c635760018101610aaf8b8254611e79565b90555b5f891315610c3557600201610ac8898254611e79565b90555b5f8052600360205260405f20610ae28a8254611df5565b90555f8052600360205260405f20610afb898254611df5565b9055610b7d575b505050610b22610b1c610b16604098612261565b94612261565b9161226f565b9086519360020b845260020b6020840152600f0b858301527ff893b216b0cd67cc4a5ceb21ec0c04a33409f95d5e05df43035e2f8620bdd3bc60603393a360015f51602061289c5f395f51905f525582519182526020820152f35b91602091610bd399935f8a6040519c8d958694859363b496462d60e01b85528c6004860152336024860152610bb5604486018c612228565b60a48501528d60c485015261010060e48501526101048401916121c4565b03925af196871561072157610b16610b2292610c0f60409a610b1c945f91610c16575b506001600160e01b03191663b496462d60e01b146121e4565b9850610b02565b610c2f915060203d60201161071a5761070b8183611e0d565b8c610bf6565b5f8912610c43575b50610acb565b610c5b6002610c518b611e69565b9201918254611e86565b90558a610c3d565b5f8a1215610ab257610c748a611e69565b610c8360018301918254611e86565b9055610ab2565b610c9b610c968861226f565b61227d565b6001600160801b0316906001600160801b03610cba838284541661229d565b166001600160801b03198254161790556001600160801b03610ce360038401928284541661229d565b166001600160801b0319825416179055610a98565b9199916001600160a01b0316116109c1575f99506109c1565b610d3c9a610d49610d3c610d41610d2a610c968c61226f565b6001600160801b03169e8f858861270c565b611e69565b9d8386612783565b926001600160a01b03168211610cf8575050505f976109c1565b6040516390f6bd7960e01b815260048101849052336024820152610d8a6044820189612228565b60c060a482015260208180610da360c482018b876121c4565b03815f875af1801561072157610dd3915f91610dd8575b506001600160e01b0319166390f6bd7960e01b146121e4565b61092e565b610df1915060203d60201161071a5761070b8183611e0d565b89610dba565b63486aa30760e01b5f5260045ffd5b3461084d57604036600319011261084d57610e1f611d48565b610e27611d82565b6005549091906001600160a01b031633036108cc5760207f0a17a8062ade308be1285c81e61a7c8e57ff8c99789eb56077d8203eb01d72ef9160018060a01b031692835f52600b8252610e898160405f209060ff801983541691151516179055565b6040519015158152a2005b3461084d57602036600319011261084d576004355f526009602052602060405f2054604051908152f35b3461084d57602036600319011261084d576001600160a01b03610edf611d48565b165f52600b602052602060ff60405f2054166040519015158152f35b3461084d57610f0936611d91565b909192604051926040840184811067ffffffffffffffff82111761072c576040525f845260208401925f8452610f3d612331565b825f525f60205260405f209060ff825460d01c1615610df7575f848152600760205260409020546001600160a01b0316918215159081611335575b610f8189611e5c565b60208a013560408b01356001600160a01b0381160361084d578254905f811390811561132657925b15611273575f898152602081905260409020600181015460029091015490911561120f576103e58402918483046103e514851517156111fb57611001610d3c92610ffb6103e861100796049182611ea1565b92611e79565b90611eb4565b905b835462ffffff60a01b82166001600160b81b0319909116176001600160a01b039190911617835588528089525f8113156111dc5750875161104f60018301918254611e79565b90555b86515f8113156111c7575061106e600288519201918254611e79565b90555b86515f8052600360205261108a60405f20918254611df5565b905585515f805260036020526110a560405f20918254611df5565b9055611115575b5050506110ba604094611e5c565b908351835190865193151584526020840152858301527f4f10780b85f95ae7a0a095cfc5d9704e910c16bdd2b0e749f1a7be7fec85128660603393a360015f51602061289c5f395f51905f5255825191518252516020820152f35b9160209161116c97935f604051809a8195829463d1640c5760e01b84528a600485015233602485015261114b604485018b61218f565b8c5160a48501528b5160c485015261010060e48501526101048401916121c4565b03925af1908115610721576111a16110ba926040975f916111a8575b506001600160e01b03191663d1640c5760e01b146121e4565b94866110ac565b6111c1915060203d60201161071a5761070b8183611e0d565b88611188565b6002610c516111d592611e69565b9055611071565b6111e590611e69565b6111f460018301918254611e86565b9055611052565b634e487b7160e01b5f52601160045260245ffd5b9061121a9084611ea1565b906103e88202918083046103e814901517156111fb578361123a91611e86565b6103e58102908082046103e514901517156111fb5761125891611eb4565b600181018091116111fb5761126d9092611e69565b90611009565b5f898152602081905260409020600181015460029091015492939291156112c8576103e58302918383046103e514841517156111fb57611001610d3c92610ffb6103e86112c296049182611ea1565b91611009565b906112d39083611ea1565b906103e88202918083046103e814901517156111fb57826112f391611e86565b6103e58102908082046103e514901517156111fb5761131191611eb4565b600181018091116111fb576112c29091611e69565b61132f90611e69565b92610fa9565b604051635889a42f60e11b81526004810187905233602482015261135c604482018b61218f565b60c060a48201526020818061137560c48201888b6121c4565b03815f895af18015610721576113a5915f916113aa575b506001600160e01b031916635889a42f60e11b146121e4565b610f78565b6113c3915060203d60201161071a5761070b8183611e0d565b8b61138c565b3461084d57602036600319011261084d576001600160a01b036113ea611d48565b165f526006602052602060ff60405f2054166040519015158152f35b3461084d57604036600319011261084d5761141f611d48565b6024359061142b612331565b6001600160a01b03165f8181526003602052604081208054929392808401921380158484129081169015909116176111fb5755604051906323b872dd60e01b5f52336004523060245260445260205f60648180865af19060015f51148216156114ba575b50156114a85760015f51602061289c5f395f51905f5255005b635274afe760e01b5f5260045260245ffd5b60018215166114d25750813b15153d1516168261148f565b3d5f823e3d90fd5b3461084d575f36600319011261084d576020604051620f42408152f35b3461084d57604036600319011261084d576004355f52600260205260405f206024355f5260205260a060405f206001600160801b03815416906001810154906003600282015491015491604051938452602084015260408301526001600160801b038116606083015260801c6080820152f35b3461084d57602036600319011261084d576004355f525f60205260e060405f208054906001810154906001600160801b0360036002830154920154169160ff6040519460018060a01b03811686528060a01c60020b602087015262ffffff8160b81c16604087015260d01c1615156060850152608084015260a083015260c0820152f35b3461084d57602036600319011261084d576004355f526008602052606060405f2060018101549060ff600360028301549201541690604051928352602083015215156040820152f35b3461084d575f36600319011261084d57602062ffffff60045460a01c16604051908152f35b3461084d575f36600319011261084d576020604051600a8152f35b3461084d57604036600319011261084d57611690611d48565b611698611d82565b6005549091906001600160a01b031633036108cc5760207fbfb1a2311b31e06912fad88e9bd0be9b5fbcfd56a821de65e49f9a2d922211cb9160018060a01b031692835f5260068252610e898160405f209060ff801983541691151516179055565b3461084d575f36600319011261084d576020600d54604051908152f35b3461084d575f36600319011261084d576020604051620d89e7198152f35b3461084d57602036600319011261084d5761174e612331565b61175960043561213a565b60015f51602061289c5f395f51905f5255005b3461084d57602036600319011261084d576005546001600160a01b031633036108cc57600435600d55005b3461084d575f36600319011261084d576005546040516001600160a01b039091168152602090f35b3461084d57602036600319011261084d5760043562ffffff81169081810361084d576005546001600160a01b031633036108cc57620f4240821161083e576004805462ffffff60a01b191660a09290921b62ffffff60a01b169190911790556040519081527f2edf7eef14cb246dab2aac555e300928981632918159d9e33fcaa24dcd38cb4090602090a1005b3461084d5761185a36611d6c565b905f52600a60205260405f20905f52602052602060405f2054604051908152f35b3461084d575f36600319011261084d576020600c54604051908152f35b3461084d575f36600319011261084d576020604051620d89e88152f35b3461084d575f36600319011261084d576004546040516001600160a01b039091168152602090f35b3461084d575f36600319011261084d576020604051605a8152f35b3461084d5761175961190936611d6c565b90611912612331565b611ed2565b3461084d57602036600319011261084d576001600160a01b03611938611d48565b165f526003602052602060405f2054604051908152f35b3461084d57602036600319011261084d576005546001600160a01b031633036108cc57600435600c55005b608036600319011261084d57600435606036602319011261084d5761199d612331565b600c543410611c0357805f525f60205260ff60405f205460d01c1615610df757435f52600860205260405f2060405160a0810181811067ffffffffffffffff82111761072c57604052338152602081018381526040516060810181811067ffffffffffffffff82111761072c57604052611a15611d82565b815260443560208201819052926064356001600160a01b038116810361084d576040830152604081019182526060810142815260808201905f825286546801000000000000000081101561072c57806001611a739201895588611e2f565b949094611bf057925184546001600160a01b03199081166001600160a01b03928316178655955160018601559251805160028601805460ff921515831660ff199182161790915560208301516003880155604090920151600487018054909816951694909417909555516005840155516006909201805492151590911691909216179055602435801515810361084d5715611bc1575f811315611ba257611b1f60018301918254611e79565b90555b545f198101919082116111fb576020916040518381019143835260408201523360601b606082015260548152611b59607482611e0d565b51902090604051438152827f27e152b4415fddf8531402c82afe4f4c4ea574e848df5ba68cdfa285c42393eb853393a460015f51602061289c5f395f51905f5255604051908152f35b611bab90611e69565b611bba60028301918254611e79565b9055611b22565b5f811315611bd857611bba60028301918254611e79565b611be190611e69565b611bba60018301918254611e79565b634e487b7160e01b5f525f60045260245ffd5b63c5848cf960e01b5f5260045ffd5b3461084d57604036600319011261084d576024358060020b80910361084d576004355f52600160205260405f20905f5260205260a060405f2080549060018101549060ff600360028301549201541691604051936001600160801b038116855260801d600f0b60208501526040840152606083015215156080820152f35b3461084d575f36600319011261084d57611759612331565b3461084d57606036600319011261084d57611cc1611d48565b6024356001600160a01b0381169081900361084d5760443591611ce2612331565b60018060a01b031691825f52600360205260405f20611d02828254611df5565b90556040519163a9059cbb60e01b5f5260045260245260205f60448180865af19060015f51148216156114ba5750156114a85760015f51602061289c5f395f51905f5255005b600435906001600160a01b038216820361084d57565b35908160020b820361084d57565b604090600319011261084d576004359060243590565b60243590811515820361084d57565b9060a060031983011261084d5760043591606060231982011261084d5760249160843567ffffffffffffffff811161084d5760040182601f8201121561084d5780359267ffffffffffffffff841161084d576020848184019301011161084d579190565b81810392915f1380158285131691841216176111fb57565b90601f8019910116810190811067ffffffffffffffff82111761072c57604052565b8054821015611e48575f52600760205f20910201905f90565b634e487b7160e01b5f52603260045260245ffd5b35801515810361084d5790565b600160ff1b81146111fb575f0390565b919082018092116111fb57565b919082039182116111fb57565b5f1981146111fb5760010190565b818102929181159184041417156111fb57565b8115611ebe570490565b634e487b7160e01b5f52601260045260245ffd5b919091335f52600b60205260ff60405f2054161561212b574381101561211c57805f52600860205260405f2090600382019260ff84541661210d575f5f8454905b8181106120bc575050156120b557611f346001840154600285015490611e79565b6005810290808204600514901517156111fb576103e89004915f925f5b8554811015611fcf57876001611f678389611e2f565b5001541480611fb6575b611f7e575b600101611f51565b93611fae600191611f8f8789611e2f565b50506006611f9d888a611e2f565b5001805460ff191684179055611e93565b949050611f76565b5060ff6006611fc58389611e2f565b5001541615611f71565b50919594909350600160ff19825416179055825f52600a60205260405f20845f526020528060405f2055605a8102818104605a14821517156111fb57606490049061201a8282611e86565b90855f52600960205260405f20612032848254611e79565b90555f808080600d548181156120ac575b3390f115610721577f091fde452d9dfac6434b0016f981c595e6ca0cab2e23f556c65a69e9aaa879af947f9c6ce83b62e2e8bc4832f4aac21e57ebb57cdb49f4e1da47985b8cdf63e5397f60408096899482519182526020820152a382519182526020820152a2565b506108fc612043565b9350505050565b8760016120c98389611e2f565b50015414806120f4575b6120e0575b600101611f13565b916120ec600191611e93565b9290506120d8565b5060ff60066121038389611e2f565b50015416156120d3565b6327e386a760e21b5f5260045ffd5b63be5a36cf60e01b5f5260045ffd5b6321327efd60e11b5f5260045ffd5b805f52600960205260405f205490811561216b575f8080938193825260096020528160408120553382f11561072157565b5050565b9081602091031261084d57516001600160e01b03198116810361084d5790565b80359081151580920361084d5760409183526020810135602084015201359060018060a01b03821680920361084d5760400152565b908060209392818452848401375f828201840152601f01601f1916010190565b156121eb57565b60405162461bcd60e51b8152602060048201526015602482015274496e76616c696420686f6f6b20726573706f6e736560581b6044820152606490fd5b60409061223481611d5e565b60020b835261224560208201611d5e565b60020b602084015201359081600f0b80920361084d5760400152565b358060020b810361084d5790565b3580600f0b810361084d5790565b600f0b6f7fffffffffffffffffffffffffffffff1981146111fb575f0390565b906001600160801b03809116911603906001600160801b0382116111fb57565b906001600160801b03809116911601906001600160801b0382116111fb57565b60443562ffffff8116810361084d5790565b6064356001600160a01b038116810361084d5790565b6004356001600160a01b038116810361084d5790565b6024356001600160a01b038116810361084d5790565b60025f51602061289c5f395f51905f52541461235a5760025f51602061289c5f395f51905f5255565b633ee5aeb560e01b5f5260045ffd5b60020b5f8112156126ed57805f03905b620d89e882116126c45760018216156126b2576001600160881b036ffffcb933bd6fad37aa2d162d1a5940015b169160028116612696575b6004811661267a575b6008811661265e575b60108116612642575b60208116612626575b6040811661260a575b608081166125ee575b61010081166125d2575b61020081166125b6575b610400811661259a575b610800811661257e575b6110008116612562575b6120008116612546575b614000811661252a575b618000811661250e575b6201000081166124f2575b6202000081166124d7575b6204000081166124bc575b62080000166124a3575b5f12612495575b63ffffffff811661248d575f905b60201c60ff91909116016001600160a01b031690565b600190612477565b8015611ebe575f1904612469565b6b048a170391f7dc42444e8fa290910260801c90612462565b6d2216e584f5fa1ea926041bedfe9890920260801c91612458565b916e5d6af8dedb81196699c329225ee6040260801c9161244d565b916f09aa508b5b7a84e1c677de54f3e99bc90260801c91612442565b916f31be135f97d08fd981231505542fcfa60260801c91612437565b916f70d869a156d2a1b890bb3df62baf32f70260801c9161242d565b916fa9f746462d870fdf8a65dc1f90e061e50260801c91612423565b916fd097f3bdfd2022b8845ad8f792aa58250260801c91612419565b916fe7159475a2c29b7443b29c7fa6e889d90260801c9161240f565b916ff3392b0822b70005940c7a398e4b70f30260801c91612405565b916ff987a7253ac413176f2b074cf7815e540260801c916123fb565b916ffcbe86c7900a88aedcffc83b479aa3a40260801c916123f1565b916ffe5dee046a99a2a811c461f1969c30530260801c916123e7565b916fff2ea16466c96a3843ec78b326b528610260801c916123de565b916fff973b41fa98c081472e6896dfb254c00260801c916123d5565b916fffcb9843d60f6159c9db58835c9266440260801c916123cc565b916fffe5caca7e10e4e61c3624eaa0941cd00260801c916123c3565b916ffff2e50f5f656932ef12357cf3c7fdcc0260801c916123ba565b916ffff97272373d413259a46990580e213a0260801c916123b1565b6001600160881b03600160801b6123a6565b60405162461bcd60e51b81526020600482015260016024820152601560fa1b6044820152606490fd5b80612379565b6001600160a01b0391821690821603919082116111fb57565b61277a92909161276991906001600160a01b038082169085161161277d575b6001600160a01b0361273d85836126f3565b6001600160a01b039092169291169060601b6fffffffffffffffffffffffffffffffff60601b16612816565b6001600160a01b0390911690611eb4565b90565b9261272b565b61277a92916001600160801b03916001600160a01b03808316908216116127c0575b6001600160a01b03916127b891906126f3565b1691166127c6565b906127a5565b5f91905f19828209918082029384808510940393808503941461280c57600160601b8410156128095750600160601b910990828211900360a01b910360601c1790565b80fd5b5050505060601c90565b915f19828409928281029283808610950394808603951461288d578483111561084d57829109815f0382168092046002816003021880820260020302808202600203028082026002030280820260020302808202600203028091026002030293600183805f03040190848311900302920304170290565b50508092501561084d57049056fe9b779b17422d0df92223018b32b4d1fa46e071723d6817e2486d003becc55f00a264697066735822122098fe03027d4725b5d01de0284b706e04003603ffea88c9e93179ecb22698401564736f6c634300081b0033","linkReferences":{}},"methodIdentifiers":{"MAX_FEE()":"bc063e1a","MAX_TICK()":"6882a888","MEV_LP_SHARE()":"5678d3fd","MEV_PROTOCOL_SHARE()":"b0047623","MIN_TICK()":"a1634b14","approveHook(address,bool)":"ad079786","approvedHooks(address)":"cccb649d","authorizeSettler(address,bool)":"e8b068da","authorizedSettlers(address)":"e5f070a4","batches(uint256)":"b32c4d8d","blockMEV(uint256,bytes32)":"744abbff","claimMEVRewards(bytes32)":"9fd70d84","currencyDeltas(address)":"3095b2c0","initialize((address,address,uint24,address),uint160)":"fe78a964","keeperReward()":"a9ec75f6","mevRewards(bytes32)":"e67526f8","minMEVBid()":"7306b199","modifyLiquidity(bytes32,(int24,int24,int128),bytes)":"ebedaed9","owner()":"8da5cb5b","pay(address,uint256)":"c4076876","poolHooks(bytes32)":"f59990f8","pools(bytes32)":"b5217bb4","positions(bytes32,bytes32)":"bbb62ba9","protocolFee()":"b0e21e8a","protocolFeeRecipient()":"64df049e","queueSwap(bytes32,(bool,int256,uint160))":"17c94e08","setKeeperReward(uint256)":"9797fab8","setMinMEVBid(uint256)":"1fc981d1","setProtocolFee(uint24)":"7feedaa1","settle()":"11da60b4","settleBatch(uint256,bytes32)":"43cc28fe","swap(bytes32,(bool,int256,uint160),bytes)":"d4f05d1a","take(address,address,uint256)":"0b0d9c09","ticks(bytes32,int24)":"13170bdc","transferOwnership(address)":"f2fde38b"},"id":82}