{"abi":[{"type":"constructor","inputs":[{"name":"_veBTB","type":"address","internalType":"address"},{"name":"_voter","type":"address","internalType":"address"}],"stateMutability":"nonpayable"},{"type":"receive","stateMutability":"payable"},{"type":"function","name":"PRECISION","inputs":[],"outputs":[{"name":"","type":"uint256","internalType":"uint256"}],"stateMutability":"view"},{"type":"function","name":"WEEK","inputs":[],"outputs":[{"name":"","type":"uint256","internalType":"uint256"}],"stateMutability":"view"},{"type":"function","name":"addFeeToken","inputs":[{"name":"token","type":"address","internalType":"address"}],"outputs":[],"stateMutability":"nonpayable"},{"type":"function","name":"authorizeCollector","inputs":[{"name":"collector","type":"address","internalType":"address"},{"name":"authorized","type":"bool","internalType":"bool"}],"outputs":[],"stateMutability":"nonpayable"},{"type":"function","name":"authorizedCollectors","inputs":[{"name":"","type":"address","internalType":"address"}],"outputs":[{"name":"","type":"bool","internalType":"bool"}],"stateMutability":"view"},{"type":"function","name":"claim","inputs":[{"name":"token","type":"address","internalType":"address"}],"outputs":[],"stateMutability":"nonpayable"},{"type":"function","name":"claimAll","inputs":[{"name":"tokens","type":"address[]","internalType":"address[]"}],"outputs":[],"stateMutability":"nonpayable"},{"type":"function","name":"claimable","inputs":[{"name":"user","type":"address","internalType":"address"},{"name":"token","type":"address","internalType":"address"}],"outputs":[{"name":"","type":"uint256","internalType":"uint256"}],"stateMutability":"view"},{"type":"function","name":"claimableFees","inputs":[{"name":"","type":"address","internalType":"address"},{"name":"","type":"address","internalType":"address"}],"outputs":[{"name":"","type":"uint256","internalType":"uint256"}],"stateMutability":"view"},{"type":"function","name":"collectETHFees","inputs":[],"outputs":[],"stateMutability":"payable"},{"type":"function","name":"collectFees","inputs":[{"name":"token","type":"address","internalType":"address"},{"name":"amount","type":"uint256","internalType":"uint256"}],"outputs":[],"stateMutability":"nonpayable"},{"type":"function","name":"distributeFees","inputs":[{"name":"token","type":"address","internalType":"address"}],"outputs":[],"stateMutability":"nonpayable"},{"type":"function","name":"distributeFeesBatch","inputs":[{"name":"tokens","type":"address[]","internalType":"address[]"}],"outputs":[],"stateMutability":"nonpayable"},{"type":"function","name":"feeCheckpoints","inputs":[{"name":"","type":"address","internalType":"address"},{"name":"","type":"uint256","internalType":"uint256"}],"outputs":[{"name":"timestamp","type":"uint256","internalType":"uint256"},{"name":"totalFees","type":"uint256","internalType":"uint256"},{"name":"distributedFees","type":"uint256","internalType":"uint256"}],"stateMutability":"view"},{"type":"function","name":"feeTokens","inputs":[{"name":"","type":"address","internalType":"address"}],"outputs":[{"name":"","type":"bool","internalType":"bool"}],"stateMutability":"view"},{"type":"function","name":"getFeeCheckpoints","inputs":[{"name":"token","type":"address","internalType":"address"}],"outputs":[{"name":"","type":"tuple[]","internalType":"struct FeeDistributor.FeeCheckpoint[]","components":[{"name":"timestamp","type":"uint256","internalType":"uint256"},{"name":"totalFees","type":"uint256","internalType":"uint256"},{"name":"distributedFees","type":"uint256","internalType":"uint256"}]}],"stateMutability":"view"},{"type":"function","name":"getUndistributedFees","inputs":[{"name":"token","type":"address","internalType":"address"}],"outputs":[{"name":"","type":"uint256","internalType":"uint256"}],"stateMutability":"view"},{"type":"function","name":"lastClaimed","inputs":[{"name":"","type":"address","internalType":"address"},{"name":"","type":"address","internalType":"address"}],"outputs":[{"name":"","type":"uint256","internalType":"uint256"}],"stateMutability":"view"},{"type":"function","name":"lastFeeCheckpoint","inputs":[{"name":"","type":"address","internalType":"address"}],"outputs":[{"name":"","type":"uint256","internalType":"uint256"}],"stateMutability":"view"},{"type":"function","name":"owner","inputs":[],"outputs":[{"name":"","type":"address","internalType":"address"}],"stateMutability":"view"},{"type":"function","name":"tokenCheckpoints","inputs":[{"name":"","type":"uint256","internalType":"uint256"},{"name":"","type":"address","internalType":"address"},{"name":"","type":"uint256","internalType":"uint256"}],"outputs":[{"name":"timestamp","type":"uint256","internalType":"uint256"},{"name":"balanceOf","type":"uint256","internalType":"uint256"}],"stateMutability":"view"},{"type":"function","name":"totalFeesCollected","inputs":[{"name":"","type":"address","internalType":"address"}],"outputs":[{"name":"","type":"uint256","internalType":"uint256"}],"stateMutability":"view"},{"type":"function","name":"totalFeesDistributed","inputs":[{"name":"","type":"address","internalType":"address"}],"outputs":[{"name":"","type":"uint256","internalType":"uint256"}],"stateMutability":"view"},{"type":"function","name":"transferOwnership","inputs":[{"name":"newOwner","type":"address","internalType":"address"}],"outputs":[],"stateMutability":"nonpayable"},{"type":"function","name":"veBTB","inputs":[],"outputs":[{"name":"","type":"address","internalType":"contract VotingEscrow"}],"stateMutability":"view"},{"type":"function","name":"voter","inputs":[],"outputs":[{"name":"","type":"address","internalType":"contract IVoter"}],"stateMutability":"view"},{"type":"event","name":"CollectorAuthorized","inputs":[{"name":"collector","type":"address","indexed":true,"internalType":"address"},{"name":"authorized","type":"bool","indexed":false,"internalType":"bool"}],"anonymous":false},{"type":"event","name":"FeeTokenAdded","inputs":[{"name":"token","type":"address","indexed":true,"internalType":"address"}],"anonymous":false},{"type":"event","name":"FeesClaimed","inputs":[{"name":"user","type":"address","indexed":true,"internalType":"address"},{"name":"token","type":"address","indexed":true,"internalType":"address"},{"name":"amount","type":"uint256","indexed":false,"internalType":"uint256"}],"anonymous":false},{"type":"event","name":"FeesCollected","inputs":[{"name":"token","type":"address","indexed":true,"internalType":"address"},{"name":"amount","type":"uint256","indexed":false,"internalType":"uint256"},{"name":"collector","type":"address","indexed":true,"internalType":"address"}],"anonymous":false},{"type":"event","name":"FeesDistributed","inputs":[{"name":"token","type":"address","indexed":true,"internalType":"address"},{"name":"totalAmount","type":"uint256","indexed":false,"internalType":"uint256"}],"anonymous":false},{"type":"error","name":"NoFeesToClaim","inputs":[]},{"type":"error","name":"NotAuthorizedCollector","inputs":[]},{"type":"error","name":"NotFeeToken","inputs":[]},{"type":"error","name":"NotOwner","inputs":[]},{"type":"error","name":"ReentrancyGuardReentrantCall","inputs":[]},{"type":"error","name":"SafeERC20FailedOperation","inputs":[{"name":"token","type":"address","internalType":"address"}]},{"type":"error","name":"ZeroAmount","inputs":[]}],"bytecode":{"object":"0x60803460b857601f61152538819003918201601f19168301916001600160401b0383118484101760bc57808492604094855283398101031260b857604b602060458360d0565b920160d0565b60017f9b779b17422d0df92223018b32b4d1fa46e071723d6817e2486d003becc55f008190555f80546001600160a01b03199081166001600160a01b0395861617909155815481169390921692909217909155600a80549091163317905560405161144190816100e48239f35b5f80fd5b634e487b7160e01b5f52604160045260245ffd5b51906001600160a01b038216820360b85756fe6080604052600436101561001a575b3615610018575f80fd5b005b5f3560e01c806305141cd014610e9f57806316605a0d14610e625780631e2de0d114610d235780631e83409a14610c4b57806336d14b5f14610c1357806339f3f46f14610b015780634641287814610ac457806346c96aac14610a9c5780634f8ee43c14610a4b578063561e78c5146109c457806388a40eed1461098c5780638da5cb5b146109645780639413f25c146109285780639dee06c6146108e3578063a033fcd414610665578063aa2eded2146105f3578063aaf5eb68146105d1578063b48fc15814610569578063b602e39214610519578063c639c6f3146104af578063d4570c1c1461047b578063e945529514610214578063ed50d444146101dc578063f0aeeb68146101b5578063f2fde38b1461015d5763f4359ce50361000e5734610159575f36600319011261015957602060405162093a808152f35b5f80fd5b3461015957602036600319011261015957610176610eef565b600a54906001600160a01b03821633036101a6576001600160a01b03166001600160a01b03199190911617600a55005b6330cd747160e01b5f5260045ffd5b34610159575f366003190112610159575f546040516001600160a01b039091168152602090f35b34610159576020366003190112610159576001600160a01b036101fd610eef565b165f526004602052602060405f2054604051908152f35b5f36600319011261015957335f52600b60205260ff60405f2054161561046c5761023c611018565b341561045d575f8052600360205260405f2061025934825461100b565b90555f805260086020527f5eff886ea0ce6ca488a3d6e336d6c0f75f46d19b42c06ce5ee98e42c96d256c780548015159081610432575b50156103df5780545f198101908111610386576102af60019183610f6f565b50016102bc34825461100b565b90555b6034815411610309575b6040513481525f7fbb64cfa7f75512208a9b73fb4034b028a5972cba07a53b641e16ba38571f133160203393a360015f5160206113ec5f395f51905f5255005b5f5b81545f1981019081116103865781101561039a5760018101808211610386576103349083610f6f565b50906103408184610f6f565b61037357826001938203610357575b50500161030b565b600281819254845585810154868501550154910155838061034f565b634e487b7160e01b5f525f60045260245ffd5b634e487b7160e01b5f52601160045260245ffd5b50805480156103cb575f1901906103b18282610f6f565b610373576002815f809355826001820155015555806102c9565b634e487b7160e01b5f52603160045260245ffd5b5f805260046020527f17ef568e3e12ab5b9c7254a8d58478811de00f9e6eb34345acd53bf8fd09d3ec5460405161042d9161041982610fc0565b4282523460208301526040820152826111c1565b6102bf565b5f198101915081116103865761045661044e610e109284610f6f565b505442610ffe565b1082610290565b631f2a200560e01b5f5260045ffd5b630c31e36360e01b5f5260045ffd5b346101595760403660031901126101595760206104a7610499610eef565b6104a1610f05565b90611050565b604051908152f35b34610159576040366003190112610159576104c8610eef565b6001600160a01b03165f90815260086020526040902080546024359190821015610159576060916104f891610f6f565b50805490600260018201549101549060405192835260208301526040820152f35b3461015957604036600319011261015957610532610eef565b61053a610f05565b6001600160a01b039182165f908152600660209081526040808320949093168252928352819020549051908152f35b3461015957606036600319011261015957610582610f05565b604435906004355f52600760205260405f209060018060a01b03165f5260205260405f20908154811015610159576040915f5260205f209060011b016001815491015482519182526020820152f35b34610159575f366003190112610159576020604051670de0b6b3a76400008152f35b346101595760203660031901126101595761060c610eef565b600a546001600160a01b031633036101a6576001600160a01b03165f818152600260205260408120805460ff191660011790557fdf1b1bd32a69711488d71554706bb130b1fc63a5fa1a2cd85e8440f84065ba239080a2005b346101595760403660031901126101595761067e610eef565b60243590335f52600b60205260ff60405f2054161561046c5761069f611018565b811561045d576001600160a01b03165f8181526002602052604090205460ff16156108d4576040516323b872dd60e01b5f5233600452306024528260445260205f60648180865af19060015f51148216156108b3575b6040525f606052156108a157805f52600360205260405f2061071883825461100b565b9055805f52600860205260405f208054801515908161087e575b50156108485780545f1981019081116103865761075160019183610f6f565b500161075e84825461100b565b90555b60348154116107ab575b506040519182527fbb64cfa7f75512208a9b73fb4034b028a5972cba07a53b641e16ba38571f133160203393a360015f5160206113ec5f395f51905f5255005b915f5b83545f198101908111610386578110156108165760018101808211610386576107d79085610f6f565b50906107e38186610f6f565b610373578260019382036107fa575b5050016107ae565b60028181925484558581015486850155015491015585806107f2565b5091805480156103cb575f19019061082e8282610f6f565b610373576002815f8093558260018201550155558261076b565b815f52600460205261087960405f20546040519061086582610fc0565b4282528560208301526040820152826111c1565b610761565b5f198101915081116103865761089a61044e610e109284610f6f565b1084610732565b635274afe760e01b5f5260045260245ffd5b9060018115166108cb57823b15153d151616906106f5565b503d5f823e3d90fd5b636170972b60e11b5f5260045ffd5b346101595760203660031901126101595760206104a76001600160a01b03610909610eef565b16805f526003835260405f2054905f526004835260405f205490610ffe565b3461015957602036600319011261015957610951610944610eef565b61094c611018565b611204565b60015f5160206113ec5f395f51905f5255005b34610159575f36600319011261015957600a546040516001600160a01b039091168152602090f35b34610159576020366003190112610159576001600160a01b036109ad610eef565b165f526003602052602060405f2054604051908152f35b34610159576040366003190112610159576109dd610eef565b6024359081151580920361015957600a546001600160a01b031633036101a65760207f41d74103d46ef82053a81f2586320f276ea86c84fc3f4781d1d6b9d05917481f9160018060a01b031692835f52600b825260405f2060ff1981541660ff8316179055604051908152a2005b3461015957610a5936610f1b565b610a61611018565b5f5b818110610a7d5760015f5160206113ec5f395f51905f5255005b80610a9661094c610a916001948688610f9c565b610fac565b01610a63565b34610159575f366003190112610159576001546040516001600160a01b039091168152602090f35b34610159576020366003190112610159576001600160a01b03610ae5610eef565b165f52600b602052602060ff60405f2054166040519015158152f35b34610159576020366003190112610159576001600160a01b03610b22610eef565b165f52600860205260405f2080549067ffffffffffffffff8211610bff5760405191610b5460208260051b0184610fdc565b8083526020830180925f5260205f205f915b838310610bc8578486604051918291602083019060208452518091526040830191905f5b818110610b98575050500390f35b91935091602060606001926040875180518352848101518584015201516040820152019401910191849392610b8a565b60036020600192604051610bdb81610fc0565b85548152848601548382015260028601546040820152815201920192019190610b66565b634e487b7160e01b5f52604160045260245ffd5b34610159576020366003190112610159576001600160a01b03610c34610eef565b165f526009602052602060405f2054604051908152f35b3461015957602036600319011261015957610c64610eef565b610c6c611018565b610c768133611050565b908115610d1457335f9081526005602090815260408083206001600160a01b03949094168084529390915290204290559081610d04575f808080843382f115610cf9575b6040519081527ffe3464cd748424446c37877c28ce5b700222c5bc9f90d908afcc4e5cb22707ff60203392a360015f5160206113ec5f395f51905f5255005b6040513d5f823e3d90fd5b610d0f813384611149565b610cba565b63211b631760e21b5f5260045ffd5b3461015957610d3136610f1b565b90610d3a611018565b5f5b828110610d565760015f5160206113ec5f395f51905f5255005b610d6d610d67610a91838686610f9c565b33611050565b9081158015610d82575b506001915001610d3c565b335f52600560205260405f20610d9c610a91848888610f9c565b6001600160a01b039081165f9081526020929092526040909120429055610dc7610a91848888610f9c565b16610e385782905f90610e2f575b5f80809381933390f115610cf9576001915b828060a01b03610dfb610a91848888610f9c565b16906040519081527ffe3464cd748424446c37877c28ce5b700222c5bc9f90d908afcc4e5cb22707ff60203392a384610d77565b506108fc610dd5565b50600191610e5d81336001600160a01b03610e57610a91878b8b610f9c565b16611149565b610de7565b34610159576020366003190112610159576001600160a01b03610e83610eef565b165f526002602052602060ff60405f2054166040519015158152f35b3461015957604036600319011261015957610eb8610eef565b610ec0610f05565b6001600160a01b039182165f908152600560209081526040808320949093168252928352819020549051908152f35b600435906001600160a01b038216820361015957565b602435906001600160a01b038216820361015957565b9060206003198301126101595760043567ffffffffffffffff811161015957826023820112156101595780600401359267ffffffffffffffff84116101595760248460051b83010111610159576024019190565b8054821015610f88575f52600360205f20910201905f90565b634e487b7160e01b5f52603260045260245ffd5b9190811015610f885760051b0190565b356001600160a01b03811681036101595790565b6060810190811067ffffffffffffffff821117610bff57604052565b90601f8019910116810190811067ffffffffffffffff821117610bff57604052565b9190820391821161038657565b9190820180921161038657565b60025f5160206113ec5f395f51905f5254146110415760025f5160206113ec5f395f51905f5255565b633ee5aeb560e01b5f5260045ffd5b5f546040516339f890b560e21b8152600160048201529190602090839060249082906001600160a01b03165afa918215610cf9575f92611115575b50811561110e5761109a6112ec565b91821561110657670de0b6b3a76400008102908104670de0b6b3a764000003610386576110e8926110e291049360018060a01b0381165f52600460205260405f205492611351565b90610ffe565b81810291818304149015171561038657670de0b6b3a7640000900490565b505050505f90565b5050505f90565b9091506020813d602011611141575b8161113160209383610fdc565b810103126101595751905f61108b565b3d9150611124565b916040519163a9059cbb60e01b5f5260018060a01b031660045260245260205f60448180865af19060015f51148216156111a9575b604052156111895750565b635274afe760e01b5f9081526001600160a01b0391909116600452602490fd5b9060018115166108cb57823b15153d1516169061117e565b805468010000000000000000811015610bff576111e391600182018155610f6f565b91909161037357604081600292518455602081015160018501550151910155565b6001600160a01b03165f8181526002602052604090205460ff1615806112e3575b6108d457805f52600360205261124c60405f2054825f52600460205260405f205490610ffe565b80156112df5761125a6112ec565b156112df5760207f63be20cc905d5ba0cf65db405c4999f99f2575e521875f13a8009d6eed7a09d991835f52600882526112b160405f206040519061129e82610fc0565b42825283858301525f60408301526111c1565b835f526004825260405f206112c782825461100b565b9055835f52600982524260405f2055604051908152a2565b5050565b50801515611225565b5f546040516318160ddd60e01b815290602090829060049082906001600160a01b03165afa908115610cf9575f91611322575090565b90506020813d602011611349575b8161133d60209383610fdc565b81010312610159575190565b3d9150611330565b6001600160a01b039081165f90815260056020908152604080832093851683529290522054919082156113e55760018060a01b03165f52600860205260405f20918254805b6113a157505f925050565b5f19810181811161038657826113b78287610f6f565b505411156113cf57508015610386575f190180611396565b90506113df915060029293610f6f565b50015490565b505f915056fe9b779b17422d0df92223018b32b4d1fa46e071723d6817e2486d003becc55f00a2646970667358221220646bfb2044b989a80a4363d31eb4812e8be7a9ead85bb4617afa9b789043524864736f6c634300081b0033","linkReferences":{}},"methodIdentifiers":{"PRECISION()":"aaf5eb68","WEEK()":"f4359ce5","addFeeToken(address)":"aa2eded2","authorizeCollector(address,bool)":"561e78c5","authorizedCollectors(address)":"46412878","claim(address)":"1e83409a","claimAll(address[])":"1e2de0d1","claimable(address,address)":"d4570c1c","claimableFees(address,address)":"b602e392","collectETHFees()":"e9455295","collectFees(address,uint256)":"a033fcd4","distributeFees(address)":"9413f25c","distributeFeesBatch(address[])":"4f8ee43c","feeCheckpoints(address,uint256)":"c639c6f3","feeTokens(address)":"16605a0d","getFeeCheckpoints(address)":"39f3f46f","getUndistributedFees(address)":"9dee06c6","lastClaimed(address,address)":"05141cd0","lastFeeCheckpoint(address)":"36d14b5f","owner()":"8da5cb5b","tokenCheckpoints(uint256,address,uint256)":"b48fc158","totalFeesCollected(address)":"88a40eed","totalFeesDistributed(address)":"ed50d444","transferOwnership(address)":"f2fde38b","veBTB()":"f0aeeb68","voter()":"46c96aac"},"id":85}