{"abi":[{"type":"constructor","inputs":[{"name":"_protocolFeeRecipient","type":"address","internalType":"address"}],"stateMutability":"nonpayable"},{"type":"receive","stateMutability":"payable"},{"type":"function","name":"MAX_FEE","inputs":[],"outputs":[{"name":"","type":"uint256","internalType":"uint256"}],"stateMutability":"view"},{"type":"function","name":"MAX_TICK","inputs":[],"outputs":[{"name":"","type":"int24","internalType":"int24"}],"stateMutability":"view"},{"type":"function","name":"MIN_REBALANCE_INTERVAL","inputs":[],"outputs":[{"name":"","type":"uint256","internalType":"uint256"}],"stateMutability":"view"},{"type":"function","name":"MIN_TICK","inputs":[],"outputs":[{"name":"","type":"int24","internalType":"int24"}],"stateMutability":"view"},{"type":"function","name":"approveHook","inputs":[{"name":"hook","type":"address","internalType":"address"},{"name":"approved","type":"bool","internalType":"bool"}],"outputs":[],"stateMutability":"nonpayable"},{"type":"function","name":"approvedHooks","inputs":[{"name":"","type":"address","internalType":"address"}],"outputs":[{"name":"","type":"bool","internalType":"bool"}],"stateMutability":"view"},{"type":"function","name":"authorizeRebalancer","inputs":[{"name":"rebalancer","type":"address","internalType":"address"},{"name":"authorized","type":"bool","internalType":"bool"}],"outputs":[],"stateMutability":"nonpayable"},{"type":"function","name":"authorizedRebalancers","inputs":[{"name":"","type":"address","internalType":"address"}],"outputs":[{"name":"","type":"bool","internalType":"bool"}],"stateMutability":"view"},{"type":"function","name":"autoRebalanceEnabled","inputs":[{"name":"","type":"bytes32","internalType":"bytes32"}],"outputs":[{"name":"","type":"bool","internalType":"bool"}],"stateMutability":"view"},{"type":"function","name":"batchRebalance","inputs":[{"name":"poolIds","type":"bytes32[]","internalType":"bytes32[]"}],"outputs":[],"stateMutability":"nonpayable"},{"type":"function","name":"checkRebalance","inputs":[{"name":"poolId","type":"bytes32","internalType":"bytes32"}],"outputs":[{"name":"state","type":"tuple","internalType":"struct ReCLAMMPoolManager.RebalanceState","components":[{"name":"currentCenterTick","type":"int24","internalType":"int24"},{"name":"targetLowerTick","type":"int24","internalType":"int24"},{"name":"targetUpperTick","type":"int24","internalType":"int24"},{"name":"needsRebalance","type":"bool","internalType":"bool"},{"name":"timeUntilRebalance","type":"uint256","internalType":"uint256"}]}],"stateMutability":"view"},{"type":"function","name":"currencyDeltas","inputs":[{"name":"","type":"address","internalType":"address"}],"outputs":[{"name":"","type":"int256","internalType":"int256"}],"stateMutability":"view"},{"type":"function","name":"disableAutoRebalance","inputs":[{"name":"poolId","type":"bytes32","internalType":"bytes32"}],"outputs":[],"stateMutability":"nonpayable"},{"type":"function","name":"enableAutoRebalance","inputs":[{"name":"poolId","type":"bytes32","internalType":"bytes32"},{"name":"baseTick","type":"int24","internalType":"int24"},{"name":"width","type":"int24","internalType":"int24"},{"name":"threshold","type":"uint256","internalType":"uint256"}],"outputs":[],"stateMutability":"nonpayable"},{"type":"function","name":"estimateAutoRebalanceAPY","inputs":[{"name":"poolId","type":"bytes32","internalType":"bytes32"}],"outputs":[{"name":"apy","type":"uint256","internalType":"uint256"}],"stateMutability":"view"},{"type":"function","name":"executeRebalance","inputs":[{"name":"poolId","type":"bytes32","internalType":"bytes32"}],"outputs":[],"stateMutability":"nonpayable"},{"type":"function","name":"getOptimalRange","inputs":[{"name":"poolId","type":"bytes32","internalType":"bytes32"}],"outputs":[{"name":"lowerTick","type":"int24","internalType":"int24"},{"name":"upperTick","type":"int24","internalType":"int24"}],"stateMutability":"view"},{"type":"function","name":"initialize","inputs":[{"name":"key","type":"tuple","internalType":"struct PoolManager.PoolKey","components":[{"name":"token0","type":"address","internalType":"address"},{"name":"token1","type":"address","internalType":"address"},{"name":"fee","type":"uint24","internalType":"uint24"},{"name":"hooks","type":"address","internalType":"address"}]},{"name":"sqrtPriceX96","type":"uint160","internalType":"uint160"}],"outputs":[{"name":"poolId","type":"bytes32","internalType":"bytes32"}],"stateMutability":"nonpayable"},{"type":"function","name":"modifyLiquidity","inputs":[{"name":"poolId","type":"bytes32","internalType":"bytes32"},{"name":"params","type":"tuple","internalType":"struct PoolManager.ModifyLiquidityParams","components":[{"name":"tickLower","type":"int24","internalType":"int24"},{"name":"tickUpper","type":"int24","internalType":"int24"},{"name":"liquidityDelta","type":"int128","internalType":"int128"}]},{"name":"hookData","type":"bytes","internalType":"bytes"}],"outputs":[{"name":"amount0","type":"int256","internalType":"int256"},{"name":"amount1","type":"int256","internalType":"int256"}],"stateMutability":"nonpayable"},{"type":"function","name":"owner","inputs":[],"outputs":[{"name":"","type":"address","internalType":"address"}],"stateMutability":"view"},{"type":"function","name":"pay","inputs":[{"name":"token","type":"address","internalType":"address"},{"name":"amount","type":"uint256","internalType":"uint256"}],"outputs":[],"stateMutability":"nonpayable"},{"type":"function","name":"poolHooks","inputs":[{"name":"","type":"bytes32","internalType":"bytes32"}],"outputs":[{"name":"","type":"address","internalType":"address"}],"stateMutability":"view"},{"type":"function","name":"pools","inputs":[{"name":"","type":"bytes32","internalType":"bytes32"}],"outputs":[{"name":"sqrtPriceX96","type":"uint160","internalType":"uint160"},{"name":"tick","type":"int24","internalType":"int24"},{"name":"feeProtocol","type":"uint24","internalType":"uint24"},{"name":"initialized","type":"bool","internalType":"bool"},{"name":"reserve0","type":"uint256","internalType":"uint256"},{"name":"reserve1","type":"uint256","internalType":"uint256"},{"name":"liquidity","type":"uint128","internalType":"uint128"}],"stateMutability":"view"},{"type":"function","name":"positions","inputs":[{"name":"","type":"bytes32","internalType":"bytes32"},{"name":"","type":"bytes32","internalType":"bytes32"}],"outputs":[{"name":"liquidity","type":"uint128","internalType":"uint128"},{"name":"feeGrowthInside0LastX128","type":"uint256","internalType":"uint256"},{"name":"feeGrowthInside1LastX128","type":"uint256","internalType":"uint256"},{"name":"tokensOwed0","type":"uint128","internalType":"uint128"},{"name":"tokensOwed1","type":"uint128","internalType":"uint128"}],"stateMutability":"view"},{"type":"function","name":"protocolFee","inputs":[],"outputs":[{"name":"","type":"uint24","internalType":"uint24"}],"stateMutability":"view"},{"type":"function","name":"protocolFeeRecipient","inputs":[],"outputs":[{"name":"","type":"address","internalType":"address"}],"stateMutability":"view"},{"type":"function","name":"rebalanceParams","inputs":[{"name":"","type":"bytes32","internalType":"bytes32"}],"outputs":[{"name":"baseTick","type":"int24","internalType":"int24"},{"name":"width","type":"int24","internalType":"int24"},{"name":"threshold","type":"uint256","internalType":"uint256"},{"name":"lastRebalance","type":"uint256","internalType":"uint256"}],"stateMutability":"view"},{"type":"function","name":"rebalanceReward","inputs":[],"outputs":[{"name":"","type":"uint256","internalType":"uint256"}],"stateMutability":"view"},{"type":"function","name":"setProtocolFee","inputs":[{"name":"newFee","type":"uint24","internalType":"uint24"}],"outputs":[],"stateMutability":"nonpayable"},{"type":"function","name":"setRebalanceReward","inputs":[{"name":"newReward","type":"uint256","internalType":"uint256"}],"outputs":[],"stateMutability":"nonpayable"},{"type":"function","name":"settle","inputs":[],"outputs":[],"stateMutability":"nonpayable"},{"type":"function","name":"swap","inputs":[{"name":"poolId","type":"bytes32","internalType":"bytes32"},{"name":"params","type":"tuple","internalType":"struct PoolManager.SwapParams","components":[{"name":"zeroForOne","type":"bool","internalType":"bool"},{"name":"amountSpecified","type":"int256","internalType":"int256"},{"name":"sqrtPriceLimitX96","type":"uint160","internalType":"uint160"}]},{"name":"hookData","type":"bytes","internalType":"bytes"}],"outputs":[{"name":"result","type":"tuple","internalType":"struct PoolManager.SwapResult","components":[{"name":"amount0","type":"int256","internalType":"int256"},{"name":"amount1","type":"int256","internalType":"int256"}]}],"stateMutability":"nonpayable"},{"type":"function","name":"take","inputs":[{"name":"token","type":"address","internalType":"address"},{"name":"to","type":"address","internalType":"address"},{"name":"amount","type":"uint256","internalType":"uint256"}],"outputs":[],"stateMutability":"nonpayable"},{"type":"function","name":"ticks","inputs":[{"name":"","type":"bytes32","internalType":"bytes32"},{"name":"","type":"int24","internalType":"int24"}],"outputs":[{"name":"liquidityGross","type":"uint128","internalType":"uint128"},{"name":"liquidityNet","type":"int128","internalType":"int128"},{"name":"feeGrowthOutside0X128","type":"uint256","internalType":"uint256"},{"name":"feeGrowthOutside1X128","type":"uint256","internalType":"uint256"},{"name":"initialized","type":"bool","internalType":"bool"}],"stateMutability":"view"},{"type":"function","name":"transferOwnership","inputs":[{"name":"newOwner","type":"address","internalType":"address"}],"outputs":[],"stateMutability":"nonpayable"},{"type":"event","name":"AutoRebalanceEnabled","inputs":[{"name":"poolId","type":"bytes32","indexed":true,"internalType":"bytes32"},{"name":"baseTick","type":"int24","indexed":false,"internalType":"int24"},{"name":"width","type":"int24","indexed":false,"internalType":"int24"},{"name":"threshold","type":"uint256","indexed":false,"internalType":"uint256"}],"anonymous":false},{"type":"event","name":"HookApproved","inputs":[{"name":"hook","type":"address","indexed":true,"internalType":"address"},{"name":"approved","type":"bool","indexed":false,"internalType":"bool"}],"anonymous":false},{"type":"event","name":"LiquidityModified","inputs":[{"name":"poolId","type":"bytes32","indexed":true,"internalType":"bytes32"},{"name":"sender","type":"address","indexed":true,"internalType":"address"},{"name":"tickLower","type":"int24","indexed":false,"internalType":"int24"},{"name":"tickUpper","type":"int24","indexed":false,"internalType":"int24"},{"name":"liquidityDelta","type":"int128","indexed":false,"internalType":"int128"}],"anonymous":false},{"type":"event","name":"PoolInitialized","inputs":[{"name":"poolId","type":"bytes32","indexed":true,"internalType":"bytes32"},{"name":"token0","type":"address","indexed":true,"internalType":"address"},{"name":"token1","type":"address","indexed":true,"internalType":"address"},{"name":"fee","type":"uint24","indexed":false,"internalType":"uint24"},{"name":"hooks","type":"address","indexed":false,"internalType":"address"}],"anonymous":false},{"type":"event","name":"ProtocolFeeUpdated","inputs":[{"name":"newFee","type":"uint24","indexed":false,"internalType":"uint24"}],"anonymous":false},{"type":"event","name":"RebalanceExecuted","inputs":[{"name":"poolId","type":"bytes32","indexed":true,"internalType":"bytes32"},{"name":"oldCenter","type":"int24","indexed":false,"internalType":"int24"},{"name":"newCenter","type":"int24","indexed":false,"internalType":"int24"},{"name":"timestamp","type":"uint256","indexed":false,"internalType":"uint256"}],"anonymous":false},{"type":"event","name":"RebalancerAuthorized","inputs":[{"name":"rebalancer","type":"address","indexed":true,"internalType":"address"},{"name":"authorized","type":"bool","indexed":false,"internalType":"bool"}],"anonymous":false},{"type":"event","name":"Swap","inputs":[{"name":"poolId","type":"bytes32","indexed":true,"internalType":"bytes32"},{"name":"sender","type":"address","indexed":true,"internalType":"address"},{"name":"zeroForOne","type":"bool","indexed":false,"internalType":"bool"},{"name":"amount0","type":"int256","indexed":false,"internalType":"int256"},{"name":"amount1","type":"int256","indexed":false,"internalType":"int256"}],"anonymous":false},{"type":"error","name":"InvalidFee","inputs":[]},{"type":"error","name":"InvalidHook","inputs":[]},{"type":"error","name":"InvalidRebalanceParams","inputs":[]},{"type":"error","name":"InvalidSqrtPrice","inputs":[]},{"type":"error","name":"InvalidTickRange","inputs":[]},{"type":"error","name":"NotAuthorizedRebalancer","inputs":[]},{"type":"error","name":"NotOwner","inputs":[]},{"type":"error","name":"PoolAlreadyInitialized","inputs":[]},{"type":"error","name":"PoolNotInitialized","inputs":[]},{"type":"error","name":"RebalanceNotNeeded","inputs":[]},{"type":"error","name":"RebalanceTooFrequent","inputs":[]},{"type":"error","name":"ReentrancyGuardReentrantCall","inputs":[]},{"type":"error","name":"SafeERC20FailedOperation","inputs":[{"name":"token","type":"address","internalType":"address"}]},{"type":"error","name":"Unauthorized","inputs":[]}],"bytecode":{"object":"0x60803460b657601f612b2e38819003918201601f19168301916001600160401b0383118484101760ba5780849260209460405283398101031260b657516001600160a01b0381169081900360b65760017f9b779b17422d0df92223018b32b4d1fa46e071723d6817e2486d003becc55f0055600580546001600160a01b03191633179055600480546001600160b81b031916909117607d60a51b1790556601c6bf52634000600b55604051612a5f90816100cf8239f35b5f80fd5b634e487b7160e01b5f52604160045260245ffdfe608080604052600436101561001c575b50361561001a575f80fd5b005b5f3560e01c9081630177087414611f03575080630665704a14611ed85780630b0d9c0914611e3857806311da60b414611e0d57806313170bdc14611d9257806315f8337614611d6c57806323d5d84c14611d125780632fc4426014611b2e5780633095b2c014611af6578063350e422114611ada57806352b65fb914611a5757806364df049e14611a2f5780636882a88814611a125780637feedaa11461198557806382aa6814146119565780638da5cb5b1461192e5780639618c751146118fe57806398bd4f0214611793578063a1634b1414611775578063ad079786146116e7578063b0e21e8a146116c2578063b5217bb41461163e578063bbb62ba9146115cb578063bc063e1a146115ae578063c4076876146114da578063c8c19a391461149d578063ca1be64014611460578063cccb649d14611423578063cddaf9cb146112fb578063d4f05d1a14610e2d578063de46138e14610e10578063ebedaed9146108e5578063f2fde38b1461088d578063f59990f81461085b5763fe78a964146101a9575f61000f565b3461085757366003190160a0811261085757608013610857576084356001600160a01b0381169081810361085757620f424062ffffff6101e761244b565b1611610848576401000276a38210908115918261082b575b61081c576001600160a01b0361021361245d565b161515806107f5575b6107e657610228612473565b6001600160a01b03610238612489565b166001600160a01b0390911610156107cf57610252612473565b9061025b612489565b905b61026561244b565b9261026e61245d565b6040519062ffffff602083019360018060a01b03169586855260018060a01b03169687604085015216606083015260018060a01b03166080820152608081526102b860a08261206a565b51902093845f525f60205260ff60405f205460d01c166107c057806107a3575b1561077a57640100000000600160c01b039060201b16806001600160801b03811160071b90811c67ffffffffffffffff811160061b90811c63ffffffff811160051b90811c61ffff811160041b90811c9060ff821160031b91821c92600f841160021b93841c94600160038711811b96871c1196171717171717179060808210155f1461077057607e1982011c5b800280607f1c8160ff1c1c800280607f1c8160ff1c1c800280607f1c8160ff1c1c800280607f1c8160ff1c1c800280607f1c8160ff1c1c800280607f1c8160ff1c1c80029081607f1c8260ff1c1c80029283607f1c8460ff1c1c80029485607f1c8660ff1c1c80029687607f1c8860ff1c1c80029889607f1c8a60ff1c1c80029a8b607f1c8c60ff1c1c80029c8d80607f1c9060ff1c1c800260cd1c6604000000000000169d60cc1c6608000000000000169c60cb1c6610000000000000169b60ca1c6620000000000000169a60c91c6640000000000000169960c81c6680000000000000169860c71c670100000000000000169760c61c670200000000000000169660c51c670400000000000000169560c41c670800000000000000169460c31c671000000000000000169360c21c672000000000000000169260c11c674000000000000000169160c01c6780000000000000001690607f190160401b1717171717171717171717171717693627a301d71055774c85026f028f6481ab7f045a5af012a19d003aa919810160801d60020b906fdb2df09e81959a81455e260799a0632f0160801d60020b8082145f1461074a57505b62ffffff60045460a01c16906040519060e0820182811067ffffffffffffffff82111761073657604090815287835260029190910b60208084018281528484019586526001606086019081525f6080870181815260a080890183815260c08a018481528e8552968490529790922097518854945190921b62ffffff60a01b166001600160a01b039092166001600160b81b03199094169390931717865592956001600160801b03946003948694939192519088549060ff60d01b9051151560d01b169162ffffff60b81b9060b81b169063ffffffff60b81b1916171787555160018701555160028601555116920191166001600160801b031982541617905561062361245d565b5f85815260076020526040902080546001600160a01b0319166001600160a01b0392831617905561065261245d565b166106b3575b5060209350827fdbad4127ee35501700c969e3a62722a954cbfe650992b4ce3a72ef8cd19f20cd604061068961244b565b61069161245d565b825162ffffff9290921682526001600160a01b031688820152a4604051908152f35b60209060646001600160a01b036106c861245d565b16965f604051988994859363753b3e7560e01b85528a6004860152602485015260448401525af193841561072b57602094156106585761071d90853d8711610724575b610715818361206a565b8101906122c0565b505f610658565b503d61070b565b6040513d5f823e3d90fd5b634e487b7160e01b5f52604160045260245ffd5b90856001600160a01b0361075d846124d7565b1611610769575061051c565b905061051c565b81607f031b610366565b60405162461bcd60e51b81526020600482015260016024820152602960f91b6044820152606490fd5b5073fffd8963efd1fc6a506488495d951d5263988d2685106102d8565b637983c05160e01b5f5260045ffd5b6107d7612489565b906107e0612473565b9061025d565b639c9d882360e01b5f5260045ffd5b506001600160a01b0361080661245d565b165f52600660205260ff60405f2054161561021c565b63063df5fd60e31b5f5260045ffd5b5073fffd8963efd1fc6a506488495d951d5263988d2683116101ff565b6358d620b360e01b5f5260045ffd5b5f80fd5b34610857576020366003190112610857576004355f526007602052602060018060a01b0360405f205416604051908152f35b34610857576020366003190112610857576108a6611f50565b600554906001600160a01b03821633036108d6576001600160a01b03166001600160a01b03199190911617600555005b6330cd747160e01b5f5260045ffd5b34610857576108f336611f93565b9192906108fe61249f565b815f525f60205260405f209160ff835460d01c1615610e01575f818152600760205260409020546001600160a01b03168015159283610d6d575b5f838152602081905260409020546001600160a01b03169161096161095c896123cf565b6124d7565b96602089019561097361095c886123cf565b9860408b01955f610983886123dd565b600f0b1315610d1b57610995876123dd565b6001600160801b03169a6109b56109ad8d838661287a565b9c82856128f1565b926001600160a01b03168211610d02575050505f975b6109d48b6123cf565b6109dd896123cf565b6040519060208201923360601b845260e81b603483015260e81b6037820152601a8152610a0b603a8261206a565b519020875f52600260205260405f20905f5260205260405f205f610a2e886123dd565b600f0b1315610c94576001600160801b03610a56610a4b896123dd565b82168284541661242b565b166001600160801b0319825416179055610a6f866123dd565b6001600160801b03166001600160801b03610a9160038401928284541661242b565b166001600160801b03198254161790555b5f8a1315610c6d5760018101610ab98b82546120e5565b90555b5f891315610c3f57600201610ad28982546120e5565b90555b5f8052600360205260405f20610aec8a8254611ff7565b90555f8052600360205260405f20610b05898254611ff7565b9055610b87575b505050610b2c610b26610b206040986123cf565b946123cf565b916123dd565b9086519360020b845260020b6020840152600f0b858301527ff893b216b0cd67cc4a5ceb21ec0c04a33409f95d5e05df43035e2f8620bdd3bc60603393a360015f516020612a0a5f395f51905f525582519182526020820152f35b91602091610bdd99935f8a6040519c8d958694859363b496462d60e01b85528c6004860152336024860152610bbf604486018c612396565b60a48501528d60c485015261010060e4850152610104840191612315565b03925af196871561072b57610b20610b2c92610c1960409a610b26945f91610c20575b506001600160e01b03191663b496462d60e01b14612335565b9850610b0c565b610c39915060203d60201161072457610715818361206a565b8c610c00565b5f8912610c4d575b50610ad5565b610c656002610c5b8b612386565b9201918254612022565b90558a610c47565b5f8a1215610abc57610c7e8a612386565b610c8d60018301918254612022565b9055610abc565b610ca5610ca0886123dd565b6123eb565b6001600160801b0316906001600160801b03610cc4838284541661240b565b166001600160801b03198254161790556001600160801b03610ced60038401928284541661240b565b166001600160801b0319825416179055610aa2565b9199916001600160a01b0316116109cb575f99506109cb565b610d469a610d53610d46610d4b610d34610ca08c6123dd565b6001600160801b03169e8f858861287a565b612386565b9d83866128f1565b926001600160a01b03168211610d02575050505f976109cb565b6040516390f6bd7960e01b815260048101849052336024820152610d946044820189612396565b60c060a482015260208180610dad60c482018b87612315565b03815f875af1801561072b57610ddd915f91610de2575b506001600160e01b0319166390f6bd7960e01b14612335565b610938565b610dfb915060203d60201161072457610715818361206a565b89610dc4565b63486aa30760e01b5f5260045ffd5b34610857575f366003190112610857576020600b54604051908152f35b3461085757610e3b36611f93565b909192604051926040840184811067ffffffffffffffff821117610736576040525f845260208401925f8452610e6f61249f565b825f525f60205260405f209060ff825460d01c1615610e01575f848152600760205260409020546001600160a01b0316918215159081611267575b610eb389612379565b60208a013560408b01356001600160a01b03811603610857578254905f811390811561125857925b156111a5575f8981526020819052604090206001810154600290910154909115611141576103e58402918483046103e5148515171561112d57610f33610d4692610f2d6103e8610f399604918261200f565b926120e5565b906120c7565b905b835462ffffff60a01b82166001600160b81b0319909116176001600160a01b039190911617835588528089525f81131561110e57508751610f81600183019182546120e5565b90555b86515f8113156110f95750610fa06002885192019182546120e5565b90555b86515f80526003602052610fbc60405f20918254611ff7565b905585515f80526003602052610fd760405f20918254611ff7565b9055611047575b505050610fec604094612379565b908351835190865193151584526020840152858301527f4f10780b85f95ae7a0a095cfc5d9704e910c16bdd2b0e749f1a7be7fec85128660603393a360015f516020612a0a5f395f51905f5255825191518252516020820152f35b9160209161109e97935f604051809a8195829463d1640c5760e01b84528a600485015233602485015261107d604485018b6122e0565b8c5160a48501528b5160c485015261010060e4850152610104840191612315565b03925af190811561072b576110d3610fec926040975f916110da575b506001600160e01b03191663d1640c5760e01b14612335565b9486610fde565b6110f3915060203d60201161072457610715818361206a565b886110ba565b6002610c5b61110792612386565b9055610fa3565b61111790612386565b61112660018301918254612022565b9055610f84565b634e487b7160e01b5f52601160045260245ffd5b9061114c908461200f565b906103e88202918083046103e8149015171561112d578361116c91612022565b6103e58102908082046103e5149015171561112d5761118a916120c7565b6001810180911161112d5761119f9092612386565b90610f3b565b5f898152602081905260409020600181015460029091015492939291156111fa576103e58302918383046103e5148415171561112d57610f33610d4692610f2d6103e86111f49604918261200f565b91610f3b565b90611205908361200f565b906103e88202918083046103e8149015171561112d578261122591612022565b6103e58102908082046103e5149015171561112d57611243916120c7565b6001810180911161112d576111f49091612386565b61126190612386565b92610edb565b604051635889a42f60e11b81526004810187905233602482015261128e604482018b6122e0565b60c060a4820152602081806112a760c48201888b612315565b03815f895af1801561072b576112d7915f916112dc575b506001600160e01b031916635889a42f60e11b14612335565b610eaa565b6112f5915060203d60201161072457610715818361206a565b8b6112be565b346108575760203660031901126108575760043567ffffffffffffffff8111610857573660238201121561085757806004013567ffffffffffffffff8111610857573660248260051b840101116108575761135461249f565b335f52600a60205260ff60405f20541615611414575f915f5b828110156113d857303b156108575760405163017e221360e51b815260248260051b8401013560048201525f8160248183305af190816113c8575b506113b6575b60010161136d565b925f19811461112d57600101926113ae565b5f6113d29161206a565b856113a8565b5f8080806113e888600b5461200f565b81811561140b575b3390f11561072b5760015f516020612a0a5f395f51905f5255005b506108fc6113f0565b63da0dadfd60e01b5f5260045ffd5b34610857576020366003190112610857576001600160a01b03611444611f50565b165f526006602052602060ff60405f2054166040519015158152f35b34610857576020366003190112610857576005546001600160a01b031633036108d6576004355f908152600960205260409020805460ff19169055005b34610857576020366003190112610857576001600160a01b036114be611f50565b165f52600a602052602060ff60405f2054166040519015158152f35b34610857576040366003190112610857576114f3611f50565b602435906114ff61249f565b6001600160a01b03165f81815260036020526040812080549293928084019213801584841290811690159091161761112d5755604051906323b872dd60e01b5f52336004523060245260445260205f60648180865af19060015f511482161561158e575b501561157c5760015f516020612a0a5f395f51905f5255005b635274afe760e01b5f5260045260245ffd5b60018215166115a65750813b15153d15161682611563565b3d5f823e3d90fd5b34610857575f366003190112610857576020604051620f42408152f35b34610857576040366003190112610857576004355f52600260205260405f206024355f5260205260a060405f206001600160801b03815416906001810154906003600282015491015491604051938452602084015260408301526001600160801b038116606083015260801c6080820152f35b34610857576020366003190112610857576004355f525f60205260e060405f208054906001810154906001600160801b0360036002830154920154169160ff6040519460018060a01b03811686528060a01c60020b602087015262ffffff8160b81c16604087015260d01c1615156060850152608084015260a083015260c0820152f35b34610857575f36600319011261085757602062ffffff60045460a01c16604051908152f35b3461085757604036600319011261085757611700611f50565b611708611f84565b6005549091906001600160a01b031633036108d65760207fbfb1a2311b31e06912fad88e9bd0be9b5fbcfd56a821de65e49f9a2d922211cb9160018060a01b031692835f526006825261176a8160405f209060ff801983541691151516179055565b6040519015158152a2005b34610857575f366003190112610857576020604051620d89e7198152f35b34610857576080366003190112610857576004356117af611f66565b6044358060020b918282036108575760055460643593906001600160a01b031633036108d6575f81138015906118f3575b6118d957831580156118e8575b6118d95760405193608085019480861067ffffffffffffffff8711176107365760026118d4937f8b8a51451a0389d260eba5d77be838a269fadad2f2a85e5faa7c63603da3f35e9760405285820b8352602083019081526040830184815260608401914283528a5f52600860205260405f209451840b62ffffff198654169062ffffff161785555184549060181b65ffffff000000169065ffffff000000191617845551600184015551910155855f52600960205260405f20600160ff1982541617905560405193849384604091949392606082019560020b825260020b60208201520152565b0390a2005b63483cb4ab60e11b5f5260045ffd5b5061138884116117ed565b5061271081136117e0565b3461085757602036600319011261085757604061191c600435612237565b82519160020b825260020b6020820152f35b34610857575f366003190112610857576005546040516001600160a01b039091168152602090f35b34610857576020366003190112610857576004355f526009602052602060ff60405f2054166040519015158152f35b346108575760203660031901126108575760043562ffffff811690818103610857576005546001600160a01b031633036108d657620f42408211610848576004805462ffffff60a01b191660a09290921b62ffffff60a01b169190911790556040519081527f2edf7eef14cb246dab2aac555e300928981632918159d9e33fcaa24dcd38cb4090602090a1005b34610857575f366003190112610857576020604051620d89e88152f35b34610857575f366003190112610857576004546040516001600160a01b039091168152602090f35b3461085757604036600319011261085757611a70611f50565b611a78611f84565b6005549091906001600160a01b031633036108d65760207f74bdbf7944753409a085f887f4e85d5a493ae806a113a14063afe943cc2bd4639160018060a01b031692835f52600a825261176a8160405f209060ff801983541691151516179055565b34610857575f366003190112610857576020604051610e108152f35b34610857576020366003190112610857576001600160a01b03611b17611f50565b165f526003602052602060405f2054604051908152f35b3461085757602036600319011261085757600435611b4a61249f565b335f52600a60205260ff60405f2054161561141457805f52600960205260ff60405f20541615611c6d57805f52600860205260405f20600281018054610e10810180911161112d574210611d03576040516308f5761360e21b81526004810184905260a081602481305afa801561072b575f90611c7c575b60609150015115611c6d57825f525f60205260405f2090825460020b915460a01c60020b9262ffffff198154168462ffffff161790554290555f808080600b54818115611c64575b3390f11561072b5760408051600292830b81529290910b602083015242908201527f8b2e5d698ec868d51606ef95be050591806f6c80ef744416be484fd68f7c772290606090a260015f516020612a0a5f395f51905f5255005b506108fc611c0a565b635121f34360e01b5f5260045ffd5b5060a0813d60a011611cfb575b81611c9660a0938361206a565b8101031261085757604051611caa8161204e565b611cb382612229565b8152611cc160208301612229565b6020820152611cd260408301612229565b604082015260608201518015158103610857576060926080918484015201516080820152611bc2565b3d9150611c89565b632008d05d60e11b5f5260045ffd5b346108575760203660031901126108575760a0611d306004356120f2565b608060405191805160020b8352602081015160020b6020840152604081015160020b604084015260608101511515606084015201516080820152f35b34610857576020366003190112610857576020611d8a60043561202f565b604051908152f35b3461085757604036600319011261085757611dab611f66565b6004355f52600160205260405f209060020b5f5260205260a060405f2080549060018101549060ff600360028301549201541691604051936001600160801b038116855260801d600f0b60208501526040840152606083015215156080820152f35b34610857575f36600319011261085757611e2561249f565b60015f516020612a0a5f395f51905f5255005b3461085757606036600319011261085757611e51611f50565b6024356001600160a01b038116908190036108575760443591611e7261249f565b60018060a01b031691825f52600360205260405f20611e92828254611ff7565b90556040519163a9059cbb60e01b5f5260045260245260205f60448180865af19060015f511482161561158e57501561157c5760015f516020612a0a5f395f51905f5255005b34610857576020366003190112610857576005546001600160a01b031633036108d657600435600b55005b34610857576020366003190112610857576080906004355f52600860205260405f2080549060026001820154910154918060020b845260181c60020b602084015260408301526060820152f35b600435906001600160a01b038216820361085757565b602435908160020b820361085757565b35908160020b820361085757565b60243590811515820361085757565b9060a0600319830112610857576004359160606023198201126108575760249160843567ffffffffffffffff81116108575760040182601f820112156108575780359267ffffffffffffffff84116108575760208481840193010111610857579190565b81810392915f13801582851316918412161761112d57565b8181029291811591840414171561112d57565b9190820391821161112d57565b5f52600960205260ff60405f2054161561204a5762034d5090565b5f90565b60a0810190811067ffffffffffffffff82111761073657604052565b90601f8019910116810190811067ffffffffffffffff82111761073657604052565b600291820b910b0390627fffff198212627fffff83131761112d57565b9060020b9060020b0190627fffff198212627fffff83131761112d57565b81156120d1570490565b634e487b7160e01b5f52601260045260245ffd5b9190820180921161112d57565b604051906120ff8261204e565b5f82525f60208301525f60408301525f60608301525f608083015281815f52600960205260ff60405f205416156122235750805f525f60205260405f20905f52600860205260405f20905460a01c60020b80835261218d82548060020b9060181c926121808460020b612172818561208c565b60020b6020890152836120a9565b60020b604087015261208c565b600281900b905f82126122095762ffffff809250165b1690612710820291808304612710149015171561112d5760029162ffffff6121cc9216906120c7565b60018301541091606084019283520154610e10810180911161112d578042106121f457505090565b5f61220192524290612022565b608082015290565b50627fffff19811461112d5762ffffff905f0381166121a3565b91505090565b51908160020b820361085757565b90815f52600960205260ff60405f205416156122b957815f52600860205260405f20915f525f60205261228660405f205460a01c60020b925460181c60020b612280818561208c565b936120a9565b90620d89e7198360020b126122ad575b620d89e88260020b136122a557565b620d89e89150565b620d89e7199250612296565b5f91508190565b9081602091031261085757516001600160e01b0319811681036108575790565b8035908115158092036108575760409183526020810135602084015201359060018060a01b0382168092036108575760400152565b908060209392818452848401375f828201840152601f01601f1916010190565b1561233c57565b60405162461bcd60e51b8152602060048201526015602482015274496e76616c696420686f6f6b20726573706f6e736560581b6044820152606490fd5b3580151581036108575790565b600160ff1b811461112d575f0390565b6040906123a281611f76565b60020b83526123b360208201611f76565b60020b602084015201359081600f0b8092036108575760400152565b358060020b81036108575790565b3580600f0b81036108575790565b600f0b6f7fffffffffffffffffffffffffffffff19811461112d575f0390565b906001600160801b03809116911603906001600160801b03821161112d57565b906001600160801b03809116911601906001600160801b03821161112d57565b60443562ffffff811681036108575790565b6064356001600160a01b03811681036108575790565b6004356001600160a01b03811681036108575790565b6024356001600160a01b03811681036108575790565b60025f516020612a0a5f395f51905f5254146124c85760025f516020612a0a5f395f51905f5255565b633ee5aeb560e01b5f5260045ffd5b60020b5f81121561285b57805f03905b620d89e88211612832576001821615612820576001600160881b036ffffcb933bd6fad37aa2d162d1a5940015b169160028116612804575b600481166127e8575b600881166127cc575b601081166127b0575b60208116612794575b60408116612778575b6080811661275c575b6101008116612740575b6102008116612724575b6104008116612708575b61080081166126ec575b61100081166126d0575b61200081166126b4575b6140008116612698575b618000811661267c575b620100008116612660575b620200008116612645575b62040000811661262a575b6208000016612611575b5f12612603575b63ffffffff81166125fb575f905b60201c60ff91909116016001600160a01b031690565b6001906125e5565b80156120d1575f19046125d7565b6b048a170391f7dc42444e8fa290910260801c906125d0565b6d2216e584f5fa1ea926041bedfe9890920260801c916125c6565b916e5d6af8dedb81196699c329225ee6040260801c916125bb565b916f09aa508b5b7a84e1c677de54f3e99bc90260801c916125b0565b916f31be135f97d08fd981231505542fcfa60260801c916125a5565b916f70d869a156d2a1b890bb3df62baf32f70260801c9161259b565b916fa9f746462d870fdf8a65dc1f90e061e50260801c91612591565b916fd097f3bdfd2022b8845ad8f792aa58250260801c91612587565b916fe7159475a2c29b7443b29c7fa6e889d90260801c9161257d565b916ff3392b0822b70005940c7a398e4b70f30260801c91612573565b916ff987a7253ac413176f2b074cf7815e540260801c91612569565b916ffcbe86c7900a88aedcffc83b479aa3a40260801c9161255f565b916ffe5dee046a99a2a811c461f1969c30530260801c91612555565b916fff2ea16466c96a3843ec78b326b528610260801c9161254c565b916fff973b41fa98c081472e6896dfb254c00260801c91612543565b916fffcb9843d60f6159c9db58835c9266440260801c9161253a565b916fffe5caca7e10e4e61c3624eaa0941cd00260801c91612531565b916ffff2e50f5f656932ef12357cf3c7fdcc0260801c91612528565b916ffff97272373d413259a46990580e213a0260801c9161251f565b6001600160881b03600160801b612514565b60405162461bcd60e51b81526020600482015260016024820152601560fa1b6044820152606490fd5b806124e7565b6001600160a01b03918216908216039190821161112d57565b6128e89290916128d791906001600160a01b03808216908516116128eb575b6001600160a01b036128ab8583612861565b6001600160a01b039092169291169060601b6fffffffffffffffffffffffffffffffff60601b16612984565b6001600160a01b03909116906120c7565b90565b92612899565b6128e892916001600160801b03916001600160a01b038083169082161161292e575b6001600160a01b03916129269190612861565b169116612934565b90612913565b5f91905f19828209918082029384808510940393808503941461297a57600160601b8410156129775750600160601b910990828211900360a01b910360601c1790565b80fd5b5050505060601c90565b915f1982840992828102928380861095039480860395146129fb578483111561085757829109815f0382168092046002816003021880820260020302808202600203028082026002030280820260020302808202600203028091026002030293600183805f03040190848311900302920304170290565b50508092501561085757049056fe9b779b17422d0df92223018b32b4d1fa46e071723d6817e2486d003becc55f00a2646970667358221220efb37134da93a1592cf6886bf8dfb55ae27abaa3e2408042fe28fb81d6e9cc2264736f6c634300081b0033","linkReferences":{}},"methodIdentifiers":{"MAX_FEE()":"bc063e1a","MAX_TICK()":"6882a888","MIN_REBALANCE_INTERVAL()":"350e4221","MIN_TICK()":"a1634b14","approveHook(address,bool)":"ad079786","approvedHooks(address)":"cccb649d","authorizeRebalancer(address,bool)":"52b65fb9","authorizedRebalancers(address)":"c8c19a39","autoRebalanceEnabled(bytes32)":"82aa6814","batchRebalance(bytes32[])":"cddaf9cb","checkRebalance(bytes32)":"23d5d84c","currencyDeltas(address)":"3095b2c0","disableAutoRebalance(bytes32)":"ca1be640","enableAutoRebalance(bytes32,int24,int24,uint256)":"98bd4f02","estimateAutoRebalanceAPY(bytes32)":"15f83376","executeRebalance(bytes32)":"2fc44260","getOptimalRange(bytes32)":"9618c751","initialize((address,address,uint24,address),uint160)":"fe78a964","modifyLiquidity(bytes32,(int24,int24,int128),bytes)":"ebedaed9","owner()":"8da5cb5b","pay(address,uint256)":"c4076876","poolHooks(bytes32)":"f59990f8","pools(bytes32)":"b5217bb4","positions(bytes32,bytes32)":"bbb62ba9","protocolFee()":"b0e21e8a","protocolFeeRecipient()":"64df049e","rebalanceParams(bytes32)":"01770874","rebalanceReward()":"de46138e","setProtocolFee(uint24)":"7feedaa1","setRebalanceReward(uint256)":"0665704a","settle()":"11da60b4","swap(bytes32,(bool,int256,uint160),bytes)":"d4f05d1a","take(address,address,uint256)":"0b0d9c09","ticks(bytes32,int24)":"13170bdc","transferOwnership(address)":"f2fde38b"},"id":86}