{"abi":[{"type":"constructor","inputs":[{"name":"_factory","type":"address","internalType":"address"},{"name":"_weth","type":"address","internalType":"address"}],"stateMutability":"nonpayable"},{"type":"receive","stateMutability":"payable"},{"type":"function","name":"addLiquidity","inputs":[{"name":"tokenA","type":"address","internalType":"address"},{"name":"tokenB","type":"address","internalType":"address"},{"name":"stable","type":"bool","internalType":"bool"},{"name":"amountADesired","type":"uint256","internalType":"uint256"},{"name":"amountBDesired","type":"uint256","internalType":"uint256"},{"name":"amountAMin","type":"uint256","internalType":"uint256"},{"name":"amountBMin","type":"uint256","internalType":"uint256"},{"name":"to","type":"address","internalType":"address"},{"name":"deadline","type":"uint256","internalType":"uint256"}],"outputs":[{"name":"amountA","type":"uint256","internalType":"uint256"},{"name":"amountB","type":"uint256","internalType":"uint256"},{"name":"liquidity","type":"uint256","internalType":"uint256"}],"stateMutability":"nonpayable"},{"type":"function","name":"addLiquidityETH","inputs":[{"name":"token","type":"address","internalType":"address"},{"name":"stable","type":"bool","internalType":"bool"},{"name":"amountTokenDesired","type":"uint256","internalType":"uint256"},{"name":"amountTokenMin","type":"uint256","internalType":"uint256"},{"name":"amountETHMin","type":"uint256","internalType":"uint256"},{"name":"to","type":"address","internalType":"address"},{"name":"deadline","type":"uint256","internalType":"uint256"}],"outputs":[{"name":"amountToken","type":"uint256","internalType":"uint256"},{"name":"amountETH","type":"uint256","internalType":"uint256"},{"name":"liquidity","type":"uint256","internalType":"uint256"}],"stateMutability":"payable"},{"type":"function","name":"factory","inputs":[],"outputs":[{"name":"","type":"address","internalType":"address"}],"stateMutability":"view"},{"type":"function","name":"getAmountOut","inputs":[{"name":"amountIn","type":"uint256","internalType":"uint256"},{"name":"tokenIn","type":"address","internalType":"address"},{"name":"tokenOut","type":"address","internalType":"address"},{"name":"stable","type":"bool","internalType":"bool"}],"outputs":[{"name":"amount","type":"uint256","internalType":"uint256"}],"stateMutability":"view"},{"type":"function","name":"getAmountsOut","inputs":[{"name":"amountIn","type":"uint256","internalType":"uint256"},{"name":"routes","type":"tuple[]","internalType":"struct IRouter.Route[]","components":[{"name":"from","type":"address","internalType":"address"},{"name":"to","type":"address","internalType":"address"},{"name":"stable","type":"bool","internalType":"bool"}]}],"outputs":[{"name":"amounts","type":"uint256[]","internalType":"uint256[]"}],"stateMutability":"view"},{"type":"function","name":"getReserves","inputs":[{"name":"tokenA","type":"address","internalType":"address"},{"name":"tokenB","type":"address","internalType":"address"},{"name":"stable","type":"bool","internalType":"bool"}],"outputs":[{"name":"reserveA","type":"uint256","internalType":"uint256"},{"name":"reserveB","type":"uint256","internalType":"uint256"}],"stateMutability":"view"},{"type":"function","name":"poolFor","inputs":[{"name":"tokenA","type":"address","internalType":"address"},{"name":"tokenB","type":"address","internalType":"address"},{"name":"stable","type":"bool","internalType":"bool"}],"outputs":[{"name":"pool","type":"address","internalType":"address"}],"stateMutability":"view"},{"type":"function","name":"quoteAddLiquidity","inputs":[{"name":"tokenA","type":"address","internalType":"address"},{"name":"tokenB","type":"address","internalType":"address"},{"name":"stable","type":"bool","internalType":"bool"},{"name":"amountADesired","type":"uint256","internalType":"uint256"},{"name":"amountBDesired","type":"uint256","internalType":"uint256"}],"outputs":[{"name":"amountA","type":"uint256","internalType":"uint256"},{"name":"amountB","type":"uint256","internalType":"uint256"},{"name":"liquidity","type":"uint256","internalType":"uint256"}],"stateMutability":"view"},{"type":"function","name":"quoteRemoveLiquidity","inputs":[{"name":"tokenA","type":"address","internalType":"address"},{"name":"tokenB","type":"address","internalType":"address"},{"name":"stable","type":"bool","internalType":"bool"},{"name":"liquidity","type":"uint256","internalType":"uint256"}],"outputs":[{"name":"amountA","type":"uint256","internalType":"uint256"},{"name":"amountB","type":"uint256","internalType":"uint256"}],"stateMutability":"view"},{"type":"function","name":"removeLiquidity","inputs":[{"name":"tokenA","type":"address","internalType":"address"},{"name":"tokenB","type":"address","internalType":"address"},{"name":"stable","type":"bool","internalType":"bool"},{"name":"liquidity","type":"uint256","internalType":"uint256"},{"name":"amountAMin","type":"uint256","internalType":"uint256"},{"name":"amountBMin","type":"uint256","internalType":"uint256"},{"name":"to","type":"address","internalType":"address"},{"name":"deadline","type":"uint256","internalType":"uint256"}],"outputs":[{"name":"amountA","type":"uint256","internalType":"uint256"},{"name":"amountB","type":"uint256","internalType":"uint256"}],"stateMutability":"nonpayable"},{"type":"function","name":"removeLiquidityETH","inputs":[{"name":"token","type":"address","internalType":"address"},{"name":"stable","type":"bool","internalType":"bool"},{"name":"liquidity","type":"uint256","internalType":"uint256"},{"name":"amountTokenMin","type":"uint256","internalType":"uint256"},{"name":"amountETHMin","type":"uint256","internalType":"uint256"},{"name":"to","type":"address","internalType":"address"},{"name":"deadline","type":"uint256","internalType":"uint256"}],"outputs":[{"name":"amountToken","type":"uint256","internalType":"uint256"},{"name":"amountETH","type":"uint256","internalType":"uint256"}],"stateMutability":"nonpayable"},{"type":"function","name":"sortTokens","inputs":[{"name":"tokenA","type":"address","internalType":"address"},{"name":"tokenB","type":"address","internalType":"address"}],"outputs":[{"name":"token0","type":"address","internalType":"address"},{"name":"token1","type":"address","internalType":"address"}],"stateMutability":"pure"},{"type":"function","name":"swapExactETHForTokens","inputs":[{"name":"amountOutMin","type":"uint256","internalType":"uint256"},{"name":"routes","type":"tuple[]","internalType":"struct IRouter.Route[]","components":[{"name":"from","type":"address","internalType":"address"},{"name":"to","type":"address","internalType":"address"},{"name":"stable","type":"bool","internalType":"bool"}]},{"name":"to","type":"address","internalType":"address"},{"name":"deadline","type":"uint256","internalType":"uint256"}],"outputs":[{"name":"amounts","type":"uint256[]","internalType":"uint256[]"}],"stateMutability":"payable"},{"type":"function","name":"swapExactTokensForETH","inputs":[{"name":"amountIn","type":"uint256","internalType":"uint256"},{"name":"amountOutMin","type":"uint256","internalType":"uint256"},{"name":"routes","type":"tuple[]","internalType":"struct IRouter.Route[]","components":[{"name":"from","type":"address","internalType":"address"},{"name":"to","type":"address","internalType":"address"},{"name":"stable","type":"bool","internalType":"bool"}]},{"name":"to","type":"address","internalType":"address"},{"name":"deadline","type":"uint256","internalType":"uint256"}],"outputs":[{"name":"amounts","type":"uint256[]","internalType":"uint256[]"}],"stateMutability":"nonpayable"},{"type":"function","name":"swapExactTokensForTokens","inputs":[{"name":"amountIn","type":"uint256","internalType":"uint256"},{"name":"amountOutMin","type":"uint256","internalType":"uint256"},{"name":"routes","type":"tuple[]","internalType":"struct IRouter.Route[]","components":[{"name":"from","type":"address","internalType":"address"},{"name":"to","type":"address","internalType":"address"},{"name":"stable","type":"bool","internalType":"bool"}]},{"name":"to","type":"address","internalType":"address"},{"name":"deadline","type":"uint256","internalType":"uint256"}],"outputs":[{"name":"amounts","type":"uint256[]","internalType":"uint256[]"}],"stateMutability":"nonpayable"},{"type":"function","name":"weth","inputs":[],"outputs":[{"name":"","type":"address","internalType":"address"}],"stateMutability":"view"},{"type":"error","name":"ETHTransferFailed","inputs":[]},{"type":"error","name":"Expired","inputs":[]},{"type":"error","name":"InsufficientAAmount","inputs":[]},{"type":"error","name":"InsufficientBAmount","inputs":[]},{"type":"error","name":"InsufficientOutputAmount","inputs":[]},{"type":"error","name":"InvalidAmountIn","inputs":[]},{"type":"error","name":"InvalidPath","inputs":[]},{"type":"error","name":"OnlyWETH","inputs":[]},{"type":"error","name":"RouteNotFound","inputs":[]},{"type":"error","name":"SafeERC20FailedOperation","inputs":[{"name":"token","type":"address","internalType":"address"}]}],"bytecode":{"object":"0x60c0346100aa57601f611aa438819003918201601f19168301916001600160401b038311848410176100ae5780849260409485528339810103126100aa57610052602061004b836100c2565b92016100c2565b9060805260a0526040516119cd90816100d782396080518181816104280152818161117b01526117f3015260a051818181601a015281816102910152818161047d0152818161089201528181610bbc0152610c720152f35b5f80fd5b634e487b7160e01b5f52604160045260245ffd5b51906001600160a01b03821682036100aa5756fe60806040526004361015610059575b3615610018575f80fd5b7f00000000000000000000000000000000000000000000000000000000000000006001600160a01b0316330361004a57005b6301f180c960e01b5f5260045ffd5b5f5f3560e01c80630dede6c414610dfe57806318a1308614610c2c57806328eb0b4a14610beb5780633fc8cef314610ba65780634386e63c14610b6d578063544caa5614610b285780635a47ddc3146109e55780635e60dab5146109b057806367ffb66a1461083a5780639881fcb4146107f957806398a0fb3c1461061e578063b7e0d4c014610457578063c45a015514610412578063d7b0e0a514610266578063da2142311461021e5763f41766d814610114575061000e565b3461021b5761012236610fc1565b94909394929192421161020c57828261013a926113d7565b9384515f1981019081116101f8576101529086611103565b51106101e95781156101d5576101d1946101c5939291906101bf906101ad6001600160a01b03610181856110e2565b169161018c856110e2565b90610199602087016110e2565b90506101a760408701611117565b91611143565b6101b6886110f6565b51913390611540565b846115d2565b60405191829182611010565b0390f35b634e487b7160e01b85526032600452602485fd5b6342301c2360e01b8552600485fd5b634e487b7160e01b87526011600452602487fd5b630407b05b60e31b8652600486fd5b80fd5b503461021b57608036600319011261021b57610238610f55565b610240610f6b565b9060643592831515840361021b57602061025e8585856004356114a2565b604051908152f35b503461021b5761027536611049565b96959294939096421161020c57906040869493926102cb6102b87f0000000000000000000000000000000000000000000000000000000000000000968787611143565b6001600160a01b03811692903384611540565b602482518099819363226bf2d160e21b83523060048401525af195861561040757849085976103c9575b5061030084846112c5565b506001600160a01b03938416931683036103c35795945b86106103b45784106103a557848661032e9261193f565b6001600160a01b0316803b156103a157818091602460405180948193632e1a7d4d60e01b83528860048401525af1801561039657610381575b505061037581604094611763565b82519182526020820152f35b61038c82809261109c565b61021b5780610367565b6040513d84823e3d90fd5b5080fd5b63ef71d09160e01b8352600483fd5b638dc525d160e01b8452600484fd5b94610317565b9650506040863d6040116103ff575b816103e56040938361109c565b810103126103fb5760208651960151955f6102f5565b8380fd5b3d91506103d8565b6040513d86823e3d90fd5b503461021b578060031936011261021b576040517f00000000000000000000000000000000000000000000000000000000000000006001600160a01b03168152602090f35b5061046136611049565b969495939196929092421161060f576104a76104b1976104c4927f00000000000000000000000000000000000000000000000000000000000000009434908a878a6117be565b9781978487611143565b94859033906001600160a01b0316611540565b6001600160a01b0316803b156103fb57604051630d0e30db60e41b815284816004818a865af1801561060457918791869594936105e5575b509161050e602492856020969561193f565b6040516335313c2160e11b81526001600160a01b0391821660048201529586938492165af19182156105d85781926105a0575b5083341161056c575b506101d190604051938493846040919493926060820195825260208201520152565b8334039034821161058c5750906105866101d19233611763565b9061054a565b634e487b7160e01b81526011600452602490fd5b9091506020813d6020116105d0575b816105bc6020938361109c565b810103126105cc5751905f610541565b5f80fd5b3d91506105af565b50604051903d90823e3d90fd5b859250946105f59193949561109c565b6103fb5790858493925f6104fc565b6040513d87823e3d90fd5b630407b05b60e31b8552600485fd5b503461021b5760a036600319011261021b57610638610f3f565b90610641610f55565b610649610f81565b608435926064359290916001600160a01b03610666828489611143565b16918261071a575050509091925061067e83836111e2565b9080600383111561070b5750818060011c600181018091116106f757905b8382106106d65750505b6103e719820191821161058c57506101d1905b604051938493846040919493926060820195825260208201520152565b909250826106e481836111f5565b9081018091116106f75760011c9061069c565b634e487b7160e01b83526011600452602483fd5b91156106a657600191506106a6565b610726929594966112f4565b9261073a8261073586896111e2565b6111f5565b908082116107dc57509060206004939296955b6040516318160ddd60e01b815294859182905afa9283156103965782936107a6575b506101d19361073561078861078f93610735878a6111e2565b94886111e2565b90508082101561079f57506106b9565b90506106b9565b9092506020813d6020116107d4575b816107c26020938361109c565b810103126105cc5751916101d161076f565b3d91506107b5565b955050908160206107f3856107356004968a6111e2565b9561074d565b503461021b57604036600319011261021b576024359067ffffffffffffffff821161021b576101d16101c56108313660048601610f90565b906004356113d7565b50608036600319011261021b5760243567ffffffffffffffff81116103a157610867903690600401610f90565b61086f610f6b565b9060643542116109a157801561098d57610888836110e2565b6001600160a01b037f0000000000000000000000000000000000000000000000000000000000000000811694911684900361097e576108c88282346113d7565b9384515f1981019081116101f8576108e36004359187611103565b511061096f576108f2856110f6565b5186823b1561021b57604051630d0e30db60e41b81529182906004908290865af180156109645761094b575b50906101bf6101c594939261093b886101d1995061018c856110e2565b610944886110f6565b519161193f565b61095687809261109c565b610960575f61091e565b8580fd5b6040513d89823e3d90fd5b6342301c2360e01b8652600486fd5b6320db826760e01b8552600485fd5b634e487b7160e01b84526032600452602484fd5b630407b05b60e31b8452600484fd5b503461021b57606036600319011261021b5760406103756109cf610f3f565b6109d7610f55565b6109df610f81565b916112f4565b503461021b5761012036600319011261021b57610a00610f3f565b610a08610f55565b90610a11610f81565b9160e4356001600160a01b0381169290839003610b245761010435421161060f57610a6a9360248694610a8f610a7f9895602095610a5c60c43560a4356084356064358a87876117be565b9b819b8492988e9585611143565b978893849033906001600160a01b0316611540565b33906001600160a01b0316611540565b6040516335313c2160e11b815260048101919091529485928391906001600160a01b03165af1908115610b185790610ae4575b6101d19150604051938493846040919493926060820195825260208201520152565b506020813d602011610b10575b81610afe6020938361109c565b810103126105cc576101d19051610ac2565b3d9150610af1565b604051903d90823e3d90fd5b8480fd5b503461021b57604036600319011261021b576040610b55610b47610f3f565b610b4f610f55565b906112c5565b82516001600160a01b03928316815291166020820152f35b503461021b57608036600319011261021b576040610375610b8c610f3f565b610b94610f55565b610b9c610f81565b9060643592611213565b503461021b578060031936011261021b576040517f00000000000000000000000000000000000000000000000000000000000000006001600160a01b03168152602090f35b503461021b57606036600319011261021b576020610c1a610c0a610f3f565b610c12610f55565b6101a7610f81565b6040516001600160a01b039091168152f35b50346105cc57610c3b36610fc1565b9593949290954211610def575f198201828111610da9576020610c62610c689285856110d2565b016110e2565b6001600160a01b037f00000000000000000000000000000000000000000000000000000000000000008116949116849003610de0578282610ca8926113d7565b9485515f198101908111610da957610cc09087611103565b5110610dd1578115610dbd57610d1a91610d126001600160a01b03610ce4846110e2565b16610d09610cf1856110e2565b610cfd602087016110e2565b6101a760408801611117565b6101b6896110f6565b3091866115d2565b82515f198101908111610da957610d319084611103565b51813b156105cc575f91602483926040519485938492632e1a7d4d60e01b845260048401525af18015610d9e57610d8b575b5081515f1981019190821161058c57506101d192610d846101c59284611103565b5190611763565b610d9791505f9061109c565b5f5f610d63565b6040513d5f823e3d90fd5b634e487b7160e01b5f52601160045260245ffd5b634e487b7160e01b5f52603260045260245ffd5b6342301c2360e01b5f5260045ffd5b6320db826760e01b5f5260045ffd5b630407b05b60e31b5f5260045ffd5b346105cc576101003660031901126105cc57610e18610f3f565b610e20610f55565b90610e29610f81565b60c4356001600160a01b0381169291908390036105cc5760e4354211610def575f926024610e5a6040938786611143565b6001600160a01b0381169290610e7590606435903386611540565b8351958693849263226bf2d160e21b845260048401525af1928315610d9e575f925f94610f01575b50610ea890826112c5565b506001600160a01b03918216911603610efb575b6084358110610eec5760a4358210610edd5760409182519182526020820152f35b63ef71d09160e01b5f5260045ffd5b638dc525d160e01b5f5260045ffd5b90610ebc565b925092506040823d604011610f37575b81610f1e6040938361109c565b810103126105cc57610ea8602083519301519390610e9d565b3d9150610f11565b600435906001600160a01b03821682036105cc57565b602435906001600160a01b03821682036105cc57565b604435906001600160a01b03821682036105cc57565b6044359081151582036105cc57565b9181601f840112156105cc5782359167ffffffffffffffff83116105cc57602080850194606085020101116105cc57565b60a06003198201126105cc5760043591602435916044359067ffffffffffffffff82116105cc57610ff491600401610f90565b90916064356001600160a01b03811681036105cc579060843590565b60206040818301928281528451809452019201905f5b8181106110335750505090565b8251845260209384019390920191600101611026565b60e09060031901126105cc576004356001600160a01b03811681036105cc579060243580151581036105cc579060443590606435906084359060a4356001600160a01b03811681036105cc579060c43590565b90601f8019910116810190811067ffffffffffffffff8211176110be57604052565b634e487b7160e01b5f52604160045260245ffd5b9190811015610dbd576060020190565b356001600160a01b03811681036105cc5790565b805115610dbd5760200190565b8051821015610dbd5760209160051b010190565b3580151581036105cc5790565b908160209103126105cc57516001600160a01b03811681036105cc5790565b6040516379bc57d560e01b81526001600160a01b039182166004820152911660248201529015156044820152602081806064810103817f00000000000000000000000000000000000000000000000000000000000000006001600160a01b03165afa908115610d9e575f916111b6575090565b6111d8915060203d6020116111db575b6111d0818361109c565b810190611124565b90565b503d6111c6565b81810292918115918404141715610da957565b81156111ff570490565b634e487b7160e01b5f52601260045260245ffd5b92939291906001600160a01b0361122b838386611143565b169283156112b95760049260209492611243926112f4565b939091604051938480926318160ddd60e01b82525afa918215610d9e575f92611283575b506111d89261127d8361073561073594896111e2565b956111e2565b91506020823d6020116112b1575b8161129e6020938361109c565b810103126105cc579051906111d8611267565b3d9150611291565b5050505090505f905f90565b6001600160a01b0382811690821610156112dc5791565b9091565b51906001600160701b03821682036105cc57565b606060049261131761130682856112c5565b50956001600160a01b039285611143565b1660405193848092630240bc6b60e21b82525afa918215610d9e575f905f93611360575b506001600160701b03928316939216916001600160a01b039182169116036112dc5791565b9250506060823d6060116113b7575b8161137c6060938361109c565b810103126105cc5761138d826112e0565b604061139b602085016112e0565b93015163ffffffff8116036105cc576001600160701b0361133b565b3d915061136f565b67ffffffffffffffff81116110be5760051b60200190565b9291908115610de0576001820191828111610da9576113f5836113bf565b92611403604051948561109c565b808452611412601f19916113bf565b013660208501378294611424846110f6565b525f5b8181106114345750505050565b6114826114418286611103565b516114556114508486886110d2565b6110e2565b6114656020610c6286888a6110d2565b9061147c604061147687898b6110d2565b01611117565b926114a2565b906001810191828211610da95761149b60019387611103565b5201611427565b909290916001600160a01b03916114b99185611143565b16918215611531576040516378a051ad60e11b815260048101929092526001600160a01b0316602482015290602090829060449082905afa908115610d9e575f91611502575090565b90506020813d602011611529575b8161151d6020938361109c565b810103126105cc575190565b3d9150611510565b6302d703d160e61b5f5260045ffd5b6040516323b872dd60e01b5f9081526001600160a01b039384166004529290931660245260449390935260209060648180865af19060015f51148216156115b1575b6040525f606052156115915750565b635274afe760e01b5f9081526001600160a01b0391909116600452602490fd5b9060018115166115c957823b15153d15161690611582565b503d5f823e3d90fd5b602093925f92835b8281106115ea5750505050505050565b6115f86114508285856110d2565b9061160888610c628387876110d2565b9161161960406114768488886110d2565b9261162481836112c5565b509160018401808511610da95761163b818a611103565b51936001600160a01b0383811691160361175c575f93955b5f19890191898311610da9578d898b6116ae958a105f1461175157604061147661169e956101a79361169861168c61145084848a6110d2565b97610c6284848a6110d2565b956110d2565b935b6001600160a01b0393611143565b16604051946116bd8c8761109c565b5f86528b8601938a368637823b156105cc5760a45f95918692604051998a978896879463022c0d9f60e01b86526004860152602485015260018060a01b03166044840152608060648401525180918160848501528484015e8181018301849052601f01601f191681010301925af1918215610d9e57600192611741575b50016115da565b5f61174b9161109c565b5f61173a565b505050508b936116a0565b5f95611653565b5f80809381935af13d156117b9573d67ffffffffffffffff81116110be5760405190611799601f8201601f19166020018361109c565b81525f60203d92013e5b156117aa57565b63b12d13eb60e01b5f5260045ffd5b6117a3565b6040516379bc57d560e01b81526001600160a01b038281166004830152838116602483015284151560448301529497959695947f00000000000000000000000000000000000000000000000000000000000000001693929190602081606481885afa908115610d9e575f91611920575b506001600160a01b0316156118b0575b61184893506112f4565b81939115806118a8575b1561185f57505050509091565b61187284610735838998959697986111e2565b9482861161188857505050508110610edd579091565b909295508161073592955061189d94506111e2565b918210610eec579091565b508015611852565b6040516301b5fcad60e51b81526001600160a01b03828116600483015283166024820152831515604482015293602090859060649082905f905af1938415610d9e5761184894611901575b5061183e565b6119199060203d6020116111db576111d0818361109c565b505f6118fb565b611939915060203d6020116111db576111d0818361109c565b5f61182e565b916040519163a9059cbb60e01b5f5260018060a01b031660045260245260205f60448180865af19060015f511482161561197f575b604052156115915750565b9060018115166115c957823b15153d1516169061197456fea26469706673582212203f19accfc7a784941383169bef661dc3841a77aeaa35400a32fad3ea3b44b88e64736f6c634300081b0033","linkReferences":{}},"methodIdentifiers":{"addLiquidity(address,address,bool,uint256,uint256,uint256,uint256,address,uint256)":"5a47ddc3","addLiquidityETH(address,bool,uint256,uint256,uint256,address,uint256)":"b7e0d4c0","factory()":"c45a0155","getAmountOut(uint256,address,address,bool)":"da214231","getAmountsOut(uint256,(address,address,bool)[])":"9881fcb4","getReserves(address,address,bool)":"5e60dab5","poolFor(address,address,bool)":"28eb0b4a","quoteAddLiquidity(address,address,bool,uint256,uint256)":"98a0fb3c","quoteRemoveLiquidity(address,address,bool,uint256)":"4386e63c","removeLiquidity(address,address,bool,uint256,uint256,uint256,address,uint256)":"0dede6c4","removeLiquidityETH(address,bool,uint256,uint256,uint256,address,uint256)":"d7b0e0a5","sortTokens(address,address)":"544caa56","swapExactETHForTokens(uint256,(address,address,bool)[],address,uint256)":"67ffb66a","swapExactTokensForETH(uint256,uint256,(address,address,bool)[],address,uint256)":"18a13086","swapExactTokensForTokens(uint256,uint256,(address,address,bool)[],address,uint256)":"f41766d8","weth()":"3fc8cef3"},"id":105}