{"abi":[{"type":"constructor","inputs":[{"name":"_factory","type":"address","internalType":"address"},{"name":"_weth","type":"address","internalType":"address"}],"stateMutability":"nonpayable"},{"type":"receive","stateMutability":"payable"},{"type":"function","name":"addLiquidity","inputs":[{"name":"tokenA","type":"address","internalType":"address"},{"name":"tokenB","type":"address","internalType":"address"},{"name":"stable","type":"bool","internalType":"bool"},{"name":"amountADesired","type":"uint256","internalType":"uint256"},{"name":"amountBDesired","type":"uint256","internalType":"uint256"},{"name":"amountAMin","type":"uint256","internalType":"uint256"},{"name":"amountBMin","type":"uint256","internalType":"uint256"},{"name":"to","type":"address","internalType":"address"},{"name":"deadline","type":"uint256","internalType":"uint256"}],"outputs":[{"name":"amountA","type":"uint256","internalType":"uint256"},{"name":"amountB","type":"uint256","internalType":"uint256"},{"name":"liquidity","type":"uint256","internalType":"uint256"}],"stateMutability":"nonpayable"},{"type":"function","name":"addLiquidityETH","inputs":[{"name":"token","type":"address","internalType":"address"},{"name":"stable","type":"bool","internalType":"bool"},{"name":"amountTokenDesired","type":"uint256","internalType":"uint256"},{"name":"amountTokenMin","type":"uint256","internalType":"uint256"},{"name":"amountETHMin","type":"uint256","internalType":"uint256"},{"name":"to","type":"address","internalType":"address"},{"name":"deadline","type":"uint256","internalType":"uint256"}],"outputs":[{"name":"amountToken","type":"uint256","internalType":"uint256"},{"name":"amountETH","type":"uint256","internalType":"uint256"},{"name":"liquidity","type":"uint256","internalType":"uint256"}],"stateMutability":"payable"},{"type":"function","name":"factory","inputs":[],"outputs":[{"name":"","type":"address","internalType":"address"}],"stateMutability":"view"},{"type":"function","name":"getAmountOut","inputs":[{"name":"amountIn","type":"uint256","internalType":"uint256"},{"name":"tokenIn","type":"address","internalType":"address"},{"name":"tokenOut","type":"address","internalType":"address"},{"name":"stable","type":"bool","internalType":"bool"}],"outputs":[{"name":"amount","type":"uint256","internalType":"uint256"}],"stateMutability":"view"},{"type":"function","name":"getAmountsOut","inputs":[{"name":"amountIn","type":"uint256","internalType":"uint256"},{"name":"routes","type":"tuple[]","internalType":"struct IRouter.Route[]","components":[{"name":"from","type":"address","internalType":"address"},{"name":"to","type":"address","internalType":"address"},{"name":"stable","type":"bool","internalType":"bool"}]}],"outputs":[{"name":"amounts","type":"uint256[]","internalType":"uint256[]"}],"stateMutability":"view"},{"type":"function","name":"getReserves","inputs":[{"name":"tokenA","type":"address","internalType":"address"},{"name":"tokenB","type":"address","internalType":"address"},{"name":"stable","type":"bool","internalType":"bool"}],"outputs":[{"name":"reserveA","type":"uint256","internalType":"uint256"},{"name":"reserveB","type":"uint256","internalType":"uint256"}],"stateMutability":"view"},{"type":"function","name":"poolFor","inputs":[{"name":"tokenA","type":"address","internalType":"address"},{"name":"tokenB","type":"address","internalType":"address"},{"name":"stable","type":"bool","internalType":"bool"}],"outputs":[{"name":"pool","type":"address","internalType":"address"}],"stateMutability":"view"},{"type":"function","name":"quoteAddLiquidity","inputs":[{"name":"tokenA","type":"address","internalType":"address"},{"name":"tokenB","type":"address","internalType":"address"},{"name":"stable","type":"bool","internalType":"bool"},{"name":"amountADesired","type":"uint256","internalType":"uint256"},{"name":"amountBDesired","type":"uint256","internalType":"uint256"}],"outputs":[{"name":"amountA","type":"uint256","internalType":"uint256"},{"name":"amountB","type":"uint256","internalType":"uint256"},{"name":"liquidity","type":"uint256","internalType":"uint256"}],"stateMutability":"view"},{"type":"function","name":"quoteRemoveLiquidity","inputs":[{"name":"tokenA","type":"address","internalType":"address"},{"name":"tokenB","type":"address","internalType":"address"},{"name":"stable","type":"bool","internalType":"bool"},{"name":"liquidity","type":"uint256","internalType":"uint256"}],"outputs":[{"name":"amountA","type":"uint256","internalType":"uint256"},{"name":"amountB","type":"uint256","internalType":"uint256"}],"stateMutability":"view"},{"type":"function","name":"removeLiquidity","inputs":[{"name":"tokenA","type":"address","internalType":"address"},{"name":"tokenB","type":"address","internalType":"address"},{"name":"stable","type":"bool","internalType":"bool"},{"name":"liquidity","type":"uint256","internalType":"uint256"},{"name":"amountAMin","type":"uint256","internalType":"uint256"},{"name":"amountBMin","type":"uint256","internalType":"uint256"},{"name":"to","type":"address","internalType":"address"},{"name":"deadline","type":"uint256","internalType":"uint256"}],"outputs":[{"name":"amountA","type":"uint256","internalType":"uint256"},{"name":"amountB","type":"uint256","internalType":"uint256"}],"stateMutability":"nonpayable"},{"type":"function","name":"removeLiquidityETH","inputs":[{"name":"token","type":"address","internalType":"address"},{"name":"stable","type":"bool","internalType":"bool"},{"name":"liquidity","type":"uint256","internalType":"uint256"},{"name":"amountTokenMin","type":"uint256","internalType":"uint256"},{"name":"amountETHMin","type":"uint256","internalType":"uint256"},{"name":"to","type":"address","internalType":"address"},{"name":"deadline","type":"uint256","internalType":"uint256"}],"outputs":[{"name":"amountToken","type":"uint256","internalType":"uint256"},{"name":"amountETH","type":"uint256","internalType":"uint256"}],"stateMutability":"nonpayable"},{"type":"function","name":"sortTokens","inputs":[{"name":"tokenA","type":"address","internalType":"address"},{"name":"tokenB","type":"address","internalType":"address"}],"outputs":[{"name":"token0","type":"address","internalType":"address"},{"name":"token1","type":"address","internalType":"address"}],"stateMutability":"pure"},{"type":"function","name":"swapExactETHForTokens","inputs":[{"name":"amountOutMin","type":"uint256","internalType":"uint256"},{"name":"routes","type":"tuple[]","internalType":"struct IRouter.Route[]","components":[{"name":"from","type":"address","internalType":"address"},{"name":"to","type":"address","internalType":"address"},{"name":"stable","type":"bool","internalType":"bool"}]},{"name":"to","type":"address","internalType":"address"},{"name":"deadline","type":"uint256","internalType":"uint256"}],"outputs":[{"name":"amounts","type":"uint256[]","internalType":"uint256[]"}],"stateMutability":"payable"},{"type":"function","name":"swapExactTokensForETH","inputs":[{"name":"amountIn","type":"uint256","internalType":"uint256"},{"name":"amountOutMin","type":"uint256","internalType":"uint256"},{"name":"routes","type":"tuple[]","internalType":"struct IRouter.Route[]","components":[{"name":"from","type":"address","internalType":"address"},{"name":"to","type":"address","internalType":"address"},{"name":"stable","type":"bool","internalType":"bool"}]},{"name":"to","type":"address","internalType":"address"},{"name":"deadline","type":"uint256","internalType":"uint256"}],"outputs":[{"name":"amounts","type":"uint256[]","internalType":"uint256[]"}],"stateMutability":"nonpayable"},{"type":"function","name":"swapExactTokensForTokens","inputs":[{"name":"amountIn","type":"uint256","internalType":"uint256"},{"name":"amountOutMin","type":"uint256","internalType":"uint256"},{"name":"routes","type":"tuple[]","internalType":"struct IRouter.Route[]","components":[{"name":"from","type":"address","internalType":"address"},{"name":"to","type":"address","internalType":"address"},{"name":"stable","type":"bool","internalType":"bool"}]},{"name":"to","type":"address","internalType":"address"},{"name":"deadline","type":"uint256","internalType":"uint256"}],"outputs":[{"name":"amounts","type":"uint256[]","internalType":"uint256[]"}],"stateMutability":"nonpayable"},{"type":"function","name":"weth","inputs":[],"outputs":[{"name":"","type":"address","internalType":"address"}],"stateMutability":"view"},{"type":"function","name":"zapIn","inputs":[{"name":"tokenIn","type":"address","internalType":"address"},{"name":"amountIn","type":"uint256","internalType":"uint256"},{"name":"token0","type":"address","internalType":"address"},{"name":"token1","type":"address","internalType":"address"},{"name":"stable","type":"bool","internalType":"bool"},{"name":"minLpOut","type":"uint256","internalType":"uint256"},{"name":"to","type":"address","internalType":"address"},{"name":"deadline","type":"uint256","internalType":"uint256"}],"outputs":[{"name":"liquidity","type":"uint256","internalType":"uint256"}],"stateMutability":"nonpayable"},{"type":"function","name":"zapOut","inputs":[{"name":"pool","type":"address","internalType":"address"},{"name":"liquidity","type":"uint256","internalType":"uint256"},{"name":"tokenOut","type":"address","internalType":"address"},{"name":"minOut","type":"uint256","internalType":"uint256"},{"name":"to","type":"address","internalType":"address"},{"name":"deadline","type":"uint256","internalType":"uint256"}],"outputs":[{"name":"amountOut","type":"uint256","internalType":"uint256"}],"stateMutability":"nonpayable"},{"type":"error","name":"ETHTransferFailed","inputs":[]},{"type":"error","name":"Expired","inputs":[]},{"type":"error","name":"InsufficientAAmount","inputs":[]},{"type":"error","name":"InsufficientBAmount","inputs":[]},{"type":"error","name":"InsufficientInputAmount","inputs":[]},{"type":"error","name":"InsufficientOutputAmount","inputs":[]},{"type":"error","name":"InvalidAmountIn","inputs":[]},{"type":"error","name":"InvalidPath","inputs":[]},{"type":"error","name":"OnlyWETH","inputs":[]},{"type":"error","name":"PoolDoesNotExist","inputs":[]},{"type":"error","name":"RouteNotFound","inputs":[]},{"type":"error","name":"SafeERC20FailedOperation","inputs":[{"name":"token","type":"address","internalType":"address"}]}],"bytecode":{"object":"0x60c0346100aa57601f61254538819003918201601f19168301916001600160401b038311848410176100ae5780849260409485528339810103126100aa57610052602061004b836100c2565b92016100c2565b9060805260a05260405161246e90816100d7823960805181818161043301528181611c2301526122ce015260a051818181601a015281816102a60152818161048801528181610d0f0152818161101b01526110d20152f35b5f80fd5b634e487b7160e01b5f52604160045260245ffd5b51906001600160a01b03821682036100aa5756fe60806040526004361015610059575b3615610018575f80fd5b7f00000000000000000000000000000000000000000000000000000000000000006001600160a01b0316330361004a57005b6301f180c960e01b5f5260045ffd5b5f5f3560e01c80622ba7ba1461135c5780630dede6c41461124057806318a130861461108b57806328eb0b4a1461104a5780633fc8cef3146110055780634386e63c14610fcc578063544caa5614610f875780635a47ddc314610e485780635e60dab514610e1357806367ffb66a14610cb757806369b93690146108495780639881fcb41461080857806398a0fb3c1461062d578063b7e0d4c014610462578063c45a01551461041d578063d7b0e0a51461027b578063da214231146102335763f41766d814610129575061000e565b3461023057610137366119a2565b94909394929192421161022157828261014f92611e62565b9384515f19810190811161020d576101679086611bab565b51106101fe5781156101ea576101e6946101da939291906101d4906101c26001600160a01b0361019685611b8a565b16916101a185611b8a565b906101ae60208701611b8a565b90506101bc60408701611bbf565b91611beb565b6101cb88611b9e565b51913390611fda565b846120c4565b604051918291826119f1565b0390f35b634e487b7160e01b85526032600452602485fd5b6342301c2360e01b8552600485fd5b634e487b7160e01b87526011600452602487fd5b630407b05b60e31b8652600486fd5b80fd5b50346102305760803660031901126102305761024d61194c565b610255611920565b90606435928315158403610230576020610273858585600435611f3c565b604051908152f35b50346102305761028a36611a2a565b96959294939096421161022157906040869493926102e06102cd7f0000000000000000000000000000000000000000000000000000000000000000968787611beb565b6001600160a01b03811692903384611fda565b602482518099819363226bf2d160e21b83523060048401525af195861561041257849085976103de575b506103158484611d50565b506001600160a01b03938416931683036103d85795945b86106103c95784106103ba5784866103439261206c565b6001600160a01b0316803b156103b657818091602460405180948193632e1a7d4d60e01b83528860048401525af180156103ab57610396575b505061038a8160409461223e565b82519182526020820152f35b6103a1828092611a9b565b610230578061037c565b6040513d84823e3d90fd5b5080fd5b63ef71d09160e01b8352600483fd5b638dc525d160e01b8452600484fd5b9461032c565b905061040391965060403d60401161040b575b6103fb8183611a9b565b810190611b50565b95905f61030a565b503d6103f1565b6040513d86823e3d90fd5b50346102305780600319360112610230576040517f00000000000000000000000000000000000000000000000000000000000000006001600160a01b03168152602090f35b5061046c36611a2a565b969495939196929092421161061e576104b26104bc976104cf927f00000000000000000000000000000000000000000000000000000000000000009434908a878a612299565b9781978487611beb565b94859033906001600160a01b0316611fda565b6001600160a01b0316803b1561060f57604051630d0e30db60e41b815284816004818a865af1801561061357918791869594936105f0575b5091610519602492856020969561206c565b6040516335313c2160e11b81526001600160a01b0391821660048201529586938492165af19182156105e35781926105ab575b50833411610577575b506101e690604051938493846040919493926060820195825260208201520152565b833403903482116105975750906105916101e6923361223e565b90610555565b634e487b7160e01b81526011600452602490fd5b9091506020813d6020116105db575b816105c760209383611a9b565b810103126105d75751905f61054c565b5f80fd5b3d91506105ba565b50604051903d90823e3d90fd5b8592509461060091939495611a9b565b61060f5790858493925f610507565b8380fd5b6040513d87823e3d90fd5b630407b05b60e31b8552600485fd5b50346102305760a03660031901126102305761064761190a565b9061065061194c565b610658611962565b608435926064359290916001600160a01b03610675828489611beb565b169182610729575050509091925061068d8383611c77565b9080600383111561071a5750818060011c6001810180911161070657905b8382106106e55750505b6103e719820191821161059757506101e6905b604051938493846040919493926060820195825260208201520152565b909250826106f38183611a7d565b9081018091116107065760011c906106ab565b634e487b7160e01b83526011600452602483fd5b91156106b557600191506106b5565b61073592959496611d7f565b92610749826107448689611c77565b611a7d565b908082116107eb57509060206004939296955b6040516318160ddd60e01b815294859182905afa9283156103ab5782936107b5575b506101e69361074461079761079e93610744878a611c77565b9488611c77565b9050808210156107ae57506106c8565b90506106c8565b9092506020813d6020116107e3575b816107d160209383611a9b565b810103126105d75751916101e661077e565b3d91506107c4565b95505090816020610802856107446004968a611c77565b9561075c565b5034610230576040366003190112610230576024359067ffffffffffffffff8211610230576101e66101da6108403660048601611971565b90600435611e62565b50346102305760c03660031901126102305761086361190a565b9060243591610870611920565b608435939091906001600160a01b038516850361060f5760a4354211610ca8578015610c99576001600160a01b038216906108ad90833384611fda565b6040805163226bf2d160e21b815230600482015292908360248188865af19081156106135785938692610c75575b50604051630dfe168160e01b8152602081600481875afa908115610c6a578791610c4b575b5060405163d21220a760e01b815294602086600481885afa958615610c40578896610c0f575b506001600160a01b039687169682168781148080610c06575b15610ae0575050505092816109626020936109939660018060a01b03851661206c565b6040516378a051ad60e11b815260048101919091526001600160a01b03909116602482015292839081906044820190565b0381845afa918215610412578492610aac575b50604051916109b6602084611a9b565b8483525f366020850137813b15610aa8579184916109ed938360405180968195829463022c0d9f60e01b8452309060048501611af5565b03925af18015610a9d57908391610a88575b50505b6040516370a0823160e01b815230600482015291602083602481855afa9283156105e3578193610a54575b506064358310610a455750816020936102739261206c565b6342301c2360e01b8152600490fd5b9092506020813d602011610a80575b81610a7060209383611a9b565b810103126105d75751915f610a2d565b3d9150610a63565b81610a9291611a9b565b6103b657815f6109ff565b6040513d85823e3d90fd5b8480fd5b9091506020813d602011610ad8575b81610ac860209383611a9b565b810103126105d75751905f6109a6565b3d9150610abb565b9296919450916001600160a01b039091168714908180610bfd575b15610bd05750509161096281610b14969360209561206c565b0381845afa918215610412578492610b9c575b5060405191610b37602084611a9b565b8483525f366020850137813b15610aa857918491610b6e938360405180968195829463022c0d9f60e01b8452309060048501611b26565b03925af18015610a9d57908391610b87575b5050610a02565b81610b9191611a9b565b6103b657815f610b80565b9091506020813d602011610bc8575b81610bb860209383611a9b565b810103126105d75751905f610b27565b3d9150610bab565b94509450505050159081610bf4575b5015610a02576320db826760e01b8252600482fd5b9050155f610bdf565b50841515610afb565b5085151561093f565b610c3291965060203d602011610c39575b610c2a8183611a9b565b810190611bcc565b945f610926565b503d610c20565b6040513d8a823e3d90fd5b610c64915060203d602011610c3957610c2a8183611a9b565b5f610900565b6040513d89823e3d90fd5b909350610c91915060403d60401161040b576103fb8183611a9b565b90925f6108db565b63098fb56160e01b8452600484fd5b630407b05b60e31b8452600484fd5b5060803660031901126102305760243567ffffffffffffffff81116103b657610ce4903690600401611971565b610cec611920565b906064354211610ca8578015610dff57610d0583611b8a565b6001600160a01b037f00000000000000000000000000000000000000000000000000000000000000008116949116849003610df057610d45828234611e62565b9384515f19810190811161020d57610d606004359187611bab565b5110610de157610d6f85611b9e565b5186823b1561023057604051630d0e30db60e41b81529182906004908290865af18015610c6a57610dc8575b50906101d46101da949392610db8886101e699506101a185611b8a565b610dc188611b9e565b519161206c565b610dd3878092611a9b565b610ddd575f610d9b565b8580fd5b6342301c2360e01b8652600486fd5b6320db826760e01b8552600485fd5b634e487b7160e01b84526032600452602484fd5b503461023057606036600319011261023057604061038a610e3261190a565b610e3a61194c565b610e42611962565b91611d7f565b50346102305761012036600319011261023057610e6361190a565b610e6b61194c565b90610e74611962565b9160e4356001600160a01b0381169290839003610aa85761010435421161061e57610ecd9360248694610ef2610ee29895602095610ebf60c43560a4356084356064358a8787612299565b9b819b8492988e9585611beb565b978893849033906001600160a01b0316611fda565b33906001600160a01b0316611fda565b6040516335313c2160e11b815260048101919091529485928391906001600160a01b03165af1908115610f7b5790610f47575b6101e69150604051938493846040919493926060820195825260208201520152565b506020813d602011610f73575b81610f6160209383611a9b565b810103126105d7576101e69051610f25565b3d9150610f54565b604051903d90823e3d90fd5b5034610230576040366003190112610230576040610fb4610fa661190a565b610fae61194c565b90611d50565b82516001600160a01b03928316815291166020820152f35b503461023057608036600319011261023057604061038a610feb61190a565b610ff361194c565b610ffb611962565b9060643592611c9e565b50346102305780600319360112610230576040517f00000000000000000000000000000000000000000000000000000000000000006001600160a01b03168152602090f35b503461023057606036600319011261023057602061107961106961190a565b61107161194c565b6101bc611962565b6040516001600160a01b039091168152f35b50346102305761109a366119a2565b959394929190954211610ca8575f19810181811161122c5760206110c26110c8928486611b66565b01611b8a565b6001600160a01b037f00000000000000000000000000000000000000000000000000000000000000008116949116849003610df057818361110892611e62565b9485515f198101908111611218576111209087611bab565b5110611209578015610dff5761117b91906111736001600160a01b0361114584611b8a565b1661116a61115285611b8a565b61115e60208701611b8a565b6101bc60408801611bbf565b6101cb89611b9e565b3091866120c4565b82515f198101908111610706576111929084611bab565b51813b15611205578291602483926040519485938492632e1a7d4d60e01b845260048401525af180156103ab579082916111f0575b505081515f1981019190821161059757506101e6926111e96101da9284611bab565b519061223e565b816111fa91611a9b565b61023057805f6111c7565b8280fd5b6342301c2360e01b8452600484fd5b634e487b7160e01b86526011600452602486fd5b634e487b7160e01b85526011600452602485fd5b5034610230576101003660031901126102305761125b61190a565b61126361194c565b9061126c611962565b611274611936565b9060e435421161061e5782916024611290604093878997611beb565b6001600160a01b03811692906112ab90606435903386611fda565b835163226bf2d160e21b81526001600160a01b0390911660048201529485928391905af19283156104125784928594611335575b506112ea9082611d50565b506001600160a01b0391821691160361133057905b60843582106113215760a43581106103ba576040809350519182526020820152f35b638dc525d160e01b8352600483fd5b6112ff565b6113549194506112ea935060403d60401161040b576103fb8183611a9b565b9390926112df565b50346105d7576101003660031901126105d75761137761190a565b9060243591611384611920565b6064356001600160a01b038116928382036105d7576084359283151584036105d7576113ae611936565b9160e43542116118fb5787156118ec576001600160a01b0316936113df906113d889303389611fda565b8483611beb565b936001600160a01b0385169384156118dd576001600160a01b03831698828a14928315908990826118d2575b50506118825760011c911561177a57508061168b575b50505b6040516370a0823160e01b8152306004820152926020846024818a5afa93841561168057869461164c575b506040516370a0823160e01b815230600482015293602085602481895afa948515610c6a57908794939291859661160e575b50602094958261149861149e93602496958d61206c565b8861206c565b6040516335313c2160e11b81526001600160a01b0390911660048201529586928391905af19283156105e35781936115da575b5060a4358310610a45576040516370a0823160e01b815230600482015293602085602481845afa9485156103ab5782956115a6575b506040516370a0823160e01b815230600482015294602086602481875afa928315610f7b5792611571575b602095508061155f575b50508061154d575b5050604051908152f35b61155891339061206c565b5f80611543565b61156a91339061206c565b5f8061153b565b91506020853d60201161159e575b8161158c60209383611a9b565b810103126105d7576020945191611531565b3d915061157f565b9094506020813d6020116115d2575b816115c260209383611a9b565b810103126105d75751935f611506565b3d91506115b5565b9092506020813d602011611606575b816115f660209383611a9b565b810103126105d75751915f6114d1565b3d91506115e9565b95509350906020853d602011611644575b8161162c60209383611a9b565b810103126105d757935193869390919061149e611481565b3d915061161f565b9093506020813d602011611678575b8161166860209383611a9b565b810103126105d75751925f61144f565b3d915061165b565b6040513d88823e3d90fd5b6040516378a051ad60e11b8152600481018290526001600160a01b03929092166024830152602082604481875afa918215610c6a578792611744575b506116d390858961206c565b604051906116e2602083611a9b565b8682525f366020840137833b156117405760405163022c0d9f60e01b8152918791839182916117179190309060048501611b26565b038183875af180156116805790869115611421578161173591611a9b565b610aa857845f611421565b8680fd5b9091506020813d602011611772575b8161176060209383611a9b565b810103126105d75751906116d36116c7565b3d9150611753565b915080611789575b5050611424565b6040516378a051ad60e11b8152600481018290526001600160a01b03929092166024830152602082604481875afa918215611841575f9261184c575b506117d190858761206c565b604051906117e0602083611a9b565b5f808352366020840137833b156105d75760405163022c0d9f60e01b8152915f91839182916118159190309060048501611af5565b038183875af180156118415761182c575b80611782565b6118399195505f90611a9b565b5f935f611826565b6040513d5f823e3d90fd5b9091506020813d60201161187a575b8161186860209383611a9b565b810103126105d75751906117d16117c5565b3d915061185b565b60405162461bcd60e51b815260206004820152602260248201527f5a61702066726f6d20746869726420746f6b656e206e6f7420737570706f7274604482015261195960f21b6064820152608490fd5b14159050885f61140b565b6302721e1f60e61b5f5260045ffd5b63098fb56160e01b5f5260045ffd5b630407b05b60e31b5f5260045ffd5b600435906001600160a01b03821682036105d757565b604435906001600160a01b03821682036105d757565b60c435906001600160a01b03821682036105d757565b602435906001600160a01b03821682036105d757565b6044359081151582036105d757565b9181601f840112156105d75782359167ffffffffffffffff83116105d757602080850194606085020101116105d757565b60a06003198201126105d75760043591602435916044359067ffffffffffffffff82116105d7576119d591600401611971565b90916064356001600160a01b03811681036105d7579060843590565b60206040818301928281528451809452019201905f5b818110611a145750505090565b8251845260209384019390920191600101611a07565b60e09060031901126105d7576004356001600160a01b03811681036105d7579060243580151581036105d7579060443590606435906084359060a4356001600160a01b03811681036105d7579060c43590565b8115611a87570490565b634e487b7160e01b5f52601260045260245ffd5b90601f8019910116810190811067ffffffffffffffff821117611abd57604052565b634e487b7160e01b5f52604160045260245ffd5b805180835260209291819084018484015e5f828201840152601f01601f1916010190565b9081525f60208201526001600160a01b039091166040820152608060608201819052611b2392910190611ad1565b90565b611b2393926080925f8352602083015260018060a01b031660408201528160608201520190611ad1565b91908260409103126105d7576020825192015190565b9190811015611b76576060020190565b634e487b7160e01b5f52603260045260245ffd5b356001600160a01b03811681036105d75790565b805115611b765760200190565b8051821015611b765760209160051b010190565b3580151581036105d75790565b908160209103126105d757516001600160a01b03811681036105d75790565b6040516379bc57d560e01b81526001600160a01b039182166004820152911660248201529015156044820152602081806064810103817f00000000000000000000000000000000000000000000000000000000000000006001600160a01b03165afa908115611841575f91611c5e575090565b611b23915060203d602011610c3957610c2a8183611a9b565b81810292918115918404141715611c8a57565b634e487b7160e01b5f52601160045260245ffd5b92939291906001600160a01b03611cb6838386611beb565b16928315611d445760049260209492611cce92611d7f565b939091604051938480926318160ddd60e01b82525afa918215611841575f92611d0e575b50611b2392611d08836107446107449489611c77565b95611c77565b91506020823d602011611d3c575b81611d2960209383611a9b565b810103126105d757905190611b23611cf2565b3d9150611d1c565b5050505090505f905f90565b6001600160a01b038281169082161015611d675791565b9091565b51906001600160701b03821682036105d757565b6060600492611da2611d918285611d50565b50956001600160a01b039285611beb565b1660405193848092630240bc6b60e21b82525afa918215611841575f905f93611deb575b506001600160701b03928316939216916001600160a01b03918216911603611d675791565b9250506060823d606011611e42575b81611e0760609383611a9b565b810103126105d757611e1882611d6b565b6040611e2660208501611d6b565b93015163ffffffff8116036105d7576001600160701b03611dc6565b3d9150611dfa565b67ffffffffffffffff8111611abd5760051b60200190565b9291908115611f2d576001820191828111611c8a57611e8083611e4a565b92611e8e6040519485611a9b565b808452611e9d601f1991611e4a565b013660208501378294611eaf84611b9e565b525f5b818110611ebf5750505050565b611f0d611ecc8286611bab565b51611ee0611edb848688611b66565b611b8a565b611ef060206110c286888a611b66565b90611f076040611f0187898b611b66565b01611bbf565b92611f3c565b906001810191828211611c8a57611f2660019387611bab565b5201611eb2565b6320db826760e01b5f5260045ffd5b909290916001600160a01b0391611f539185611beb565b16918215611fcb576040516378a051ad60e11b815260048101929092526001600160a01b0316602482015290602090829060449082905afa908115611841575f91611f9c575090565b90506020813d602011611fc3575b81611fb760209383611a9b565b810103126105d7575190565b3d9150611faa565b6302d703d160e61b5f5260045ffd5b6040516323b872dd60e01b5f9081526001600160a01b039384166004529290931660245260449390935260209060648180865af19060015f511482161561204b575b6040525f6060521561202b5750565b635274afe760e01b5f9081526001600160a01b0391909116600452602490fd5b90600181151661206357823b15153d1516169061201c565b503d5f823e3d90fd5b916040519163a9059cbb60e01b5f5260018060a01b031660045260245260205f60448180865af19060015f51148216156120ac575b6040521561202b5750565b90600181151661206357823b15153d151616906120a1565b60209392915f90815b8481106120dd5750505050505050565b6120eb611edb828785611b66565b906120fb886110c2838987611b66565b9161210c6040611f01848a88611b66565b926121178183611d50565b509160018401808511611c8a5761212e818a611bab565b51936001600160a01b03838116911603612237575f93955b5f198b01918b8311611c8a578d898d6121a1958a105f1461222c576040611f01612191956101bc9361218b61217f611edb84848a611b66565b976110c284848a611b66565b95611b66565b935b6001600160a01b0393611beb565b16604051946121b08c87611a9b565b5f865287368d880137813b156105d7575f80946122026040519889968795869463022c0d9f60e01b86526004860152602485015260018060a01b03166044840152608060648401526084830190611ad1565b03925af19182156118415760019261221c575b50016120cd565b5f61222691611a9b565b5f612215565b505050508b93612193565b5f95612146565b5f80809381935af13d15612294573d67ffffffffffffffff8111611abd5760405190612274601f8201601f191660200183611a9b565b81525f60203d92013e5b1561228557565b63b12d13eb60e01b5f5260045ffd5b61227e565b6040516379bc57d560e01b81526001600160a01b038281166004830152838116602483015284151560448301529497959695947f00000000000000000000000000000000000000000000000000000000000000001693929190602081606481885afa908115611841575f91612419575b506001600160a01b0316156123a9575b6123239350611d7f565b81939115806123a1575b1561233a57505050509091565b61234d8461074483899895969798611c77565b9482861161237257505050508110612363579091565b63ef71d09160e01b5f5260045ffd5b90929550816107449295506123879450611c77565b918210612392579091565b638dc525d160e01b5f5260045ffd5b50801561232d565b6040516301b5fcad60e51b81526001600160a01b03828116600483015283166024820152831515604482015293602090859060649082905f905af193841561184157612323946123fa575b50612319565b6124129060203d602011610c3957610c2a8183611a9b565b505f6123f4565b612432915060203d602011610c3957610c2a8183611a9b565b5f61230956fea26469706673582212208f200d853353e6bd18ca1cd0775338adf32e9da98a674af5e636122b2d7b4f1464736f6c634300081b0033","linkReferences":{}},"methodIdentifiers":{"addLiquidity(address,address,bool,uint256,uint256,uint256,uint256,address,uint256)":"5a47ddc3","addLiquidityETH(address,bool,uint256,uint256,uint256,address,uint256)":"b7e0d4c0","factory()":"c45a0155","getAmountOut(uint256,address,address,bool)":"da214231","getAmountsOut(uint256,(address,address,bool)[])":"9881fcb4","getReserves(address,address,bool)":"5e60dab5","poolFor(address,address,bool)":"28eb0b4a","quoteAddLiquidity(address,address,bool,uint256,uint256)":"98a0fb3c","quoteRemoveLiquidity(address,address,bool,uint256)":"4386e63c","removeLiquidity(address,address,bool,uint256,uint256,uint256,address,uint256)":"0dede6c4","removeLiquidityETH(address,bool,uint256,uint256,uint256,address,uint256)":"d7b0e0a5","sortTokens(address,address)":"544caa56","swapExactETHForTokens(uint256,(address,address,bool)[],address,uint256)":"67ffb66a","swapExactTokensForETH(uint256,uint256,(address,address,bool)[],address,uint256)":"18a13086","swapExactTokensForTokens(uint256,uint256,(address,address,bool)[],address,uint256)":"f41766d8","weth()":"3fc8cef3","zapIn(address,uint256,address,address,bool,uint256,address,uint256)":"002ba7ba","zapOut(address,uint256,address,uint256,address,uint256)":"69b93690"},"id":107}