{"abi":[{"type":"constructor","inputs":[{"name":"_voter","type":"address","internalType":"address"},{"name":"_ve","type":"address","internalType":"address"},{"name":"_rewardsDistributor","type":"address","internalType":"address"}],"stateMutability":"nonpayable"},{"type":"function","name":"EMISSION","inputs":[],"outputs":[{"name":"","type":"uint256","internalType":"uint256"}],"stateMutability":"view"},{"type":"function","name":"TAIL_BASE","inputs":[],"outputs":[{"name":"","type":"uint256","internalType":"uint256"}],"stateMutability":"view"},{"type":"function","name":"WEEK","inputs":[],"outputs":[{"name":"","type":"uint256","internalType":"uint256"}],"stateMutability":"view"},{"type":"function","name":"acceptTeam","inputs":[],"outputs":[],"stateMutability":"nonpayable"},{"type":"function","name":"activePeriod","inputs":[],"outputs":[{"name":"","type":"uint256","internalType":"uint256"}],"stateMutability":"view"},{"type":"function","name":"calculateEmission","inputs":[],"outputs":[{"name":"","type":"uint256","internalType":"uint256"}],"stateMutability":"view"},{"type":"function","name":"circulatingSupply","inputs":[],"outputs":[{"name":"","type":"uint256","internalType":"uint256"}],"stateMutability":"view"},{"type":"function","name":"isFirstMint","inputs":[],"outputs":[{"name":"","type":"bool","internalType":"bool"}],"stateMutability":"view"},{"type":"function","name":"nudge","inputs":[],"outputs":[],"stateMutability":"nonpayable"},{"type":"function","name":"pendingTeam","inputs":[],"outputs":[{"name":"","type":"address","internalType":"address"}],"stateMutability":"view"},{"type":"function","name":"rewardsDistributor","inputs":[],"outputs":[{"name":"","type":"address","internalType":"address"}],"stateMutability":"view"},{"type":"function","name":"setRewardsDistributor","inputs":[{"name":"_rewardsDistributor","type":"address","internalType":"address"}],"outputs":[],"stateMutability":"nonpayable"},{"type":"function","name":"setTailEmissionRate","inputs":[{"name":"_rate","type":"uint256","internalType":"uint256"}],"outputs":[],"stateMutability":"nonpayable"},{"type":"function","name":"setTeam","inputs":[{"name":"_team","type":"address","internalType":"address"}],"outputs":[],"stateMutability":"nonpayable"},{"type":"function","name":"tailEmissionRate","inputs":[],"outputs":[{"name":"","type":"uint256","internalType":"uint256"}],"stateMutability":"view"},{"type":"function","name":"team","inputs":[],"outputs":[{"name":"","type":"address","internalType":"address"}],"stateMutability":"view"},{"type":"function","name":"token","inputs":[],"outputs":[{"name":"","type":"address","internalType":"address"}],"stateMutability":"view"},{"type":"function","name":"updatePeriod","inputs":[],"outputs":[{"name":"","type":"uint256","internalType":"uint256"}],"stateMutability":"nonpayable"},{"type":"function","name":"ve","inputs":[],"outputs":[{"name":"","type":"address","internalType":"address"}],"stateMutability":"view"},{"type":"function","name":"voter","inputs":[],"outputs":[{"name":"","type":"address","internalType":"address"}],"stateMutability":"view"},{"type":"function","name":"weekly","inputs":[],"outputs":[{"name":"","type":"uint256","internalType":"uint256"}],"stateMutability":"view"},{"type":"event","name":"AcceptTeam","inputs":[{"name":"team","type":"address","indexed":true,"internalType":"address"}],"anonymous":false},{"type":"event","name":"Mint","inputs":[{"name":"sender","type":"address","indexed":true,"internalType":"address"},{"name":"weekly","type":"uint256","indexed":false,"internalType":"uint256"},{"name":"circSupply","type":"uint256","indexed":false,"internalType":"uint256"},{"name":"growth","type":"uint256","indexed":false,"internalType":"uint256"}],"anonymous":false},{"type":"event","name":"SetTeam","inputs":[{"name":"team","type":"address","indexed":true,"internalType":"address"}],"anonymous":false},{"type":"error","name":"AlreadyNudged","inputs":[]},{"type":"error","name":"NotPendingTeam","inputs":[]},{"type":"error","name":"NotTeam","inputs":[]},{"type":"error","name":"NotVoter","inputs":[]},{"type":"error","name":"TooEarlyToMint","inputs":[]}],"bytecode":{"object":"0x60e0806040523461016957606081610b25803803809161001f8285610180565b83398101031261016957610032816101b7565b9061004b6040610044602084016101b7565b92016101b7565b60026005556006805460ff1916600117905560405163f7c618c160e01b81529092906020816004816001600160a01b0386165afa908115610175575f91610137575b5060805260a05260c0525f80546001600160a01b03929092166001600160a01b03199283161790556001805433921691909117905562093a80428190048082029181830414901517156101235760045560405161095990816101cc823960805181818161011a01528181610302015261080c015260a05181818161036f0152610645015260c0518181816106cd015261085a0152f35b634e487b7160e01b5f52601160045260245ffd5b90506020813d60201161016d575b8161015260209383610180565b8101031261016957610163906101b7565b5f61008d565b5f80fd5b3d9150610145565b6040513d5f823e3d90fd5b601f909101601f19168101906001600160401b038211908210176101a357604052565b634e487b7160e01b5f52604160045260245ffd5b51906001600160a01b03821682036101695756fe6080806040526004361015610012575f80fd5b5f905f3560e01c908163090adeca146107a757508063095cf5c6146107535780630a441f7b1461073657806318d8d9ec146106fc5780631f850716146106b857806326cfc17b1461069b5780633f2a55401461067457806346c96aac1461063057806359d46ffc1461060857806385f2aef2146105e05780639008a642146105755780639358928b1461055b5780639ba6f9761461053e578063a18cb95614610522578063a83627de14610284578063a9abf7ec14610261578063aa8754e41461023e578063b5cc143a146101c8578063d1f5c33b1461016a578063f4359ce51461014c5763fc0c546a14610105575f80fd5b346101495780600319360112610149576040517f00000000000000000000000000000000000000000000000000000000000000006001600160a01b03168152602090f35b80fd5b5034610149578060031936011261014957602060405162093a808152f35b5034610149576020366003190112610149576004356001600160a01b038116908190036101c4576001546001600160a01b031633036101b55781546001600160a01b03191617815580f35b633a7cfa5d60e21b8252600482fd5b5080fd5b50346101495780600319360112610149576002546001600160a01b038116903382900361022f57600180546001600160a01b03199081168417909155166002557fe25466fe8250322bee73bc230e10775fe0da57be723ebdabfdc8b62b4ba0d10c8280a280f35b63071110c760e51b8352600483fd5b50346101495780600319360112610149576020610259610903565b604051908152f35b5034610149578060031936011261014957602060ff600654166040519015158152f35b50346104ca575f3660031901126104ca5760045462093a80810180821161050e574210156102b8575b602090604051908152f35b5062093a80420462093a8081029080820462093a80149015171561050e578060045560065460ff81165f146104ce5760ff19166006556a0c685fa11e01ec6f0000005b60038190557f00000000000000000000000000000000000000000000000000000000000000006001600160a01b0316803b156104ca576040516340c10f1960e01b8152306004820152602481018390525f8160448183865af180156104bf576104aa575b5060405163095ea7b360e01b81527f00000000000000000000000000000000000000000000000000000000000000006001600160a01b03811660048301526024820184905285929091906020908290604490829087905af1801561049f57610468575b506001600160a01b0316803b156101c4578190602460405180948193633c6b16ab60e01b83528760048401525af1801561045d57610444575b50602092506104086107f7565b90604051918183528483015260408201527fb4c03061fb5b7fed76389d5af8f2e0ddb09f8c70d1333abbb62582835e10accb60603392a26102ad565b61044f8480926107c1565b61045957826103fb565b8280fd5b6040513d86823e3d90fd5b6020813d602011610497575b81610481602093836107c1565b81010312610459575180151581146103c2578280fd5b3d9150610474565b6040513d85823e3d90fd5b6104b79194505f906107c1565b5f925f61035f565b6040513d5f823e3d90fd5b5f80fd5b506104d7610903565b6104df6107f7565b6005549081810291818304149015171561050e576103e89004808210610506575b506102fb565b90505f610500565b634e487b7160e01b5f52601160045260245ffd5b346104ca575f3660031901126104ca5760206040516103de8152f35b346104ca575f3660031901126104ca576020600554604051908152f35b346104ca575f3660031901126104ca5760206102596107f7565b346104ca575f3660031901126104ca576004541515806105d3575b6105c45762093a80420462093a8081029080820462093a80149015171561050e5762093a7f19810190811161050e57600455005b63b292ec6560e01b5f5260045ffd5b5060ff6006541615610590565b346104ca575f3660031901126104ca576001546040516001600160a01b039091168152602090f35b346104ca575f3660031901126104ca576002546040516001600160a01b039091168152602090f35b346104ca575f3660031901126104ca576040517f00000000000000000000000000000000000000000000000000000000000000006001600160a01b03168152602090f35b346104ca575f3660031901126104ca575f546040516001600160a01b039091168152602090f35b346104ca575f3660031901126104ca576020600354604051908152f35b346104ca575f3660031901126104ca576040517f00000000000000000000000000000000000000000000000000000000000000006001600160a01b03168152602090f35b346104ca5760203660031901126104ca576001546001600160a01b0316330361072757600435600555005b633a7cfa5d60e21b5f5260045ffd5b346104ca575f3660031901126104ca576020600454604051908152f35b346104ca5760203660031901126104ca576004356001600160a01b038116908190036104ca576001546001600160a01b03163303610727576bffffffffffffffffffffffff60a01b60025416176002555f80f35b346104ca575f3660031901126104ca57806103e860209252f35b90601f8019910116810190811067ffffffffffffffff8211176107e357604052565b634e487b7160e01b5f52604160045260245ffd5b6040516318160ddd60e01b81526020816004817f00000000000000000000000000000000000000000000000000000000000000006001600160a01b03165afa9081156104bf575f916108d1575b5060405163023fe4d560e11b81526020816004817f00000000000000000000000000000000000000000000000000000000000000006001600160a01b03165afa9081156104bf575f9161089f575b50810390811161050e5790565b90506020813d6020116108c9575b816108ba602093836107c1565b810103126104ca57515f610892565b3d91506108ad565b90506020813d6020116108fb575b816108ec602093836107c1565b810103126104ca57515f610844565b3d91506108df565b6003546103de8102908082046103de149015171561050e576103e890049056fea2646970667358221220f1f46976e0865116f41c8b81761209156729a735a22be99b701419c799560cdd64736f6c634300081b0033","linkReferences":{}},"methodIdentifiers":{"EMISSION()":"a18cb956","TAIL_BASE()":"090adeca","WEEK()":"f4359ce5","acceptTeam()":"b5cc143a","activePeriod()":"0a441f7b","calculateEmission()":"aa8754e4","circulatingSupply()":"9358928b","isFirstMint()":"a9abf7ec","nudge()":"9008a642","pendingTeam()":"59d46ffc","rewardsDistributor()":"3f2a5540","setRewardsDistributor(address)":"d1f5c33b","setTailEmissionRate(uint256)":"18d8d9ec","setTeam(address)":"095cf5c6","tailEmissionRate()":"9ba6f976","team()":"85f2aef2","token()":"fc0c546a","updatePeriod()":"a83627de","ve()":"1f850716","voter()":"46c96aac","weekly()":"26cfc17b"},"id":84}