{"abi":[{"type":"constructor","inputs":[],"stateMutability":"nonpayable"},{"type":"function","name":"MAXTIME","inputs":[],"outputs":[{"name":"","type":"uint256","internalType":"uint256"}],"stateMutability":"view"},{"type":"function","name":"approve","inputs":[{"name":"to","type":"address","internalType":"address"},{"name":"tokenId","type":"uint256","internalType":"uint256"}],"outputs":[],"stateMutability":"nonpayable"},{"type":"function","name":"balanceOf","inputs":[{"name":"owner","type":"address","internalType":"address"}],"outputs":[{"name":"","type":"uint256","internalType":"uint256"}],"stateMutability":"view"},{"type":"function","name":"balanceOfNFT","inputs":[{"name":"_tokenId","type":"uint256","internalType":"uint256"}],"outputs":[{"name":"","type":"uint256","internalType":"uint256"}],"stateMutability":"view"},{"type":"function","name":"balanceOfNFTAt","inputs":[{"name":"_tokenId","type":"uint256","internalType":"uint256"},{"name":"_t","type":"uint256","internalType":"uint256"}],"outputs":[{"name":"","type":"uint256","internalType":"uint256"}],"stateMutability":"view"},{"type":"function","name":"createLock","inputs":[{"name":"_value","type":"uint256","internalType":"uint256"},{"name":"_lockDuration","type":"uint256","internalType":"uint256"}],"outputs":[{"name":"","type":"uint256","internalType":"uint256"}],"stateMutability":"nonpayable"},{"type":"function","name":"createLockFor","inputs":[{"name":"_value","type":"uint256","internalType":"uint256"},{"name":"_lockDuration","type":"uint256","internalType":"uint256"},{"name":"_to","type":"address","internalType":"address"}],"outputs":[{"name":"","type":"uint256","internalType":"uint256"}],"stateMutability":"nonpayable"},{"type":"function","name":"getApproved","inputs":[{"name":"tokenId","type":"uint256","internalType":"uint256"}],"outputs":[{"name":"","type":"address","internalType":"address"}],"stateMutability":"view"},{"type":"function","name":"increaseAmount","inputs":[{"name":"_tokenId","type":"uint256","internalType":"uint256"},{"name":"_value","type":"uint256","internalType":"uint256"}],"outputs":[],"stateMutability":"nonpayable"},{"type":"function","name":"increaseUnlockTime","inputs":[{"name":"_tokenId","type":"uint256","internalType":"uint256"},{"name":"_lockDuration","type":"uint256","internalType":"uint256"}],"outputs":[],"stateMutability":"nonpayable"},{"type":"function","name":"initialize","inputs":[{"name":"_token","type":"address","internalType":"address"},{"name":"_voter","type":"address","internalType":"address"}],"outputs":[],"stateMutability":"nonpayable"},{"type":"function","name":"isApprovedForAll","inputs":[{"name":"owner","type":"address","internalType":"address"},{"name":"operator","type":"address","internalType":"address"}],"outputs":[{"name":"","type":"bool","internalType":"bool"}],"stateMutability":"view"},{"type":"function","name":"isApprovedOrOwner","inputs":[{"name":"_spender","type":"address","internalType":"address"},{"name":"_tokenId","type":"uint256","internalType":"uint256"}],"outputs":[{"name":"","type":"bool","internalType":"bool"}],"stateMutability":"view"},{"type":"function","name":"locked","inputs":[{"name":"_tokenId","type":"uint256","internalType":"uint256"}],"outputs":[{"name":"","type":"tuple","internalType":"struct IVotingEscrow.LockedBalance","components":[{"name":"amount","type":"int128","internalType":"int128"},{"name":"end","type":"uint256","internalType":"uint256"}]}],"stateMutability":"view"},{"type":"function","name":"merge","inputs":[{"name":"_from","type":"uint256","internalType":"uint256"},{"name":"_to","type":"uint256","internalType":"uint256"}],"outputs":[],"stateMutability":"nonpayable"},{"type":"function","name":"name","inputs":[],"outputs":[{"name":"","type":"string","internalType":"string"}],"stateMutability":"view"},{"type":"function","name":"ownerOf","inputs":[{"name":"tokenId","type":"uint256","internalType":"uint256"}],"outputs":[{"name":"","type":"address","internalType":"address"}],"stateMutability":"view"},{"type":"function","name":"safeTransferFrom","inputs":[{"name":"from","type":"address","internalType":"address"},{"name":"to","type":"address","internalType":"address"},{"name":"tokenId","type":"uint256","internalType":"uint256"}],"outputs":[],"stateMutability":"nonpayable"},{"type":"function","name":"safeTransferFrom","inputs":[{"name":"from","type":"address","internalType":"address"},{"name":"to","type":"address","internalType":"address"},{"name":"tokenId","type":"uint256","internalType":"uint256"},{"name":"data","type":"bytes","internalType":"bytes"}],"outputs":[],"stateMutability":"nonpayable"},{"type":"function","name":"setApprovalForAll","inputs":[{"name":"operator","type":"address","internalType":"address"},{"name":"approved","type":"bool","internalType":"bool"}],"outputs":[],"stateMutability":"nonpayable"},{"type":"function","name":"slopeChanges","inputs":[{"name":"","type":"uint256","internalType":"uint256"}],"outputs":[{"name":"","type":"int128","internalType":"int128"}],"stateMutability":"view"},{"type":"function","name":"split","inputs":[{"name":"_amounts","type":"uint256[]","internalType":"uint256[]"},{"name":"_tokenId","type":"uint256","internalType":"uint256"}],"outputs":[{"name":"","type":"uint256[]","internalType":"uint256[]"}],"stateMutability":"nonpayable"},{"type":"function","name":"supply","inputs":[],"outputs":[{"name":"","type":"uint256","internalType":"uint256"}],"stateMutability":"view"},{"type":"function","name":"supportsInterface","inputs":[{"name":"interfaceId","type":"bytes4","internalType":"bytes4"}],"outputs":[{"name":"","type":"bool","internalType":"bool"}],"stateMutability":"view"},{"type":"function","name":"symbol","inputs":[],"outputs":[{"name":"","type":"string","internalType":"string"}],"stateMutability":"view"},{"type":"function","name":"team","inputs":[],"outputs":[{"name":"","type":"address","internalType":"address"}],"stateMutability":"view"},{"type":"function","name":"token","inputs":[],"outputs":[{"name":"","type":"address","internalType":"address"}],"stateMutability":"view"},{"type":"function","name":"tokenByIndex","inputs":[{"name":"index","type":"uint256","internalType":"uint256"}],"outputs":[{"name":"","type":"uint256","internalType":"uint256"}],"stateMutability":"view"},{"type":"function","name":"tokenId","inputs":[],"outputs":[{"name":"","type":"uint256","internalType":"uint256"}],"stateMutability":"view"},{"type":"function","name":"tokenOfOwnerByIndex","inputs":[{"name":"owner","type":"address","internalType":"address"},{"name":"index","type":"uint256","internalType":"uint256"}],"outputs":[{"name":"","type":"uint256","internalType":"uint256"}],"stateMutability":"view"},{"type":"function","name":"tokenURI","inputs":[{"name":"tokenId","type":"uint256","internalType":"uint256"}],"outputs":[{"name":"","type":"string","internalType":"string"}],"stateMutability":"view"},{"type":"function","name":"totalSupply","inputs":[],"outputs":[{"name":"","type":"uint256","internalType":"uint256"}],"stateMutability":"view"},{"type":"function","name":"totalSupplyAt","inputs":[{"name":"_t","type":"uint256","internalType":"uint256"}],"outputs":[{"name":"","type":"uint256","internalType":"uint256"}],"stateMutability":"view"},{"type":"function","name":"transferFrom","inputs":[{"name":"from","type":"address","internalType":"address"},{"name":"to","type":"address","internalType":"address"},{"name":"tokenId","type":"uint256","internalType":"uint256"}],"outputs":[],"stateMutability":"nonpayable"},{"type":"function","name":"voted","inputs":[{"name":"","type":"uint256","internalType":"uint256"}],"outputs":[{"name":"","type":"bool","internalType":"bool"}],"stateMutability":"view"},{"type":"function","name":"voter","inputs":[],"outputs":[{"name":"","type":"address","internalType":"address"}],"stateMutability":"view"},{"type":"function","name":"voting","inputs":[{"name":"_tokenId","type":"uint256","internalType":"uint256"},{"name":"_status","type":"bool","internalType":"bool"}],"outputs":[],"stateMutability":"nonpayable"},{"type":"function","name":"withdraw","inputs":[{"name":"_tokenId","type":"uint256","internalType":"uint256"}],"outputs":[],"stateMutability":"nonpayable"},{"type":"event","name":"Approval","inputs":[{"name":"owner","type":"address","indexed":true,"internalType":"address"},{"name":"approved","type":"address","indexed":true,"internalType":"address"},{"name":"tokenId","type":"uint256","indexed":true,"internalType":"uint256"}],"anonymous":false},{"type":"event","name":"ApprovalForAll","inputs":[{"name":"owner","type":"address","indexed":true,"internalType":"address"},{"name":"operator","type":"address","indexed":true,"internalType":"address"},{"name":"approved","type":"bool","indexed":false,"internalType":"bool"}],"anonymous":false},{"type":"event","name":"Deposit","inputs":[{"name":"provider","type":"address","indexed":true,"internalType":"address"},{"name":"tokenId","type":"uint256","indexed":true,"internalType":"uint256"},{"name":"value","type":"uint256","indexed":false,"internalType":"uint256"},{"name":"lockTime","type":"uint256","indexed":true,"internalType":"uint256"},{"name":"timestamp","type":"uint256","indexed":false,"internalType":"uint256"}],"anonymous":false},{"type":"event","name":"Initialized","inputs":[{"name":"version","type":"uint64","indexed":false,"internalType":"uint64"}],"anonymous":false},{"type":"event","name":"Supply","inputs":[{"name":"prevSupply","type":"uint256","indexed":false,"internalType":"uint256"},{"name":"supply","type":"uint256","indexed":false,"internalType":"uint256"}],"anonymous":false},{"type":"event","name":"Transfer","inputs":[{"name":"from","type":"address","indexed":true,"internalType":"address"},{"name":"to","type":"address","indexed":true,"internalType":"address"},{"name":"tokenId","type":"uint256","indexed":true,"internalType":"uint256"}],"anonymous":false},{"type":"event","name":"Withdraw","inputs":[{"name":"provider","type":"address","indexed":true,"internalType":"address"},{"name":"tokenId","type":"uint256","indexed":true,"internalType":"uint256"},{"name":"value","type":"uint256","indexed":false,"internalType":"uint256"},{"name":"timestamp","type":"uint256","indexed":false,"internalType":"uint256"}],"anonymous":false},{"type":"error","name":"AlreadyVoted","inputs":[]},{"type":"error","name":"ERC721EnumerableForbiddenBatchMint","inputs":[]},{"type":"error","name":"ERC721IncorrectOwner","inputs":[{"name":"sender","type":"address","internalType":"address"},{"name":"tokenId","type":"uint256","internalType":"uint256"},{"name":"owner","type":"address","internalType":"address"}]},{"type":"error","name":"ERC721InsufficientApproval","inputs":[{"name":"operator","type":"address","internalType":"address"},{"name":"tokenId","type":"uint256","internalType":"uint256"}]},{"type":"error","name":"ERC721InvalidApprover","inputs":[{"name":"approver","type":"address","internalType":"address"}]},{"type":"error","name":"ERC721InvalidOperator","inputs":[{"name":"operator","type":"address","internalType":"address"}]},{"type":"error","name":"ERC721InvalidOwner","inputs":[{"name":"owner","type":"address","internalType":"address"}]},{"type":"error","name":"ERC721InvalidReceiver","inputs":[{"name":"receiver","type":"address","internalType":"address"}]},{"type":"error","name":"ERC721InvalidSender","inputs":[{"name":"sender","type":"address","internalType":"address"}]},{"type":"error","name":"ERC721NonexistentToken","inputs":[{"name":"tokenId","type":"uint256","internalType":"uint256"}]},{"type":"error","name":"ERC721OutOfBoundsIndex","inputs":[{"name":"owner","type":"address","internalType":"address"},{"name":"index","type":"uint256","internalType":"uint256"}]},{"type":"error","name":"InvalidInitialization","inputs":[]},{"type":"error","name":"InvalidLockTime","inputs":[]},{"type":"error","name":"LockExpired","inputs":[]},{"type":"error","name":"LockNotExpired","inputs":[]},{"type":"error","name":"LockTooLong","inputs":[]},{"type":"error","name":"NotApprovedOrOwner","inputs":[]},{"type":"error","name":"NotInitializing","inputs":[]},{"type":"error","name":"NotVoter","inputs":[]},{"type":"error","name":"ReentrancyGuardReentrantCall","inputs":[]},{"type":"error","name":"SafeERC20FailedOperation","inputs":[{"name":"token","type":"address","internalType":"address"}]},{"type":"error","name":"ZeroAmount","inputs":[]}],"bytecode":{"object":"0x6080806040523460ce5760017f9b779b17422d0df92223018b32b4d1fa46e071723d6817e2486d003becc55f00555f51602061324c5f395f51905f525460ff8160401c1660bf576002600160401b03196001600160401b03821601606d575b60405161317990816100d38239f35b6001600160401b0319166001600160401b039081175f51602061324c5f395f51905f525581527fc7f505b2f371ae2175ee4913f4499e1f2633a7b5936321eed1cdaeb6115181d290602090a15f80605e565b63f92ee8a960e01b5f5260045ffd5b5f80fdfe6080806040526004361015610012575f80fd5b5f905f3560e01c90816301ffc9a714611d4757508063047fc9aa14611d2a57806306fdde0314611c80578063081812fc14611c37578063095ea7b314611b4b57806317d70f7c14611b2e57806318160ddd14611b1357806323b872dd14611afc5780632e1a7d4d146119315780632f745c59146118b357806342842e0e1461188a578063430c20811461185557806346c96aac1461182d578063485cc9551461131f5780634f6ccce7146112cb57806356afe744146110305780635a4f459a14610fd15780636352211e14610fa157806370a0823114610f7e57806385f2aef214610f565780638fbb38ff14610f2757806395d89b4114610e31578063981b24d014610e135780639d507b8b14610c1c578063a22cb46514610b62578063b2383e5514610a08578063b45a3c0e146109b7578063b52c05fe1461090b578063b88d4fde14610876578063c87b56dd1461081b578063d1c2babb1461052e578063e0514aba14610514578063e7e242d4146104ec578063e985e9c51461049f578063ec32e6df14610235578063ee00ef3a14610216578063f52a36f7146101e95763fc0c546a146101c0575f80fd5b346101e657806003193601126101e657546040516001600160a01b039091168152602090f35b80fd5b50346101e65760203660031901126101e65760406020916004358152600883522054600f0b604051908152f35b50346101e657806003193601126101e6576020604051630784ce008152f35b50346101e65760603660031901126101e6576044356004356001600160a01b038216820361049b57610265612638565b801561048c5762093a8061027b60243542612382565b0462093a8081029080820462093a801490151715610478574281111561046957630784ce004201804211610455578111610446576102c86102bd6003546123a7565b809481600355612c9a565b82845260046020526102dc604085206121fb565b936102ef8551600f0b84600f0b90612726565b918061043c57506103616020860151925b6040519061030d82611e7b565b600f0b815260208101938452600254966103278689612382565b6002558684526004602052604084208251600f0b6001600160801b0319825416906001600160801b0316178155600186519101558661274c565b80546040516323b872dd60e01b8352336004523060245260448590526001600160a01b039091169060208360648180865af190600184511482161561041b575b6040528260605215610408576020855f5160206130245f395f51905f526040898884895191845190815242888201525f5160206130645f395f51905f52853392a4600254825191825285820152a160015f5160206130a45f395f51905f5255604051908152f35b635274afe760e01b825260045260249150fd5b90600181151661043357823b15153d151616906103a1565b503d83823e3d90fd5b6103619092610300565b63d6946a4360e01b8452600484fd5b634e487b7160e01b85526011600452602485fd5b63abf20e8f60e01b8452600484fd5b634e487b7160e01b84526011600452602484fd5b631f2a200560e01b8352600483fd5b5f80fd5b50346101e65760403660031901126101e6576104b9611df0565b6104ca6104c4611e06565b91612229565b9060018060a01b03165f52602052602060ff60405f2054166040519015158152f35b50346101e65760203660031901126101e657602061050c42600435612ee9565b604051908152f35b50346101e657602061050c61052836611e65565b90612ee9565b50346101e65761053d36611e65565b90610546612638565b61055a8161055381612524565b3390612670565b1561080c57610572823361056d82612524565b612670565b1561080c57808352600560205260ff60408420541680156107f6575b6107e75780835260046020526105a6604084206121fb565b9180845260046020526105bb604085206121fb565b92602081019283514210156107d857602085019042825111156107c957906106606106d99261065b8551600f0b975184518082115f146107c15750955b60405161060481611e7b565b8b815260018c604060208401918083528781526004602052209251600f0b6001600160801b0319845416906001600160801b0316178355519101556040519061064c82611e7b565b8b82528b60208301528361274c565b612a11565b61066e858751600f0b612726565b92806107b9575051915b6040519061068582611e7b565b600f0b8152602081019283526002549561069f8688612382565b6002558488526004602052604088208251600f0b6001600160801b0319825416906001600160801b0316178155600185519101558461274c565b82610734575b915f5160206130245f395f51905f529391604093519184519081524260208201525f5160206130645f395f51905f52853392a460025482519182526020820152a160015f5160206130a45f395f51905f525580f35b84546040516323b872dd60e01b8752336004523060245260448590526001600160a01b039091169060208760648180865af1906001885114821615610798575b604052866060521561078657506106df565b635274afe760e01b8652600452602485fd5b9060018115166107b057823b15153d15161690610774565b503d87823e3d90fd5b905091610678565b9050956105f8565b6307b7d7dd60e51b8752600487fd5b6307b7d7dd60e51b8652600486fd5b637c9a1cf960e01b8352600483fd5b50818352600560205260ff60408420541661058e565b63390cdd9b60e21b8352600483fd5b50346101e65760203660031901126101e657610838600435612524565b5080604051610848602082611eb3565b525061087260405161085b602082611eb3565b5f8152604051918291602083526020830190611dcc565b0390f35b50346101e65760803660031901126101e657610890611df0565b610898611e06565b906064359067ffffffffffffffff8211610907573660238301121561090757816004013592846108c785611ed5565b936108d56040519586611eb3565b85855236602487830101116109035785610900966024602093018388013785010152604435916123e4565b80f35b5080fd5b8380fd5b50346101e65761091a36611e65565b610922612638565b811561048c5761093662093a809142612382565b049062093a8082029180830462093a8014901517156109a3574282111561099457630784ce004201804211610478578211610985576109766003546123a7565b91826003556102c88333612c9a565b63d6946a4360e01b8352600483fd5b63abf20e8f60e01b8352600483fd5b634e487b7160e01b83526011600452602483fd5b50346101e65760203660031901126101e6576109f36040828193602083516109de81611e7b565b828152015260043581526004602052206121fb565b60208251918051600f0b835201516020820152f35b50346101e657610a1736611e65565b610a1f612638565b610a2c8261055381612524565b1561080c57801561048c578183526004602052610a4b604084206121fb565b91838351600f0b1315610b5357602083018051421015610b4457610a8a610a7a8551600f0b85600f0b90612726565b9151916040519061068582611e7b565b84546040516323b872dd60e01b8752336004523060245260448590526001600160a01b039091169060208760648180865af1906001885114821615610b2c575b60405286606052156107865750915f5160206130245f395f51905f529391604093519184519081524260208201525f5160206130645f395f51905f52853392a460025482519182526020820152a160015f5160206130a45f395f51905f525580f35b9060018115166107b057823b15153d15161690610aca565b6307b7d7dd60e51b8552600485fd5b631f2a200560e01b8452600484fd5b50346101e65760403660031901126101e657610b7c611df0565b610b84611e56565b903315610c08576001600160a01b0316908115610bf457610ba433612229565b825f52602052610bc38160405f209060ff801983541691151516179055565b60405190151581527f17307eab39ab6107e8899845ad3d59bd9653f200f220920489ca2b5937696c3160203392a380f35b630b61174360e31b83526004829052602483fd5b63a9fbf51f60e01b83526004839052602483fd5b3461049b57610c2a36611e65565b610c32612638565b610c3f8261055381612524565b15610e0457815f526004602052610c5860405f206121fb565b5f8151600f0b1315610df55760208101918251421015610de657835f52600560205260ff60405f205416610dd757610c9462093a809142612382565b049262093a8084029380850462093a801490151715610da5578251841115610dc857630784ce004201804211610da5578411610db9578151600f0b60016001607f1b03811360016001607f1b0319821217610da557610d5d6040945f5160206130245f395f51905f529680155f14610d9d575051915b855190610d1682611e7b565b8152602081019283526002549485600255845f526004602052865f208251600f0b6001600160801b0319825416906001600160801b0316178155600185519101558461274c565b519083515f81524260208201525f5160206130645f395f51905f52853392a460025482519182526020820152a160015f5160206130a45f395f51905f5255005b905091610d0a565b634e487b7160e01b5f52601160045260245ffd5b63d6946a4360e01b5f5260045ffd5b63abf20e8f60e01b5f5260045ffd5b637c9a1cf960e01b5f5260045ffd5b6307b7d7dd60e51b5f5260045ffd5b631f2a200560e01b5f5260045ffd5b63390cdd9b60e21b5f5260045ffd5b3461049b57602036600319011261049b57602061050c6004356125c6565b3461049b575f36600319011261049b576040515f5f5160206131045f395f51905f5254610e5d81611ef1565b8084529060018116908115610f035750600114610e99575b61087283610e8581850382611eb3565b604051918291602083526020830190611dcc565b5f5160206131045f395f51905f525f9081527ff4bad0a69248f59680a4f2b3000328cec71a413447c96781cfe5996daa8c456e939250905b808210610ee957509091508101602001610e85610e75565b919260018160209254838588010152019101909291610ed1565b60ff191660208086019190915291151560051b84019091019150610e859050610e75565b3461049b57602036600319011261049b576004355f526005602052602060ff60405f2054166040519015158152f35b3461049b575f36600319011261049b576009546040516001600160a01b039091168152602090f35b3461049b57602036600319011261049b57602061050c610f9c611df0565b6123b5565b3461049b57602036600319011261049b576020610fbf600435612524565b6040516001600160a01b039091168152f35b3461049b57604036600319011261049b57610fea611e56565b6001546001600160a01b031633036110215761101f906004355f52600560205260405f209060ff801983541691151516179055565b005b63c18384c160e01b5f5260045ffd5b3461049b57604036600319011261049b5760043567ffffffffffffffff811161049b573660238201121561049b5780600401359067ffffffffffffffff821161049b576024810190602436918460051b01011161049b5760243591611093612638565b6110a08361055381612524565b15610e0457825f52600560205260ff60405f205416610dd757825f5260046020526110cd60405f206121fb565b60208101938451421015610de6575f5f5b8481106112ab57508251600f0b03610df55761065b6111599260405161110381611e7b565b5f81526001602082015f8152855f52600460205260405f209251600f0b6001600160801b0319845416906001600160801b0316178355519101556040519061114a82611e7b565b5f82525f60208301528361274c565b6111628161238f565b926111706040519485611eb3565b81845261117c8261238f565b602085019390601f19013685375f5b8381106111e757848660015f5160206130a45f395f51905f5255604051918291602083019060208452518091526040830191905f5b8181106111ce575050500390f35b82518452859450602093840193909201916001016111c0565b6111f26003546123a7565b90816003558651811015611297576112178260019360208460051b8b01015233612c9a565b611291611225828786612372565b35600f0b85516040519161123883611e7b565b8252602082019081526003545f5260046020528460405f20918351600f0b6001600160801b0319845416906001600160801b0316178355519101556003546040519061128382611e7b565b5f82525f602083015261274c565b0161118b565b634e487b7160e01b5f52603260045260245ffd5b906112c46001916112bd84888a612372565b3590612382565b91016110de565b3461049b57602036600319011261049b576004356112e8426125c6565b811015611309576112fa602091612342565b90549060031b1c604051908152f35b63295f44f760e21b5f525f60045260245260445ffd5b3461049b57604036600319011261049b57611338611df0565b611340611e06565b5f5160206130e45f395f51905f52549060ff8260401c16159167ffffffffffffffff811680159081611825575b600114908161181b575b159081611812575b506118035767ffffffffffffffff1981166001175f5160206130e45f395f51905f5255826117d7575b5060409283516113b88582611eb3565b60118152702b37ba3296b2b9b1b937bbb2b210212a2160791b60208201528451906113e38683611eb3565b60058252643b32a12a2160d91b60208301526113fd612f78565b611405612f78565b80519067ffffffffffffffff82116116b15781906114305f516020612fe45f395f51905f5254611ef1565b601f8111611759575b50602090601f83116001146116d0575f926116c5575b50508160011b915f199060031b1c1916175f516020612fe45f395f51905f52555b80519067ffffffffffffffff82116116b157819061149b5f5160206131045f395f51905f5254611ef1565b601f8111611637575b50602090601f83116001146115b9575f926115ae575b50508160011b915f199060031b1c1916175f5160206131045f395f51905f52555b6114e3612f78565b60018060a01b03166001600160601b0360a01b5f5416175f5560018060a01b03166001600160601b0360a01b6001541617600155336001600160601b0360a01b6009541617600955611552825161153981611e97565b5f81525f602082015242848201524360608201526122ce565b61155857005b60207fc7f505b2f371ae2175ee4913f4499e1f2633a7b5936321eed1cdaeb6115181d29168ff0000000000000000195f5160206130e45f395f51905f5254165f5160206130e45f395f51905f52555160018152a1005b0151905086806114ba565b5f5160206131045f395f51905f525f9081528281209350601f198516905b81811061161f5750908460019594939210611607575b505050811b015f5160206131045f395f51905f52556114db565b01515f1960f88460031b161c191690558680806115ed565b929360206001819287860151815501950193016115d7565b5f5160206131045f395f51905f525f529091507ff4bad0a69248f59680a4f2b3000328cec71a413447c96781cfe5996daa8c456e601f840160051c810191602085106116a7575b90601f859493920160051c01905b81811061169957506114a4565b5f815584935060010161168c565b909150819061167e565b634e487b7160e01b5f52604160045260245ffd5b01519050878061144f565b5f516020612fe45f395f51905f525f9081525f5160206131245f395f51905f529350601f198516905b8181106117415750908460019594939210611729575b505050811b015f516020612fe45f395f51905f5255611470565b01515f1960f88460031b161c1916905587808061170f565b929360206001819287860151815501950193016116f9565b9091505f516020612fe45f395f51905f525f52601f830160051c5f5160206131245f395f51905f520190602084106117c2575b90601f8493920160051c5f5160206131245f395f51905f5201905b8181106117b45750611439565b5f81558493506001016117a7565b5f5160206131245f395f51905f52915061178c565b68ffffffffffffffffff191668010000000000000001175f5160206130e45f395f51905f5255836113a8565b63f92ee8a960e01b5f5260045ffd5b9050158561137f565b303b159150611377565b84915061136d565b3461049b575f36600319011261049b576001546040516001600160a01b039091168152602090f35b3461049b57604036600319011261049b576020611880611873611df0565b6024359061056d82612524565b6040519015158152f35b3461049b5761101f61189b36611e1c565b90604051926118ab602085611eb3565b5f84526123e4565b3461049b57604036600319011261049b576118cc611df0565b602435906118d9816123b5565b8210156119145760018060a01b03165f525f516020612fc45f395f51905f5260205260405f20905f52602052602060405f2054604051908152f35b63295f44f760e21b5f5260018060a01b031660045260245260445ffd5b3461049b57602036600319011261049b5760043561194d612638565b61195a8161055381612524565b15610e0457805f52600460205261197360405f206121fb565b9060208201514210611aed57805f52600560205260ff60405f205416610dd7578151600f0b6040516119a481611e7b565b5f81526001602082015f8152845f52600460205260405f209251600f0b6001600160801b0319845416906001600160801b031617835551910155611a0e600254936119ef838661221c565b600255604051906119ff82611e7b565b5f82525f60208301528461274c565b60018060a01b035f541660405163a9059cbb60e01b5f52336004528260245260205f60448180865af19060015f5114821615611acc575b60405215611aba575f5160206130245f395f51905f526040858585611a6982612a11565b83519081524260208201527f02f25270a4d87bea75db541cdfe559334a275b4a233520ed6c0a2429667cca94843392a360025482519182526020820152a160015f5160206130a45f395f51905f5255005b635274afe760e01b5f5260045260245ffd5b906001811516611ae457823b15153d15161690611a45565b503d5f823e3d90fd5b63342ad40160e11b5f5260045ffd5b3461049b5761101f611b0d36611e1c565b91611f29565b3461049b575f36600319011261049b57602061050c426125c6565b3461049b575f36600319011261049b576020600354604051908152f35b3461049b57604036600319011261049b57611b64611df0565b602435611b7081612524565b33151580611c24575b80611c01575b611bee5781906001600160a01b0384811691167f8c5be1e5ebec7d5bd14f71427d1e84f3dd0314c0f7b2291e5b200ac8c7c3b9255f80a45f9081525f5160206130c45f395f51905f526020526040902080546001600160a01b0319166001600160a01b03909216919091179055005b63a9fbf51f60e01b5f523360045260245ffd5b50611c0b81612229565b335f908152602091909152604090205460ff1615611b7f565b506001600160a01b038116331415611b79565b3461049b57602036600319011261049b576020610fbf600435611c5981612524565b505f9081525f5160206130c45f395f51905f5260205260409020546001600160a01b031690565b3461049b575f36600319011261049b576040515f5f516020612fe45f395f51905f5254611cac81611ef1565b8084529060018116908115610f035750600114611cd35761087283610e8581850382611eb3565b5f516020612fe45f395f51905f525f9081525f5160206131245f395f51905f52939250905b808210611d1057509091508101602001610e85610e75565b919260018160209254838588010152019101909291611cf8565b3461049b575f36600319011261049b576020600254604051908152f35b3461049b57602036600319011261049b576004359063ffffffff60e01b821680920361049b5760209163780e9d6360e01b8114908115611d89575b5015158152f35b6380ac58cd60e01b811491508115611dbb575b8115611daa575b5083611d82565b6301ffc9a760e01b14905083611da3565b635b5e139f60e01b81149150611d9c565b805180835260209291819084018484015e5f828201840152601f01601f1916010190565b600435906001600160a01b038216820361049b57565b602435906001600160a01b038216820361049b57565b606090600319011261049b576004356001600160a01b038116810361049b57906024356001600160a01b038116810361049b579060443590565b60243590811515820361049b57565b604090600319011261049b576004359060243590565b6040810190811067ffffffffffffffff8211176116b157604052565b6080810190811067ffffffffffffffff8211176116b157604052565b90601f8019910116810190811067ffffffffffffffff8211176116b157604052565b67ffffffffffffffff81116116b157601f01601f191660200190565b90600182811c92168015611f1f575b6020831014611f0b57565b634e487b7160e01b5f52602260045260245ffd5b91607f1691611f00565b9091906001600160a01b03831680156121e857825f52600560205260ff60405f205416610dd757611f5983612f29565b90336121a2575b6001600160a01b0382169485158015612184575b611f7d82612261565b60018154019055855f525f5160206130845f395f51905f5260205260405f20836001600160601b0360a01b8254161790558583887fddf252ad1be2c89b69c2b068fc378daa952ba7f163c4a11628f55a4df523b3ef5f80a4156120d7575f5160206130445f395f51905f5254855f525f5160206130045f395f51905f526020528060405f2055600160401b8110156116b1578561202f82600161204794015f5160206130445f395f51905f5255612342565b90919082549060031b91821b915f19901b1916179055565b81860361207f575b5050506001600160a01b031680830361206757505050565b6364283d7b60e01b5f5260045260245260445260645ffd5b612088906123b5565b5f19810191908211610da5575f525f516020612fc45f395f51905f5260205260405f20815f526020528360405f2055835f525f516020612fa45f395f51905f5260205260405f20555f8061204f565b858214612047576120e7836123b5565b855f525f516020612fa45f395f51905f5260205260405f205490875f525f516020612fc45f395f51905f5260205260405f209181810361214d575b50865f525f516020612fa45f395f51905f526020525f60408120555f526020525f6040812055612047565b815f528260205260405f2054815f52836020528060405f20555f525f516020612fa45f395f51905f5260205260405f20555f612122565b61218d86612f4f565b61219684612261565b80545f19019055611f74565b6121ad843384612670565b611f6057836001600160a01b0383166121d257637e27328960e01b5f5260045260245ffd5b63177e802f60e01b5f523360045260245260445ffd5b633250574960e11b5f525f60045260245ffd5b9060405161220881611e7b565b6020600182948054600f0b84520154910152565b91908203918211610da557565b6001600160a01b03165f9081527f80bb2b638cc20bc4d0a60d66940f3ab4a00c1d7b313497ca82fb0b4ab00793056020526040902090565b6001600160a01b03165f9081527f80bb2b638cc20bc4d0a60d66940f3ab4a00c1d7b313497ca82fb0b4ab00793036020526040902090565b6007548110156112975760075f52600360205f20910201905f90565b8054821015611297575f52600360205f20910201905f90565b600754600160401b8110156116b1578060016122ef920160075560076122b5565b91909161232f578051602082015160801b6001600160801b0319166001600160801b03909116178255604081015160018301556060015160029190910155565b634e487b7160e01b5f525f60045260245ffd5b5f5160206130445f395f51905f5254811015611297575f5160206130445f395f51905f525f5260205f2001905f90565b91908110156112975760051b0190565b91908201809211610da557565b67ffffffffffffffff81116116b15760051b60200190565b5f198114610da55760010190565b6001600160a01b038116156123d1576123cd90612261565b5490565b6322718ad960e21b5f525f60045260245ffd5b92916123f1818386611f29565b813b6123fe575b50505050565b604051630a85bd0160e11b81523360048201526001600160a01b0394851660248201526044810191909152608060648201529216919060209082908190612449906084830190611dcc565b03815f865af15f91816124df575b506124ac57503d156124a5573d61246d81611ed5565b9061247b6040519283611eb3565b81523d5f602083013e5b805190816124a05782633250574960e11b5f5260045260245ffd5b602001fd5b6060612485565b6001600160e01b03191663757a42ff60e11b016124cd57505f8080806123f8565b633250574960e11b5f5260045260245ffd5b9091506020813d60201161251c575b816124fb60209383611eb3565b8101031261049b57516001600160e01b03198116810361049b57905f612457565b3d91506124ee565b61252d81612f29565b906001600160a01b03821615612541575090565b637e27328960e01b5f5260045260245ffd5b9060405161256081611e97565b606060028294805480600f0b855260801d600f0b6020850152600181015460408501520154910152565b90600f0b90600f0b029081600f0b918203610da557565b600f91820b910b039060016001607f1b0319821260016001607f1b03831317610da557565b6007548015612632575f198101908111610da5576126136125f26125ec61261d93612299565b50612553565b9261260a6020850151600f0b9160408601519061221c565b600f0b9061258a565b8251600f0b6125a1565b600f0b8091525f811261262d5790565b505f90565b50505f90565b60025f5160206130a45f395f51905f5254146126615760025f5160206130a45f395f51905f5255565b633ee5aeb560e01b5f5260045ffd5b6001600160a01b03909116801515928361268b575b50505090565b6001600160a01b03831682149350909183156126e2575b5082156126b4575b50505f8080612685565b5f9081525f5160206130c45f395f51905f5260205260408120546001600160a01b03169091149150806126aa565b6126ed919350612229565b815f5260205260ff60405f205416915f6126a2565b6040519061270f82611e97565b5f6060838281528260208201528260408201520152565b90600f0b90600f0b019060016001607f1b0319821260016001607f1b03831317610da557565b91612755612702565b9061275e612702565b92846128d6575b5050604082019242845260608301904382525f52600660205260405f208054600160401b8110156116b15761279f916001820181556122b5565b91909161232f57835160208501805160801b6001600160801b0319166001600160801b0390921691909117835594516001830155516002919091015560075490811561289b575f198201918211610da557602061283d612888958261282c61282161280f6125ec61284999612299565b985b8951600f0b9051600f0b90612726565b8651600f0b906125a1565b960151600f0b9051600f0b90612726565b910151600f0b906125a1565b5f6040519261285784611e97565b600f0b808452816020850193600f0b9182855242604087015243606087015212612893575b1261288a575b506122ce565b565b5f90525f612882565b81845261287c565b6128499150602061283d612888958261282c6128216040516128bc81611e97565b5f81525f8482015242604082015243606082015298612811565b60208101908151421080612a04575b6129d4575b50602082019142835111806129c7575b612997575b505180612956575b505180612915575b80612765565b6020830151600f0b905f52600860205261293760405f20918254600f0b6125a1565b6001600160801b0319825416906001600160801b03161790555f61290f565b6020830151600f0b905f52600860205261297860405f20918254600f0b612726565b6001600160801b0319825416906001600160801b03161790555f612907565b630784ce006129bc9151600f0b600f0b05600f0b80602087015261260a42855161221c565b600f0b84525f6128ff565b505f8151600f0b136128fa565b630784ce006129f99151600f0b600f0b05600f0b80602086015261260a42845161221c565b600f0b83525f6128ea565b505f8151600f0b136128e5565b805f52600560205260ff60405f205416610dd757612a2e81612f29565b6001600160a01b03811680159190821580612c7c575b5f8581525f5160206130845f395f51905f526020526040812080546001600160a01b03191690558590837fddf252ad1be2c89b69c2b068fc378daa952ba7f163c4a11628f55a4df523b3ef8280a48315612bcb5750505f5160206130445f395f51905f5254835f525f5160206130045f395f51905f526020528060405f2055600160401b8110156116b1578361202f826001612aef94015f5160206130445f395f51905f5255612342565b5f5160206130445f395f51905f52545f198101908111610da557835f525f5160206130045f395f51905f52602052612b2b60405f205491612342565b90549060031b1c612b3f8161202f84612342565b5f525f5160206130045f395f51905f5260205260405f2055825f525f5160206130045f395f51905f526020525f60408120555f5160206130445f395f51905f52548015612bb7575f1901612b9281612342565b8154905f199060031b1b191690555f5160206130445f395f51905f5255506125415750565b634e487b7160e01b5f52603160045260245ffd5b612bd6575b50612aef565b612bdf826123b5565b845f525f516020612fa45f395f51905f5260205260405f2054915f525f516020612fc45f395f51905f5260205260405f2091818103612c45575b50845f525f516020612fa45f395f51905f526020525f60408120555f526020525f60408120555f612bd0565b815f528260205260405f2054815f52836020528060405f20555f525f516020612fa45f395f51905f5260205260405f20555f612c19565b612c8585612f4f565b612c8e83612261565b80545f19019055612a44565b906001600160a01b03821680156121e857815f52600560205260ff60405f205416610dd757612cc882612f29565b6001600160a01b03811680158015959294929190849087612ecb575b612ced84612261565b60018154019055845f525f5160206130845f395f51905f5260205260405f20826001600160601b0360a01b8254161790558482847fddf252ad1be2c89b69c2b068fc378daa952ba7f163c4a11628f55a4df523b3ef5f80a415612e1d57505f5160206130445f395f51905f525490835f525f5160206130045f395f51905f526020528160405f2055600160401b8210156116b157612da28461202f8460018996015f5160206130445f395f51905f5255612342565b03612dc5575b50505050612db257565b6339e3563760e11b5f525f60045260245ffd5b612dce906123b5565b5f19810192908311610da5575f525f516020612fc45f395f51905f5260205260405f20825f526020528060405f20555f525f516020612fa45f395f51905f5260205260405f20555f8080612da8565b90808214612da257612e2e866123b5565b845f525f516020612fa45f395f51905f5260205260405f205490825f525f516020612fc45f395f51905f5260205260405f2091818103612e94575b50855f525f516020612fa45f395f51905f526020525f60408120555f526020525f6040812055612da2565b815f528260205260405f2054815f52836020528060405f20555f525f516020612fa45f395f51905f5260205260405f20555f612e69565b612ed485612f4f565b612edd87612261565b80545f19019055612ce4565b805f52600660205260405f205415612632575f90815260066020526040902080545f19810191908211610da5576125f26125ec61261d93612613936122b5565b5f9081525f5160206130845f395f51905f5260205260409020546001600160a01b031690565b5f525f5160206130c45f395f51905f5260205260405f206001600160601b0360a01b8154169055565b60ff5f5160206130e45f395f51905f525460401c1615612f9457565b631afcd79f60e31b5f5260045ffdfe645e039705490088daad89bae25049a34f4a9072d398537b1ab2425f24cbed01645e039705490088daad89bae25049a34f4a9072d398537b1ab2425f24cbed0080bb2b638cc20bc4d0a60d66940f3ab4a00c1d7b313497ca82fb0b4ab0079300645e039705490088daad89bae25049a34f4a9072d398537b1ab2425f24cbed035e2aa66efd74cce82b21852e317e5490d9ecc9e6bb953ae24d90851258cc2f5c645e039705490088daad89bae25049a34f4a9072d398537b1ab2425f24cbed027162984403f6c73c8639375d45a9187dfd04602231bd8e587c415718b5f7e5f980bb2b638cc20bc4d0a60d66940f3ab4a00c1d7b313497ca82fb0b4ab00793029b779b17422d0df92223018b32b4d1fa46e071723d6817e2486d003becc55f0080bb2b638cc20bc4d0a60d66940f3ab4a00c1d7b313497ca82fb0b4ab0079304f0c57e16840df040f15088dc2f81fe391c3923bec73e23a9662efc9c229c6a0080bb2b638cc20bc4d0a60d66940f3ab4a00c1d7b313497ca82fb0b4ab007930137c58c799b6609234b945e882912ee9ad34948a1dfaa20a97485e1a7752bbf81a2646970667358221220ef81684e83afc233ef7d948964d46b847ce97293d280a57125e63bfbc0cc657764736f6c634300081b0033f0c57e16840df040f15088dc2f81fe391c3923bec73e23a9662efc9c229c6a00","linkReferences":{}},"methodIdentifiers":{"MAXTIME()":"ee00ef3a","approve(address,uint256)":"095ea7b3","balanceOf(address)":"70a08231","balanceOfNFT(uint256)":"e7e242d4","balanceOfNFTAt(uint256,uint256)":"e0514aba","createLock(uint256,uint256)":"b52c05fe","createLockFor(uint256,uint256,address)":"ec32e6df","getApproved(uint256)":"081812fc","increaseAmount(uint256,uint256)":"b2383e55","increaseUnlockTime(uint256,uint256)":"9d507b8b","initialize(address,address)":"485cc955","isApprovedForAll(address,address)":"e985e9c5","isApprovedOrOwner(address,uint256)":"430c2081","locked(uint256)":"b45a3c0e","merge(uint256,uint256)":"d1c2babb","name()":"06fdde03","ownerOf(uint256)":"6352211e","safeTransferFrom(address,address,uint256)":"42842e0e","safeTransferFrom(address,address,uint256,bytes)":"b88d4fde","setApprovalForAll(address,bool)":"a22cb465","slopeChanges(uint256)":"f52a36f7","split(uint256[],uint256)":"56afe744","supply()":"047fc9aa","supportsInterface(bytes4)":"01ffc9a7","symbol()":"95d89b41","team()":"85f2aef2","token()":"fc0c546a","tokenByIndex(uint256)":"4f6ccce7","tokenId()":"17d70f7c","tokenOfOwnerByIndex(address,uint256)":"2f745c59","tokenURI(uint256)":"c87b56dd","totalSupply()":"18160ddd","totalSupplyAt(uint256)":"981b24d0","transferFrom(address,address,uint256)":"23b872dd","voted(uint256)":"8fbb38ff","voter()":"46c96aac","voting(uint256,bool)":"5a4f459a","withdraw(uint256)":"2e1a7d4d"},"id":27}