{"abi":[{"type":"constructor","inputs":[],"stateMutability":"nonpayable"},{"type":"function","name":"MAXTIME","inputs":[],"outputs":[{"name":"","type":"uint256","internalType":"uint256"}],"stateMutability":"view"},{"type":"function","name":"approve","inputs":[{"name":"to","type":"address","internalType":"address"},{"name":"tokenId","type":"uint256","internalType":"uint256"}],"outputs":[],"stateMutability":"nonpayable"},{"type":"function","name":"balanceOf","inputs":[{"name":"owner","type":"address","internalType":"address"}],"outputs":[{"name":"","type":"uint256","internalType":"uint256"}],"stateMutability":"view"},{"type":"function","name":"balanceOfNFT","inputs":[{"name":"_tokenId","type":"uint256","internalType":"uint256"}],"outputs":[{"name":"","type":"uint256","internalType":"uint256"}],"stateMutability":"view"},{"type":"function","name":"balanceOfNFTAt","inputs":[{"name":"_tokenId","type":"uint256","internalType":"uint256"},{"name":"_t","type":"uint256","internalType":"uint256"}],"outputs":[{"name":"","type":"uint256","internalType":"uint256"}],"stateMutability":"view"},{"type":"function","name":"createLock","inputs":[{"name":"_value","type":"uint256","internalType":"uint256"},{"name":"_lockDuration","type":"uint256","internalType":"uint256"}],"outputs":[{"name":"","type":"uint256","internalType":"uint256"}],"stateMutability":"nonpayable"},{"type":"function","name":"createLockFor","inputs":[{"name":"_value","type":"uint256","internalType":"uint256"},{"name":"_lockDuration","type":"uint256","internalType":"uint256"},{"name":"_to","type":"address","internalType":"address"}],"outputs":[{"name":"","type":"uint256","internalType":"uint256"}],"stateMutability":"nonpayable"},{"type":"function","name":"distributeEmission","inputs":[{"name":"_tokenId","type":"uint256","internalType":"uint256"},{"name":"_pool","type":"address","internalType":"address"},{"name":"_amount","type":"uint256","internalType":"uint256"}],"outputs":[],"stateMutability":"nonpayable"},{"type":"function","name":"emissionBudget","inputs":[{"name":"","type":"uint256","internalType":"uint256"}],"outputs":[{"name":"","type":"uint256","internalType":"uint256"}],"stateMutability":"view"},{"type":"function","name":"emissionsDistributed","inputs":[{"name":"","type":"uint256","internalType":"uint256"}],"outputs":[{"name":"","type":"uint256","internalType":"uint256"}],"stateMutability":"view"},{"type":"function","name":"getApproved","inputs":[{"name":"tokenId","type":"uint256","internalType":"uint256"}],"outputs":[{"name":"","type":"address","internalType":"address"}],"stateMutability":"view"},{"type":"function","name":"getEmissionBudget","inputs":[{"name":"_tokenId","type":"uint256","internalType":"uint256"}],"outputs":[{"name":"","type":"uint256","internalType":"uint256"}],"stateMutability":"view"},{"type":"function","name":"increaseAmount","inputs":[{"name":"_tokenId","type":"uint256","internalType":"uint256"},{"name":"_value","type":"uint256","internalType":"uint256"}],"outputs":[],"stateMutability":"nonpayable"},{"type":"function","name":"increaseUnlockTime","inputs":[{"name":"_tokenId","type":"uint256","internalType":"uint256"},{"name":"_lockDuration","type":"uint256","internalType":"uint256"}],"outputs":[],"stateMutability":"nonpayable"},{"type":"function","name":"initialize","inputs":[{"name":"_token","type":"address","internalType":"address"},{"name":"_voter","type":"address","internalType":"address"}],"outputs":[],"stateMutability":"nonpayable"},{"type":"function","name":"isApprovedForAll","inputs":[{"name":"owner","type":"address","internalType":"address"},{"name":"operator","type":"address","internalType":"address"}],"outputs":[{"name":"","type":"bool","internalType":"bool"}],"stateMutability":"view"},{"type":"function","name":"isApprovedOrOwner","inputs":[{"name":"_spender","type":"address","internalType":"address"},{"name":"_tokenId","type":"uint256","internalType":"uint256"}],"outputs":[{"name":"","type":"bool","internalType":"bool"}],"stateMutability":"view"},{"type":"function","name":"locked","inputs":[{"name":"_tokenId","type":"uint256","internalType":"uint256"}],"outputs":[{"name":"","type":"tuple","internalType":"struct IVotingEscrow.LockedBalance","components":[{"name":"amount","type":"int128","internalType":"int128"},{"name":"end","type":"uint256","internalType":"uint256"}]}],"stateMutability":"view"},{"type":"function","name":"merge","inputs":[{"name":"_from","type":"uint256","internalType":"uint256"},{"name":"_to","type":"uint256","internalType":"uint256"}],"outputs":[],"stateMutability":"nonpayable"},{"type":"function","name":"name","inputs":[],"outputs":[{"name":"","type":"string","internalType":"string"}],"stateMutability":"view"},{"type":"function","name":"ownerOf","inputs":[{"name":"tokenId","type":"uint256","internalType":"uint256"}],"outputs":[{"name":"","type":"address","internalType":"address"}],"stateMutability":"view"},{"type":"function","name":"safeTransferFrom","inputs":[{"name":"from","type":"address","internalType":"address"},{"name":"to","type":"address","internalType":"address"},{"name":"tokenId","type":"uint256","internalType":"uint256"}],"outputs":[],"stateMutability":"nonpayable"},{"type":"function","name":"safeTransferFrom","inputs":[{"name":"from","type":"address","internalType":"address"},{"name":"to","type":"address","internalType":"address"},{"name":"tokenId","type":"uint256","internalType":"uint256"},{"name":"data","type":"bytes","internalType":"bytes"}],"outputs":[],"stateMutability":"nonpayable"},{"type":"function","name":"setApprovalForAll","inputs":[{"name":"operator","type":"address","internalType":"address"},{"name":"approved","type":"bool","internalType":"bool"}],"outputs":[],"stateMutability":"nonpayable"},{"type":"function","name":"slopeChanges","inputs":[{"name":"","type":"uint256","internalType":"uint256"}],"outputs":[{"name":"","type":"int128","internalType":"int128"}],"stateMutability":"view"},{"type":"function","name":"split","inputs":[{"name":"_amounts","type":"uint256[]","internalType":"uint256[]"},{"name":"_tokenId","type":"uint256","internalType":"uint256"}],"outputs":[{"name":"","type":"uint256[]","internalType":"uint256[]"}],"stateMutability":"nonpayable"},{"type":"function","name":"supply","inputs":[],"outputs":[{"name":"","type":"uint256","internalType":"uint256"}],"stateMutability":"view"},{"type":"function","name":"supportsInterface","inputs":[{"name":"interfaceId","type":"bytes4","internalType":"bytes4"}],"outputs":[{"name":"","type":"bool","internalType":"bool"}],"stateMutability":"view"},{"type":"function","name":"symbol","inputs":[],"outputs":[{"name":"","type":"string","internalType":"string"}],"stateMutability":"view"},{"type":"function","name":"team","inputs":[],"outputs":[{"name":"","type":"address","internalType":"address"}],"stateMutability":"view"},{"type":"function","name":"token","inputs":[],"outputs":[{"name":"","type":"address","internalType":"address"}],"stateMutability":"view"},{"type":"function","name":"tokenByIndex","inputs":[{"name":"index","type":"uint256","internalType":"uint256"}],"outputs":[{"name":"","type":"uint256","internalType":"uint256"}],"stateMutability":"view"},{"type":"function","name":"tokenId","inputs":[],"outputs":[{"name":"","type":"uint256","internalType":"uint256"}],"stateMutability":"view"},{"type":"function","name":"tokenOfOwnerByIndex","inputs":[{"name":"owner","type":"address","internalType":"address"},{"name":"index","type":"uint256","internalType":"uint256"}],"outputs":[{"name":"","type":"uint256","internalType":"uint256"}],"stateMutability":"view"},{"type":"function","name":"tokenURI","inputs":[{"name":"tokenId","type":"uint256","internalType":"uint256"}],"outputs":[{"name":"","type":"string","internalType":"string"}],"stateMutability":"view"},{"type":"function","name":"totalSupply","inputs":[],"outputs":[{"name":"","type":"uint256","internalType":"uint256"}],"stateMutability":"view"},{"type":"function","name":"totalSupplyAt","inputs":[{"name":"_t","type":"uint256","internalType":"uint256"}],"outputs":[{"name":"","type":"uint256","internalType":"uint256"}],"stateMutability":"view"},{"type":"function","name":"transferFrom","inputs":[{"name":"from","type":"address","internalType":"address"},{"name":"to","type":"address","internalType":"address"},{"name":"tokenId","type":"uint256","internalType":"uint256"}],"outputs":[],"stateMutability":"nonpayable"},{"type":"function","name":"voted","inputs":[{"name":"","type":"uint256","internalType":"uint256"}],"outputs":[{"name":"","type":"bool","internalType":"bool"}],"stateMutability":"view"},{"type":"function","name":"voter","inputs":[],"outputs":[{"name":"","type":"address","internalType":"address"}],"stateMutability":"view"},{"type":"function","name":"voting","inputs":[{"name":"_tokenId","type":"uint256","internalType":"uint256"},{"name":"_status","type":"bool","internalType":"bool"}],"outputs":[],"stateMutability":"nonpayable"},{"type":"function","name":"withdraw","inputs":[{"name":"_tokenId","type":"uint256","internalType":"uint256"}],"outputs":[],"stateMutability":"nonpayable"},{"type":"event","name":"Approval","inputs":[{"name":"owner","type":"address","indexed":true,"internalType":"address"},{"name":"approved","type":"address","indexed":true,"internalType":"address"},{"name":"tokenId","type":"uint256","indexed":true,"internalType":"uint256"}],"anonymous":false},{"type":"event","name":"ApprovalForAll","inputs":[{"name":"owner","type":"address","indexed":true,"internalType":"address"},{"name":"operator","type":"address","indexed":true,"internalType":"address"},{"name":"approved","type":"bool","indexed":false,"internalType":"bool"}],"anonymous":false},{"type":"event","name":"Deposit","inputs":[{"name":"provider","type":"address","indexed":true,"internalType":"address"},{"name":"tokenId","type":"uint256","indexed":true,"internalType":"uint256"},{"name":"value","type":"uint256","indexed":false,"internalType":"uint256"},{"name":"lockTime","type":"uint256","indexed":true,"internalType":"uint256"},{"name":"timestamp","type":"uint256","indexed":false,"internalType":"uint256"}],"anonymous":false},{"type":"event","name":"Initialized","inputs":[{"name":"version","type":"uint64","indexed":false,"internalType":"uint64"}],"anonymous":false},{"type":"event","name":"Supply","inputs":[{"name":"prevSupply","type":"uint256","indexed":false,"internalType":"uint256"},{"name":"supply","type":"uint256","indexed":false,"internalType":"uint256"}],"anonymous":false},{"type":"event","name":"Transfer","inputs":[{"name":"from","type":"address","indexed":true,"internalType":"address"},{"name":"to","type":"address","indexed":true,"internalType":"address"},{"name":"tokenId","type":"uint256","indexed":true,"internalType":"uint256"}],"anonymous":false},{"type":"event","name":"Withdraw","inputs":[{"name":"provider","type":"address","indexed":true,"internalType":"address"},{"name":"tokenId","type":"uint256","indexed":true,"internalType":"uint256"},{"name":"value","type":"uint256","indexed":false,"internalType":"uint256"},{"name":"timestamp","type":"uint256","indexed":false,"internalType":"uint256"}],"anonymous":false},{"type":"error","name":"AlreadyVoted","inputs":[]},{"type":"error","name":"ERC721EnumerableForbiddenBatchMint","inputs":[]},{"type":"error","name":"ERC721IncorrectOwner","inputs":[{"name":"sender","type":"address","internalType":"address"},{"name":"tokenId","type":"uint256","internalType":"uint256"},{"name":"owner","type":"address","internalType":"address"}]},{"type":"error","name":"ERC721InsufficientApproval","inputs":[{"name":"operator","type":"address","internalType":"address"},{"name":"tokenId","type":"uint256","internalType":"uint256"}]},{"type":"error","name":"ERC721InvalidApprover","inputs":[{"name":"approver","type":"address","internalType":"address"}]},{"type":"error","name":"ERC721InvalidOperator","inputs":[{"name":"operator","type":"address","internalType":"address"}]},{"type":"error","name":"ERC721InvalidOwner","inputs":[{"name":"owner","type":"address","internalType":"address"}]},{"type":"error","name":"ERC721InvalidReceiver","inputs":[{"name":"receiver","type":"address","internalType":"address"}]},{"type":"error","name":"ERC721InvalidSender","inputs":[{"name":"sender","type":"address","internalType":"address"}]},{"type":"error","name":"ERC721NonexistentToken","inputs":[{"name":"tokenId","type":"uint256","internalType":"uint256"}]},{"type":"error","name":"ERC721OutOfBoundsIndex","inputs":[{"name":"owner","type":"address","internalType":"address"},{"name":"index","type":"uint256","internalType":"uint256"}]},{"type":"error","name":"InvalidInitialization","inputs":[]},{"type":"error","name":"InvalidLockTime","inputs":[]},{"type":"error","name":"LockExpired","inputs":[]},{"type":"error","name":"LockNotExpired","inputs":[]},{"type":"error","name":"LockTooLong","inputs":[]},{"type":"error","name":"NotApprovedOrOwner","inputs":[]},{"type":"error","name":"NotInitializing","inputs":[]},{"type":"error","name":"NotVoter","inputs":[]},{"type":"error","name":"ReentrancyGuardReentrantCall","inputs":[]},{"type":"error","name":"SafeERC20FailedOperation","inputs":[{"name":"token","type":"address","internalType":"address"}]},{"type":"error","name":"ZeroAmount","inputs":[]}],"bytecode":{"object":"0x6080806040523460ce5760017f9b779b17422d0df92223018b32b4d1fa46e071723d6817e2486d003becc55f00555f5160206135705f395f51905f525460ff8160401c1660bf576002600160401b03196001600160401b03821601606d575b60405161349d90816100d38239f35b6001600160401b0319166001600160401b039081175f5160206135705f395f51905f525581527fc7f505b2f371ae2175ee4913f4499e1f2633a7b5936321eed1cdaeb6115181d290602090a15f80605e565b63f92ee8a960e01b5f5260045ffd5b5f80fdfe6080806040526004361015610012575f80fd5b5f905f3560e01c90816301ffc9a714611f9f57508063047fc9aa14611f8257806306fdde0314611eb3578063081812fc14611e6a578063095ea7b314611d7e57806317d70f7c14611d6157806318160ddd14611d4657806323b872dd14611d2f5780632b562ce714611c165780632e1a7d4d14611a985780632f745c5914611a1457806342842e0e146119ea578063430c2081146119b457806346c96aac1461198b578063485cc955146114795780634f6ccce71461142357806356afe744146111545780635a4f459a146110f657806360a8113f146110cc5780636352211e1461109b57806370a082311461107757806385f2aef21461104e5780638fbb38ff1461101f57806395d89b4114610f24578063981b24d014610f055780639d507b8b14610d1e578063a22cb46514610c64578063b206486a14610c3a578063b2383e5514610ac8578063b45a3c0e14610a77578063b52c05fe146109cb578063b88d4fde14610936578063c87b56dd146108db578063d1c2babb146105bc578063e0514aba146105a2578063e7e242d414610582578063e985e9c514610535578063ec32e6df146102b4578063ee00ef3a14610295578063f52a36f714610268578063f7d3befa146102155763fc0c546a146101ec575f80fd5b34610212578060031936011261021257546040516001600160a01b039091168152602090f35b80fd5b503461021257602036600319011261021257602090600435808252600b83526040822054908252600a83526040822054908181115f1461026157610259925061248a565b604051908152f35b5050610259565b50346102125760203660031901126102125760406020916004358152600883522054600f0b604051908152f35b50346102125780600319360112610212576020604051630784ce008152f35b5034610212576060366003190112610212576044356004356001600160a01b0382168203610531576102e461295c565b80156105225762093a806102fa60243542612497565b0462093a8081029080820462093a80149015171561050e57428111156104ff57630784ce0042018042116104eb5781116104dc5761034761033c60035461264a565b809481600355612fbe565b828452600460205261035b604085206124a4565b9361036e8551600f0b84600f0b90612a4a565b91806104d257506103e06020860151925b6040519061038c826120d3565b600f0b815260208101938452600254966103a68689612497565b6002558684526004602052604084208251600f0b6001600160801b0319825416906001600160801b03161781556001865191015586612a70565b80546040516323b872dd60e01b8352336004523060245260448590526001600160a01b039091169060208360648180865af19060018451148216156104b1575b604052826060521561049e5750935f5160206133485f395f51905f52928460409384888360209a52600b8a5220610458848254612497565b90555191845190815242888201525f5160206133885f395f51905f52853392a4600254825191825285820152a160015f5160206133c85f395f51905f5255604051908152f35b635274afe760e01b825260045260249150fd5b9060018115166104c957823b15153d15161690610420565b503d83823e3d90fd5b6103e0909261037f565b63d6946a4360e01b8452600484fd5b634e487b7160e01b85526011600452602485fd5b63abf20e8f60e01b8452600484fd5b634e487b7160e01b84526011600452602484fd5b631f2a200560e01b8352600483fd5b5f80fd5b50346102125760403660031901126102125761054f612048565b61056061055a61205e565b916124c5565b9060018060a01b03165f52602052602060ff60405f2054166040519015158152f35b50346102125760203660031901126102125760206102594260043561320d565b50346102125760206102596105b6366120bd565b9061320d565b5034610212576105cb366120bd565b906105d461295c565b6105e8816105e1816127c7565b3390612994565b156108cc5761060082336105fb826127c7565b612994565b156108cc57808352600560205260ff60408420541680156108b6575b6108a7578083526004602052610634604084206124a4565b918084526004602052610649604085206124a4565b9260208101928351421015610898576020850190428251111561088957906106ee610767926106e98551600f0b975184518082115f146108815750955b604051610692816120d3565b8b815260018c604060208401918083528781526004602052209251600f0b6001600160801b0319845416906001600160801b031617835551910155604051906106da826120d3565b8b82528b602083015283612a70565b612d35565b6106fc858751600f0b612a4a565b9280610879575051915b60405190610713826120d3565b600f0b8152602081019283526002549561072d8688612497565b6002558488526004602052604088208251600f0b6001600160801b0319825416906001600160801b03161781556001855191015584612a70565b826107c2575b915f5160206133485f395f51905f529391604093519184519081524260208201525f5160206133885f395f51905f52853392a460025482519182526020820152a160015f5160206133c85f395f51905f525580f35b84546040516323b872dd60e01b8752336004523060245260448590526001600160a01b039091169060208760648180865af1906001885114821615610858575b6040528660605215610846575091816040935f5160206133485f395f51905f5295938752600b602052848720610839848254612497565b905591935091935061076d565b635274afe760e01b8652600452602485fd5b90600181151661087057823b15153d15161690610802565b503d87823e3d90fd5b905091610706565b905095610686565b6307b7d7dd60e51b8752600487fd5b6307b7d7dd60e51b8652600486fd5b637c9a1cf960e01b8352600483fd5b50818352600560205260ff60408420541661061c565b63390cdd9b60e21b8352600483fd5b5034610212576020366003190112610212576108f86004356127c7565b508060405161090860208261211f565b525061093260405161091b60208261211f565b5f8152604051918291602083526020830190612024565b0390f35b503461021257608036600319011261021257610950612048565b61095861205e565b906064359067ffffffffffffffff82116109c757366023830112156109c7578160040135928461098785612141565b93610995604051958661211f565b85855236602487830101116109c357856109c096602460209301838801378501015260443591612687565b80f35b5080fd5b8380fd5b5034610212576109da366120bd565b6109e261295c565b8115610522576109f662093a809142612497565b049062093a8082029180830462093a801490151715610a635742821115610a5457630784ce00420180421161050e578211610a4557610a3660035461264a565b91826003556103478333612fbe565b63d6946a4360e01b8352600483fd5b63abf20e8f60e01b8352600483fd5b634e487b7160e01b83526011600452602483fd5b503461021257602036600319011261021257610ab3604082819360208351610a9e816120d3565b828152015260043581526004602052206124a4565b60208251918051600f0b835201516020820152f35b503461021257610ad7366120bd565b610adf61295c565b610aec826105e1816127c7565b156108cc578015610522578183526004602052610b0b604084206124a4565b91838351600f0b1315610c2b57602083018051421015610c1c57610b4a610b3a8551600f0b85600f0b90612a4a565b91519160405190610713826120d3565b84546040516323b872dd60e01b8752336004523060245260448590526001600160a01b039091169060208760648180865af1906001885114821615610c04575b6040528660605215610846575091816040935f5160206133485f395f51905f5295938752600b602052848720610bc1848254612497565b9055519184519081524260208201525f5160206133885f395f51905f52853392a460025482519182526020820152a160015f5160206133c85f395f51905f525580f35b90600181151661087057823b15153d15161690610b8a565b6307b7d7dd60e51b8552600485fd5b631f2a200560e01b8452600484fd5b50346102125760203660031901126102125760406020916004358152600a83522054604051908152f35b503461021257604036600319011261021257610c7e612048565b610c866120ae565b903315610d0a576001600160a01b0316908115610cf657610ca6336124c5565b825f52602052610cc58160405f209060ff801983541691151516179055565b60405190151581527f17307eab39ab6107e8899845ad3d59bd9653f200f220920489ca2b5937696c3160203392a380f35b630b61174360e31b83526004829052602483fd5b63a9fbf51f60e01b83526004839052602483fd5b503461021257610d2d366120bd565b610d3561295c565b610d42826105e1816127c7565b156108cc578183526004602052610d5b604084206124a4565b90838251600f0b1315610c2b5760208201908151421015610c1c57838552600560205260ff604086205416610ef657610d9862093a809142612497565b049062093a8082029180830462093a8014901517156104eb578051821115610ee757630784ce004201804211610ec4578211610ed8578251600f0b9160016001607f1b03831360016001607f1b0319841217610ec45780610ebc575051915b60405191610e04836120d3565b8252602082019283526002549480610ea8575f5160206133485f395f51905f526040878787610e68888885600255845f526004602052865f208251600f0b6001600160801b0319825416906001600160801b03161781556001855191015584612a70565b519083515f81524260208201525f5160206133885f395f51905f52853392a460025482519182526020820152a160015f5160206133c85f395f51905f5255005b634e487b7160e01b81526011600452602490fd5b905091610df7565b634e487b7160e01b86526011600452602486fd5b63d6946a4360e01b8552600485fd5b63abf20e8f60e01b8552600485fd5b637c9a1cf960e01b8552600485fd5b5034610212576020366003190112610212576020610259600435612869565b503461021257806003193601126102125760405190805f5160206134285f395f51905f525490610f538261215d565b8085529160018116908115610ff85750600114610f8f575b61093284610f7b8186038261211f565b604051918291602083526020830190612024565b5f5160206134285f395f51905f5281527ff4bad0a69248f59680a4f2b3000328cec71a413447c96781cfe5996daa8c456e939250905b808210610fde57509091508101602001610f7b82610f6b565b919260018160209254838588010152019101909291610fc5565b60ff191660208087019190915292151560051b85019092019250610f7b9150839050610f6b565b50346102125760203660031901126102125760ff60406020926004358152600584522054166040519015158152f35b50346102125780600319360112610212576009546040516001600160a01b039091168152602090f35b5034610212576020366003190112610212576020610259611096612048565b612658565b50346102125760203660031901126102125760206110ba6004356127c7565b6040516001600160a01b039091168152f35b50346102125760203660031901126102125760406020916004358152600b83522054604051908152f35b5034610212576040366003190112610212576111106120ae565b6001546001600160a01b03163303611145576109c09060043583526005602052604083209060ff801983541691151516179055565b63c18384c160e01b8252600482fd5b50346102125760403660031901126102125760043567ffffffffffffffff81116109c357366023820112156109c35780600401359067ffffffffffffffff821161141f576024810190602436918460051b01011161141f57602435906111b861295c565b6111c5826105e1816127c7565b1561141057818452600560205260ff6040852054166114015781845260046020526111f2604085206124a4565b91602083019283514210156108985785865b8681106113e157508151600f0b036113d257906106e96112809260405161122a816120d3565b8881526001602082018a8152858b52600460205260408b209251600f0b6001600160801b0319845416906001600160801b03161783555191015560405190611271826120d3565b88825288602083015283612a70565b61128983612632565b91611297604051938461211f565b8383526112a384612632565b602084019490601f1901368637855b81811061130e5786858760015f5160206133c85f395f51905f5255604051928392602084019060208552518091526040840192915b8181106112f5575050500390f35b82518452859450602093840193909201916001016112e7565b61131960035461264a565b8060035585518210156113be579061133e8260019360208460051b8a01015233612fbe565b6113b861134c828588612622565b35600f0b85516040519161135f836120d3565b8252602082019081526003548b5260046020528460408c20918351600f0b6001600160801b0319845416906001600160801b031617835551910155600354604051906113aa826120d3565b8b82528b6020830152612a70565b016112b2565b634e487b7160e01b88526032600452602488fd5b631f2a200560e01b8652600486fd5b906113fa6001916113f3848a89612622565b3590612497565b9101611204565b637c9a1cf960e01b8452600484fd5b63390cdd9b60e21b8452600484fd5b8280fd5b5034610212576020366003190112610212576004359061144242612869565b821015611463576020611454836125f2565b90549060031b1c604051908152f35b60449163295f44f760e21b825281600452602452fd5b503461021257604036600319011261021257611493612048565b61149b61205e565b5f5160206134085f395f51905f52549060ff8260401c16159167ffffffffffffffff811680159081611983575b6001149081611979575b159081611970575b506119615767ffffffffffffffff1981166001175f5160206134085f395f51905f525582611935575b506040928351611513858261211f565b60118152702b37ba3296b2b9b1b937bbb2b210212a2160791b602082015284519061153e868361211f565b60058252643b32a12a2160d91b602083015261155861329c565b61156061329c565b80519067ffffffffffffffff821161192157819061158b5f5160206133085f395f51905f525461215d565b601f81116118a3575b50602090601f831160011461181c578992611811575b50508160011b915f199060031b1c1916175f5160206133085f395f51905f52555b80519067ffffffffffffffff82116117fd5781906115f65f5160206134285f395f51905f525461215d565b601f8111611783575b50602090601f83116001146117075788926116fc575b50508160011b915f199060031b1c1916175f5160206134285f395f51905f52555b61163e61329c565b84546001600160a01b03199081166001600160a01b03928316178655600180548216939092169290921790556009805490911633179055815161169d9061168481612103565b848152846020820152428482015243606082015261257e565b6116a5575080f35b60207fc7f505b2f371ae2175ee4913f4499e1f2633a7b5936321eed1cdaeb6115181d29168ff0000000000000000195f5160206134085f395f51905f5254165f5160206134085f395f51905f52555160018152a180f35b015190505f80611615565b5f5160206134285f395f51905f5289528189209250601f198416895b81811061176b5750908460019594939210611753575b505050811b015f5160206134285f395f51905f5255611636565b01515f1960f88460031b161c191690555f8080611739565b92936020600181928786015181550195019301611723565b5f5160206134285f395f51905f5289529091507ff4bad0a69248f59680a4f2b3000328cec71a413447c96781cfe5996daa8c456e601f840160051c810191602085106117f3575b90601f859493920160051c01905b8181106117e557506115ff565b8981558493506001016117d8565b90915081906117ca565b634e487b7160e01b87526041600452602487fd5b015190505f806115aa565b5f5160206133085f395f51905f528a525f5160206134485f395f51905f529250601f1984168a5b81811061188b5750908460019594939210611873575b505050811b015f5160206133085f395f51905f52556115cb565b01515f1960f88460031b161c191690555f8080611859565b92936020600181928786015181550195019301611843565b9091505f5160206133085f395f51905f528952601f830160051c5f5160206134485f395f51905f5201906020841061190c575b90601f8493920160051c5f5160206134485f395f51905f5201905b8181106118fe5750611594565b8a81558493506001016118f1565b5f5160206134485f395f51905f5291506118d6565b634e487b7160e01b88526041600452602488fd5b68ffffffffffffffffff191668010000000000000001175f5160206134085f395f51905f52555f611503565b63f92ee8a960e01b8552600485fd5b9050155f6114da565b303b1591506114d2565b8491506114c8565b50346102125780600319360112610212576001546040516001600160a01b039091168152602090f35b50346102125760403660031901126102125760206119e06119d3612048565b602435906105fb826127c7565b6040519015158152f35b5034610212576109c06119fc36612074565b9060405192611a0c60208561211f565b858452612687565b503461021257604036600319011261021257611a2e612048565b90602435611a3b83612658565b811015611a75579060409160209360018060a01b031682525f5160206132e85f395f51905f52845282822090825283522054604051908152f35b63295f44f760e21b82526001600160a01b03909216600452602491909152604490fd5b503461021257602036600319011261021257600435611ab561295c565b611ac2816105e1816127c7565b15611c07578082526004602052611adb604083206124a4565b9060208201514210611bf857808352600560205260ff6040842054166108a757816040915f5160206133485f395f51905f529351600f0b8351611b1d816120d3565b86815260016020820188815284895260046020528689209251600f0b6001600160801b0319845416906001600160801b031617835551910155611b8560025493611b67838661248a565b600255855190611b76826120d3565b88825288602083015284612a70565b8554611b9d90829033906001600160a01b03166128db565b611ba682612d35565b83519081524260208201527f02f25270a4d87bea75db541cdfe559334a275b4a233520ed6c0a2429667cca94843392a360025482519182526020820152a160015f5160206133c85f395f51905f525580f35b63342ad40160e11b8352600483fd5b63390cdd9b60e21b8252600482fd5b503461053157606036600319011261053157600435611c3361205e565b60015460443592906001600160a01b03163303611d20578215611d0957805f52600b60205260405f2054815f52600a60205260405f20548082115f14611d1857611c7c9161248a565b8311611d09575f54611c9a90849084906001600160a01b03166128db565b5f52600a60205260405f20611cb0838254612497565b90556001600160a01b031690813b15610531575f91602483926040519485938492633c6b16ab60e01b845260048401525af18015611cfe57611cf0575080f35b611cfc91505f9061211f565b005b6040513d5f823e3d90fd5b631f2a200560e01b5f5260045ffd5b50505f611c7c565b63c18384c160e01b5f5260045ffd5b3461053157611cfc611d4036612074565b91612195565b34610531575f36600319011261053157602061025942612869565b34610531575f366003190112610531576020600354604051908152f35b3461053157604036600319011261053157611d97612048565b602435611da3816127c7565b33151580611e57575b80611e34575b611e215781906001600160a01b0384811691167f8c5be1e5ebec7d5bd14f71427d1e84f3dd0314c0f7b2291e5b200ac8c7c3b9255f80a45f9081525f5160206133e85f395f51905f526020526040902080546001600160a01b0319166001600160a01b03909216919091179055005b63a9fbf51f60e01b5f523360045260245ffd5b50611e3e816124c5565b335f908152602091909152604090205460ff1615611db2565b506001600160a01b038116331415611dac565b346105315760203660031901126105315760206110ba600435611e8c816127c7565b505f9081525f5160206133e85f395f51905f5260205260409020546001600160a01b031690565b34610531575f366003190112610531576040515f5f5160206133085f395f51905f5254611edf8161215d565b8084529060018116908115611f5e5750600114611f07575b61093283610f7b8185038261211f565b5f5160206133085f395f51905f525f9081525f5160206134485f395f51905f52939250905b808210611f4457509091508101602001610f7b611ef7565b919260018160209254838588010152019101909291611f2c565b60ff191660208086019190915291151560051b84019091019150610f7b9050611ef7565b34610531575f366003190112610531576020600254604051908152f35b34610531576020366003190112610531576004359063ffffffff60e01b82168092036105315760209163780e9d6360e01b8114908115611fe1575b5015158152f35b6380ac58cd60e01b811491508115612013575b8115612002575b5083611fda565b6301ffc9a760e01b14905083611ffb565b635b5e139f60e01b81149150611ff4565b805180835260209291819084018484015e5f828201840152601f01601f1916010190565b600435906001600160a01b038216820361053157565b602435906001600160a01b038216820361053157565b6060906003190112610531576004356001600160a01b038116810361053157906024356001600160a01b0381168103610531579060443590565b60243590811515820361053157565b6040906003190112610531576004359060243590565b6040810190811067ffffffffffffffff8211176120ef57604052565b634e487b7160e01b5f52604160045260245ffd5b6080810190811067ffffffffffffffff8211176120ef57604052565b90601f8019910116810190811067ffffffffffffffff8211176120ef57604052565b67ffffffffffffffff81116120ef57601f01601f191660200190565b90600182811c9216801561218b575b602083101461217757565b634e487b7160e01b5f52602260045260245ffd5b91607f169161216c565b9091906001600160a01b038316801561247757825f52600560205260ff60405f205416612468576121c58361324d565b9033612422575b6001600160a01b0382169485158015612404575b6121e9826124fd565b60018154019055855f525f5160206133a85f395f51905f5260205260405f20836001600160601b0360a01b8254161790558583887fddf252ad1be2c89b69c2b068fc378daa952ba7f163c4a11628f55a4df523b3ef5f80a415612357575f5160206133685f395f51905f5254855f525f5160206133285f395f51905f526020528060405f2055600160401b8110156120ef578561229b8260016122b394015f5160206133685f395f51905f52556125f2565b90919082549060031b91821b915f19901b1916179055565b8186036122eb575b5050506001600160a01b03168083036122d357505050565b6364283d7b60e01b5f5260045260245260445260645ffd5b6122f490612658565b5f19810191908211612343575f525f5160206132e85f395f51905f5260205260405f20815f526020528360405f2055835f525f5160206132c85f395f51905f5260205260405f20555f806122bb565b634e487b7160e01b5f52601160045260245ffd5b8582146122b35761236783612658565b855f525f5160206132c85f395f51905f5260205260405f205490875f525f5160206132e85f395f51905f5260205260405f20918181036123cd575b50865f525f5160206132c85f395f51905f526020525f60408120555f526020525f60408120556122b3565b815f528260205260405f2054815f52836020528060405f20555f525f5160206132c85f395f51905f5260205260405f20555f6123a2565b61240d86613273565b612416846124fd565b80545f190190556121e0565b61242d843384612994565b6121cc57836001600160a01b03831661245257637e27328960e01b5f5260045260245ffd5b63177e802f60e01b5f523360045260245260445ffd5b637c9a1cf960e01b5f5260045ffd5b633250574960e11b5f525f60045260245ffd5b9190820391821161234357565b9190820180921161234357565b906040516124b1816120d3565b6020600182948054600f0b84520154910152565b6001600160a01b03165f9081527f80bb2b638cc20bc4d0a60d66940f3ab4a00c1d7b313497ca82fb0b4ab00793056020526040902090565b6001600160a01b03165f9081527f80bb2b638cc20bc4d0a60d66940f3ab4a00c1d7b313497ca82fb0b4ab00793036020526040902090565b6007548110156125515760075f52600360205f20910201905f90565b634e487b7160e01b5f52603260045260245ffd5b8054821015612551575f52600360205f20910201905f90565b600754600160401b8110156120ef5780600161259f92016007556007612565565b9190916125df578051602082015160801b6001600160801b0319166001600160801b03909116178255604081015160018301556060015160029190910155565b634e487b7160e01b5f525f60045260245ffd5b5f5160206133685f395f51905f5254811015612551575f5160206133685f395f51905f525f5260205f2001905f90565b91908110156125515760051b0190565b67ffffffffffffffff81116120ef5760051b60200190565b5f1981146123435760010190565b6001600160a01b0381161561267457612670906124fd565b5490565b6322718ad960e21b5f525f60045260245ffd5b9291612694818386612195565b813b6126a1575b50505050565b604051630a85bd0160e11b81523360048201526001600160a01b03948516602482015260448101919091526080606482015292169190602090829081906126ec906084830190612024565b03815f865af15f9181612782575b5061274f57503d15612748573d61271081612141565b9061271e604051928361211f565b81523d5f602083013e5b805190816127435782633250574960e11b5f5260045260245ffd5b602001fd5b6060612728565b6001600160e01b03191663757a42ff60e11b0161277057505f80808061269b565b633250574960e11b5f5260045260245ffd5b9091506020813d6020116127bf575b8161279e6020938361211f565b8101031261053157516001600160e01b03198116810361053157905f6126fa565b3d9150612791565b6127d08161324d565b906001600160a01b038216156127e4575090565b637e27328960e01b5f5260045260245ffd5b9060405161280381612103565b606060028294805480600f0b855260801d600f0b6020850152600181015460408501520154910152565b90600f0b90600f0b029081600f0b91820361234357565b600f91820b910b039060016001607f1b0319821260016001607f1b0383131761234357565b60075480156128d5575f198101908111612343576128b661289561288f6128c093612535565b506127f6565b926128ad6020850151600f0b9160408601519061248a565b600f0b9061282d565b8251600f0b612844565b600f0b8091525f81126128d05790565b505f90565b50505f90565b916040519163a9059cbb60e01b5f5260018060a01b031660045260245260205f60448180865af19060015f511482161561293b575b6040521561291b5750565b635274afe760e01b5f9081526001600160a01b0391909116600452602490fd5b90600181151661295357823b15153d15161690612910565b503d5f823e3d90fd5b60025f5160206133c85f395f51905f5254146129855760025f5160206133c85f395f51905f5255565b633ee5aeb560e01b5f5260045ffd5b6001600160a01b0390911680151592836129af575b50505090565b6001600160a01b0383168214935090918315612a06575b5082156129d8575b50505f80806129a9565b5f9081525f5160206133e85f395f51905f5260205260408120546001600160a01b03169091149150806129ce565b612a119193506124c5565b815f5260205260ff60405f205416915f6129c6565b60405190612a3382612103565b5f6060838281528260208201528260408201520152565b90600f0b90600f0b019060016001607f1b0319821260016001607f1b0383131761234357565b91612a79612a26565b90612a82612a26565b9284612bfa575b5050604082019242845260608301904382525f52600660205260405f208054600160401b8110156120ef57612ac391600182018155612565565b9190916125df57835160208501805160801b6001600160801b0319166001600160801b03909216919091178355945160018301555160029190910155600754908115612bbf575f198201918211612343576020612b61612bac9582612b50612b45612b3361288f612b6d99612535565b985b8951600f0b9051600f0b90612a4a565b8651600f0b90612844565b960151600f0b9051600f0b90612a4a565b910151600f0b90612844565b5f60405192612b7b84612103565b600f0b808452816020850193600f0b9182855242604087015243606087015212612bb7575b12612bae575b5061257e565b565b5f90525f612ba6565b818452612ba0565b612b6d91506020612b61612bac9582612b50612b45604051612be081612103565b5f81525f8482015242604082015243606082015298612b35565b60208101908151421080612d28575b612cf8575b5060208201914283511180612ceb575b612cbb575b505180612c7a575b505180612c39575b80612a89565b6020830151600f0b905f526008602052612c5b60405f20918254600f0b612844565b6001600160801b0319825416906001600160801b03161790555f612c33565b6020830151600f0b905f526008602052612c9c60405f20918254600f0b612a4a565b6001600160801b0319825416906001600160801b03161790555f612c2b565b630784ce00612ce09151600f0b600f0b05600f0b8060208701526128ad42855161248a565b600f0b84525f612c23565b505f8151600f0b13612c1e565b630784ce00612d1d9151600f0b600f0b05600f0b8060208601526128ad42845161248a565b600f0b83525f612c0e565b505f8151600f0b13612c09565b805f52600560205260ff60405f20541661246857612d528161324d565b6001600160a01b03811680159190821580612fa0575b5f8581525f5160206133a85f395f51905f526020526040812080546001600160a01b03191690558590837fddf252ad1be2c89b69c2b068fc378daa952ba7f163c4a11628f55a4df523b3ef8280a48315612eef5750505f5160206133685f395f51905f5254835f525f5160206133285f395f51905f526020528060405f2055600160401b8110156120ef578361229b826001612e1394015f5160206133685f395f51905f52556125f2565b5f5160206133685f395f51905f52545f19810190811161234357835f525f5160206133285f395f51905f52602052612e4f60405f2054916125f2565b90549060031b1c612e638161229b846125f2565b5f525f5160206133285f395f51905f5260205260405f2055825f525f5160206133285f395f51905f526020525f60408120555f5160206133685f395f51905f52548015612edb575f1901612eb6816125f2565b8154905f199060031b1b191690555f5160206133685f395f51905f5255506127e45750565b634e487b7160e01b5f52603160045260245ffd5b612efa575b50612e13565b612f0382612658565b845f525f5160206132c85f395f51905f5260205260405f2054915f525f5160206132e85f395f51905f5260205260405f2091818103612f69575b50845f525f5160206132c85f395f51905f526020525f60408120555f526020525f60408120555f612ef4565b815f528260205260405f2054815f52836020528060405f20555f525f5160206132c85f395f51905f5260205260405f20555f612f3d565b612fa985613273565b612fb2836124fd565b80545f19019055612d68565b906001600160a01b038216801561247757815f52600560205260ff60405f20541661246857612fec8261324d565b6001600160a01b038116801580159592949291908490876131ef575b613011846124fd565b60018154019055845f525f5160206133a85f395f51905f5260205260405f20826001600160601b0360a01b8254161790558482847fddf252ad1be2c89b69c2b068fc378daa952ba7f163c4a11628f55a4df523b3ef5f80a41561314157505f5160206133685f395f51905f525490835f525f5160206133285f395f51905f526020528160405f2055600160401b8210156120ef576130c68461229b8460018996015f5160206133685f395f51905f52556125f2565b036130e9575b505050506130d657565b6339e3563760e11b5f525f60045260245ffd5b6130f290612658565b5f19810192908311612343575f525f5160206132e85f395f51905f5260205260405f20825f526020528060405f20555f525f5160206132c85f395f51905f5260205260405f20555f80806130cc565b908082146130c65761315286612658565b845f525f5160206132c85f395f51905f5260205260405f205490825f525f5160206132e85f395f51905f5260205260405f20918181036131b8575b50855f525f5160206132c85f395f51905f526020525f60408120555f526020525f60408120556130c6565b815f528260205260405f2054815f52836020528060405f20555f525f5160206132c85f395f51905f5260205260405f20555f61318d565b6131f885613273565b613201876124fd565b80545f19019055613008565b805f52600660205260405f2054156128d5575f90815260066020526040902080545f198101919082116123435761289561288f6128c0936128b693612565565b5f9081525f5160206133a85f395f51905f5260205260409020546001600160a01b031690565b5f525f5160206133e85f395f51905f5260205260405f206001600160601b0360a01b8154169055565b60ff5f5160206134085f395f51905f525460401c16156132b857565b631afcd79f60e31b5f5260045ffdfe645e039705490088daad89bae25049a34f4a9072d398537b1ab2425f24cbed01645e039705490088daad89bae25049a34f4a9072d398537b1ab2425f24cbed0080bb2b638cc20bc4d0a60d66940f3ab4a00c1d7b313497ca82fb0b4ab0079300645e039705490088daad89bae25049a34f4a9072d398537b1ab2425f24cbed035e2aa66efd74cce82b21852e317e5490d9ecc9e6bb953ae24d90851258cc2f5c645e039705490088daad89bae25049a34f4a9072d398537b1ab2425f24cbed027162984403f6c73c8639375d45a9187dfd04602231bd8e587c415718b5f7e5f980bb2b638cc20bc4d0a60d66940f3ab4a00c1d7b313497ca82fb0b4ab00793029b779b17422d0df92223018b32b4d1fa46e071723d6817e2486d003becc55f0080bb2b638cc20bc4d0a60d66940f3ab4a00c1d7b313497ca82fb0b4ab0079304f0c57e16840df040f15088dc2f81fe391c3923bec73e23a9662efc9c229c6a0080bb2b638cc20bc4d0a60d66940f3ab4a00c1d7b313497ca82fb0b4ab007930137c58c799b6609234b945e882912ee9ad34948a1dfaa20a97485e1a7752bbf81a2646970667358221220ccb4c1f48b5154a00575ba9146703f9d1060481fc9fca4a43e5723531570b8dc64736f6c634300081b0033f0c57e16840df040f15088dc2f81fe391c3923bec73e23a9662efc9c229c6a00","linkReferences":{}},"methodIdentifiers":{"MAXTIME()":"ee00ef3a","approve(address,uint256)":"095ea7b3","balanceOf(address)":"70a08231","balanceOfNFT(uint256)":"e7e242d4","balanceOfNFTAt(uint256,uint256)":"e0514aba","createLock(uint256,uint256)":"b52c05fe","createLockFor(uint256,uint256,address)":"ec32e6df","distributeEmission(uint256,address,uint256)":"2b562ce7","emissionBudget(uint256)":"60a8113f","emissionsDistributed(uint256)":"b206486a","getApproved(uint256)":"081812fc","getEmissionBudget(uint256)":"f7d3befa","increaseAmount(uint256,uint256)":"b2383e55","increaseUnlockTime(uint256,uint256)":"9d507b8b","initialize(address,address)":"485cc955","isApprovedForAll(address,address)":"e985e9c5","isApprovedOrOwner(address,uint256)":"430c2081","locked(uint256)":"b45a3c0e","merge(uint256,uint256)":"d1c2babb","name()":"06fdde03","ownerOf(uint256)":"6352211e","safeTransferFrom(address,address,uint256)":"42842e0e","safeTransferFrom(address,address,uint256,bytes)":"b88d4fde","setApprovalForAll(address,bool)":"a22cb465","slopeChanges(uint256)":"f52a36f7","split(uint256[],uint256)":"56afe744","supply()":"047fc9aa","supportsInterface(bytes4)":"01ffc9a7","symbol()":"95d89b41","team()":"85f2aef2","token()":"fc0c546a","tokenByIndex(uint256)":"4f6ccce7","tokenId()":"17d70f7c","tokenOfOwnerByIndex(address,uint256)":"2f745c59","tokenURI(uint256)":"c87b56dd","totalSupply()":"18160ddd","totalSupplyAt(uint256)":"981b24d0","transferFrom(address,address,uint256)":"23b872dd","voted(uint256)":"8fbb38ff","voter()":"46c96aac","voting(uint256,bool)":"5a4f459a","withdraw(uint256)":"2e1a7d4d"},"id":89}