{"abi":[{"type":"constructor","inputs":[{"name":"_veBTB","type":"address","internalType":"address"},{"name":"_feeRecipient","type":"address","internalType":"address"}],"stateMutability":"nonpayable"},{"type":"function","name":"bribeFeeBps","inputs":[],"outputs":[{"name":"","type":"uint256","internalType":"uint256"}],"stateMutability":"view"},{"type":"function","name":"bribes","inputs":[{"name":"","type":"bytes32","internalType":"bytes32"},{"name":"","type":"uint256","internalType":"uint256"}],"outputs":[{"name":"token","type":"address","internalType":"address"},{"name":"amount","type":"uint256","internalType":"uint256"},{"name":"startTime","type":"uint256","internalType":"uint256"},{"name":"endTime","type":"uint256","internalType":"uint256"},{"name":"briber","type":"address","internalType":"address"},{"name":"active","type":"bool","internalType":"bool"}],"stateMutability":"view"},{"type":"function","name":"claimBribes","inputs":[{"name":"poolId","type":"bytes32","internalType":"bytes32"}],"outputs":[],"stateMutability":"nonpayable"},{"type":"function","name":"createBribe","inputs":[{"name":"poolId","type":"bytes32","internalType":"bytes32"},{"name":"token","type":"address","internalType":"address"},{"name":"amount","type":"uint256","internalType":"uint256"},{"name":"duration","type":"uint256","internalType":"uint256"}],"outputs":[{"name":"bribeId","type":"uint256","internalType":"uint256"}],"stateMutability":"nonpayable"},{"type":"function","name":"feeRecipient","inputs":[],"outputs":[{"name":"","type":"address","internalType":"address"}],"stateMutability":"view"},{"type":"function","name":"getClaimableBribes","inputs":[{"name":"user","type":"address","internalType":"address"},{"name":"poolId","type":"bytes32","internalType":"bytes32"}],"outputs":[{"name":"totalAmount","type":"uint256","internalType":"uint256"},{"name":"tokens","type":"address[]","internalType":"address[]"},{"name":"amounts","type":"uint256[]","internalType":"uint256[]"}],"stateMutability":"view"},{"type":"function","name":"nextBribeId","inputs":[],"outputs":[{"name":"","type":"uint256","internalType":"uint256"}],"stateMutability":"view"},{"type":"function","name":"owner","inputs":[],"outputs":[{"name":"","type":"address","internalType":"address"}],"stateMutability":"view"},{"type":"function","name":"poolBribes","inputs":[{"name":"","type":"bytes32","internalType":"bytes32"},{"name":"","type":"uint256","internalType":"uint256"}],"outputs":[{"name":"","type":"uint256","internalType":"uint256"}],"stateMutability":"view"},{"type":"function","name":"recordVote","inputs":[{"name":"user","type":"address","internalType":"address"},{"name":"poolId","type":"bytes32","internalType":"bytes32"},{"name":"amount","type":"uint256","internalType":"uint256"}],"outputs":[],"stateMutability":"nonpayable"},{"type":"function","name":"rescueTokens","inputs":[{"name":"token","type":"address","internalType":"address"},{"name":"amount","type":"uint256","internalType":"uint256"}],"outputs":[],"stateMutability":"nonpayable"},{"type":"function","name":"setBribeFee","inputs":[{"name":"newFeeBps","type":"uint256","internalType":"uint256"}],"outputs":[],"stateMutability":"nonpayable"},{"type":"function","name":"setFeeRecipient","inputs":[{"name":"newRecipient","type":"address","internalType":"address"}],"outputs":[],"stateMutability":"nonpayable"},{"type":"function","name":"totalBribesPerPool","inputs":[{"name":"","type":"bytes32","internalType":"bytes32"}],"outputs":[{"name":"","type":"uint256","internalType":"uint256"}],"stateMutability":"view"},{"type":"function","name":"userVotes","inputs":[{"name":"","type":"address","internalType":"address"},{"name":"","type":"bytes32","internalType":"bytes32"}],"outputs":[{"name":"amount","type":"uint256","internalType":"uint256"},{"name":"timestamp","type":"uint256","internalType":"uint256"}],"stateMutability":"view"},{"type":"function","name":"veBTB","inputs":[],"outputs":[{"name":"","type":"address","internalType":"contract VotingEscrow"}],"stateMutability":"view"},{"type":"event","name":"BribeClaimed","inputs":[{"name":"poolId","type":"bytes32","indexed":true,"internalType":"bytes32"},{"name":"bribeId","type":"uint256","indexed":true,"internalType":"uint256"},{"name":"user","type":"address","indexed":true,"internalType":"address"},{"name":"amount","type":"uint256","indexed":false,"internalType":"uint256"}],"anonymous":false},{"type":"event","name":"BribeCreated","inputs":[{"name":"bribeId","type":"uint256","indexed":true,"internalType":"uint256"},{"name":"poolId","type":"bytes32","indexed":true,"internalType":"bytes32"},{"name":"token","type":"address","indexed":true,"internalType":"address"},{"name":"amount","type":"uint256","indexed":false,"internalType":"uint256"},{"name":"startTime","type":"uint256","indexed":false,"internalType":"uint256"},{"name":"endTime","type":"uint256","indexed":false,"internalType":"uint256"}],"anonymous":false},{"type":"event","name":"VoteRecorded","inputs":[{"name":"user","type":"address","indexed":true,"internalType":"address"},{"name":"poolId","type":"bytes32","indexed":true,"internalType":"bytes32"},{"name":"amount","type":"uint256","indexed":false,"internalType":"uint256"}],"anonymous":false},{"type":"error","name":"AlreadyClaimed","inputs":[]},{"type":"error","name":"BribeNotActive","inputs":[]},{"type":"error","name":"InvalidBribePeriod","inputs":[]},{"type":"error","name":"NoVotingPower","inputs":[]},{"type":"error","name":"NotOwner","inputs":[]},{"type":"error","name":"ReentrancyGuardReentrantCall","inputs":[]},{"type":"error","name":"SafeERC20FailedOperation","inputs":[{"name":"token","type":"address","internalType":"address"}]}],"bytecode":{"object":"0x60803460c357601f610df138819003918201601f19168301916001600160401b0383118484101760c757808492604094855283398101031260c357604b602060458360db565b920160db565b60017f9b779b17422d0df92223018b32b4d1fa46e071723d6817e2486d003becc55f0081905560646006555f80546001600160a01b03199081166001600160a01b03958616179091556007805482169490931693909317909155600880549092163317909155600455604051610d0290816100ef8239f35b5f80fd5b634e487b7160e01b5f52604160045260245ffd5b51906001600160a01b038216820360c35756fe60806040526004361015610011575f80fd5b5f3560e01c80630eeea0631461068257806317422904146105195780632f60deae146104ef57806346904840146104c7578063573761981461048157806360c74a3c14610464578063746a7d85146104175780637de42549146103fa578063874efcfc1461034b5780638da5cb5b146103235780638eaced98146102aa5780639ba53e501461026c578063a207b28c14610203578063ddceb08514610150578063e74b981b146100f45763f0aeeb68146100c9575f80fd5b346100f0575f3660031901126100f0575f546040516001600160a01b039091168152602090f35b5f80fd5b346100f05760203660031901126100f05761010d610957565b6008546001600160a01b0316330361014157600780546001600160a01b0319166001600160a01b0392909216919091179055005b6330cd747160e01b5f5260045ffd5b346100f05760403660031901126100f05761017561016c610957565b60243590610a53565b604051928352606060208085018290528351918501829052849360808501929101905f5b8181106101e1575050508281036040840152602080835192838152019201905f5b8181106101c8575050500390f35b82518452859450602093840193909201916001016101ba565b82516001600160a01b0316845286955060209384019390920191600101610199565b346100f05760203660031901126100f057600854600435906001600160a01b03163303610141576101f4811161023857600655005b60405162461bcd60e51b815260206004820152600c60248201526b08ccaca40e8dede40d0d2ced60a31b6044820152606490fd5b346100f05761027a3661096d565b905f52600260205260405f2080548210156100f05760209161029b91610983565b90549060031b1c604051908152f35b346100f0576102b83661096d565b905f52600160205260405f20905f5260205260c060405f2060ff60018060a01b03825416916001810154906002810154600460038301549201549260405195865260208601526040850152606084015260018060a01b038116608084015260a01c16151560a0820152f35b346100f0575f3660031901126100f0576008546040516001600160a01b039091168152602090f35b346100f05760603660031901126100f057610364610957565b604080516024359291810160443567ffffffffffffffff8211838310176103e6577f40a97aa2ccfa390954a6bc1c8c7236f8956437a4a2926f847feb3d3108e116c592602092604052818152600183820195428752818060a01b031695865f526003855260405f20885f52855260405f209251835551910155604051908152a3005b634e487b7160e01b5f52604160045260245ffd5b346100f0575f3660031901126100f0576020600454604051908152f35b346100f05760403660031901126100f0576001600160a01b03610438610957565b165f52600360205260405f206024355f526020526040805f206001815491015482519182526020820152f35b346100f0575f3660031901126100f0576020600654604051908152f35b346100f05760403660031901126100f05761049a610957565b6008546001600160a01b03169033829003610141576104c591602435916001600160a01b0316610c34565b005b346100f0575f3660031901126100f0576007546040516001600160a01b039091168152602090f35b346100f05760203660031901126100f0576004355f526005602052602060405f2054604051908152f35b346100f05760203660031901126100f057600435610535610bfc565b335f52600360205260405f20815f5260205260405f20541561067357805f52600260205260405f20905f5f905b835482101561064c576105758285610983565b90549060031b1c91835f52600160205260405f20835f5260205260405f209260ff600485015460a01c1615801561063f575b6106345760018401908154946064860492836105cf575b5050505060019192505b0190610562565b6105fd9184916105eb836105e58160019b6109c7565b9a6109ba565b90553390878060a01b03905416610c34565b604051918252857f2565398aefe7fc751a51db5281c778947674cfbe2c4de1aa02324c906e99a3c760203394a482918680806105be565b5060019192506105c8565b50600384015442116105a7565b156106645760015f516020610cad5f395f51905f5255005b630c8d9eab60e31b5f5260045ffd5b631f05dadd60e21b5f5260045ffd5b346100f05760803660031901126100f0576024356001600160a01b03811690600435908290036100f05760443591606435916106bc610bfc565b620151808310801561094b575b61093c57600454926106da846109ac565b6004556006548086029086820414861517156109285761271090046106ff81876109ba565b9561070a83426109c7565b60405160c0810181811067ffffffffffffffff8211176103e657604052868152600460208201918a8352604081019342855260608201908152608082019433865260a0830194600186528a5f52600160205260405f208d5f5260205260405f209360018060a01b039060018060a01b03905116166bffffffffffffffffffffffff60a01b855416178455516001840155516002830155516003820155019160018060a01b039060018060a01b03905116166bffffffffffffffffffffffff60a01b83541617825551151581549060ff60a01b9060a01b169060ff60a01b1916179055835f52600260205260405f208054680100000000000000008110156103e65761081a91600182018155610983565b81549060031b9088821b915f19901b1916179055835f52600560205260405f206108458882546109c7565b9055604051906323b872dd60e01b5f52336004523060245260445260205f60648180895af19060015f5114821615610907575b6040525f606052156108f45760606020966108ca87946108c47f1e1b4dbbb41b4767ff74c1fc318d37b13f92724a75c59ebea4f8afe5a46f7c979560018060a01b03600754168a610c34565b426109c7565b60405191825242898301526040820152a460015f516020610cad5f395f51905f5255604051908152f35b83635274afe760e01b5f5260045260245ffd5b90600181151661091f57853b15153d15161690610878565b503d5f823e3d90fd5b634e487b7160e01b5f52601160045260245ffd5b63731aa4e560e11b5f5260045ffd5b5062278d0083116106c9565b600435906001600160a01b03821682036100f057565b60409060031901126100f0576004359060243590565b8054821015610998575f5260205f2001905f90565b634e487b7160e01b5f52603260045260245ffd5b5f1981146109285760010190565b9190820391821161092857565b9190820180921161092857565b6040519190601f01601f1916820167ffffffffffffffff8111838210176103e657604052565b67ffffffffffffffff81116103e65760051b60200190565b90610a24610a1f836109fa565b6109d4565b8281528092610a35601f19916109fa565b0190602036910137565b80518210156109985760209160051b010190565b90915f9160018060a01b03165f52600360205260405f20835f5260205260405f205415610bce57825f52600260205260405f20915f935f908454915b828110610b655750610aa9610aa387610a12565b96610a12565b945f915f5b848110610abf575050505050929190565b815f52600160205260405f20610ad58285610983565b90549060031b1c5f5260205260405f208960ff600483015460a01c1680610b57575b610b06575b5050600101610aae565b859760646001610b4f94610b4994610b2983989b848060a01b0384541692610a3f565b52015404610b378a8d610a3f565b52610b42898c610a3f565b51906109c7565b966109ac565b939089610afc565b506003820154421115610af7565b815f52600160205260405f20610b7b8288610983565b90549060031b1c5f5260205260405f2060ff600482015460a01c169081610bbf575b50610bab575b600101610a8f565b95610bb76001916109ac565b969050610ba3565b6003915001544211155f610b9d565b9150506020610bdc816109d4565b915f83525f368137610bed826109d4565b915f8352505f3681375f929190565b60025f516020610cad5f395f51905f525414610c255760025f516020610cad5f395f51905f5255565b633ee5aeb560e01b5f5260045ffd5b916040519163a9059cbb60e01b5f5260018060a01b031660045260245260205f60448180865af19060015f5114821615610c94575b60405215610c745750565b635274afe760e01b5f9081526001600160a01b0391909116600452602490fd5b90600181151661091f57823b15153d15161690610c6956fe9b779b17422d0df92223018b32b4d1fa46e071723d6817e2486d003becc55f00a2646970667358221220be2cdaa00adf7f55d1ba9456e3036e23c0f22e3972cd9c553d102f8879c6822d64736f6c634300081b0033","linkReferences":{}},"methodIdentifiers":{"bribeFeeBps()":"60c74a3c","bribes(bytes32,uint256)":"8eaced98","claimBribes(bytes32)":"17422904","createBribe(bytes32,address,uint256,uint256)":"0eeea063","feeRecipient()":"46904840","getClaimableBribes(address,bytes32)":"ddceb085","nextBribeId()":"7de42549","owner()":"8da5cb5b","poolBribes(bytes32,uint256)":"9ba53e50","recordVote(address,bytes32,uint256)":"874efcfc","rescueTokens(address,uint256)":"57376198","setBribeFee(uint256)":"a207b28c","setFeeRecipient(address)":"e74b981b","totalBribesPerPool(bytes32)":"2f60deae","userVotes(address,bytes32)":"746a7d85","veBTB()":"f0aeeb68"},"id":84}