{"abi":[{"type":"constructor","inputs":[],"stateMutability":"nonpayable"},{"type":"function","name":"MINIMUM_LIQUIDITY","inputs":[],"outputs":[{"name":"","type":"uint256","internalType":"uint256"}],"stateMutability":"view"},{"type":"function","name":"allowance","inputs":[{"name":"owner","type":"address","internalType":"address"},{"name":"spender","type":"address","internalType":"address"}],"outputs":[{"name":"","type":"uint256","internalType":"uint256"}],"stateMutability":"view"},{"type":"function","name":"approve","inputs":[{"name":"spender","type":"address","internalType":"address"},{"name":"value","type":"uint256","internalType":"uint256"}],"outputs":[{"name":"","type":"bool","internalType":"bool"}],"stateMutability":"nonpayable"},{"type":"function","name":"balanceOf","inputs":[{"name":"account","type":"address","internalType":"address"}],"outputs":[{"name":"","type":"uint256","internalType":"uint256"}],"stateMutability":"view"},{"type":"function","name":"burn","inputs":[{"name":"to","type":"address","internalType":"address"}],"outputs":[{"name":"amount0","type":"uint256","internalType":"uint256"},{"name":"amount1","type":"uint256","internalType":"uint256"}],"stateMutability":"nonpayable"},{"type":"function","name":"claimReward","inputs":[],"outputs":[{"name":"","type":"uint256","internalType":"uint256"}],"stateMutability":"nonpayable"},{"type":"function","name":"claimableReward","inputs":[{"name":"","type":"address","internalType":"address"}],"outputs":[{"name":"","type":"uint256","internalType":"uint256"}],"stateMutability":"view"},{"type":"function","name":"decimals","inputs":[],"outputs":[{"name":"","type":"uint8","internalType":"uint8"}],"stateMutability":"view"},{"type":"function","name":"distributeFees","inputs":[],"outputs":[],"stateMutability":"nonpayable"},{"type":"function","name":"factory","inputs":[],"outputs":[{"name":"","type":"address","internalType":"address"}],"stateMutability":"view"},{"type":"function","name":"fees0","inputs":[],"outputs":[{"name":"","type":"uint256","internalType":"uint256"}],"stateMutability":"view"},{"type":"function","name":"fees1","inputs":[],"outputs":[{"name":"","type":"uint256","internalType":"uint256"}],"stateMutability":"view"},{"type":"function","name":"getAmountOut","inputs":[{"name":"amountIn","type":"uint256","internalType":"uint256"},{"name":"tokenIn","type":"address","internalType":"address"}],"outputs":[{"name":"amountOut","type":"uint256","internalType":"uint256"}],"stateMutability":"view"},{"type":"function","name":"getK","inputs":[],"outputs":[{"name":"","type":"uint256","internalType":"uint256"}],"stateMutability":"view"},{"type":"function","name":"getReserves","inputs":[],"outputs":[{"name":"_reserve0","type":"uint112","internalType":"uint112"},{"name":"_reserve1","type":"uint112","internalType":"uint112"},{"name":"_blockTimestampLast","type":"uint32","internalType":"uint32"}],"stateMutability":"view"},{"type":"function","name":"initialize","inputs":[{"name":"_token0","type":"address","internalType":"address"},{"name":"_token1","type":"address","internalType":"address"},{"name":"_stable","type":"bool","internalType":"bool"}],"outputs":[],"stateMutability":"nonpayable"},{"type":"function","name":"mint","inputs":[{"name":"to","type":"address","internalType":"address"}],"outputs":[{"name":"liquidity","type":"uint256","internalType":"uint256"}],"stateMutability":"nonpayable"},{"type":"function","name":"name","inputs":[],"outputs":[{"name":"","type":"string","internalType":"string"}],"stateMutability":"view"},{"type":"function","name":"notifyRewardAmount","inputs":[{"name":"amount","type":"uint256","internalType":"uint256"}],"outputs":[],"stateMutability":"nonpayable"},{"type":"function","name":"observationLength","inputs":[],"outputs":[{"name":"","type":"uint256","internalType":"uint256"}],"stateMutability":"pure"},{"type":"function","name":"pendingFees0","inputs":[],"outputs":[{"name":"","type":"uint256","internalType":"uint256"}],"stateMutability":"view"},{"type":"function","name":"pendingFees1","inputs":[],"outputs":[{"name":"","type":"uint256","internalType":"uint256"}],"stateMutability":"view"},{"type":"function","name":"pendingReward","inputs":[{"name":"account","type":"address","internalType":"address"}],"outputs":[{"name":"","type":"uint256","internalType":"uint256"}],"stateMutability":"view"},{"type":"function","name":"price0CumulativeLast","inputs":[],"outputs":[{"name":"","type":"uint256","internalType":"uint256"}],"stateMutability":"view"},{"type":"function","name":"price1CumulativeLast","inputs":[],"outputs":[{"name":"","type":"uint256","internalType":"uint256"}],"stateMutability":"view"},{"type":"function","name":"rewardIndex","inputs":[],"outputs":[{"name":"","type":"uint256","internalType":"uint256"}],"stateMutability":"view"},{"type":"function","name":"rewardToken","inputs":[],"outputs":[{"name":"","type":"address","internalType":"address"}],"stateMutability":"view"},{"type":"function","name":"skim","inputs":[{"name":"to","type":"address","internalType":"address"}],"outputs":[],"stateMutability":"nonpayable"},{"type":"function","name":"stable","inputs":[],"outputs":[{"name":"","type":"bool","internalType":"bool"}],"stateMutability":"view"},{"type":"function","name":"supplyRewardIndex","inputs":[{"name":"","type":"address","internalType":"address"}],"outputs":[{"name":"","type":"uint256","internalType":"uint256"}],"stateMutability":"view"},{"type":"function","name":"swap","inputs":[{"name":"amount0Out","type":"uint256","internalType":"uint256"},{"name":"amount1Out","type":"uint256","internalType":"uint256"},{"name":"to","type":"address","internalType":"address"},{"name":"","type":"bytes","internalType":"bytes"}],"outputs":[],"stateMutability":"nonpayable"},{"type":"function","name":"swapWithSlippage","inputs":[{"name":"amount0Out","type":"uint256","internalType":"uint256"},{"name":"amount1Out","type":"uint256","internalType":"uint256"},{"name":"minOutput","type":"uint256","internalType":"uint256"},{"name":"to","type":"address","internalType":"address"},{"name":"data","type":"bytes","internalType":"bytes"}],"outputs":[],"stateMutability":"nonpayable"},{"type":"function","name":"symbol","inputs":[],"outputs":[{"name":"","type":"string","internalType":"string"}],"stateMutability":"view"},{"type":"function","name":"sync","inputs":[],"outputs":[],"stateMutability":"nonpayable"},{"type":"function","name":"token0","inputs":[],"outputs":[{"name":"","type":"address","internalType":"address"}],"stateMutability":"view"},{"type":"function","name":"token1","inputs":[],"outputs":[{"name":"","type":"address","internalType":"address"}],"stateMutability":"view"},{"type":"function","name":"totalBTBRewards","inputs":[],"outputs":[{"name":"","type":"uint256","internalType":"uint256"}],"stateMutability":"view"},{"type":"function","name":"totalSupply","inputs":[],"outputs":[{"name":"","type":"uint256","internalType":"uint256"}],"stateMutability":"view"},{"type":"function","name":"transfer","inputs":[{"name":"to","type":"address","internalType":"address"},{"name":"value","type":"uint256","internalType":"uint256"}],"outputs":[{"name":"","type":"bool","internalType":"bool"}],"stateMutability":"nonpayable"},{"type":"function","name":"transferFrom","inputs":[{"name":"from","type":"address","internalType":"address"},{"name":"to","type":"address","internalType":"address"},{"name":"value","type":"uint256","internalType":"uint256"}],"outputs":[{"name":"","type":"bool","internalType":"bool"}],"stateMutability":"nonpayable"},{"type":"event","name":"Approval","inputs":[{"name":"owner","type":"address","indexed":true,"internalType":"address"},{"name":"spender","type":"address","indexed":true,"internalType":"address"},{"name":"value","type":"uint256","indexed":false,"internalType":"uint256"}],"anonymous":false},{"type":"event","name":"Burn","inputs":[{"name":"sender","type":"address","indexed":true,"internalType":"address"},{"name":"amount0","type":"uint256","indexed":false,"internalType":"uint256"},{"name":"amount1","type":"uint256","indexed":false,"internalType":"uint256"},{"name":"to","type":"address","indexed":true,"internalType":"address"}],"anonymous":false},{"type":"event","name":"FeesDistributed","inputs":[{"name":"amount0","type":"uint256","indexed":false,"internalType":"uint256"},{"name":"amount1","type":"uint256","indexed":false,"internalType":"uint256"}],"anonymous":false},{"type":"event","name":"Initialized","inputs":[{"name":"version","type":"uint64","indexed":false,"internalType":"uint64"}],"anonymous":false},{"type":"event","name":"Mint","inputs":[{"name":"sender","type":"address","indexed":true,"internalType":"address"},{"name":"amount0","type":"uint256","indexed":false,"internalType":"uint256"},{"name":"amount1","type":"uint256","indexed":false,"internalType":"uint256"}],"anonymous":false},{"type":"event","name":"Swap","inputs":[{"name":"sender","type":"address","indexed":true,"internalType":"address"},{"name":"amount0In","type":"uint256","indexed":false,"internalType":"uint256"},{"name":"amount1In","type":"uint256","indexed":false,"internalType":"uint256"},{"name":"amount0Out","type":"uint256","indexed":false,"internalType":"uint256"},{"name":"amount1Out","type":"uint256","indexed":false,"internalType":"uint256"},{"name":"to","type":"address","indexed":true,"internalType":"address"}],"anonymous":false},{"type":"event","name":"Sync","inputs":[{"name":"reserve0","type":"uint112","indexed":false,"internalType":"uint112"},{"name":"reserve1","type":"uint112","indexed":false,"internalType":"uint112"}],"anonymous":false},{"type":"event","name":"Transfer","inputs":[{"name":"from","type":"address","indexed":true,"internalType":"address"},{"name":"to","type":"address","indexed":true,"internalType":"address"},{"name":"value","type":"uint256","indexed":false,"internalType":"uint256"}],"anonymous":false},{"type":"error","name":"ERC20InsufficientAllowance","inputs":[{"name":"spender","type":"address","internalType":"address"},{"name":"allowance","type":"uint256","internalType":"uint256"},{"name":"needed","type":"uint256","internalType":"uint256"}]},{"type":"error","name":"ERC20InsufficientBalance","inputs":[{"name":"sender","type":"address","internalType":"address"},{"name":"balance","type":"uint256","internalType":"uint256"},{"name":"needed","type":"uint256","internalType":"uint256"}]},{"type":"error","name":"ERC20InvalidApprover","inputs":[{"name":"approver","type":"address","internalType":"address"}]},{"type":"error","name":"ERC20InvalidReceiver","inputs":[{"name":"receiver","type":"address","internalType":"address"}]},{"type":"error","name":"ERC20InvalidSender","inputs":[{"name":"sender","type":"address","internalType":"address"}]},{"type":"error","name":"ERC20InvalidSpender","inputs":[{"name":"spender","type":"address","internalType":"address"}]},{"type":"error","name":"InsufficientInputAmount","inputs":[]},{"type":"error","name":"InsufficientLiquidity","inputs":[]},{"type":"error","name":"InsufficientLiquidityBurned","inputs":[]},{"type":"error","name":"InsufficientLiquidityMinted","inputs":[]},{"type":"error","name":"InsufficientOutputAmount","inputs":[]},{"type":"error","name":"InvalidInitialization","inputs":[]},{"type":"error","name":"InvalidTo","inputs":[]},{"type":"error","name":"K","inputs":[]},{"type":"error","name":"Locked","inputs":[]},{"type":"error","name":"NotFactory","inputs":[]},{"type":"error","name":"NotInitializing","inputs":[]},{"type":"error","name":"ReentrancyGuardReentrantCall","inputs":[]},{"type":"error","name":"SafeERC20FailedOperation","inputs":[{"name":"token","type":"address","internalType":"address"}]},{"type":"error","name":"SlippageExceeded","inputs":[]}],"bytecode":{"object":"0x60c080604052346100fc5760017f9b779b17422d0df92223018b32b4d1fa46e071723d6817e2486d003becc55f00556012608052601260a0525f516020612e925f395f51905f525460ff8160401c166100ed576002600160401b03196001600160401b0382160161009a575b604051612d91908161010182396080518181816122d5015261266a015260a05181818161233401526126c90152f35b6001600160401b0319166001600160401b039081175f516020612e925f395f51905f525581527fc7f505b2f371ae2175ee4913f4499e1f2633a7b5936321eed1cdaeb6115181d290602090a15f8061006b565b63f92ee8a960e01b5f5260045ffd5b5f80fdfe60806040526004361015610011575f80fd5b5f3560e01c8063022c0d9f14611da057806306fdde0314611ce35780630902f1ac14611ca3578063095ea7b314611c245780630dfe168114611bfd57806318160ddd14611bd457806322be3de114611baf57806323b872dd14611ad7578063313ce56714611abc57806331b1421814611a845780633c6b16ab14611a665780634b81df3a14611a495780634c02a21c14611a495780635909c0d514611a2c5780635a3d549314611a0f5780636a6278421461176557806370a082311461172157806389afcb441461139357806392e3d8aa1461137657806393f1c4421461137657806395d89b4114611284578063a2aa919014611267578063a9059cbb14611236578063b88a802f146111bd578063ba9a7a56146111a1578063bb57ad2014611014578063bc25cf7714610ed6578063c45a015514610eae578063d21220a714610e86578063dd62ed3e14610e3f578063e4bbb5a814610868578063e642f7281461041c578063e9503425146103e4578063e9ee2fa9146103c7578063ebeb31db146103ac578063ee39e7a01461037f578063f140a35a14610359578063f40f0f521461032e578063f7c618c1146103065763fff6cae9146101d1575f80fd5b346102bc575f3660031901126102bc576101e9612579565b5f546040516370a0823160e01b815230600482015290602090829060249082906001600160a01b03165afa80156102c8575f906102d3575b6001546040516370a0823160e01b81523060048201529250602090839060249082906001600160a01b03165afa9081156102c8575f9161028e575b61027b9250600354916001600160701b03808460701c1693169161271a565b60015f516020612d1c5f395f51905f5255005b90506020823d6020116102c0575b816102a960209383611fbb565b810103126102bc5761027b91519061025c565b5f80fd5b3d915061029c565b6040513d5f823e3d90fd5b506020813d6020116102fe575b816102ed60209383611fbb565b810103126102bc5760249051610221565b3d91506102e0565b346102bc575f3660031901126102bc57600a546040516001600160a01b039091168152602090f35b346102bc5760203660031901126102bc57602061035161034c611eff565b6124fd565b604051908152f35b346102bc5760403660031901126102bc576020610351610377611f15565b600435612211565b346102bc575f3660031901126102bc5760206103516003546001600160701b03808260701c169116612632565b346102bc575f3660031901126102bc57602060405160018152f35b346102bc575f3660031901126102bc576020600b54604051908152f35b346102bc5760203660031901126102bc576001600160a01b03610405611eff565b165f52600d602052602060405f2054604051908152f35b346102bc5760a03660031901126102bc576064356001600160a01b038116906024356004358383036102bc5760843567ffffffffffffffff81116102bc57610468903690600401611f2b565b5050610472612579565b80158015905f8161085b5750825b6044351161084c57610490612579565b80610844575b610835576104a2612060565b506001600160701b038293921695868510801590610822575b610813575f546001600160a01b031688811480156107ff575b6107f05785826024956107df575b50505085806107c2575b50505f546040516370a0823160e01b81523060048201529260209184919082906001600160a01b03165afa9182156102c8575f9261078e575b506001546040516370a0823160e01b81523060048201529093906020816024816001600160a01b0389165afa9081156102c8575f9161075c575b5061056a8689611fdd565b8411156107555761058461057e878a611fdd565b85611fdd565b975b6001600160701b0384169561059b8988611fdd565b83111561074e576105b56105af8a89611fdd565b84611fdd565b965b8a15918280610746575b6107375760025460405163cc56b2c560e01b815230600482015260a09290921c60ff161515602483015260209082906001600160a01b031681806044810103915afa9081156102c8578c905f926106ff575b508161064f94156106dc575b5050886106ba575b5061064961063760065489611fdd565b61064360075487611fdd565b90612632565b92612632565b116106ab5761065d9361271a565b6040519384526020840152604083015260608201527fd78ad95fa46c994b6551d0da85fc275fe613ce37657fb8d5e3d130840159d82260803392a360015f516020612d1c5f395f51905f5255005b63a932492f60e01b5f5260045ffd5b6127106106ca6106d3928b611fea565b0460075461201b565b6007558c610627565b6106ec612710916106f593611fea565b0460065461201b565b6006558b8161061f565b939150506020833d60201161072f575b8161071c60209383611fbb565b810103126102bc5791518b61064f610613565b3d915061070f565b63098fb56160e01b5f5260045ffd5b5088156105c1565b5f966105b7565b5f97610586565b90506020813d602011610786575b8161077760209383611fbb565b810103126102bc57518961055f565b3d915061076a565b9091506020813d6020116107ba575b816107aa60209383611fbb565b810103126102bc57519087610525565b3d915061079d565b6001546107d892906001600160a01b03166125b1565b87856104ec565b6107e8926125b1565b8885826104e2565b630521f43160e31b5f5260045ffd5b506001546001600160a01b031689146104d4565b63bb55fd2760e01b5f5260045ffd5b506001600160701b0382168610156104bb565b6342301c2360e01b5f5260045ffd5b508215610496565b638199f5f360e01b5f5260045ffd5b8415610480575083610480565b346102bc5760603660031901126102bc57610881611eff565b610889611f15565b60443591821515908184036102bc575f516020612d3c5f395f51905f52549360ff8560401c16159467ffffffffffffffff811680159081610e37575b6001149081610e2d575b159081610e24575b50610e155767ffffffffffffffff1981166001175f516020612d3c5f395f51905f5255602091829187610de9575b508015610dd75761099d60016109196121e1565b6003858a602c8261093261092c8d612951565b93612951565b926040519a8b976b0212a21102334b730b731b2960a51b828a0152805191829101858a015e8701906201016960ed1b84830152805192839101602f83015e010190602f60f81b84830152805192839101600483015e01015f838201520301601f198101845283611fbb565b15610dc557610a1a60016109af6121e1565b81856109ba88612951565b81806109c58d612951565b926040519a878c985191829101848a015e870190602d60f81b83830152805192839101602183015e010190602f60f81b84830152805192839101600283015e01015f838201520301601f198101845283611fbb565b610a22612c2f565b610a2a612c2f565b80519067ffffffffffffffff8211610cae578190610a555f516020612c9c5f395f51905f5254612028565b601f8111610d4b575b50602090601f8311600114610ccd575f92610cc2575b50508160011b915f199060031b1c1916175f516020612c9c5f395f51905f52555b80519067ffffffffffffffff8211610cae578190610ac05f516020612cdc5f395f51905f5254612028565b601f8111610c34575b50602090601f8311600114610bb6575f92610bab575b50508160011b915f199060031b1c1916175f516020612cdc5f395f51905f52555b600280546001600160a01b031990811633179091555f80549091166001600160a01b03928316179055600180546001600160a81b031916939091169290921760a09190911b60ff60a01b16179055610b5457005b68ff0000000000000000195f516020612d3c5f395f51905f5254165f516020612d3c5f395f51905f52557fc7f505b2f371ae2175ee4913f4499e1f2633a7b5936321eed1cdaeb6115181d2602060405160018152a1005b015190508680610adf565b5f516020612cdc5f395f51905f525f9081528281209350601f198516905b818110610c1c5750908460019594939210610c04575b505050811b015f516020612cdc5f395f51905f5255610b00565b01515f1960f88460031b161c19169055868080610bea565b92936020600181928786015181550195019301610bd4565b5f516020612cdc5f395f51905f525f529091507f46a2803e59a4de4e7a4c574b1243f25977ac4c77d5a1a4a609b5394cebb4a2aa601f840160051c81019160208510610ca4575b90601f859493920160051c01905b818110610c965750610ac9565b5f8155849350600101610c89565b9091508190610c7b565b634e487b7160e01b5f52604160045260245ffd5b015190508780610a74565b5f516020612c9c5f395f51905f525f9081528281209350601f198516905b818110610d335750908460019594939210610d1b575b505050811b015f516020612c9c5f395f51905f5255610a95565b01515f1960f88460031b161c19169055878080610d01565b92936020600181928786015181550195019301610ceb565b5f516020612c9c5f395f51905f525f529091507f2ae08a8e29253f69ac5d979a101956ab8f8d9d7ded63fa7a83b16fc47648eab0601f840160051c81019160208510610dbb575b90601f859493920160051c01905b818110610dad5750610a5e565b5f8155849350600101610da0565b9091508190610d92565b610a1a6001610dd26121bf565b6109af565b61099d6001610de46121bf565b610919565b68ffffffffffffffffff191668010000000000000001175f516020612d3c5f395f51905f525587610905565b63f92ee8a960e01b5f5260045ffd5b905015876108d7565b303b1591506108cf565b8791506108c5565b346102bc5760403660031901126102bc57610e58611eff565b610e69610e63611f15565b91611f83565b9060018060a01b03165f52602052602060405f2054604051908152f35b346102bc575f3660031901126102bc576001546040516001600160a01b039091168152602090f35b346102bc575f3660031901126102bc576002546040516001600160a01b039091168152602090f35b346102bc5760203660031901126102bc57610eef611eff565b610ef7612579565b5f546040516370a0823160e01b8152306004820152906001600160a01b0316602082602481845afa9182156102c85783905f93610fdc575b50610f49610f4f936001600160701b036003541690611fdd565b916125b1565b6001546040516370a0823160e01b8152306004820152916001600160a01b0390911690602083602481855afa9283156102c8575f93610fa6575b50610f4961027b936001600160701b0360035460701c1690611fdd565b92506020833d602011610fd4575b81610fc160209383611fbb565b810103126102bc57915191610f49610f89565b3d9150610fb4565b9250506020823d60201161100c575b81610ff860209383611fbb565b810103126102bc5790519082610f49610f2f565b3d9150610feb565b346102bc575f3660031901126102bc5761102c612579565b600654600754908061112e575b81611082575b6040907f771d362663b46bd788cd13fc183c9432449a2be6bcb81051bfeb484afd9c5dd89282519182526020820152a160015f516020612d1c5f395f51905f5255005b5f6007556002546040516311b25aab60e21b81529190602090839060049082906001600160a01b03165afa9283156102c8576110f6817f771d362663b46bd788cd13fc183c9432449a2be6bcb81051bfeb484afd9c5dd8956040955f916110ff575b506001546001600160a01b03166125b1565b9250905061103f565b611121915060203d602011611127575b6111198183611fbb565b810190612082565b876110e4565b503d61110f565b5f6006556002546040516311b25aab60e21b815290602090829060049082906001600160a01b03165afa9081156102c85761117d9183915f91611182575b505f546001600160a01b03166125b1565b611039565b61119b915060203d602011611127576111198183611fbb565b8561116c565b346102bc575f3660031901126102bc5760206040516103e88152f35b346102bc575f3660031901126102bc576111d5612579565b6111de336128bb565b335f52600d602052602060405f20548061120c575b60015f516020612d1c5f395f51905f5255604051908152f35b335f818152600d84526040812055600a546112319183916001600160a01b03166125b1565b6111f3565b346102bc5760403660031901126102bc5761125c611252611eff565b60243590336127e8565b602060405160018152f35b346102bc575f3660031901126102bc576020600e54604051908152f35b346102bc575f3660031901126102bc576040515f5f516020612cdc5f395f51905f52546112b081612028565b808452906001811690811561135257506001146112e8575b6112e4836112d881850382611fbb565b60405191829182611f59565b0390f35b5f516020612cdc5f395f51905f525f9081527f46a2803e59a4de4e7a4c574b1243f25977ac4c77d5a1a4a609b5394cebb4a2aa939250905b808210611338575090915081016020016112d86112c8565b919260018160209254838588010152019101909291611320565b60ff191660208086019190915291151560051b840190910191506112d890506112c8565b346102bc575f3660031901126102bc576020600654604051908152f35b346102bc5760203660031901126102bc576113ac611eff565b6113b4612579565b6113bc612060565b505f546001546040516370a0823160e01b815230600482015293946001600160a01b0392831694939092909116602084602481885afa9384156102c8575f946116ed575b506040516370a0823160e01b815230600482015294602086602481855afa9586156102c8575f966116b9575b50305f525f516020612cbc5f395f51905f5260205261148061147461147461147960405f20549861145c896128bb565b5f516020612cfc5f395f51905f52549384918b611fea565b611ffd565b9888611fea565b94861580156116b1575b6116a257301561168f5761149d306128bb565b6114a65f6128bb565b305f525f516020612cbc5f395f51905f5260205260405f205481811061167657915f82602093602496953084525f516020612cbc5f395f51905f528652036040832055805f516020612cfc5f395f51905f5254035f516020612cfc5f395f51905f52556040519081527fddf252ad1be2c89b69c2b068fc378daa952ba7f163c4a11628f55a4df523b3ef843092a361153f8887836125b1565b61154a8787856125b1565b6040516370a0823160e01b815230600482015293849182905afa9182156102c8575f92611641575b50906020602492604051938480926370a0823160e01b82523060048301525afa9182156102c8575f92611606575b50956115af929160409761271a565b83519083825282602083015260018060a01b0316907fdccd412f0b1252819cb1fd330b93224ca42612892bb3f4f789976e6d81936496853392a360015f516020612d1c5f395f51905f525582519182526020820152f35b929150956020833d602011611639575b8161162360209383611fbb565b810103126102bc579151919590919060406115a0565b3d9150611616565b91506020823d60201161166e575b8161165c60209383611fbb565b810103126102bc579051906020611572565b3d915061164f565b63391434e360e21b5f523060045260245260445260645ffd5b634b637e8f60e11b5f525f60045260245ffd5b63749383ad60e01b5f5260045ffd5b50851561148a565b9095506020813d6020116116e5575b816116d560209383611fbb565b810103126102bc5751948761142c565b3d91506116c8565b9093506020813d602011611719575b8161170960209383611fbb565b810103126102bc57519286611400565b3d91506116fc565b346102bc5760203660031901126102bc576001600160a01b03611742611eff565b165f525f516020612cbc5f395f51905f52602052602060405f2054604051908152f35b346102bc5760203660031901126102bc5761177e611eff565b611786612579565b6024611790612060565b505f546040516370a0823160e01b81523060048201529360209185919082906001600160a01b03165afa9283156102c8575f936119da575b506001546040516370a0823160e01b8152306004820152939490602090859060249082906001600160a01b03165afa9384156102c8575f946119a6575b506001600160701b0383169161181b8387611fdd565b936001600160701b0382166118308188611fdd565b9461183a856128bb565b5f516020612cfc5f395f51905f525491826119745750505061185c8486611fea565b5f60038211156119665750808060011c6001810180911161193357905b8282106119475750505b6103e7198101908111611933579561189e6103e86001612b73565b8615611924576001600160a01b03841615611911576020976118c3886118c896612b73565b61271a565b604051918252838201527f4c209b5fc8ad50758f13e2e1088ba56a560dff690a1c6fef26394f4c03821c4f60403392a260015f516020612d1c5f395f51905f5255604051908152f35b63ec442f0560e01b5f525f60045260245ffd5b633489be7560e21b5f5260045ffd5b634e487b7160e01b5f52601160045260245ffd5b90915061195d826119588184611ffd565b61201b565b60011c90611879565b901561188357506001611883565b61147461198861198f93611474868c611fea565b9388611fea565b8082101561199f57505b9561189e565b9050611999565b9093506020813d6020116119d2575b816119c260209383611fbb565b810103126102bc57519285611805565b3d91506119b5565b92506020833d602011611a07575b816119f560209383611fbb565b810103126102bc5760249251926117c8565b3d91506119e8565b346102bc575f3660031901126102bc576020600554604051908152f35b346102bc575f3660031901126102bc576020600454604051908152f35b346102bc575f3660031901126102bc576020600754604051908152f35b346102bc5760203660031901126102bc57611a826004356120a1565b005b346102bc5760203660031901126102bc576001600160a01b03611aa5611eff565b165f52600c602052602060405f2054604051908152f35b346102bc575f3660031901126102bc57602060405160128152f35b346102bc5760603660031901126102bc57611af0611eff565b611af8611f15565b60443590611b0583611f83565b335f9081526020919091526040902054925f198410611b29575b61125c93506127e8565b828410611b94576001600160a01b03811615611b81573315611b6e5761125c93611b5282611f83565b60018060a01b0333165f526020528360405f2091039055611b1f565b634a1406b160e11b5f525f60045260245ffd5b63e602df0560e01b5f525f60045260245ffd5b8284637dc7a0d960e11b5f523360045260245260445260645ffd5b346102bc575f3660031901126102bc57602060ff60015460a01c166040519015158152f35b346102bc575f3660031901126102bc5760205f516020612cfc5f395f51905f5254604051908152f35b346102bc575f3660031901126102bc575f546040516001600160a01b039091168152602090f35b346102bc5760403660031901126102bc57611c3d611eff565b602435903315611b81576001600160a01b0316908115611b6e57611c6033611f83565b825f526020528060405f20556040519081527f8c5be1e5ebec7d5bd14f71427d1e84f3dd0314c0f7b2291e5b200ac8c7c3b92560203392a3602060405160018152f35b346102bc575f3660031901126102bc5760606001600160701b0363ffffffff611cca612060565b9193908160405195168552166020840152166040820152f35b346102bc575f3660031901126102bc576040515f5f516020612c9c5f395f51905f5254611d0f81612028565b80845290600181169081156113525750600114611d36576112e4836112d881850382611fbb565b5f516020612c9c5f395f51905f525f9081527f2ae08a8e29253f69ac5d979a101956ab8f8d9d7ded63fa7a83b16fc47648eab0939250905b808210611d86575090915081016020016112d86112c8565b919260018160209254838588010152019101909291611d6e565b346102bc5760803660031901126102bc576044356001600160a01b038116906024356004358383036102bc5760643567ffffffffffffffff81116102bc57611dec903690600401611f2b565b5050611df6612579565b80158080611ef7575b61083557611e0b612060565b506001600160701b038293921695868510801590611ee4575b610813575f546001600160a01b03168881148015611ed0575b6107f0578582602495156107df5750505085806107c25750505f546040516370a0823160e01b81523060048201529260209184919082906001600160a01b03165afa9182156102c8575f9261078e57506001546040516370a0823160e01b81523060048201529093906020816024816001600160a01b0389165afa9081156102c8575f9161075c575061056a8689611fdd565b506001546001600160a01b03168914611e3d565b506001600160701b038216861015611e24565b508215611dff565b600435906001600160a01b03821682036102bc57565b602435906001600160a01b03821682036102bc57565b9181601f840112156102bc5782359167ffffffffffffffff83116102bc57602083818601950101116102bc57565b602060409281835280519182918282860152018484015e5f828201840152601f01601f1916010190565b6001600160a01b03165f9081527f52c63247e1f47db19d5ce0460030c497f067ca4cebf71ba98eeadabe20bace016020526040902090565b90601f8019910116810190811067ffffffffffffffff821117610cae57604052565b9190820391821161193357565b8181029291811591840414171561193357565b8115612007570490565b634e487b7160e01b5f52601260045260245ffd5b9190820180921161193357565b90600182811c92168015612056575b602083101461204257565b634e487b7160e01b5f52602260045260245ffd5b91607f1691612037565b6003546001600160701b038116916001600160701b038260701c169160e01c90565b908160209103126102bc57516001600160a01b03811681036102bc5790565b6002546040516311b25aab60e21b815290602090829060049082906001600160a01b03165afa9081156102c8575f91612184575b506001600160a01b03163303612153578015612150575f516020612cfc5f395f51905f52549081612113575b61210e9150600e5461201b565b600e55565b670de0b6b3a7640000810291818304670de0b6b3a764000003611933576121406121489161210e94611ffd565b600b5461201b565b600b55612101565b50565b60405162461bcd60e51b81526020600482015260096024820152682737ba103b37ba32b960b91b6044820152606490fd5b61219d915060203d602011611127576111198183611fbb565b5f6120d5565b67ffffffffffffffff8111610cae57601f01601f191660200190565b604051906121ce604083611fbb565b600482526376414d4d60e01b6020830152565b604051906121f0604083611fbb565b600482526373414d4d60e01b6020830152565b604d811161193357600a0a90565b9061221a612060565b5060025460015460405163cc56b2c560e01b815230600482015260a09190911c60ff16801515602483015295929392909160209083906001600160a01b031681806044810103915afa9182156102c8575f926124c7575b506127106122826122899383611fea565b0490611fdd565b9315612471576001600160701b0380911691166122a68183612632565b91670de0b6b3a7640000810290808204670de0b6b3a76400001490151715611933576001600160701b036123047f0000000000000000000000000000000000000000000000000000000000000000926122fe84612203565b90611ffd565b1692670de0b6b3a7640000830292808404670de0b6b3a76400001490151715611933576001600160701b0361235d7f0000000000000000000000000000000000000000000000000000000000000000946122fe86612203565b5f549116956001600160a01b03908116911614938415612463576001600160701b0390955b16841561240f57670de0b6b3a7640000870296808804670de0b6b3a76400001490151715611933576123e5816123eb936123e0612401996001600160701b036123d7670de0b6b3a76400009d6122fe8b612203565b915b169061201b565b612a43565b90611fdd565b921561240557506123fb90612203565b90611fea565b0490565b6123fb9150612203565b670de0b6b3a7640000870296808804670de0b6b3a76400001490151715611933576123e5816123eb936123e0612401996001600160701b0361245d670de0b6b3a76400009d6122fe8c612203565b916123d9565b6001600160701b0390612382565b5f546124ac9491936001600160a01b039081169116036124af576124a66001600160701b03806122fe94951694165b82611fea565b9261201b565b90565b6124a66001600160701b03806122fe941694166124a0565b91506020823d6020116124f5575b816124e260209383611fbb565b810103126102bc57905190612710612271565b3d91506124d5565b6001600160a01b03165f8181525f516020612cbc5f395f51905f526020526040902054801561256957670de0b6b3a76400006125626124ac9361254f600b54825f52600c60205260405f205490611fdd565b905f52600d60205260405f205493611fea565b049061201b565b505f52600d60205260405f205490565b60025f516020612d1c5f395f51905f5254146125a25760025f516020612d1c5f395f51905f5255565b633ee5aeb560e01b5f5260045ffd5b916040519163a9059cbb60e01b5f5260018060a01b031660045260245260205f60448180865af19060015f5114821615612611575b604052156125f15750565b635274afe760e01b5f9081526001600160a01b0391909116600452602490fd5b90600181151661262957823b15153d151616906125e6565b503d5f823e3d90fd5b60015460a01c60ff161561271057670de0b6b3a7640000810290808204670de0b6b3a764000014901517156119335761268e906122fe7f0000000000000000000000000000000000000000000000000000000000000000612203565b90670de0b6b3a7640000810290808204670de0b6b3a7640000149015171561193357670de0b6b3a7640000916123fb6126ed612401936122fe7f0000000000000000000000000000000000000000000000000000000000000000612203565b8461256281612708816127008689611fea565b049680611fea565b049280611fea565b906124ac91611fea565b6001600160701b0380917f1c411e9a96e071241c2f21f7726b17ae89e3cab4c78be50e062b03a9fffbbad19560409563ffffffff60035460e01c8142160316801515806127dd575b806127d2575b6127a1575b50505016918263ffffffff60e01b4260e01b16918360701b9060701b16171780600355835192835260701c166020820152a1565b84806127c3941692166127b681838502611ffd565b6004540160045502611ffd565b600554016005555f808061276d565b508483161515612768565b508482161515612762565b90916001600160a01b03821691821561168f576001600160a01b0384169384156119115761281861281d926128bb565b6128bb565b815f525f516020612cbc5f395f51905f5260205260405f20548181106128a257817fddf252ad1be2c89b69c2b068fc378daa952ba7f163c4a11628f55a4df523b3ef92602092855f525f516020612cbc5f395f51905f5284520360405f2055845f525f516020612cbc5f395f51905f52825260405f20818154019055604051908152a3565b8263391434e360e21b5f5260045260245260445260645ffd5b6001600160a01b03165f8181525f516020612cbc5f395f51905f526020526040902054806128f7575b50600b54905f52600c60205260405f2055565b612910600b54835f52600c60205260405f205490611fdd565b908161291d575b506128e4565b670de0b6b3a76400009161293091611fea565b04815f52600d60205261294860405f2091825461201b565b90555f80612917565b5f809160405160208101906395d89b4160e01b825260048152612975602482611fbb565b51915afa3d15612a3b573d9061298a826121a3565b916129986040519384611fbb565b82523d5f602084013e5b15612a195780518101906020818184019303126102bc5760208101519067ffffffffffffffff82116102bc570181603f820112156102bc576020810151906129e9826121a3565b926129f76040519485611fbb565b828452604082840101116102bc57815f926040602093018386015e8301015290565b50604051612a28604082611fbb565b60038152623f3f3f60e81b602082015290565b6060906129a2565b905f5b60ff8110612a545750505090565b83612a9f670de0b6b3a7640000612a8181612a7a8582612a748280611fea565b04611fea565b0487611fea565b04670de0b6b3a76400006125628482612a748a82612a748280611fea565b8380821015612b2f5790612ab291611fdd565b670de0b6b3a7640000810290808204670de0b6b3a764000014901517156119335781612ae7612aed926122fe60019589612c5a565b9061201b565b945b8581811115612b185790612b0291611fdd565b1115612b12576001905b01612a46565b50505090565b612b2191611fdd565b1115612b1257600190612b0c565b612b3891611fdd565b670de0b6b3a7640000810290808204670de0b6b3a7640000149015171561193357816123e5612b6d926122fe60019589612c5a565b94612aef565b7fddf252ad1be2c89b69c2b068fc378daa952ba7f163c4a11628f55a4df523b3ef60205f92612ba1846128bb565b612baa816128bb565b612bc2855f516020612cfc5f395f51905f525461201b565b5f516020612cfc5f395f51905f52556001600160a01b03169384158414612c0d57805f516020612cfc5f395f51905f5254035f516020612cfc5f395f51905f52555b604051908152a3565b8484525f516020612cbc5f395f51905f52825260408420818154019055612c04565b60ff5f516020612d3c5f395f51905f525460401c1615612c4b57565b631afcd79f60e31b5f5260045ffd5b8060030260038104820361193357612562670de0b6b3a7640000612c8e819382612c87886124ac99611fea565b0490611fea565b049282612a748280611fea56fe52c63247e1f47db19d5ce0460030c497f067ca4cebf71ba98eeadabe20bace0352c63247e1f47db19d5ce0460030c497f067ca4cebf71ba98eeadabe20bace0052c63247e1f47db19d5ce0460030c497f067ca4cebf71ba98eeadabe20bace0452c63247e1f47db19d5ce0460030c497f067ca4cebf71ba98eeadabe20bace029b779b17422d0df92223018b32b4d1fa46e071723d6817e2486d003becc55f00f0c57e16840df040f15088dc2f81fe391c3923bec73e23a9662efc9c229c6a00a264697066735822122017cf9646e95519af658d70b7c6db895181c5b0ed124a5e9786a0e4eb9f2bddf164736f6c634300081b0033f0c57e16840df040f15088dc2f81fe391c3923bec73e23a9662efc9c229c6a00","linkReferences":{}},"methodIdentifiers":{"MINIMUM_LIQUIDITY()":"ba9a7a56","allowance(address,address)":"dd62ed3e","approve(address,uint256)":"095ea7b3","balanceOf(address)":"70a08231","burn(address)":"89afcb44","claimReward()":"b88a802f","claimableReward(address)":"e9503425","decimals()":"313ce567","distributeFees()":"bb57ad20","factory()":"c45a0155","fees0()":"93f1c442","fees1()":"4c02a21c","getAmountOut(uint256,address)":"f140a35a","getK()":"ee39e7a0","getReserves()":"0902f1ac","initialize(address,address,bool)":"e4bbb5a8","mint(address)":"6a627842","name()":"06fdde03","notifyRewardAmount(uint256)":"3c6b16ab","observationLength()":"ebeb31db","pendingFees0()":"92e3d8aa","pendingFees1()":"4b81df3a","pendingReward(address)":"f40f0f52","price0CumulativeLast()":"5909c0d5","price1CumulativeLast()":"5a3d5493","rewardIndex()":"e9ee2fa9","rewardToken()":"f7c618c1","skim(address)":"bc25cf77","stable()":"22be3de1","supplyRewardIndex(address)":"31b14218","swap(uint256,uint256,address,bytes)":"022c0d9f","swapWithSlippage(uint256,uint256,uint256,address,bytes)":"e642f728","symbol()":"95d89b41","sync()":"fff6cae9","token0()":"0dfe1681","token1()":"d21220a7","totalBTBRewards()":"a2aa9190","totalSupply()":"18160ddd","transfer(address,uint256)":"a9059cbb","transferFrom(address,address,uint256)":"23b872dd"},"id":82}