{"abi":[{"type":"constructor","inputs":[],"stateMutability":"nonpayable"},{"type":"function","name":"MINIMUM_LIQUIDITY","inputs":[],"outputs":[{"name":"","type":"uint256","internalType":"uint256"}],"stateMutability":"view"},{"type":"function","name":"allowance","inputs":[{"name":"owner","type":"address","internalType":"address"},{"name":"spender","type":"address","internalType":"address"}],"outputs":[{"name":"","type":"uint256","internalType":"uint256"}],"stateMutability":"view"},{"type":"function","name":"approve","inputs":[{"name":"spender","type":"address","internalType":"address"},{"name":"value","type":"uint256","internalType":"uint256"}],"outputs":[{"name":"","type":"bool","internalType":"bool"}],"stateMutability":"nonpayable"},{"type":"function","name":"balanceOf","inputs":[{"name":"account","type":"address","internalType":"address"}],"outputs":[{"name":"","type":"uint256","internalType":"uint256"}],"stateMutability":"view"},{"type":"function","name":"burn","inputs":[{"name":"to","type":"address","internalType":"address"}],"outputs":[{"name":"amount0","type":"uint256","internalType":"uint256"},{"name":"amount1","type":"uint256","internalType":"uint256"}],"stateMutability":"nonpayable"},{"type":"function","name":"claimFees","inputs":[],"outputs":[{"name":"claimed0","type":"uint256","internalType":"uint256"},{"name":"claimed1","type":"uint256","internalType":"uint256"}],"stateMutability":"nonpayable"},{"type":"function","name":"claimable0","inputs":[{"name":"","type":"address","internalType":"address"}],"outputs":[{"name":"","type":"uint256","internalType":"uint256"}],"stateMutability":"view"},{"type":"function","name":"claimable1","inputs":[{"name":"","type":"address","internalType":"address"}],"outputs":[{"name":"","type":"uint256","internalType":"uint256"}],"stateMutability":"view"},{"type":"function","name":"decimals","inputs":[],"outputs":[{"name":"","type":"uint8","internalType":"uint8"}],"stateMutability":"view"},{"type":"function","name":"factory","inputs":[],"outputs":[{"name":"","type":"address","internalType":"address"}],"stateMutability":"view"},{"type":"function","name":"getAmountOut","inputs":[{"name":"amountIn","type":"uint256","internalType":"uint256"},{"name":"tokenIn","type":"address","internalType":"address"}],"outputs":[{"name":"amountOut","type":"uint256","internalType":"uint256"}],"stateMutability":"view"},{"type":"function","name":"getK","inputs":[],"outputs":[{"name":"","type":"uint256","internalType":"uint256"}],"stateMutability":"view"},{"type":"function","name":"getReserves","inputs":[],"outputs":[{"name":"_reserve0","type":"uint112","internalType":"uint112"},{"name":"_reserve1","type":"uint112","internalType":"uint112"},{"name":"_blockTimestampLast","type":"uint32","internalType":"uint32"}],"stateMutability":"view"},{"type":"function","name":"index0","inputs":[],"outputs":[{"name":"","type":"uint256","internalType":"uint256"}],"stateMutability":"view"},{"type":"function","name":"index1","inputs":[],"outputs":[{"name":"","type":"uint256","internalType":"uint256"}],"stateMutability":"view"},{"type":"function","name":"initialize","inputs":[{"name":"_token0","type":"address","internalType":"address"},{"name":"_token1","type":"address","internalType":"address"},{"name":"_stable","type":"bool","internalType":"bool"}],"outputs":[],"stateMutability":"nonpayable"},{"type":"function","name":"mint","inputs":[{"name":"to","type":"address","internalType":"address"}],"outputs":[{"name":"liquidity","type":"uint256","internalType":"uint256"}],"stateMutability":"nonpayable"},{"type":"function","name":"name","inputs":[],"outputs":[{"name":"","type":"string","internalType":"string"}],"stateMutability":"view"},{"type":"function","name":"observationLength","inputs":[],"outputs":[{"name":"","type":"uint256","internalType":"uint256"}],"stateMutability":"pure"},{"type":"function","name":"price0CumulativeLast","inputs":[],"outputs":[{"name":"","type":"uint256","internalType":"uint256"}],"stateMutability":"view"},{"type":"function","name":"price1CumulativeLast","inputs":[],"outputs":[{"name":"","type":"uint256","internalType":"uint256"}],"stateMutability":"view"},{"type":"function","name":"skim","inputs":[{"name":"to","type":"address","internalType":"address"}],"outputs":[],"stateMutability":"nonpayable"},{"type":"function","name":"stable","inputs":[],"outputs":[{"name":"","type":"bool","internalType":"bool"}],"stateMutability":"view"},{"type":"function","name":"supplyIndex0","inputs":[{"name":"","type":"address","internalType":"address"}],"outputs":[{"name":"","type":"uint256","internalType":"uint256"}],"stateMutability":"view"},{"type":"function","name":"supplyIndex1","inputs":[{"name":"","type":"address","internalType":"address"}],"outputs":[{"name":"","type":"uint256","internalType":"uint256"}],"stateMutability":"view"},{"type":"function","name":"swap","inputs":[{"name":"amount0Out","type":"uint256","internalType":"uint256"},{"name":"amount1Out","type":"uint256","internalType":"uint256"},{"name":"to","type":"address","internalType":"address"},{"name":"","type":"bytes","internalType":"bytes"}],"outputs":[],"stateMutability":"nonpayable"},{"type":"function","name":"symbol","inputs":[],"outputs":[{"name":"","type":"string","internalType":"string"}],"stateMutability":"view"},{"type":"function","name":"sync","inputs":[],"outputs":[],"stateMutability":"nonpayable"},{"type":"function","name":"token0","inputs":[],"outputs":[{"name":"","type":"address","internalType":"address"}],"stateMutability":"view"},{"type":"function","name":"token1","inputs":[],"outputs":[{"name":"","type":"address","internalType":"address"}],"stateMutability":"view"},{"type":"function","name":"totalSupply","inputs":[],"outputs":[{"name":"","type":"uint256","internalType":"uint256"}],"stateMutability":"view"},{"type":"function","name":"transfer","inputs":[{"name":"to","type":"address","internalType":"address"},{"name":"value","type":"uint256","internalType":"uint256"}],"outputs":[{"name":"","type":"bool","internalType":"bool"}],"stateMutability":"nonpayable"},{"type":"function","name":"transferFrom","inputs":[{"name":"from","type":"address","internalType":"address"},{"name":"to","type":"address","internalType":"address"},{"name":"value","type":"uint256","internalType":"uint256"}],"outputs":[{"name":"","type":"bool","internalType":"bool"}],"stateMutability":"nonpayable"},{"type":"event","name":"Approval","inputs":[{"name":"owner","type":"address","indexed":true,"internalType":"address"},{"name":"spender","type":"address","indexed":true,"internalType":"address"},{"name":"value","type":"uint256","indexed":false,"internalType":"uint256"}],"anonymous":false},{"type":"event","name":"Burn","inputs":[{"name":"sender","type":"address","indexed":true,"internalType":"address"},{"name":"amount0","type":"uint256","indexed":false,"internalType":"uint256"},{"name":"amount1","type":"uint256","indexed":false,"internalType":"uint256"},{"name":"to","type":"address","indexed":true,"internalType":"address"}],"anonymous":false},{"type":"event","name":"Claim","inputs":[{"name":"sender","type":"address","indexed":true,"internalType":"address"},{"name":"recipient","type":"address","indexed":true,"internalType":"address"},{"name":"amount0","type":"uint256","indexed":false,"internalType":"uint256"},{"name":"amount1","type":"uint256","indexed":false,"internalType":"uint256"}],"anonymous":false},{"type":"event","name":"Fees","inputs":[{"name":"sender","type":"address","indexed":true,"internalType":"address"},{"name":"amount0","type":"uint256","indexed":false,"internalType":"uint256"},{"name":"amount1","type":"uint256","indexed":false,"internalType":"uint256"}],"anonymous":false},{"type":"event","name":"Initialized","inputs":[{"name":"version","type":"uint64","indexed":false,"internalType":"uint64"}],"anonymous":false},{"type":"event","name":"Mint","inputs":[{"name":"sender","type":"address","indexed":true,"internalType":"address"},{"name":"amount0","type":"uint256","indexed":false,"internalType":"uint256"},{"name":"amount1","type":"uint256","indexed":false,"internalType":"uint256"}],"anonymous":false},{"type":"event","name":"Swap","inputs":[{"name":"sender","type":"address","indexed":true,"internalType":"address"},{"name":"amount0In","type":"uint256","indexed":false,"internalType":"uint256"},{"name":"amount1In","type":"uint256","indexed":false,"internalType":"uint256"},{"name":"amount0Out","type":"uint256","indexed":false,"internalType":"uint256"},{"name":"amount1Out","type":"uint256","indexed":false,"internalType":"uint256"},{"name":"to","type":"address","indexed":true,"internalType":"address"}],"anonymous":false},{"type":"event","name":"Sync","inputs":[{"name":"reserve0","type":"uint112","indexed":false,"internalType":"uint112"},{"name":"reserve1","type":"uint112","indexed":false,"internalType":"uint112"}],"anonymous":false},{"type":"event","name":"Transfer","inputs":[{"name":"from","type":"address","indexed":true,"internalType":"address"},{"name":"to","type":"address","indexed":true,"internalType":"address"},{"name":"value","type":"uint256","indexed":false,"internalType":"uint256"}],"anonymous":false},{"type":"error","name":"ERC20InsufficientAllowance","inputs":[{"name":"spender","type":"address","internalType":"address"},{"name":"allowance","type":"uint256","internalType":"uint256"},{"name":"needed","type":"uint256","internalType":"uint256"}]},{"type":"error","name":"ERC20InsufficientBalance","inputs":[{"name":"sender","type":"address","internalType":"address"},{"name":"balance","type":"uint256","internalType":"uint256"},{"name":"needed","type":"uint256","internalType":"uint256"}]},{"type":"error","name":"ERC20InvalidApprover","inputs":[{"name":"approver","type":"address","internalType":"address"}]},{"type":"error","name":"ERC20InvalidReceiver","inputs":[{"name":"receiver","type":"address","internalType":"address"}]},{"type":"error","name":"ERC20InvalidSender","inputs":[{"name":"sender","type":"address","internalType":"address"}]},{"type":"error","name":"ERC20InvalidSpender","inputs":[{"name":"spender","type":"address","internalType":"address"}]},{"type":"error","name":"InsufficientInputAmount","inputs":[]},{"type":"error","name":"InsufficientLiquidity","inputs":[]},{"type":"error","name":"InsufficientLiquidityBurned","inputs":[]},{"type":"error","name":"InsufficientLiquidityMinted","inputs":[]},{"type":"error","name":"InsufficientOutputAmount","inputs":[]},{"type":"error","name":"InvalidInitialization","inputs":[]},{"type":"error","name":"InvalidTo","inputs":[]},{"type":"error","name":"K","inputs":[]},{"type":"error","name":"Locked","inputs":[]},{"type":"error","name":"NotFactory","inputs":[]},{"type":"error","name":"NotInitializing","inputs":[]},{"type":"error","name":"ReentrancyGuardReentrantCall","inputs":[]},{"type":"error","name":"SafeERC20FailedOperation","inputs":[{"name":"token","type":"address","internalType":"address"}]}],"bytecode":{"object":"0x60c080604052346100fc5760017f9b779b17422d0df92223018b32b4d1fa46e071723d6817e2486d003becc55f00556012608052601260a0525f516020612a025f395f51905f525460ff8160401c166100ed576002600160401b03196001600160401b0382160161009a575b60405161290190816101018239608051818181611e56015261216f015260a051818181611eb501526121ce0152f35b6001600160401b0319166001600160401b039081175f516020612a025f395f51905f525581527fc7f505b2f371ae2175ee4913f4499e1f2633a7b5936321eed1cdaeb6115181d290602090a15f8061006b565b63f92ee8a960e01b5f5260045ffd5b5f80fdfe60806040526004361015610011575f80fd5b5f3560e01c8063022c0d9f1461179f57806306fdde03146116e25780630902f1ac146116a2578063095ea7b3146116235780630dfe1681146115fc57806318160ddd146115d3578063205aabf11461159b57806322be3de11461157657806323b872dd1461149e578063313ce5671461148357806332c0defd146114665780634d5a9f8a1461142e5780635909c0d5146114115780635a3d5493146113f45780636a6278421461114a57806370a082311461110657806389afcb4414610d7857806395d89b4114610c865780639f767c8814610c4e578063a1ac4d1314610c16578063a9059cbb14610be5578063ba9a7a5614610bc9578063bc25cf7714610a8b578063bda39cad14610a6e578063c45a015514610a46578063d21220a714610a1e578063d294f0931461094d578063dd62ed3e14610906578063e4bbb5a81461032f578063ebeb31db14610314578063ee39e7a0146102e7578063f140a35a146102b95763fff6cae914610184575f80fd5b3461026f575f36600319011261026f5761019c61207e565b5f546040516370a0823160e01b815230600482015290602090829060249082906001600160a01b03165afa801561027b575f90610286575b6001546040516370a0823160e01b81523060048201529250602090839060249082906001600160a01b03165afa90811561027b575f91610241575b61022e9250600354916001600160701b03808460701c16931691612226565b60015f51602061288c5f395f51905f5255005b90506020823d602011610273575b8161025c60209383611c5d565b8101031261026f5761022e91519061020f565b5f80fd5b3d915061024f565b6040513d5f823e3d90fd5b506020813d6020116102b1575b816102a060209383611c5d565b8101031261026f57602490516101d4565b3d9150610293565b3461026f57604036600319011261026f5760206102df6102d7611be5565b600435611d92565b604051908152f35b3461026f575f36600319011261026f5760206102df6003546001600160701b03808260701c169116612137565b3461026f575f36600319011261026f57602060405160018152f35b3461026f57606036600319011261026f57610348611bcf565b610350611be5565b604435918215159081840361026f575f5160206128ac5f395f51905f52549360ff8560401c16159467ffffffffffffffff8116801590816108fe575b60011490816108f4575b1590816108eb575b506108dc5767ffffffffffffffff1981166001175f5160206128ac5f395f51905f52556020918291876108b0575b50801561089e5761046460016103e0611d62565b6003858a602c826103f96103f38d6124c1565b936124c1565b926040519a8b976b0212a21102334b730b731b2960a51b828a0152805191829101858a015e8701906201016960ed1b84830152805192839101602f83015e010190602f60f81b84830152805192839101600483015e01015f838201520301601f198101845283611c5d565b1561088c576104e16001610476611d62565b8185610481886124c1565b818061048c8d6124c1565b926040519a878c985191829101848a015e870190602d60f81b83830152805192839101602183015e010190602f60f81b84830152805192839101600283015e01015f838201520301601f198101845283611c5d565b6104e961279f565b6104f161279f565b80519067ffffffffffffffff821161077557819061051c5f51602061280c5f395f51905f5254611cca565b601f8111610812575b50602090601f8311600114610794575f92610789575b50508160011b915f199060031b1c1916175f51602061280c5f395f51905f52555b80519067ffffffffffffffff82116107755781906105875f51602061284c5f395f51905f5254611cca565b601f81116106fb575b50602090601f831160011461067d575f92610672575b50508160011b915f199060031b1c1916175f51602061284c5f395f51905f52555b600280546001600160a01b031990811633179091555f80549091166001600160a01b03928316179055600180546001600160a81b031916939091169290921760a09190911b60ff60a01b1617905561061b57005b68ff0000000000000000195f5160206128ac5f395f51905f5254165f5160206128ac5f395f51905f52557fc7f505b2f371ae2175ee4913f4499e1f2633a7b5936321eed1cdaeb6115181d2602060405160018152a1005b0151905086806105a6565b5f51602061284c5f395f51905f525f9081528281209350601f198516905b8181106106e357509084600195949392106106cb575b505050811b015f51602061284c5f395f51905f52556105c7565b01515f1960f88460031b161c191690558680806106b1565b9293602060018192878601518155019501930161069b565b5f51602061284c5f395f51905f525f529091507f46a2803e59a4de4e7a4c574b1243f25977ac4c77d5a1a4a609b5394cebb4a2aa601f840160051c8101916020851061076b575b90601f859493920160051c01905b81811061075d5750610590565b5f8155849350600101610750565b9091508190610742565b634e487b7160e01b5f52604160045260245ffd5b01519050878061053b565b5f51602061280c5f395f51905f525f9081528281209350601f198516905b8181106107fa57509084600195949392106107e2575b505050811b015f51602061280c5f395f51905f525561055c565b01515f1960f88460031b161c191690558780806107c8565b929360206001819287860151815501950193016107b2565b5f51602061280c5f395f51905f525f529091507f2ae08a8e29253f69ac5d979a101956ab8f8d9d7ded63fa7a83b16fc47648eab0601f840160051c81019160208510610882575b90601f859493920160051c01905b8181106108745750610525565b5f8155849350600101610867565b9091508190610859565b6104e16001610899611d40565b610476565b61046460016108ab611d40565b6103e0565b68ffffffffffffffffff191668010000000000000001175f5160206128ac5f395f51905f5255876103cc565b63f92ee8a960e01b5f5260045ffd5b9050158761039e565b303b159150610396565b87915061038c565b3461026f57604036600319011261026f5761091f611bcf565b61093061092a611be5565b91611c25565b9060018060a01b03165f52602052602060405f2054604051908152f35b3461026f575f36600319011261026f57610966336123c7565b335f52600a6020526040805f2054335f52600b602052815f2054816109f4575b806109ca575b825182815281602082015233907f865ca08d59f5cb456e85cd2f7ef63664ea4f73327414e9d8152c4158b0e94645853392a382519182526020820152f35b335f818152600b602052848120556001546109ef9183916001600160a01b03166120b6565b61098c565b335f818152600a60205284812081905554610a199184916001600160a01b03166120b6565b610986565b3461026f575f36600319011261026f576001546040516001600160a01b039091168152602090f35b3461026f575f36600319011261026f576002546040516001600160a01b039091168152602090f35b3461026f575f36600319011261026f576020600754604051908152f35b3461026f57602036600319011261026f57610aa4611bcf565b610aac61207e565b5f546040516370a0823160e01b8152306004820152906001600160a01b0316602082602481845afa91821561027b5783905f93610b91575b50610afe610b04936001600160701b036003541690611c7f565b916120b6565b6001546040516370a0823160e01b8152306004820152916001600160a01b0390911690602083602481855afa92831561027b575f93610b5b575b50610afe61022e936001600160701b0360035460701c1690611c7f565b92506020833d602011610b89575b81610b7660209383611c5d565b8101031261026f57915191610afe610b3e565b3d9150610b69565b9250506020823d602011610bc1575b81610bad60209383611c5d565b8101031261026f5790519082610afe610ae4565b3d9150610ba0565b3461026f575f36600319011261026f5760206040516103e88152f35b3461026f57604036600319011261026f57610c0b610c01611bcf565b60243590336122f4565b602060405160018152f35b3461026f57602036600319011261026f576001600160a01b03610c37611bcf565b165f52600b602052602060405f2054604051908152f35b3461026f57602036600319011261026f576001600160a01b03610c6f611bcf565b165f526008602052602060405f2054604051908152f35b3461026f575f36600319011261026f576040515f5f51602061284c5f395f51905f5254610cb281611cca565b8084529060018116908115610d545750600114610cea575b610ce683610cda81850382611c5d565b60405191829182611bfb565b0390f35b5f51602061284c5f395f51905f525f9081527f46a2803e59a4de4e7a4c574b1243f25977ac4c77d5a1a4a609b5394cebb4a2aa939250905b808210610d3a57509091508101602001610cda610cca565b919260018160209254838588010152019101909291610d22565b60ff191660208086019190915291151560051b84019091019150610cda9050610cca565b3461026f57602036600319011261026f57610d91611bcf565b610d9961207e565b610da1611d02565b505f546001546040516370a0823160e01b815230600482015293946001600160a01b0392831694939092909116602084602481885afa93841561027b575f946110d2575b506040516370a0823160e01b815230600482015294602086602481855afa95861561027b575f9661109e575b50305f525f51602061282c5f395f51905f52602052610e65610e59610e59610e5e60405f205498610e41896123c7565b5f51602061286c5f395f51905f52549384918b611c8c565b611c9f565b9888611c8c565b9486158015611096575b61108757301561107457610e82306123c7565b610e8b5f6123c7565b305f525f51602061282c5f395f51905f5260205260405f205481811061105b57915f82602093602496953084525f51602061282c5f395f51905f528652036040832055805f51602061286c5f395f51905f5254035f51602061286c5f395f51905f52556040519081527fddf252ad1be2c89b69c2b068fc378daa952ba7f163c4a11628f55a4df523b3ef843092a3610f248887836120b6565b610f2f8787856120b6565b6040516370a0823160e01b815230600482015293849182905afa91821561027b575f92611026575b50906020602492604051938480926370a0823160e01b82523060048301525afa91821561027b575f92610feb575b5095610f949291604097612226565b83519083825282602083015260018060a01b0316907fdccd412f0b1252819cb1fd330b93224ca42612892bb3f4f789976e6d81936496853392a360015f51602061288c5f395f51905f525582519182526020820152f35b929150956020833d60201161101e575b8161100860209383611c5d565b8101031261026f57915191959091906040610f85565b3d9150610ffb565b91506020823d602011611053575b8161104160209383611c5d565b8101031261026f579051906020610f57565b3d9150611034565b63391434e360e21b5f523060045260245260445260645ffd5b634b637e8f60e11b5f525f60045260245ffd5b63749383ad60e01b5f5260045ffd5b508515610e6f565b9095506020813d6020116110ca575b816110ba60209383611c5d565b8101031261026f57519487610e11565b3d91506110ad565b9093506020813d6020116110fe575b816110ee60209383611c5d565b8101031261026f57519286610de5565b3d91506110e1565b3461026f57602036600319011261026f576001600160a01b03611127611bcf565b165f525f51602061282c5f395f51905f52602052602060405f2054604051908152f35b3461026f57602036600319011261026f57611163611bcf565b61116b61207e565b6024611175611d02565b505f546040516370a0823160e01b81523060048201529360209185919082906001600160a01b03165afa92831561027b575f936113bf575b506001546040516370a0823160e01b8152306004820152939490602090859060249082906001600160a01b03165afa93841561027b575f9461138b575b506001600160701b038316916112008387611c7f565b936001600160701b0382166112158188611c7f565b9461121f856123c7565b5f51602061286c5f395f51905f52549182611359575050506112418486611c8c565b5f600382111561134b5750808060011c6001810180911161131857905b82821061132c5750505b6103e719810190811161131857956112836103e860016126e3565b8615611309576001600160a01b038416156112f6576020976112a8886112ad966126e3565b612226565b604051918252838201527f4c209b5fc8ad50758f13e2e1088ba56a560dff690a1c6fef26394f4c03821c4f60403392a260015f51602061288c5f395f51905f5255604051908152f35b63ec442f0560e01b5f525f60045260245ffd5b633489be7560e21b5f5260045ffd5b634e487b7160e01b5f52601160045260245ffd5b9091506113428261133d8184611c9f565b611cbd565b60011c9061125e565b901561126857506001611268565b610e5961136d61137493610e59868c611c8c565b9388611c8c565b8082101561138457505b95611283565b905061137e565b9093506020813d6020116113b7575b816113a760209383611c5d565b8101031261026f575192856111ea565b3d915061139a565b92506020833d6020116113ec575b816113da60209383611c5d565b8101031261026f5760249251926111ad565b3d91506113cd565b3461026f575f36600319011261026f576020600554604051908152f35b3461026f575f36600319011261026f576020600454604051908152f35b3461026f57602036600319011261026f576001600160a01b0361144f611bcf565b165f52600a602052602060405f2054604051908152f35b3461026f575f36600319011261026f576020600654604051908152f35b3461026f575f36600319011261026f57602060405160128152f35b3461026f57606036600319011261026f576114b7611bcf565b6114bf611be5565b604435906114cc83611c25565b335f9081526020919091526040902054925f1984106114f0575b610c0b93506122f4565b82841061155b576001600160a01b0381161561154857331561153557610c0b9361151982611c25565b60018060a01b0333165f526020528360405f20910390556114e6565b634a1406b160e11b5f525f60045260245ffd5b63e602df0560e01b5f525f60045260245ffd5b8284637dc7a0d960e11b5f523360045260245260445260645ffd5b3461026f575f36600319011261026f57602060ff60015460a01c166040519015158152f35b3461026f57602036600319011261026f576001600160a01b036115bc611bcf565b165f526009602052602060405f2054604051908152f35b3461026f575f36600319011261026f5760205f51602061286c5f395f51905f5254604051908152f35b3461026f575f36600319011261026f575f546040516001600160a01b039091168152602090f35b3461026f57604036600319011261026f5761163c611bcf565b602435903315611548576001600160a01b03169081156115355761165f33611c25565b825f526020528060405f20556040519081527f8c5be1e5ebec7d5bd14f71427d1e84f3dd0314c0f7b2291e5b200ac8c7c3b92560203392a3602060405160018152f35b3461026f575f36600319011261026f5760606001600160701b0363ffffffff6116c9611d02565b9193908160405195168552166020840152166040820152f35b3461026f575f36600319011261026f576040515f5f51602061280c5f395f51905f525461170e81611cca565b8084529060018116908115610d54575060011461173557610ce683610cda81850382611c5d565b5f51602061280c5f395f51905f525f9081527f2ae08a8e29253f69ac5d979a101956ab8f8d9d7ded63fa7a83b16fc47648eab0939250905b80821061178557509091508101602001610cda610cca565b91926001816020925483858801015201910190929161176d565b3461026f57608036600319011261026f576044356001600160a01b0381169060243560043583830361026f5760643567ffffffffffffffff811161026f573660238201121561026f57806004013567ffffffffffffffff811161026f573691016024011161026f5761180f61207e565b80158080611bc7575b611bb857611824611d02565b506001600160701b038293921695868510801590611ba5575b611b96575f546001600160a01b03168881148015611b82575b611b7357858260249515611b62575b5050508580611b45575b50505f546040516370a0823160e01b81523060048201529260209184919082906001600160a01b03165afa91821561027b575f92611b11575b506001546040516370a0823160e01b81523060048201529093906020816024816001600160a01b0389165afa90811561027b575f91611adf575b506118ed8689611c7f565b841115611ad857611907611901878a611c7f565b85611c7f565b975b6001600160701b0384169561191e8988611c7f565b831115611ad1576119386119328a89611c7f565b84611c7f565b965b8a15918280611ac9575b611aba5760025460405163cc56b2c560e01b815230600482015260a09290921c60ff161515602483015260209082906001600160a01b031681806044810103915afa90811561027b578c905f92611a82575b50816119d29415611a5f575b505088611a3d575b506119cc6119ba600c5489611c7f565b6119c6600d5487611c7f565b90612137565b92612137565b11611a2e576119e093612226565b6040519384526020840152604083015260608201527fd78ad95fa46c994b6551d0da85fc275fe613ce37657fb8d5e3d130840159d82260803392a360015f51602061288c5f395f51905f5255005b63a932492f60e01b5f5260045ffd5b612710611a4d611a56928b611c8c565b04600d54611cbd565b600d558c6119aa565b611a6f61271091611a7893611c8c565b04600c54611cbd565b600c558b816119a2565b939150506020833d602011611ab2575b81611a9f60209383611c5d565b8101031261026f5791518b6119d2611996565b3d9150611a92565b63098fb56160e01b5f5260045ffd5b508815611944565b5f9661193a565b5f97611909565b90506020813d602011611b09575b81611afa60209383611c5d565b8101031261026f5751896118e2565b3d9150611aed565b9091506020813d602011611b3d575b81611b2d60209383611c5d565b8101031261026f575190876118a8565b3d9150611b20565b600154611b5b92906001600160a01b03166120b6565b878561186f565b611b6b926120b6565b888582611865565b630521f43160e31b5f5260045ffd5b506001546001600160a01b03168914611856565b63bb55fd2760e01b5f5260045ffd5b506001600160701b03821686101561183d565b6342301c2360e01b5f5260045ffd5b508215611818565b600435906001600160a01b038216820361026f57565b602435906001600160a01b038216820361026f57565b602060409281835280519182918282860152018484015e5f828201840152601f01601f1916010190565b6001600160a01b03165f9081527f52c63247e1f47db19d5ce0460030c497f067ca4cebf71ba98eeadabe20bace016020526040902090565b90601f8019910116810190811067ffffffffffffffff82111761077557604052565b9190820391821161131857565b8181029291811591840414171561131857565b8115611ca9570490565b634e487b7160e01b5f52601260045260245ffd5b9190820180921161131857565b90600182811c92168015611cf8575b6020831014611ce457565b634e487b7160e01b5f52602260045260245ffd5b91607f1691611cd9565b6003546001600160701b038116916001600160701b038260701c169160e01c90565b67ffffffffffffffff811161077557601f01601f191660200190565b60405190611d4f604083611c5d565b600482526376414d4d60e01b6020830152565b60405190611d71604083611c5d565b600482526373414d4d60e01b6020830152565b604d811161131857600a0a90565b90611d9b611d02565b5060025460015460405163cc56b2c560e01b815230600482015260a09190911c60ff16801515602483015295929392909160209083906001600160a01b031681806044810103915afa91821561027b575f92612048575b50612710611e03611e0a9383611c8c565b0490611c7f565b9315611ff2576001600160701b038091169116611e278183612137565b91670de0b6b3a7640000810290808204670de0b6b3a76400001490151715611318576001600160701b03611e857f000000000000000000000000000000000000000000000000000000000000000092611e7f84611d84565b90611c9f565b1692670de0b6b3a7640000830292808404670de0b6b3a76400001490151715611318576001600160701b03611ede7f000000000000000000000000000000000000000000000000000000000000000094611e7f86611d84565b5f549116956001600160a01b03908116911614938415611fe4576001600160701b0390955b168415611f9057670de0b6b3a7640000870296808804670de0b6b3a7640000149015171561131857611f6681611f6c93611f61611f82996001600160701b03611f58670de0b6b3a76400009d611e7f8b611d84565b915b1690611cbd565b6125b3565b90611c7f565b9215611f865750611f7c90611d84565b90611c8c565b0490565b611f7c9150611d84565b670de0b6b3a7640000870296808804670de0b6b3a7640000149015171561131857611f6681611f6c93611f61611f82996001600160701b03611fde670de0b6b3a76400009d611e7f8c611d84565b91611f5a565b6001600160701b0390611f03565b5f5461202d9491936001600160a01b03908116911603612030576120276001600160701b0380611e7f94951694165b82611c8c565b92611cbd565b90565b6120276001600160701b0380611e7f94169416612021565b91506020823d602011612076575b8161206360209383611c5d565b8101031261026f57905190612710611df2565b3d9150612056565b60025f51602061288c5f395f51905f5254146120a75760025f51602061288c5f395f51905f5255565b633ee5aeb560e01b5f5260045ffd5b916040519163a9059cbb60e01b5f5260018060a01b031660045260245260205f60448180865af19060015f5114821615612116575b604052156120f65750565b635274afe760e01b5f9081526001600160a01b0391909116600452602490fd5b90600181151661212e57823b15153d151616906120eb565b503d5f823e3d90fd5b60015460a01c60ff161561221c57670de0b6b3a7640000810290808204670de0b6b3a764000014901517156113185761219390611e7f7f0000000000000000000000000000000000000000000000000000000000000000611d84565b90670de0b6b3a7640000810290808204670de0b6b3a7640000149015171561131857670de0b6b3a764000091611f7c6121f2611f8293611e7f7f0000000000000000000000000000000000000000000000000000000000000000611d84565b846122158161220d816122058689611c8c565b049680611c8c565b049280611c8c565b0490611cbd565b9061202d91611c8c565b6001600160701b0380917f1c411e9a96e071241c2f21f7726b17ae89e3cab4c78be50e062b03a9fffbbad19560409563ffffffff60035460e01c8142160316801515806122e9575b806122de575b6122ad575b50505016918263ffffffff60e01b4260e01b16918360701b9060701b16171780600355835192835260701c166020820152a1565b84806122cf941692166122c281838502611c9f565b6004540160045502611c9f565b600554016005555f8080612279565b508483161515612274565b50848216151561226e565b90916001600160a01b038216918215611074576001600160a01b0384169384156112f657612324612329926123c7565b6123c7565b815f525f51602061282c5f395f51905f5260205260405f20548181106123ae57817fddf252ad1be2c89b69c2b068fc378daa952ba7f163c4a11628f55a4df523b3ef92602092855f525f51602061282c5f395f51905f5284520360405f2055845f525f51602061282c5f395f51905f52825260405f20818154019055604051908152a3565b8263391434e360e21b5f5260045260245260445260645ffd5b6001600160a01b03165f8181525f51602061282c5f395f51905f52602052604090205480612413575b50600654815f52600860205260405f2055600754905f52600960205260405f2055565b61242c600654835f52600860205260405f205490611c7f565b90612446600754845f52600960205260405f205490611c7f565b918061248e575b508161245a575b506123f0565b670de0b6b3a76400009161246d91611c8c565b04815f52600b60205261248560405f20918254611cbd565b90555f80612454565b6124a1670de0b6b3a76400009183611c8c565b04835f52600a6020526124b960405f20918254611cbd565b90555f61244d565b5f809160405160208101906395d89b4160e01b8252600481526124e5602482611c5d565b51915afa3d156125ab573d906124fa82611d24565b916125086040519384611c5d565b82523d5f602084013e5b1561258957805181019060208181840193031261026f5760208101519067ffffffffffffffff821161026f570181603f8201121561026f5760208101519061255982611d24565b926125676040519485611c5d565b8284526040828401011161026f57815f926040602093018386015e8301015290565b50604051612598604082611c5d565b60038152623f3f3f60e81b602082015290565b606090612512565b905f5b60ff81106125c45750505090565b8361260f670de0b6b3a76400006125f1816125ea85826125e48280611c8c565b04611c8c565b0487611c8c565b04670de0b6b3a764000061221584826125e48a826125e48280611c8c565b838082101561269f579061262291611c7f565b670de0b6b3a7640000810290808204670de0b6b3a76400001490151715611318578161265761265d92611e7f600195896127ca565b90611cbd565b945b8581811115612688579061267291611c7f565b1115612682576001905b016125b6565b50505090565b61269191611c7f565b11156126825760019061267c565b6126a891611c7f565b670de0b6b3a7640000810290808204670de0b6b3a764000014901517156113185781611f666126dd92611e7f600195896127ca565b9461265f565b7fddf252ad1be2c89b69c2b068fc378daa952ba7f163c4a11628f55a4df523b3ef60205f92612711846123c7565b61271a816123c7565b612732855f51602061286c5f395f51905f5254611cbd565b5f51602061286c5f395f51905f52556001600160a01b0316938415841461277d57805f51602061286c5f395f51905f5254035f51602061286c5f395f51905f52555b604051908152a3565b8484525f51602061282c5f395f51905f52825260408420818154019055612774565b60ff5f5160206128ac5f395f51905f525460401c16156127bb57565b631afcd79f60e31b5f5260045ffd5b8060030260038104820361131857612215670de0b6b3a76400006127fe8193826127f78861202d99611c8c565b0490611c8c565b0492826125e48280611c8c56fe52c63247e1f47db19d5ce0460030c497f067ca4cebf71ba98eeadabe20bace0352c63247e1f47db19d5ce0460030c497f067ca4cebf71ba98eeadabe20bace0052c63247e1f47db19d5ce0460030c497f067ca4cebf71ba98eeadabe20bace0452c63247e1f47db19d5ce0460030c497f067ca4cebf71ba98eeadabe20bace029b779b17422d0df92223018b32b4d1fa46e071723d6817e2486d003becc55f00f0c57e16840df040f15088dc2f81fe391c3923bec73e23a9662efc9c229c6a00a264697066735822122078c6d6d616516826653d4205cde3658c9e8484b7eb34e3144f2b5b9ef6213f7164736f6c634300081b0033f0c57e16840df040f15088dc2f81fe391c3923bec73e23a9662efc9c229c6a00","linkReferences":{}},"methodIdentifiers":{"MINIMUM_LIQUIDITY()":"ba9a7a56","allowance(address,address)":"dd62ed3e","approve(address,uint256)":"095ea7b3","balanceOf(address)":"70a08231","burn(address)":"89afcb44","claimFees()":"d294f093","claimable0(address)":"4d5a9f8a","claimable1(address)":"a1ac4d13","decimals()":"313ce567","factory()":"c45a0155","getAmountOut(uint256,address)":"f140a35a","getK()":"ee39e7a0","getReserves()":"0902f1ac","index0()":"32c0defd","index1()":"bda39cad","initialize(address,address,bool)":"e4bbb5a8","mint(address)":"6a627842","name()":"06fdde03","observationLength()":"ebeb31db","price0CumulativeLast()":"5909c0d5","price1CumulativeLast()":"5a3d5493","skim(address)":"bc25cf77","stable()":"22be3de1","supplyIndex0(address)":"9f767c88","supplyIndex1(address)":"205aabf1","swap(uint256,uint256,address,bytes)":"022c0d9f","symbol()":"95d89b41","sync()":"fff6cae9","token0()":"0dfe1681","token1()":"d21220a7","totalSupply()":"18160ddd","transfer(address,uint256)":"a9059cbb","transferFrom(address,address,uint256)":"23b872dd"},"id":25}