{"abi":[{"type":"constructor","inputs":[],"stateMutability":"nonpayable"},{"type":"function","name":"MINIMUM_LIQUIDITY","inputs":[],"outputs":[{"name":"","type":"uint256","internalType":"uint256"}],"stateMutability":"view"},{"type":"function","name":"allowance","inputs":[{"name":"owner","type":"address","internalType":"address"},{"name":"spender","type":"address","internalType":"address"}],"outputs":[{"name":"","type":"uint256","internalType":"uint256"}],"stateMutability":"view"},{"type":"function","name":"approve","inputs":[{"name":"spender","type":"address","internalType":"address"},{"name":"value","type":"uint256","internalType":"uint256"}],"outputs":[{"name":"","type":"bool","internalType":"bool"}],"stateMutability":"nonpayable"},{"type":"function","name":"balanceOf","inputs":[{"name":"account","type":"address","internalType":"address"}],"outputs":[{"name":"","type":"uint256","internalType":"uint256"}],"stateMutability":"view"},{"type":"function","name":"burn","inputs":[{"name":"to","type":"address","internalType":"address"}],"outputs":[{"name":"amount0","type":"uint256","internalType":"uint256"},{"name":"amount1","type":"uint256","internalType":"uint256"}],"stateMutability":"nonpayable"},{"type":"function","name":"claimFees","inputs":[],"outputs":[{"name":"claimed0","type":"uint256","internalType":"uint256"},{"name":"claimed1","type":"uint256","internalType":"uint256"}],"stateMutability":"nonpayable"},{"type":"function","name":"claimReward","inputs":[],"outputs":[{"name":"","type":"uint256","internalType":"uint256"}],"stateMutability":"nonpayable"},{"type":"function","name":"claimable0","inputs":[{"name":"","type":"address","internalType":"address"}],"outputs":[{"name":"","type":"uint256","internalType":"uint256"}],"stateMutability":"view"},{"type":"function","name":"claimable1","inputs":[{"name":"","type":"address","internalType":"address"}],"outputs":[{"name":"","type":"uint256","internalType":"uint256"}],"stateMutability":"view"},{"type":"function","name":"claimableReward","inputs":[{"name":"","type":"address","internalType":"address"}],"outputs":[{"name":"","type":"uint256","internalType":"uint256"}],"stateMutability":"view"},{"type":"function","name":"decimals","inputs":[],"outputs":[{"name":"","type":"uint8","internalType":"uint8"}],"stateMutability":"view"},{"type":"function","name":"distributeFeesToVeBTB","inputs":[{"name":"feeDistributor","type":"address","internalType":"address"}],"outputs":[],"stateMutability":"nonpayable"},{"type":"function","name":"factory","inputs":[],"outputs":[{"name":"","type":"address","internalType":"address"}],"stateMutability":"view"},{"type":"function","name":"flash","inputs":[{"name":"token0Amount","type":"uint256","internalType":"uint256"},{"name":"token1Amount","type":"uint256","internalType":"uint256"},{"name":"receiver","type":"address","internalType":"address"},{"name":"data","type":"bytes","internalType":"bytes"}],"outputs":[],"stateMutability":"nonpayable"},{"type":"function","name":"getAmountOut","inputs":[{"name":"amountIn","type":"uint256","internalType":"uint256"},{"name":"tokenIn","type":"address","internalType":"address"}],"outputs":[{"name":"amountOut","type":"uint256","internalType":"uint256"}],"stateMutability":"view"},{"type":"function","name":"getK","inputs":[],"outputs":[{"name":"","type":"uint256","internalType":"uint256"}],"stateMutability":"view"},{"type":"function","name":"getReserves","inputs":[],"outputs":[{"name":"_reserve0","type":"uint112","internalType":"uint112"},{"name":"_reserve1","type":"uint112","internalType":"uint112"},{"name":"_blockTimestampLast","type":"uint32","internalType":"uint32"}],"stateMutability":"view"},{"type":"function","name":"index0","inputs":[],"outputs":[{"name":"","type":"uint256","internalType":"uint256"}],"stateMutability":"view"},{"type":"function","name":"index1","inputs":[],"outputs":[{"name":"","type":"uint256","internalType":"uint256"}],"stateMutability":"view"},{"type":"function","name":"initialize","inputs":[{"name":"_token0","type":"address","internalType":"address"},{"name":"_token1","type":"address","internalType":"address"},{"name":"_stable","type":"bool","internalType":"bool"}],"outputs":[],"stateMutability":"nonpayable"},{"type":"function","name":"mint","inputs":[{"name":"to","type":"address","internalType":"address"}],"outputs":[{"name":"liquidity","type":"uint256","internalType":"uint256"}],"stateMutability":"nonpayable"},{"type":"function","name":"name","inputs":[],"outputs":[{"name":"","type":"string","internalType":"string"}],"stateMutability":"view"},{"type":"function","name":"notifyRewardAmount","inputs":[{"name":"amount","type":"uint256","internalType":"uint256"}],"outputs":[],"stateMutability":"nonpayable"},{"type":"function","name":"observationLength","inputs":[],"outputs":[{"name":"","type":"uint256","internalType":"uint256"}],"stateMutability":"pure"},{"type":"function","name":"pendingReward","inputs":[{"name":"account","type":"address","internalType":"address"}],"outputs":[{"name":"","type":"uint256","internalType":"uint256"}],"stateMutability":"view"},{"type":"function","name":"price0CumulativeLast","inputs":[],"outputs":[{"name":"","type":"uint256","internalType":"uint256"}],"stateMutability":"view"},{"type":"function","name":"price1CumulativeLast","inputs":[],"outputs":[{"name":"","type":"uint256","internalType":"uint256"}],"stateMutability":"view"},{"type":"function","name":"rewardIndex","inputs":[],"outputs":[{"name":"","type":"uint256","internalType":"uint256"}],"stateMutability":"view"},{"type":"function","name":"rewardToken","inputs":[],"outputs":[{"name":"","type":"address","internalType":"address"}],"stateMutability":"view"},{"type":"function","name":"skim","inputs":[{"name":"to","type":"address","internalType":"address"}],"outputs":[],"stateMutability":"nonpayable"},{"type":"function","name":"stable","inputs":[],"outputs":[{"name":"","type":"bool","internalType":"bool"}],"stateMutability":"view"},{"type":"function","name":"supplyIndex0","inputs":[{"name":"","type":"address","internalType":"address"}],"outputs":[{"name":"","type":"uint256","internalType":"uint256"}],"stateMutability":"view"},{"type":"function","name":"supplyIndex1","inputs":[{"name":"","type":"address","internalType":"address"}],"outputs":[{"name":"","type":"uint256","internalType":"uint256"}],"stateMutability":"view"},{"type":"function","name":"supplyRewardIndex","inputs":[{"name":"","type":"address","internalType":"address"}],"outputs":[{"name":"","type":"uint256","internalType":"uint256"}],"stateMutability":"view"},{"type":"function","name":"swap","inputs":[{"name":"amount0Out","type":"uint256","internalType":"uint256"},{"name":"amount1Out","type":"uint256","internalType":"uint256"},{"name":"to","type":"address","internalType":"address"},{"name":"","type":"bytes","internalType":"bytes"}],"outputs":[],"stateMutability":"nonpayable"},{"type":"function","name":"swapWithSlippage","inputs":[{"name":"amount0Out","type":"uint256","internalType":"uint256"},{"name":"amount1Out","type":"uint256","internalType":"uint256"},{"name":"minOutput","type":"uint256","internalType":"uint256"},{"name":"to","type":"address","internalType":"address"},{"name":"data","type":"bytes","internalType":"bytes"}],"outputs":[],"stateMutability":"nonpayable"},{"type":"function","name":"symbol","inputs":[],"outputs":[{"name":"","type":"string","internalType":"string"}],"stateMutability":"view"},{"type":"function","name":"sync","inputs":[],"outputs":[],"stateMutability":"nonpayable"},{"type":"function","name":"token0","inputs":[],"outputs":[{"name":"","type":"address","internalType":"address"}],"stateMutability":"view"},{"type":"function","name":"token1","inputs":[],"outputs":[{"name":"","type":"address","internalType":"address"}],"stateMutability":"view"},{"type":"function","name":"totalBTBRewards","inputs":[],"outputs":[{"name":"","type":"uint256","internalType":"uint256"}],"stateMutability":"view"},{"type":"function","name":"totalSupply","inputs":[],"outputs":[{"name":"","type":"uint256","internalType":"uint256"}],"stateMutability":"view"},{"type":"function","name":"transfer","inputs":[{"name":"to","type":"address","internalType":"address"},{"name":"value","type":"uint256","internalType":"uint256"}],"outputs":[{"name":"","type":"bool","internalType":"bool"}],"stateMutability":"nonpayable"},{"type":"function","name":"transferFrom","inputs":[{"name":"from","type":"address","internalType":"address"},{"name":"to","type":"address","internalType":"address"},{"name":"value","type":"uint256","internalType":"uint256"}],"outputs":[{"name":"","type":"bool","internalType":"bool"}],"stateMutability":"nonpayable"},{"type":"event","name":"Approval","inputs":[{"name":"owner","type":"address","indexed":true,"internalType":"address"},{"name":"spender","type":"address","indexed":true,"internalType":"address"},{"name":"value","type":"uint256","indexed":false,"internalType":"uint256"}],"anonymous":false},{"type":"event","name":"Burn","inputs":[{"name":"sender","type":"address","indexed":true,"internalType":"address"},{"name":"amount0","type":"uint256","indexed":false,"internalType":"uint256"},{"name":"amount1","type":"uint256","indexed":false,"internalType":"uint256"},{"name":"to","type":"address","indexed":true,"internalType":"address"}],"anonymous":false},{"type":"event","name":"Claim","inputs":[{"name":"sender","type":"address","indexed":true,"internalType":"address"},{"name":"recipient","type":"address","indexed":true,"internalType":"address"},{"name":"amount0","type":"uint256","indexed":false,"internalType":"uint256"},{"name":"amount1","type":"uint256","indexed":false,"internalType":"uint256"}],"anonymous":false},{"type":"event","name":"Fees","inputs":[{"name":"sender","type":"address","indexed":true,"internalType":"address"},{"name":"amount0","type":"uint256","indexed":false,"internalType":"uint256"},{"name":"amount1","type":"uint256","indexed":false,"internalType":"uint256"}],"anonymous":false},{"type":"event","name":"FlashLoan","inputs":[{"name":"receiver","type":"address","indexed":true,"internalType":"address"},{"name":"token0Amount","type":"uint256","indexed":false,"internalType":"uint256"},{"name":"token1Amount","type":"uint256","indexed":false,"internalType":"uint256"},{"name":"fee0","type":"uint256","indexed":false,"internalType":"uint256"},{"name":"fee1","type":"uint256","indexed":false,"internalType":"uint256"}],"anonymous":false},{"type":"event","name":"Initialized","inputs":[{"name":"version","type":"uint64","indexed":false,"internalType":"uint64"}],"anonymous":false},{"type":"event","name":"Mint","inputs":[{"name":"sender","type":"address","indexed":true,"internalType":"address"},{"name":"amount0","type":"uint256","indexed":false,"internalType":"uint256"},{"name":"amount1","type":"uint256","indexed":false,"internalType":"uint256"}],"anonymous":false},{"type":"event","name":"Swap","inputs":[{"name":"sender","type":"address","indexed":true,"internalType":"address"},{"name":"amount0In","type":"uint256","indexed":false,"internalType":"uint256"},{"name":"amount1In","type":"uint256","indexed":false,"internalType":"uint256"},{"name":"amount0Out","type":"uint256","indexed":false,"internalType":"uint256"},{"name":"amount1Out","type":"uint256","indexed":false,"internalType":"uint256"},{"name":"to","type":"address","indexed":true,"internalType":"address"}],"anonymous":false},{"type":"event","name":"Sync","inputs":[{"name":"reserve0","type":"uint112","indexed":false,"internalType":"uint112"},{"name":"reserve1","type":"uint112","indexed":false,"internalType":"uint112"}],"anonymous":false},{"type":"event","name":"Transfer","inputs":[{"name":"from","type":"address","indexed":true,"internalType":"address"},{"name":"to","type":"address","indexed":true,"internalType":"address"},{"name":"value","type":"uint256","indexed":false,"internalType":"uint256"}],"anonymous":false},{"type":"error","name":"ERC20InsufficientAllowance","inputs":[{"name":"spender","type":"address","internalType":"address"},{"name":"allowance","type":"uint256","internalType":"uint256"},{"name":"needed","type":"uint256","internalType":"uint256"}]},{"type":"error","name":"ERC20InsufficientBalance","inputs":[{"name":"sender","type":"address","internalType":"address"},{"name":"balance","type":"uint256","internalType":"uint256"},{"name":"needed","type":"uint256","internalType":"uint256"}]},{"type":"error","name":"ERC20InvalidApprover","inputs":[{"name":"approver","type":"address","internalType":"address"}]},{"type":"error","name":"ERC20InvalidReceiver","inputs":[{"name":"receiver","type":"address","internalType":"address"}]},{"type":"error","name":"ERC20InvalidSender","inputs":[{"name":"sender","type":"address","internalType":"address"}]},{"type":"error","name":"ERC20InvalidSpender","inputs":[{"name":"spender","type":"address","internalType":"address"}]},{"type":"error","name":"FlashLoanCallbackFailed","inputs":[]},{"type":"error","name":"FlashLoanNotRepaid","inputs":[]},{"type":"error","name":"InsufficientInputAmount","inputs":[]},{"type":"error","name":"InsufficientLiquidity","inputs":[]},{"type":"error","name":"InsufficientLiquidityBurned","inputs":[]},{"type":"error","name":"InsufficientLiquidityMinted","inputs":[]},{"type":"error","name":"InsufficientOutputAmount","inputs":[]},{"type":"error","name":"InvalidInitialization","inputs":[]},{"type":"error","name":"InvalidTo","inputs":[]},{"type":"error","name":"K","inputs":[]},{"type":"error","name":"Locked","inputs":[]},{"type":"error","name":"NotFactory","inputs":[]},{"type":"error","name":"NotInitializing","inputs":[]},{"type":"error","name":"ReentrancyGuardReentrantCall","inputs":[]},{"type":"error","name":"SafeERC20FailedOperation","inputs":[{"name":"token","type":"address","internalType":"address"}]},{"type":"error","name":"SlippageExceeded","inputs":[]}],"bytecode":{"object":"0x60c080604052346100fc5760017f9b779b17422d0df92223018b32b4d1fa46e071723d6817e2486d003becc55f00556012608052601260a0525f5160206139ef5f395f51905f525460ff8160401c166100ed576002600160401b03196001600160401b0382160161009a575b6040516138ee90816101018239608051818181612cf30152613088015260a051818181612d5201526130e70152f35b6001600160401b0319166001600160401b039081175f5160206139ef5f395f51905f525581527fc7f505b2f371ae2175ee4913f4499e1f2633a7b5936321eed1cdaeb6115181d290602090a15f8061006b565b63f92ee8a960e01b5f5260045ffd5b5f80fdfe60806040526004361015610011575f80fd5b5f5f3560e01c8063022c0d9f1461250957806306fdde03146124275780630902f1ac146123e7578063095ea7b3146123685780630dfe16811461234157806318160ddd14612318578063205aabf1146122e057806322be3de1146122bb57806323b872dd146121e3578063313ce567146121c857806331b142181461219057806332c0defd146121735780633ac9adba14611d0a5780633c6b16ab14611cea5780634d5a9f8a14611cb15780635909c0d514611c935780635a3d549314611c755780636a627842146119a65780636c15963d1461183d57806370a08231146117f857806389afcb441461144b57806395d89b41146113545780639f767c881461131b578063a1ac4d13146112e2578063a2aa9190146112c4578063a9059cbb14611292578063b88a802f14611219578063ba9a7a56146111fc578063bc25cf77146110b2578063bda39cad14611094578063c45a01551461106b578063d21220a714611042578063d294f09314611021578063dd62ed3e14610fd9578063e4bbb5a814610974578063e642f7281461045f578063e950342514610426578063e9ee2fa914610408578063ebeb31db146103ec578063ee39e7a0146103be578063f140a35a14610397578063f40f0f521461036b578063f7c618c1146103425763fff6cae9146101fe575f80fd5b3461033f578060031936011261033f57610216612f97565b80546040516370a0823160e01b815230600482015290602090829060249082906001600160a01b03165afa8015610334578290610301575b6001546040516370a0823160e01b81523060048201529250602090839060249082906001600160a01b03165afa9081156102f65783916102bc575b6102a89250600354916001600160701b03808460701c16931691613138565b60015f5160206138795f395f51905f525580f35b90506020823d6020116102ee575b816102d7602093836129a5565b810103126102ea576102a8915190610289565b5f80fd5b3d91506102ca565b6040513d85823e3d90fd5b506020813d60201161032c575b8161031b602093836129a5565b810103126102ea576024905161024e565b3d915061030e565b6040513d84823e3d90fd5b80fd5b503461033f578060031936011261033f576010546040516001600160a01b039091168152602090f35b503461033f57602036600319011261033f57602061038f61038a61289d565b612f1b565b604051908152f35b503461033f57604036600319011261033f57602061038f6103b66128b3565b600435612c2f565b503461033f578060031936011261033f57602061038f6003546001600160701b03808260701c169116613050565b503461033f578060031936011261033f57602060405160018152f35b503461033f578060031936011261033f576020601154604051908152f35b503461033f57602036600319011261033f576020906040906001600160a01b0361044e61289d565b168152601383522054604051908152f35b503461033f5760a036600319011261033f576064356001600160a01b0381169060243590600435908381036109705760843567ffffffffffffffff811161096c576104ae9036906004016128c9565b6104b9949194612f97565b831580159590888161095f5750855b604435116109505780610948575b610939576104e2612a5e565b509290946001600160701b03861697888810801590610926575b610917578a546001600160a01b0316908a82148015610903575b6108f4579088838d969594936108e3575b50505085806108c6575b505080610850575b505087546040516370a0823160e01b8152306004820152949150602090859060249082906001600160a01b03165afa938415610845578894610811575b506001546040516370a0823160e01b815230600482015290946020826024816001600160a01b038a165afa918215610806578a926107d2575b506105ba87896129db565b8111156107cb576105d46105ce888a6129db565b826129db565b975b6001600160701b038516966105eb87896129db565b8411156107c4576106056105ff888a6129db565b856129db565b975b8a159182806107bc575b6107ad5760025460405163cc56b2c560e01b815230600482015260a09290921c60ff16151560248301528e9060209083906001600160a01b031681806044810103915afa9182156107a0578d9192610768575b50816106a09415610745575b505089610723575b5061069a610688600c54866129db565b610694600d54886129db565b90613050565b92613050565b1161071457927fd78ad95fa46c994b6551d0da85fc275fe613ce37657fb8d5e3d130840159d822969594926106d8926106fd95613138565b6040519384933397859094939260609260808301968352602083015260408201520152565b0390a360015f5160206138795f395f51905f525580f35b63a932492f60e01b8a5260048afd5b61271061073361073c928c6129e8565b04600d54612a19565b600d555f610678565b6107556127109161075e936129e8565b04600c54612a19565b600c558b81610670565b939150506020833d602011610798575b81610785602093836129a5565b810103126102ea5791518b6106a0610664565b3d9150610778565b50604051903d90823e3d90fd5b63098fb56160e01b8e5260048efd5b508915610611565b8b97610607565b89976105d6565b9091506020813d6020116107fe575b816107ee602093836129a5565b810103126102ea5751905f6105af565b3d91506107e1565b6040513d8c823e3d90fd5b9093506020813d60201161083d575b8161082d602093836129a5565b810103126102ea5751925f610576565b3d9150610820565b6040513d8a823e3d90fd5b883b156108c2576108929183916040519384928392637e874aa960e11b84523360048501528b6024850152896044850152608060648501526084840191612a80565b0381838c5af18015610334576108a9575b80610539565b816108b3916129a5565b6108be57865f6108a3565b8680fd5b8280fd5b6001546108dc92906001600160a01b0316612fcf565b5f85610531565b6108ec92612fcf565b5f8882610527565b630521f43160e31b8c5260048cfd5b506001546001600160a01b03168b14610516565b63bb55fd2760e01b8b5260048bfd5b506001600160701b0385168610156104fc565b6342301c2360e01b8852600488fd5b5082156104d6565b638199f5f360e01b8952600489fd5b84156104c85750836104c8565b8580fd5b8480fd5b503461033f57606036600319011261033f5761098e61289d565b6109966128b3565b6044359182151590818403610970575f5160206138995f395f51905f52549360ff8560401c16159467ffffffffffffffff811680159081610fd1575b6001149081610fc7575b159081610fbe575b50610faf5767ffffffffffffffff1981166001175f5160206138995f395f51905f5255602091829187610f83575b508015610f7157610aaa6001610a26612bff565b6003858a602c82610a3f610a398d61349c565b9361349c565b926040519a8b976b0212a21102334b730b731b2960a51b828a0152805191829101858a015e8701906201016960ed1b84830152805192839101602f83015e010190602f60f81b84830152805192839101600483015e01018b838201520301601f1981018452836129a5565b15610f5f57610b276001610abc612bff565b8185610ac78861349c565b8180610ad28d61349c565b926040519a878c985191829101848a015e870190602d60f81b83830152805192839101602183015e010190602f60f81b84830152805192839101600283015e01018a838201520301601f1981018452836129a5565b610b2f61378c565b610b3761378c565b80519067ffffffffffffffff8211610f4b578190610b625f5160206137f95f395f51905f5254612a26565b601f8111610ed1575b50602090601f8311600114610e55578992610e4a575b50508160011b915f199060031b1c1916175f5160206137f95f395f51905f52555b80519067ffffffffffffffff8211610e36578190610bcd5f5160206138395f395f51905f5254612a26565b601f8111610dbc575b50602090601f8311600114610d40578892610d35575b50508160011b915f199060031b1c1916175f5160206138395f395f51905f52555b336001600160601b0360a01b600254161760025560018060a01b03166001600160601b0360a01b8554161784556001549060ff60a01b9060a01b169160018060a01b0316906affffffffffffffffffffff60a81b1617176001556040516311b25aab60e21b8152602081600481335afa9081156102f6578391610d06575b5060018060a01b03166001600160601b0360a01b6010541617601055610cae5780f35b68ff0000000000000000195f5160206138995f395f51905f5254165f5160206138995f395f51905f52557fc7f505b2f371ae2175ee4913f4499e1f2633a7b5936321eed1cdaeb6115181d2602060405160018152a180f35b610d28915060203d602011610d2e575b610d2081836129a5565b810190612aa0565b5f610c8b565b503d610d16565b015190505f80610bec565b5f5160206138395f395f51905f5289528189209250601f198416895b818110610da45750908460019594939210610d8c575b505050811b015f5160206138395f395f51905f5255610c0d565b01515f1960f88460031b161c191690555f8080610d72565b92936020600181928786015181550195019301610d5c565b5f5160206138395f395f51905f5289529091507f46a2803e59a4de4e7a4c574b1243f25977ac4c77d5a1a4a609b5394cebb4a2aa601f840160051c81019160208510610e2c575b90601f859493920160051c01905b818110610e1e5750610bd6565b898155849350600101610e11565b9091508190610e03565b634e487b7160e01b87526041600452602487fd5b015190505f80610b81565b5f5160206137f95f395f51905f528a52818a209250601f1984168a5b818110610eb95750908460019594939210610ea1575b505050811b015f5160206137f95f395f51905f5255610ba2565b01515f1960f88460031b161c191690555f8080610e87565b92936020600181928786015181550195019301610e71565b5f5160206137f95f395f51905f528a529091507f2ae08a8e29253f69ac5d979a101956ab8f8d9d7ded63fa7a83b16fc47648eab0601f840160051c81019160208510610f41575b90601f859493920160051c01905b818110610f335750610b6b565b8a8155849350600101610f26565b9091508190610f18565b634e487b7160e01b88526041600452602488fd5b610b276001610f6c612bdd565b610abc565b610aaa6001610f7e612bdd565b610a26565b68ffffffffffffffffff191668010000000000000001175f5160206138995f395f51905f52555f610a12565b63f92ee8a960e01b8752600487fd5b9050155f6109e4565b303b1591506109dc565b8791506109d2565b503461033f57604036600319011261033f57610ff361289d565b611004610ffe6128b3565b9161296d565b9060018060a01b03165f52602052602060405f2054604051908152f35b503461033f578060031936011261033f576040908151908082526020820152f35b503461033f578060031936011261033f576001546040516001600160a01b039091168152602090f35b503461033f578060031936011261033f576002546040516001600160a01b039091168152602090f35b503461033f578060031936011261033f576020600754604051908152f35b503461033f57602036600319011261033f576110cc61289d565b6110d4612f97565b81546040516370a0823160e01b8152306004820152906001600160a01b0316602082602481845afa9182156111b957839085936111c4575b5061112661112c936001600160701b0360035416906129db565b91612fcf565b6001546040516370a0823160e01b8152306004820152916001600160a01b0390911690602083602481855afa9283156111b9578493611183575b506111266102a8936001600160701b0360035460701c16906129db565b92506020833d6020116111b1575b8161119e602093836129a5565b810103126102ea57915191611126611166565b3d9150611191565b6040513d86823e3d90fd5b9250506020823d6020116111f4575b816111e0602093836129a5565b810103126102ea579051908261112661110c565b3d91506111d3565b503461033f578060031936011261033f5760206040516103e88152f35b503461033f578060031936011261033f57602090611235612f97565b61123e33613406565b338152601382526040812054908161126b575b5060015f5160206138795f395f51905f5255604051908152f35b33815260138352604081205561128c813360018060a01b0360105416612fcf565b5f611251565b503461033f57604036600319011261033f576112b96112af61289d565b6024359033613206565b602060405160018152f35b503461033f578060031936011261033f576020601454604051908152f35b503461033f57602036600319011261033f576020906040906001600160a01b0361130a61289d565b168152600b83522054604051908152f35b503461033f57602036600319011261033f576020906040906001600160a01b0361134361289d565b168152600883522054604051908152f35b503461033f578060031936011261033f5760405190805f5160206138395f395f51905f52549061138382612a26565b808552916001811690811561142457506001146113bb575b6113b7846113ab818603826129a5565b60405191829182612943565b0390f35b5f5160206138395f395f51905f5281527f46a2803e59a4de4e7a4c574b1243f25977ac4c77d5a1a4a609b5394cebb4a2aa939250905b80821061140a575090915081016020016113ab8261139b565b9192600181602092548385880101520191019092916113f1565b60ff191660208087019190915292151560051b850190920192506113ab915083905061139b565b503461033f57602036600319011261033f5761146561289d565b9061146e612f97565b611476612a5e565b5082546001546040516370a0823160e01b815230600482015293956001600160a01b0392831695909392909116602085602481895afa9485156103345782956117c4575b506040516370a0823160e01b815230600482015295602087602481855afa9687156102f6578397611790575b503083525f5160206138195f395f51905f5260205261153a61152e61152e6115336040872054996115168a61330c565b5f5160206138595f395f51905f52549384918c6129e8565b6129fb565b99896129e8565b9587158015611788575b611779573015611765576115573061330c565b6115608461330c565b61156930613406565b61157284613406565b3084525f5160206138195f395f51905f52602052604084205481811061174c57918482602093602496953084525f5160206138195f395f51905f528652036040832055805f5160206138595f395f51905f5254035f5160206138595f395f51905f52556040519081527fddf252ad1be2c89b69c2b068fc378daa952ba7f163c4a11628f55a4df523b3ef843092a361160b898883612fcf565b611616888885612fcf565b6040516370a0823160e01b815230600482015293849182905afa9182156102f6578392611717575b506020602491604051928380926370a0823160e01b82523060048301525afa92831561170b57926116d0575b50956116799291604097613138565b83519083825282602083015260018060a01b0316907fdccd412f0b1252819cb1fd330b93224ca42612892bb3f4f789976e6d81936496853392a360015f5160206138795f395f51905f525582519182526020820152f35b929150956020833d602011611703575b816116ed602093836129a5565b810103126102ea5791519195909190604061166a565b3d91506116e0565b604051903d90823e3d90fd5b9091506020813d602011611744575b81611733602093836129a5565b810103126102ea575190602061163e565b3d9150611726565b63391434e360e21b855230600452602452604452606483fd5b634b637e8f60e11b84526004849052602484fd5b63749383ad60e01b8452600484fd5b508615611544565b9096506020813d6020116117bc575b816117ac602093836129a5565b810103126102ea5751955f6114e6565b3d915061179f565b9094506020813d6020116117f0575b816117e0602093836129a5565b810103126102ea5751935f6114ba565b3d91506117d3565b503461033f57602036600319011261033f576020906040906001600160a01b0361182061289d565b1681525f5160206138195f395f51905f5283522054604051908152f35b503461033f57602036600319011261033f578061185861289d565b611860612f97565b600c5490600d549180611918575b508161188a575b8260015f5160206138795f395f51905f525580f35b82600d556118a3828260018060a01b0360015416612fcf565b6001546001600160a01b0391821692911690823b156119135760405163280cff3560e21b81526001600160a01b0392909216600483015260248201529082908290604490829084905af18015610334576118fe575b80611875565b81611908916129a5565b61033f57805f6118f8565b505050fd5b83600c55611930818360018060a01b03875416612fcf565b83546001600160a01b0383811692911690823b1561096c5760405163280cff3560e21b81526001600160a01b0392909216600483015260248201529084908290604490829084905af19081156111b957849161198d575b5061186e565b81611997916129a5565b6119a257825f611987565b5050fd5b503461033f57602036600319011261033f576024906119c361289d565b6119cb612f97565b6119d3612a5e565b5083546040516370a0823160e01b8152306004820152919591929160209184919082906001600160a01b03165afa9182156111b9578492611c41575b506001546040516370a0823160e01b815230600482015290602090829060249082906001600160a01b03165afa908115611c36578591611c04575b506001600160701b03821692611a6084826129db565b946001600160701b038816611a7581856129db565b95611a7f8361330c565b5f5160206138595f395f51905f52549182611bd257505050611aa185876129e8565b876003821115611bc45750808060011c60018101809111611bb057905b828210611b915750505b6103e7198101908111611b7d5796611ae36103e860016136be565b8715611b6e576001600160a01b03821615611b5a575091611b119391611b0c8860209a956136be565b613138565b604051918252838201527f4c209b5fc8ad50758f13e2e1088ba56a560dff690a1c6fef26394f4c03821c4f60403392a260015f5160206138795f395f51905f5255604051908152f35b63ec442f0560e01b81526004819052602490fd5b633489be7560e21b8152600490fd5b634e487b7160e01b88526011600452602488fd5b909150611ba782611ba281846129fb565b612a19565b60011c90611abe565b634e487b7160e01b8a52601160045260248afd5b9015611ac857506001611ac8565b61152e611be6611bed9361152e868d6129e8565b93896129e8565b80821015611bfd57505b96611ae3565b9050611bf7565b90506020813d602011611c2e575b81611c1f602093836129a5565b810103126102ea57515f611a4a565b3d9150611c12565b6040513d87823e3d90fd5b9091506020813d602011611c6d575b81611c5d602093836129a5565b810103126102ea5751905f611a0f565b3d9150611c50565b503461033f578060031936011261033f576020600554604051908152f35b503461033f578060031936011261033f576020600454604051908152f35b503461033f57602036600319011261033f576020906040906001600160a01b03611cd961289d565b168152600a83522054604051908152f35b503461033f57602036600319011261033f57611d07600435612abf565b80f35b50346102ea57611d19366128f7565b939190611d24612f97565b821591828061216b575b61215c576003546001600160701b038116851090811591612145575b50612136576005840284810460051484171561212257612710900491600586028615908781046005148217156121225761271090049460018060a01b035f541692604051926370a0823160e01b8452306004850152602084602481885afa93841561207a575f946120ed575b506001546040516370a0823160e01b8152306004820152949590602090869060249082906001600160a01b03165afa94851561207a5787948b915f976120b4575b501594856120a3575b505050159485612085575b6001600160a01b0316998a3b156102ea57868b8b5f8c611e678d978397604051998a9889978896632c683a5960e01b8852336004890152602488015260448701526064860152608485015260c060a485015260c4840191612a80565b03925af1801561207a57612065575b5089546040516370a0823160e01b815230600482015290602090829060249082906001600160a01b03165afa90811561205a578b91612028575b506001546040516370a0823160e01b815230600482015290602090829060249082906001600160a01b03165afa94851561201d5787918d96611fe6575b5083611fd2575b505050611fc357849083611faf575b505050611fa0577f9aa1f5968eb1b69a00f1dab9464ea231cb1596ae79c0ab7703fd8a99fa9df64f93929181611f6192611f8c575b81611f78575b604051948594859094939260609260808301968352602083015260408201520152565b0390a260015f5160206138795f395f51905f525580f35b611f8482600d54612a19565b600d55611f3e565b611f9881600c54612a19565b600c55611f38565b633fe269db60e11b8652600486fd5b611fba929350612a19565b115f8381611f03565b633fe269db60e11b8952600489fd5b611fdd929350612a19565b115f8581611ef4565b915094506020813d602011612015575b81612003602093836129a5565b810103126102ea57869051945f611eed565b3d9150611ff6565b6040513d8e823e3d90fd5b90506020813d602011612052575b81612043602093836129a5565b810103126102ea57515f611eb0565b3d9150612036565b6040513d8d823e3d90fd5b612072919a505f906129a5565b5f985f611e76565b6040513d5f823e3d90fd5b60015461209e908b9083906001600160a01b0316612fcf565b611e0b565b6120ac92612fcf565b5f8987611e00565b95509550506020843d6020116120e5575b816120d2602093836129a5565b810103126102ea5789879451955f611df7565b3d91506120c5565b93506020843d60201161211a575b81612108602093836129a5565b810103126102ea576024935193611db6565b3d91506120fb565b634e487b7160e01b5f52601160045260245ffd5b63bb55fd2760e01b5f5260045ffd5b6001600160701b03915060701c168510155f611d4a565b6342301c2360e01b5f5260045ffd5b508415611d2e565b346102ea575f3660031901126102ea576020600654604051908152f35b346102ea5760203660031901126102ea576001600160a01b036121b161289d565b165f526012602052602060405f2054604051908152f35b346102ea575f3660031901126102ea57602060405160128152f35b346102ea5760603660031901126102ea576121fc61289d565b6122046128b3565b604435906122118361296d565b335f9081526020919091526040902054925f198410612235575b6112b99350613206565b8284106122a0576001600160a01b0381161561228d57331561227a576112b99361225e8261296d565b60018060a01b0333165f526020528360405f209103905561222b565b634a1406b160e11b5f525f60045260245ffd5b63e602df0560e01b5f525f60045260245ffd5b8284637dc7a0d960e11b5f523360045260245260445260645ffd5b346102ea575f3660031901126102ea57602060ff60015460a01c166040519015158152f35b346102ea5760203660031901126102ea576001600160a01b0361230161289d565b165f526009602052602060405f2054604051908152f35b346102ea575f3660031901126102ea5760205f5160206138595f395f51905f5254604051908152f35b346102ea575f3660031901126102ea575f546040516001600160a01b039091168152602090f35b346102ea5760403660031901126102ea5761238161289d565b60243590331561228d576001600160a01b031690811561227a576123a43361296d565b825f526020528060405f20556040519081527f8c5be1e5ebec7d5bd14f71427d1e84f3dd0314c0f7b2291e5b200ac8c7c3b92560203392a3602060405160018152f35b346102ea575f3660031901126102ea5760606001600160701b0363ffffffff61240e612a5e565b9193908160405195168552166020840152166040820152f35b346102ea575f3660031901126102ea576040515f5f5160206137f95f395f51905f525461245381612a26565b80845290600181169081156124e5575060011461247b575b6113b7836113ab818503826129a5565b5f5160206137f95f395f51905f525f9081527f2ae08a8e29253f69ac5d979a101956ab8f8d9d7ded63fa7a83b16fc47648eab0939250905b8082106124cb575090915081016020016113ab61246b565b9192600181602092548385880101520191019092916124b3565b60ff191660208086019190915291151560051b840190910191506113ab905061246b565b346102ea57612517366128f7565b505091612522612f97565b8015908180612895575b61215c57612538612a5e565b506001600160701b038294921694858410801590612882575b612136575f546001600160a01b03888116989116888114801561286e575b61285f5785826024961561284e575b5050508180612831575b50505f546040516370a0823160e01b81523060048201529360209185919082906001600160a01b03165afa92831561207a575f936127fd575b506001546040516370a0823160e01b8152306004820152909390926020846024816001600160a01b0389165afa93841561207a575f946127c9575b5061260786896129db565b8211156127c25761262161261b878a6129db565b836129db565b975b6001600160701b0382169561263885886129db565b8611156127bb5761265261264c86896129db565b876129db565b965b8a159182806127b3575b6127a45760025460405163cc56b2c560e01b815230600482015260a09290921c60ff161515602483015260209082906001600160a01b031681806044810103915afa90811561207a578c905f9261276c575b50816126e09415612752575b505088612739575b5061069a6126d4600c54876129db565b610694600d548a6129db565b1161272a577fd78ad95fa46c994b6551d0da85fc275fe613ce37657fb8d5e3d130840159d82296612714946106d893613138565b0390a360015f5160206138795f395f51905f5255005b63a932492f60e01b5f5260045ffd5b612710610733612749928b6129e8565b600d558c6126c4565b61075561271091612762936129e8565b600c558b816126bc565b939150506020833d60201161279c575b81612789602093836129a5565b810103126102ea5791518b6126e06126b0565b3d915061277c565b63098fb56160e01b5f5260045ffd5b50881561265e565b5f96612654565b5f97612623565b9093506020813d6020116127f5575b816127e5602093836129a5565b810103126102ea575192896125fc565b3d91506127d8565b9092506020813d602011612829575b81612819602093836129a5565b810103126102ea575191876125c1565b3d915061280c565b60015461284792906001600160a01b0316612fcf565b8781612588565b61285792612fcf565b88858261257e565b630521f43160e31b5f5260045ffd5b506001546001600160a01b0316891461256f565b506001600160701b038216811015612551565b50821561252c565b600435906001600160a01b03821682036102ea57565b602435906001600160a01b03821682036102ea57565b9181601f840112156102ea5782359167ffffffffffffffff83116102ea57602083818601950101116102ea57565b9060806003198301126102ea5760043591602435916044356001600160a01b03811681036102ea57916064359067ffffffffffffffff82116102ea5761293f916004016128c9565b9091565b602060409281835280519182918282860152018484015e5f828201840152601f01601f1916010190565b6001600160a01b03165f9081527f52c63247e1f47db19d5ce0460030c497f067ca4cebf71ba98eeadabe20bace016020526040902090565b90601f8019910116810190811067ffffffffffffffff8211176129c757604052565b634e487b7160e01b5f52604160045260245ffd5b9190820391821161212257565b8181029291811591840414171561212257565b8115612a05570490565b634e487b7160e01b5f52601260045260245ffd5b9190820180921161212257565b90600182811c92168015612a54575b6020831014612a4057565b634e487b7160e01b5f52602260045260245ffd5b91607f1691612a35565b6003546001600160701b038116916001600160701b038260701c169160e01c90565b908060209392818452848401375f828201840152601f01601f1916010190565b908160209103126102ea57516001600160a01b03811681036102ea5790565b6002546040516311b25aab60e21b815290602090829060049082906001600160a01b03165afa90811561207a575f91612ba2575b506001600160a01b03163303612b71578015612b6e575f5160206138595f395f51905f52549081612b31575b612b2c9150601454612a19565b601455565b670de0b6b3a7640000810291818304670de0b6b3a76400000361212257612b5e612b6691612b2c946129fb565b601154612a19565b601155612b1f565b50565b60405162461bcd60e51b81526020600482015260096024820152682737ba103b37ba32b960b91b6044820152606490fd5b612bbb915060203d602011610d2e57610d2081836129a5565b5f612af3565b67ffffffffffffffff81116129c757601f01601f191660200190565b60405190612bec6040836129a5565b600482526376414d4d60e01b6020830152565b60405190612c0e6040836129a5565b600482526373414d4d60e01b6020830152565b604d811161212257600a0a90565b90612c38612a5e565b5060025460015460405163cc56b2c560e01b815230600482015260a09190911c60ff16801515602483015295929392909160209083906001600160a01b031681806044810103915afa91821561207a575f92612ee5575b50612710612ca0612ca793836129e8565b04906129db565b9315612e8f576001600160701b038091169116612cc48183613050565b91670de0b6b3a7640000810290808204670de0b6b3a76400001490151715612122576001600160701b03612d227f000000000000000000000000000000000000000000000000000000000000000092612d1c84612c21565b906129fb565b1692670de0b6b3a7640000830292808404670de0b6b3a76400001490151715612122576001600160701b03612d7b7f000000000000000000000000000000000000000000000000000000000000000094612d1c86612c21565b5f549116956001600160a01b03908116911614938415612e81576001600160701b0390955b168415612e2d57670de0b6b3a7640000870296808804670de0b6b3a7640000149015171561212257612e0381612e0993612dfe612e1f996001600160701b03612df5670de0b6b3a76400009d612d1c8b612c21565b915b1690612a19565b61358e565b906129db565b9215612e235750612e1990612c21565b906129e8565b0490565b612e199150612c21565b670de0b6b3a7640000870296808804670de0b6b3a7640000149015171561212257612e0381612e0993612dfe612e1f996001600160701b03612e7b670de0b6b3a76400009d612d1c8c612c21565b91612df7565b6001600160701b0390612da0565b5f54612eca9491936001600160a01b03908116911603612ecd57612ec46001600160701b0380612d1c94951694165b826129e8565b92612a19565b90565b612ec46001600160701b0380612d1c94169416612ebe565b91506020823d602011612f13575b81612f00602093836129a5565b810103126102ea57905190612710612c8f565b3d9150612ef3565b6001600160a01b03165f8181525f5160206138195f395f51905f5260205260409020548015612f8757670de0b6b3a7640000612f80612eca93612f6d601154825f52601260205260405f2054906129db565b905f52601360205260405f2054936129e8565b0490612a19565b505f52601360205260405f205490565b60025f5160206138795f395f51905f525414612fc05760025f5160206138795f395f51905f5255565b633ee5aeb560e01b5f5260045ffd5b916040519163a9059cbb60e01b5f5260018060a01b031660045260245260205f60448180865af19060015f511482161561302f575b6040521561300f5750565b635274afe760e01b5f9081526001600160a01b0391909116600452602490fd5b90600181151661304757823b15153d15161690613004565b503d5f823e3d90fd5b60015460a01c60ff161561312e57670de0b6b3a7640000810290808204670de0b6b3a76400001490151715612122576130ac90612d1c7f0000000000000000000000000000000000000000000000000000000000000000612c21565b90670de0b6b3a7640000810290808204670de0b6b3a7640000149015171561212257670de0b6b3a764000091612e1961310b612e1f93612d1c7f0000000000000000000000000000000000000000000000000000000000000000612c21565b84612f80816131268161311e86896129e8565b0496806129e8565b0492806129e8565b90612eca916129e8565b6001600160701b0380917f1c411e9a96e071241c2f21f7726b17ae89e3cab4c78be50e062b03a9fffbbad19560409563ffffffff60035460e01c8142160316801515806131fb575b806131f0575b6131bf575b50505016918263ffffffff60e01b4260e01b16918360701b9060701b16171780600355835192835260701c166020820152a1565b84806131e1941692166131d4818385026129fb565b60045401600455026129fb565b600554016005555f808061318b565b508483161515613186565b508482161515613180565b90916001600160a01b0382169182156132f9576001600160a01b0384169384156132e6576132438261323a6132489461330c565b6132438361330c565b613406565b815f525f5160206138195f395f51905f5260205260405f20548181106132cd57817fddf252ad1be2c89b69c2b068fc378daa952ba7f163c4a11628f55a4df523b3ef92602092855f525f5160206138195f395f51905f5284520360405f2055845f525f5160206138195f395f51905f52825260405f20818154019055604051908152a3565b8263391434e360e21b5f5260045260245260445260645ffd5b63ec442f0560e01b5f525f60045260245ffd5b634b637e8f60e11b5f525f60045260245ffd5b6001600160a01b03165f8181525f5160206138195f395f51905f52602052604090205480613358575b50600654815f52600860205260405f2055600754905f52600960205260405f2055565b613371600654835f52600860205260405f2054906129db565b9061338b600754845f52600960205260405f2054906129db565b91806133d3575b508161339f575b50613335565b670de0b6b3a7640000916133b2916129e8565b04815f52600b6020526133ca60405f20918254612a19565b90555f80613399565b6133e6670de0b6b3a764000091836129e8565b04835f52600a6020526133fe60405f20918254612a19565b90555f613392565b6001600160a01b03165f8181525f5160206138195f395f51905f52602052604090205480613442575b50601154905f52601260205260405f2055565b61345b601154835f52601260205260405f2054906129db565b9081613468575b5061342f565b670de0b6b3a76400009161347b916129e8565b04815f52601360205261349360405f20918254612a19565b90555f80613462565b5f809160405160208101906395d89b4160e01b8252600481526134c06024826129a5565b51915afa3d15613586573d906134d582612bc1565b916134e360405193846129a5565b82523d5f602084013e5b156135645780518101906020818184019303126102ea5760208101519067ffffffffffffffff82116102ea570181603f820112156102ea5760208101519061353482612bc1565b9261354260405194856129a5565b828452604082840101116102ea57815f926040602093018386015e8301015290565b506040516135736040826129a5565b60038152623f3f3f60e81b602082015290565b6060906134ed565b905f5b60ff811061359f5750505090565b836135ea670de0b6b3a76400006135cc816135c585826135bf82806129e8565b046129e8565b04876129e8565b04670de0b6b3a7640000612f8084826135bf8a826135bf82806129e8565b838082101561367a57906135fd916129db565b670de0b6b3a7640000810290808204670de0b6b3a76400001490151715612122578161363261363892612d1c600195896137b7565b90612a19565b945b8581811115613663579061364d916129db565b111561365d576001905b01613591565b50505090565b61366c916129db565b111561365d57600190613657565b613683916129db565b670de0b6b3a7640000810290808204670de0b6b3a764000014901517156121225781612e036136b892612d1c600195896137b7565b9461363a565b7fddf252ad1be2c89b69c2b068fc378daa952ba7f163c4a11628f55a4df523b3ef60205f926136ec8461330c565b6136f58161330c565b6136fe84613406565b61370781613406565b61371f855f5160206138595f395f51905f5254612a19565b5f5160206138595f395f51905f52556001600160a01b0316938415841461376a57805f5160206138595f395f51905f5254035f5160206138595f395f51905f52555b604051908152a3565b8484525f5160206138195f395f51905f52825260408420818154019055613761565b60ff5f5160206138995f395f51905f525460401c16156137a857565b631afcd79f60e31b5f5260045ffd5b8060030260038104820361212257612f80670de0b6b3a76400006137eb8193826137e488612eca996129e8565b04906129e8565b0492826135bf82806129e856fe52c63247e1f47db19d5ce0460030c497f067ca4cebf71ba98eeadabe20bace0352c63247e1f47db19d5ce0460030c497f067ca4cebf71ba98eeadabe20bace0052c63247e1f47db19d5ce0460030c497f067ca4cebf71ba98eeadabe20bace0452c63247e1f47db19d5ce0460030c497f067ca4cebf71ba98eeadabe20bace029b779b17422d0df92223018b32b4d1fa46e071723d6817e2486d003becc55f00f0c57e16840df040f15088dc2f81fe391c3923bec73e23a9662efc9c229c6a00a26469706673582212200835d824771e5a4d83cb426e73b29f630404de599891aaa72a93d66494e460a864736f6c634300081b0033f0c57e16840df040f15088dc2f81fe391c3923bec73e23a9662efc9c229c6a00","linkReferences":{}},"methodIdentifiers":{"MINIMUM_LIQUIDITY()":"ba9a7a56","allowance(address,address)":"dd62ed3e","approve(address,uint256)":"095ea7b3","balanceOf(address)":"70a08231","burn(address)":"89afcb44","claimFees()":"d294f093","claimReward()":"b88a802f","claimable0(address)":"4d5a9f8a","claimable1(address)":"a1ac4d13","claimableReward(address)":"e9503425","decimals()":"313ce567","distributeFeesToVeBTB(address)":"6c15963d","factory()":"c45a0155","flash(uint256,uint256,address,bytes)":"3ac9adba","getAmountOut(uint256,address)":"f140a35a","getK()":"ee39e7a0","getReserves()":"0902f1ac","index0()":"32c0defd","index1()":"bda39cad","initialize(address,address,bool)":"e4bbb5a8","mint(address)":"6a627842","name()":"06fdde03","notifyRewardAmount(uint256)":"3c6b16ab","observationLength()":"ebeb31db","pendingReward(address)":"f40f0f52","price0CumulativeLast()":"5909c0d5","price1CumulativeLast()":"5a3d5493","rewardIndex()":"e9ee2fa9","rewardToken()":"f7c618c1","skim(address)":"bc25cf77","stable()":"22be3de1","supplyIndex0(address)":"9f767c88","supplyIndex1(address)":"205aabf1","supplyRewardIndex(address)":"31b14218","swap(uint256,uint256,address,bytes)":"022c0d9f","swapWithSlippage(uint256,uint256,uint256,address,bytes)":"e642f728","symbol()":"95d89b41","sync()":"fff6cae9","token0()":"0dfe1681","token1()":"d21220a7","totalBTBRewards()":"a2aa9190","totalSupply()":"18160ddd","transfer(address,uint256)":"a9059cbb","transferFrom(address,address,uint256)":"23b872dd"},"id":82}