{"abi":[{"type":"constructor","inputs":[],"stateMutability":"nonpayable"},{"type":"function","name":"MINIMUM_LIQUIDITY","inputs":[],"outputs":[{"name":"","type":"uint256","internalType":"uint256"}],"stateMutability":"view"},{"type":"function","name":"allowance","inputs":[{"name":"owner","type":"address","internalType":"address"},{"name":"spender","type":"address","internalType":"address"}],"outputs":[{"name":"","type":"uint256","internalType":"uint256"}],"stateMutability":"view"},{"type":"function","name":"approve","inputs":[{"name":"spender","type":"address","internalType":"address"},{"name":"value","type":"uint256","internalType":"uint256"}],"outputs":[{"name":"","type":"bool","internalType":"bool"}],"stateMutability":"nonpayable"},{"type":"function","name":"balanceOf","inputs":[{"name":"account","type":"address","internalType":"address"}],"outputs":[{"name":"","type":"uint256","internalType":"uint256"}],"stateMutability":"view"},{"type":"function","name":"burn","inputs":[{"name":"to","type":"address","internalType":"address"}],"outputs":[{"name":"amount0","type":"uint256","internalType":"uint256"},{"name":"amount1","type":"uint256","internalType":"uint256"}],"stateMutability":"nonpayable"},{"type":"function","name":"claimFees","inputs":[],"outputs":[{"name":"claimed0","type":"uint256","internalType":"uint256"},{"name":"claimed1","type":"uint256","internalType":"uint256"}],"stateMutability":"nonpayable"},{"type":"function","name":"claimReward","inputs":[],"outputs":[{"name":"","type":"uint256","internalType":"uint256"}],"stateMutability":"nonpayable"},{"type":"function","name":"claimable0","inputs":[{"name":"","type":"address","internalType":"address"}],"outputs":[{"name":"","type":"uint256","internalType":"uint256"}],"stateMutability":"view"},{"type":"function","name":"claimable1","inputs":[{"name":"","type":"address","internalType":"address"}],"outputs":[{"name":"","type":"uint256","internalType":"uint256"}],"stateMutability":"view"},{"type":"function","name":"claimableReward","inputs":[{"name":"","type":"address","internalType":"address"}],"outputs":[{"name":"","type":"uint256","internalType":"uint256"}],"stateMutability":"view"},{"type":"function","name":"decimals","inputs":[],"outputs":[{"name":"","type":"uint8","internalType":"uint8"}],"stateMutability":"view"},{"type":"function","name":"factory","inputs":[],"outputs":[{"name":"","type":"address","internalType":"address"}],"stateMutability":"view"},{"type":"function","name":"getAmountOut","inputs":[{"name":"amountIn","type":"uint256","internalType":"uint256"},{"name":"tokenIn","type":"address","internalType":"address"}],"outputs":[{"name":"amountOut","type":"uint256","internalType":"uint256"}],"stateMutability":"view"},{"type":"function","name":"getK","inputs":[],"outputs":[{"name":"","type":"uint256","internalType":"uint256"}],"stateMutability":"view"},{"type":"function","name":"getReserves","inputs":[],"outputs":[{"name":"_reserve0","type":"uint112","internalType":"uint112"},{"name":"_reserve1","type":"uint112","internalType":"uint112"},{"name":"_blockTimestampLast","type":"uint32","internalType":"uint32"}],"stateMutability":"view"},{"type":"function","name":"index0","inputs":[],"outputs":[{"name":"","type":"uint256","internalType":"uint256"}],"stateMutability":"view"},{"type":"function","name":"index1","inputs":[],"outputs":[{"name":"","type":"uint256","internalType":"uint256"}],"stateMutability":"view"},{"type":"function","name":"initialize","inputs":[{"name":"_token0","type":"address","internalType":"address"},{"name":"_token1","type":"address","internalType":"address"},{"name":"_stable","type":"bool","internalType":"bool"}],"outputs":[],"stateMutability":"nonpayable"},{"type":"function","name":"mint","inputs":[{"name":"to","type":"address","internalType":"address"}],"outputs":[{"name":"liquidity","type":"uint256","internalType":"uint256"}],"stateMutability":"nonpayable"},{"type":"function","name":"name","inputs":[],"outputs":[{"name":"","type":"string","internalType":"string"}],"stateMutability":"view"},{"type":"function","name":"notifyRewardAmount","inputs":[{"name":"amount","type":"uint256","internalType":"uint256"}],"outputs":[],"stateMutability":"nonpayable"},{"type":"function","name":"observationLength","inputs":[],"outputs":[{"name":"","type":"uint256","internalType":"uint256"}],"stateMutability":"pure"},{"type":"function","name":"pendingReward","inputs":[{"name":"account","type":"address","internalType":"address"}],"outputs":[{"name":"","type":"uint256","internalType":"uint256"}],"stateMutability":"view"},{"type":"function","name":"price0CumulativeLast","inputs":[],"outputs":[{"name":"","type":"uint256","internalType":"uint256"}],"stateMutability":"view"},{"type":"function","name":"price1CumulativeLast","inputs":[],"outputs":[{"name":"","type":"uint256","internalType":"uint256"}],"stateMutability":"view"},{"type":"function","name":"rewardIndex","inputs":[],"outputs":[{"name":"","type":"uint256","internalType":"uint256"}],"stateMutability":"view"},{"type":"function","name":"rewardToken","inputs":[],"outputs":[{"name":"","type":"address","internalType":"address"}],"stateMutability":"view"},{"type":"function","name":"skim","inputs":[{"name":"to","type":"address","internalType":"address"}],"outputs":[],"stateMutability":"nonpayable"},{"type":"function","name":"stable","inputs":[],"outputs":[{"name":"","type":"bool","internalType":"bool"}],"stateMutability":"view"},{"type":"function","name":"supplyIndex0","inputs":[{"name":"","type":"address","internalType":"address"}],"outputs":[{"name":"","type":"uint256","internalType":"uint256"}],"stateMutability":"view"},{"type":"function","name":"supplyIndex1","inputs":[{"name":"","type":"address","internalType":"address"}],"outputs":[{"name":"","type":"uint256","internalType":"uint256"}],"stateMutability":"view"},{"type":"function","name":"supplyRewardIndex","inputs":[{"name":"","type":"address","internalType":"address"}],"outputs":[{"name":"","type":"uint256","internalType":"uint256"}],"stateMutability":"view"},{"type":"function","name":"swap","inputs":[{"name":"amount0Out","type":"uint256","internalType":"uint256"},{"name":"amount1Out","type":"uint256","internalType":"uint256"},{"name":"to","type":"address","internalType":"address"},{"name":"","type":"bytes","internalType":"bytes"}],"outputs":[],"stateMutability":"nonpayable"},{"type":"function","name":"symbol","inputs":[],"outputs":[{"name":"","type":"string","internalType":"string"}],"stateMutability":"view"},{"type":"function","name":"sync","inputs":[],"outputs":[],"stateMutability":"nonpayable"},{"type":"function","name":"token0","inputs":[],"outputs":[{"name":"","type":"address","internalType":"address"}],"stateMutability":"view"},{"type":"function","name":"token1","inputs":[],"outputs":[{"name":"","type":"address","internalType":"address"}],"stateMutability":"view"},{"type":"function","name":"totalBTBRewards","inputs":[],"outputs":[{"name":"","type":"uint256","internalType":"uint256"}],"stateMutability":"view"},{"type":"function","name":"totalSupply","inputs":[],"outputs":[{"name":"","type":"uint256","internalType":"uint256"}],"stateMutability":"view"},{"type":"function","name":"transfer","inputs":[{"name":"to","type":"address","internalType":"address"},{"name":"value","type":"uint256","internalType":"uint256"}],"outputs":[{"name":"","type":"bool","internalType":"bool"}],"stateMutability":"nonpayable"},{"type":"function","name":"transferFrom","inputs":[{"name":"from","type":"address","internalType":"address"},{"name":"to","type":"address","internalType":"address"},{"name":"value","type":"uint256","internalType":"uint256"}],"outputs":[{"name":"","type":"bool","internalType":"bool"}],"stateMutability":"nonpayable"},{"type":"event","name":"Approval","inputs":[{"name":"owner","type":"address","indexed":true,"internalType":"address"},{"name":"spender","type":"address","indexed":true,"internalType":"address"},{"name":"value","type":"uint256","indexed":false,"internalType":"uint256"}],"anonymous":false},{"type":"event","name":"Burn","inputs":[{"name":"sender","type":"address","indexed":true,"internalType":"address"},{"name":"amount0","type":"uint256","indexed":false,"internalType":"uint256"},{"name":"amount1","type":"uint256","indexed":false,"internalType":"uint256"},{"name":"to","type":"address","indexed":true,"internalType":"address"}],"anonymous":false},{"type":"event","name":"Claim","inputs":[{"name":"sender","type":"address","indexed":true,"internalType":"address"},{"name":"recipient","type":"address","indexed":true,"internalType":"address"},{"name":"amount0","type":"uint256","indexed":false,"internalType":"uint256"},{"name":"amount1","type":"uint256","indexed":false,"internalType":"uint256"}],"anonymous":false},{"type":"event","name":"Fees","inputs":[{"name":"sender","type":"address","indexed":true,"internalType":"address"},{"name":"amount0","type":"uint256","indexed":false,"internalType":"uint256"},{"name":"amount1","type":"uint256","indexed":false,"internalType":"uint256"}],"anonymous":false},{"type":"event","name":"Initialized","inputs":[{"name":"version","type":"uint64","indexed":false,"internalType":"uint64"}],"anonymous":false},{"type":"event","name":"Mint","inputs":[{"name":"sender","type":"address","indexed":true,"internalType":"address"},{"name":"amount0","type":"uint256","indexed":false,"internalType":"uint256"},{"name":"amount1","type":"uint256","indexed":false,"internalType":"uint256"}],"anonymous":false},{"type":"event","name":"Swap","inputs":[{"name":"sender","type":"address","indexed":true,"internalType":"address"},{"name":"amount0In","type":"uint256","indexed":false,"internalType":"uint256"},{"name":"amount1In","type":"uint256","indexed":false,"internalType":"uint256"},{"name":"amount0Out","type":"uint256","indexed":false,"internalType":"uint256"},{"name":"amount1Out","type":"uint256","indexed":false,"internalType":"uint256"},{"name":"to","type":"address","indexed":true,"internalType":"address"}],"anonymous":false},{"type":"event","name":"Sync","inputs":[{"name":"reserve0","type":"uint112","indexed":false,"internalType":"uint112"},{"name":"reserve1","type":"uint112","indexed":false,"internalType":"uint112"}],"anonymous":false},{"type":"event","name":"Transfer","inputs":[{"name":"from","type":"address","indexed":true,"internalType":"address"},{"name":"to","type":"address","indexed":true,"internalType":"address"},{"name":"value","type":"uint256","indexed":false,"internalType":"uint256"}],"anonymous":false},{"type":"error","name":"ERC20InsufficientAllowance","inputs":[{"name":"spender","type":"address","internalType":"address"},{"name":"allowance","type":"uint256","internalType":"uint256"},{"name":"needed","type":"uint256","internalType":"uint256"}]},{"type":"error","name":"ERC20InsufficientBalance","inputs":[{"name":"sender","type":"address","internalType":"address"},{"name":"balance","type":"uint256","internalType":"uint256"},{"name":"needed","type":"uint256","internalType":"uint256"}]},{"type":"error","name":"ERC20InvalidApprover","inputs":[{"name":"approver","type":"address","internalType":"address"}]},{"type":"error","name":"ERC20InvalidReceiver","inputs":[{"name":"receiver","type":"address","internalType":"address"}]},{"type":"error","name":"ERC20InvalidSender","inputs":[{"name":"sender","type":"address","internalType":"address"}]},{"type":"error","name":"ERC20InvalidSpender","inputs":[{"name":"spender","type":"address","internalType":"address"}]},{"type":"error","name":"InsufficientInputAmount","inputs":[]},{"type":"error","name":"InsufficientLiquidity","inputs":[]},{"type":"error","name":"InsufficientLiquidityBurned","inputs":[]},{"type":"error","name":"InsufficientLiquidityMinted","inputs":[]},{"type":"error","name":"InsufficientOutputAmount","inputs":[]},{"type":"error","name":"InvalidInitialization","inputs":[]},{"type":"error","name":"InvalidTo","inputs":[]},{"type":"error","name":"K","inputs":[]},{"type":"error","name":"Locked","inputs":[]},{"type":"error","name":"NotFactory","inputs":[]},{"type":"error","name":"NotInitializing","inputs":[]},{"type":"error","name":"ReentrancyGuardReentrantCall","inputs":[]},{"type":"error","name":"SafeERC20FailedOperation","inputs":[{"name":"token","type":"address","internalType":"address"}]}],"bytecode":{"object":"0x60c080604052346100fc5760017f9b779b17422d0df92223018b32b4d1fa46e071723d6817e2486d003becc55f00556012608052601260a0525f516020612ebe5f395f51905f525460ff8160401c166100ed576002600160401b03196001600160401b0382160161009a575b604051612dbd908161010182396080518181816121e8015261257d015260a05181818161224701526125dc0152f35b6001600160401b0319166001600160401b039081175f516020612ebe5f395f51905f525581527fc7f505b2f371ae2175ee4913f4499e1f2633a7b5936321eed1cdaeb6115181d290602090a15f8061006b565b63f92ee8a960e01b5f5260045ffd5b5f80fdfe60806040526004361015610011575f80fd5b5f3560e01c8063022c0d9f14611a1057806306fdde03146119535780630902f1ac14611913578063095ea7b3146118945780630dfe16811461186d57806318160ddd14611844578063205aabf11461180c57806322be3de1146117e757806323b872dd1461170f578063313ce567146116f457806331b14218146116bc57806332c0defd1461169f5780633c6b16ab146116815780634d5a9f8a146116495780635909c0d51461162c5780635a3d54931461160f5780636a6278421461136557806370a082311461132157806389afcb4414610f8157806395d89b4114610e8f5780639f767c8814610e57578063a1ac4d1314610e1f578063a2aa919014610e02578063a9059cbb14610dd1578063b88a802f14610d58578063ba9a7a5614610d3c578063bc25cf7714610bfe578063bda39cad14610be1578063c45a015514610bb9578063d21220a714610b91578063d294f09314610ac0578063dd62ed3e14610a79578063e4bbb5a814610427578063e9503425146103ef578063e9ee2fa9146103d2578063ebeb31db146103b7578063ee39e7a01461038a578063f140a35a14610364578063f40f0f5214610339578063f7c618c1146103115763fff6cae9146101dc575f80fd5b346102c7575f3660031901126102c7576101f461248c565b5f546040516370a0823160e01b815230600482015290602090829060249082906001600160a01b03165afa80156102d3575f906102de575b6001546040516370a0823160e01b81523060048201529250602090839060249082906001600160a01b03165afa9081156102d3575f91610299575b6102869250600354916001600160701b03808460701c1693169161262d565b60015f516020612d485f395f51905f5255005b90506020823d6020116102cb575b816102b460209383611ece565b810103126102c757610286915190610267565b5f80fd5b3d91506102a7565b6040513d5f823e3d90fd5b506020813d602011610309575b816102f860209383611ece565b810103126102c7576024905161022c565b3d91506102eb565b346102c7575f3660031901126102c7576010546040516001600160a01b039091168152602090f35b346102c75760203660031901126102c757602061035c610357611e40565b612410565b604051908152f35b346102c75760403660031901126102c757602061035c610382611e56565b600435612124565b346102c7575f3660031901126102c757602061035c6003546001600160701b03808260701c169116612545565b346102c7575f3660031901126102c757602060405160018152f35b346102c7575f3660031901126102c7576020601154604051908152f35b346102c75760203660031901126102c7576001600160a01b03610410611e40565b165f526013602052602060405f2054604051908152f35b346102c75760603660031901126102c757610440611e40565b610448611e56565b60443591821515908184036102c7575f516020612d685f395f51905f52549360ff8560401c16159467ffffffffffffffff811680159081610a71575b6001149081610a67575b159081610a5e575b50610a4f5767ffffffffffffffff1981166001175f516020612d685f395f51905f5255602091829187610a23575b508015610a115761055c60016104d86120f4565b6003858a602c826104f16104eb8d61296b565b9361296b565b926040519a8b976b0212a21102334b730b731b2960a51b828a0152805191829101858a015e8701906201016960ed1b84830152805192839101602f83015e010190602f60f81b84830152805192839101600483015e01015f838201520301601f198101845283611ece565b156109ff576105d9600161056e6120f4565b81856105798861296b565b81806105848d61296b565b926040519a878c985191829101848a015e870190602d60f81b83830152805192839101602183015e010190602f60f81b84830152805192839101600283015e01015f838201520301601f198101845283611ece565b6105e1612c5b565b6105e9612c5b565b80519067ffffffffffffffff82116108e85781906106145f516020612cc85f395f51905f5254611f3b565b601f8111610985575b50602090601f8311600114610907575f926108fc575b50508160011b915f199060031b1c1916175f516020612cc85f395f51905f52555b80519067ffffffffffffffff82116108e857819061067f5f516020612d085f395f51905f5254611f3b565b601f811161086e575b50602090601f83116001146107f0575f926107e5575b50508160011b915f199060031b1c1916175f516020612d085f395f51905f52555b336001600160601b0360a01b600254161760025560018060a01b03166001600160601b0360a01b5f5416175f556001549060ff60a01b9060a01b169160018060a01b0316906affffffffffffffffffffff60a81b1617176001556040516311b25aab60e21b8152602081600481335afa9081156102d3575f916107b6575b5060018060a01b03166001600160601b0360a01b601054161760105561075f57005b68ff0000000000000000195f516020612d685f395f51905f5254165f516020612d685f395f51905f52557fc7f505b2f371ae2175ee4913f4499e1f2633a7b5936321eed1cdaeb6115181d2602060405160018152a1005b6107d8915060203d6020116107de575b6107d08183611ece565b810190611f95565b8261073d565b503d6107c6565b01519050868061069e565b5f516020612d085f395f51905f525f9081528281209350601f198516905b818110610856575090846001959493921061083e575b505050811b015f516020612d085f395f51905f52556106bf565b01515f1960f88460031b161c19169055868080610824565b9293602060018192878601518155019501930161080e565b5f516020612d085f395f51905f525f529091507f46a2803e59a4de4e7a4c574b1243f25977ac4c77d5a1a4a609b5394cebb4a2aa601f840160051c810191602085106108de575b90601f859493920160051c01905b8181106108d05750610688565b5f81558493506001016108c3565b90915081906108b5565b634e487b7160e01b5f52604160045260245ffd5b015190508780610633565b5f516020612cc85f395f51905f525f9081528281209350601f198516905b81811061096d5750908460019594939210610955575b505050811b015f516020612cc85f395f51905f5255610654565b01515f1960f88460031b161c1916905587808061093b565b92936020600181928786015181550195019301610925565b5f516020612cc85f395f51905f525f529091507f2ae08a8e29253f69ac5d979a101956ab8f8d9d7ded63fa7a83b16fc47648eab0601f840160051c810191602085106109f5575b90601f859493920160051c01905b8181106109e7575061061d565b5f81558493506001016109da565b90915081906109cc565b6105d96001610a0c6120d2565b61056e565b61055c6001610a1e6120d2565b6104d8565b68ffffffffffffffffff191668010000000000000001175f516020612d685f395f51905f5255876104c4565b63f92ee8a960e01b5f5260045ffd5b90501587610496565b303b15915061048e565b879150610484565b346102c75760403660031901126102c757610a92611e40565b610aa3610a9d611e56565b91611e96565b9060018060a01b03165f52602052602060405f2054604051908152f35b346102c7575f3660031901126102c757610ad9336127db565b335f52600a6020526040805f2054335f52600b602052815f205481610b67575b80610b3d575b825182815281602082015233907f865ca08d59f5cb456e85cd2f7ef63664ea4f73327414e9d8152c4158b0e94645853392a382519182526020820152f35b335f818152600b60205284812055600154610b629183916001600160a01b03166124c4565b610aff565b335f818152600a60205284812081905554610b8c9184916001600160a01b03166124c4565b610af9565b346102c7575f3660031901126102c7576001546040516001600160a01b039091168152602090f35b346102c7575f3660031901126102c7576002546040516001600160a01b039091168152602090f35b346102c7575f3660031901126102c7576020600754604051908152f35b346102c75760203660031901126102c757610c17611e40565b610c1f61248c565b5f546040516370a0823160e01b8152306004820152906001600160a01b0316602082602481845afa9182156102d35783905f93610d04575b50610c71610c77936001600160701b036003541690611ef0565b916124c4565b6001546040516370a0823160e01b8152306004820152916001600160a01b0390911690602083602481855afa9283156102d3575f93610cce575b50610c71610286936001600160701b0360035460701c1690611ef0565b92506020833d602011610cfc575b81610ce960209383611ece565b810103126102c757915191610c71610cb1565b3d9150610cdc565b9250506020823d602011610d34575b81610d2060209383611ece565b810103126102c75790519082610c71610c57565b3d9150610d13565b346102c7575f3660031901126102c75760206040516103e88152f35b346102c7575f3660031901126102c757610d7061248c565b610d79336128d5565b335f526013602052602060405f205480610da7575b60015f516020612d485f395f51905f5255604051908152f35b335f818152601384526040812055601054610dcc9183916001600160a01b03166124c4565b610d8e565b346102c75760403660031901126102c757610df7610ded611e40565b60243590336126fb565b602060405160018152f35b346102c7575f3660031901126102c7576020601454604051908152f35b346102c75760203660031901126102c7576001600160a01b03610e40611e40565b165f52600b602052602060405f2054604051908152f35b346102c75760203660031901126102c7576001600160a01b03610e78611e40565b165f526008602052602060405f2054604051908152f35b346102c7575f3660031901126102c7576040515f5f516020612d085f395f51905f5254610ebb81611f3b565b8084529060018116908115610f5d5750600114610ef3575b610eef83610ee381850382611ece565b60405191829182611e6c565b0390f35b5f516020612d085f395f51905f525f9081527f46a2803e59a4de4e7a4c574b1243f25977ac4c77d5a1a4a609b5394cebb4a2aa939250905b808210610f4357509091508101602001610ee3610ed3565b919260018160209254838588010152019101909291610f2b565b60ff191660208086019190915291151560051b84019091019150610ee39050610ed3565b346102c75760203660031901126102c757610f9a611e40565b610fa261248c565b610faa611f73565b505f546001546040516370a0823160e01b815230600482015293946001600160a01b0392831694939092909116602084602481885afa9384156102d3575f946112ed575b506040516370a0823160e01b815230600482015294602086602481855afa9586156102d3575f966112b9575b50305f525f516020612ce85f395f51905f5260205261106e61106261106261106760405f20549861104a896127db565b5f516020612d285f395f51905f52549384918b611efd565b611f10565b9888611efd565b94861580156112b1575b6112a257301561128f5761108b306127db565b6110945f6127db565b61109d306128d5565b6110a65f6128d5565b305f525f516020612ce85f395f51905f5260205260405f205481811061127657915f82602093602496953084525f516020612ce85f395f51905f528652036040832055805f516020612d285f395f51905f5254035f516020612d285f395f51905f52556040519081527fddf252ad1be2c89b69c2b068fc378daa952ba7f163c4a11628f55a4df523b3ef843092a361113f8887836124c4565b61114a8787856124c4565b6040516370a0823160e01b815230600482015293849182905afa9182156102d3575f92611241575b50906020602492604051938480926370a0823160e01b82523060048301525afa9182156102d3575f92611206575b50956111af929160409761262d565b83519083825282602083015260018060a01b0316907fdccd412f0b1252819cb1fd330b93224ca42612892bb3f4f789976e6d81936496853392a360015f516020612d485f395f51905f525582519182526020820152f35b929150956020833d602011611239575b8161122360209383611ece565b810103126102c7579151919590919060406111a0565b3d9150611216565b91506020823d60201161126e575b8161125c60209383611ece565b810103126102c7579051906020611172565b3d915061124f565b63391434e360e21b5f523060045260245260445260645ffd5b634b637e8f60e11b5f525f60045260245ffd5b63749383ad60e01b5f5260045ffd5b508515611078565b9095506020813d6020116112e5575b816112d560209383611ece565b810103126102c75751948761101a565b3d91506112c8565b9093506020813d602011611319575b8161130960209383611ece565b810103126102c757519286610fee565b3d91506112fc565b346102c75760203660031901126102c7576001600160a01b03611342611e40565b165f525f516020612ce85f395f51905f52602052602060405f2054604051908152f35b346102c75760203660031901126102c75761137e611e40565b61138661248c565b6024611390611f73565b505f546040516370a0823160e01b81523060048201529360209185919082906001600160a01b03165afa9283156102d3575f936115da575b506001546040516370a0823160e01b8152306004820152939490602090859060249082906001600160a01b03165afa9384156102d3575f946115a6575b506001600160701b0383169161141b8387611ef0565b936001600160701b0382166114308188611ef0565b9461143a856127db565b5f516020612d285f395f51905f525491826115745750505061145c8486611efd565b5f60038211156115665750808060011c6001810180911161153357905b8282106115475750505b6103e7198101908111611533579561149e6103e86001612b8d565b8615611524576001600160a01b03841615611511576020976114c3886114c896612b8d565b61262d565b604051918252838201527f4c209b5fc8ad50758f13e2e1088ba56a560dff690a1c6fef26394f4c03821c4f60403392a260015f516020612d485f395f51905f5255604051908152f35b63ec442f0560e01b5f525f60045260245ffd5b633489be7560e21b5f5260045ffd5b634e487b7160e01b5f52601160045260245ffd5b90915061155d826115588184611f10565b611f2e565b60011c90611479565b901561148357506001611483565b61106261158861158f93611062868c611efd565b9388611efd565b8082101561159f57505b9561149e565b9050611599565b9093506020813d6020116115d2575b816115c260209383611ece565b810103126102c757519285611405565b3d91506115b5565b92506020833d602011611607575b816115f560209383611ece565b810103126102c75760249251926113c8565b3d91506115e8565b346102c7575f3660031901126102c7576020600554604051908152f35b346102c7575f3660031901126102c7576020600454604051908152f35b346102c75760203660031901126102c7576001600160a01b0361166a611e40565b165f52600a602052602060405f2054604051908152f35b346102c75760203660031901126102c75761169d600435611fb4565b005b346102c7575f3660031901126102c7576020600654604051908152f35b346102c75760203660031901126102c7576001600160a01b036116dd611e40565b165f526012602052602060405f2054604051908152f35b346102c7575f3660031901126102c757602060405160128152f35b346102c75760603660031901126102c757611728611e40565b611730611e56565b6044359061173d83611e96565b335f9081526020919091526040902054925f198410611761575b610df793506126fb565b8284106117cc576001600160a01b038116156117b95733156117a657610df79361178a82611e96565b60018060a01b0333165f526020528360405f2091039055611757565b634a1406b160e11b5f525f60045260245ffd5b63e602df0560e01b5f525f60045260245ffd5b8284637dc7a0d960e11b5f523360045260245260445260645ffd5b346102c7575f3660031901126102c757602060ff60015460a01c166040519015158152f35b346102c75760203660031901126102c7576001600160a01b0361182d611e40565b165f526009602052602060405f2054604051908152f35b346102c7575f3660031901126102c75760205f516020612d285f395f51905f5254604051908152f35b346102c7575f3660031901126102c7575f546040516001600160a01b039091168152602090f35b346102c75760403660031901126102c7576118ad611e40565b6024359033156117b9576001600160a01b03169081156117a6576118d033611e96565b825f526020528060405f20556040519081527f8c5be1e5ebec7d5bd14f71427d1e84f3dd0314c0f7b2291e5b200ac8c7c3b92560203392a3602060405160018152f35b346102c7575f3660031901126102c75760606001600160701b0363ffffffff61193a611f73565b9193908160405195168552166020840152166040820152f35b346102c7575f3660031901126102c7576040515f5f516020612cc85f395f51905f525461197f81611f3b565b8084529060018116908115610f5d57506001146119a657610eef83610ee381850382611ece565b5f516020612cc85f395f51905f525f9081527f2ae08a8e29253f69ac5d979a101956ab8f8d9d7ded63fa7a83b16fc47648eab0939250905b8082106119f657509091508101602001610ee3610ed3565b9192600181602092548385880101520191019092916119de565b346102c75760803660031901126102c7576044356001600160a01b038116906024356004358383036102c75760643567ffffffffffffffff81116102c757366023820112156102c757806004013567ffffffffffffffff81116102c757369101602401116102c757611a8061248c565b80158080611e38575b611e2957611a95611f73565b506001600160701b038293921695868510801590611e16575b611e07575f546001600160a01b03168881148015611df3575b611de457858260249515611dd3575b5050508580611db6575b50505f546040516370a0823160e01b81523060048201529260209184919082906001600160a01b03165afa9182156102d3575f92611d82575b506001546040516370a0823160e01b81523060048201529093906020816024816001600160a01b0389165afa9081156102d3575f91611d50575b50611b5e8689611ef0565b841115611d4957611b78611b72878a611ef0565b85611ef0565b975b6001600160701b03841695611b8f8988611ef0565b831115611d4257611ba9611ba38a89611ef0565b84611ef0565b965b8a15918280611d3a575b611d2b5760025460405163cc56b2c560e01b815230600482015260a09290921c60ff161515602483015260209082906001600160a01b031681806044810103915afa9081156102d3578c905f92611cf3575b5081611c439415611cd0575b505088611cae575b50611c3d611c2b600c5489611ef0565b611c37600d5487611ef0565b90612545565b92612545565b11611c9f57611c519361262d565b6040519384526020840152604083015260608201527fd78ad95fa46c994b6551d0da85fc275fe613ce37657fb8d5e3d130840159d82260803392a360015f516020612d485f395f51905f5255005b63a932492f60e01b5f5260045ffd5b612710611cbe611cc7928b611efd565b04600d54611f2e565b600d558c611c1b565b611ce061271091611ce993611efd565b04600c54611f2e565b600c558b81611c13565b939150506020833d602011611d23575b81611d1060209383611ece565b810103126102c75791518b611c43611c07565b3d9150611d03565b63098fb56160e01b5f5260045ffd5b508815611bb5565b5f96611bab565b5f97611b7a565b90506020813d602011611d7a575b81611d6b60209383611ece565b810103126102c7575189611b53565b3d9150611d5e565b9091506020813d602011611dae575b81611d9e60209383611ece565b810103126102c757519087611b19565b3d9150611d91565b600154611dcc92906001600160a01b03166124c4565b8785611ae0565b611ddc926124c4565b888582611ad6565b630521f43160e31b5f5260045ffd5b506001546001600160a01b03168914611ac7565b63bb55fd2760e01b5f5260045ffd5b506001600160701b038216861015611aae565b6342301c2360e01b5f5260045ffd5b508215611a89565b600435906001600160a01b03821682036102c757565b602435906001600160a01b03821682036102c757565b602060409281835280519182918282860152018484015e5f828201840152601f01601f1916010190565b6001600160a01b03165f9081527f52c63247e1f47db19d5ce0460030c497f067ca4cebf71ba98eeadabe20bace016020526040902090565b90601f8019910116810190811067ffffffffffffffff8211176108e857604052565b9190820391821161153357565b8181029291811591840414171561153357565b8115611f1a570490565b634e487b7160e01b5f52601260045260245ffd5b9190820180921161153357565b90600182811c92168015611f69575b6020831014611f5557565b634e487b7160e01b5f52602260045260245ffd5b91607f1691611f4a565b6003546001600160701b038116916001600160701b038260701c169160e01c90565b908160209103126102c757516001600160a01b03811681036102c75790565b6002546040516311b25aab60e21b815290602090829060049082906001600160a01b03165afa9081156102d3575f91612097575b506001600160a01b03163303612066578015612063575f516020612d285f395f51905f52549081612026575b6120219150601454611f2e565b601455565b670de0b6b3a7640000810291818304670de0b6b3a7640000036115335761205361205b9161202194611f10565b601154611f2e565b601155612014565b50565b60405162461bcd60e51b81526020600482015260096024820152682737ba103b37ba32b960b91b6044820152606490fd5b6120b0915060203d6020116107de576107d08183611ece565b5f611fe8565b67ffffffffffffffff81116108e857601f01601f191660200190565b604051906120e1604083611ece565b600482526376414d4d60e01b6020830152565b60405190612103604083611ece565b600482526373414d4d60e01b6020830152565b604d811161153357600a0a90565b9061212d611f73565b5060025460015460405163cc56b2c560e01b815230600482015260a09190911c60ff16801515602483015295929392909160209083906001600160a01b031681806044810103915afa9182156102d3575f926123da575b5061271061219561219c9383611efd565b0490611ef0565b9315612384576001600160701b0380911691166121b98183612545565b91670de0b6b3a7640000810290808204670de0b6b3a76400001490151715611533576001600160701b036122177f00000000000000000000000000000000000000000000000000000000000000009261221184612116565b90611f10565b1692670de0b6b3a7640000830292808404670de0b6b3a76400001490151715611533576001600160701b036122707f00000000000000000000000000000000000000000000000000000000000000009461221186612116565b5f549116956001600160a01b03908116911614938415612376576001600160701b0390955b16841561232257670de0b6b3a7640000870296808804670de0b6b3a76400001490151715611533576122f8816122fe936122f3612314996001600160701b036122ea670de0b6b3a76400009d6122118b612116565b915b1690611f2e565b612a5d565b90611ef0565b9215612318575061230e90612116565b90611efd565b0490565b61230e9150612116565b670de0b6b3a7640000870296808804670de0b6b3a76400001490151715611533576122f8816122fe936122f3612314996001600160701b03612370670de0b6b3a76400009d6122118c612116565b916122ec565b6001600160701b0390612295565b5f546123bf9491936001600160a01b039081169116036123c2576123b96001600160701b038061221194951694165b82611efd565b92611f2e565b90565b6123b96001600160701b0380612211941694166123b3565b91506020823d602011612408575b816123f560209383611ece565b810103126102c757905190612710612184565b3d91506123e8565b6001600160a01b03165f8181525f516020612ce85f395f51905f526020526040902054801561247c57670de0b6b3a76400006124756123bf93612462601154825f52601260205260405f205490611ef0565b905f52601360205260405f205493611efd565b0490611f2e565b505f52601360205260405f205490565b60025f516020612d485f395f51905f5254146124b55760025f516020612d485f395f51905f5255565b633ee5aeb560e01b5f5260045ffd5b916040519163a9059cbb60e01b5f5260018060a01b031660045260245260205f60448180865af19060015f5114821615612524575b604052156125045750565b635274afe760e01b5f9081526001600160a01b0391909116600452602490fd5b90600181151661253c57823b15153d151616906124f9565b503d5f823e3d90fd5b60015460a01c60ff161561262357670de0b6b3a7640000810290808204670de0b6b3a76400001490151715611533576125a1906122117f0000000000000000000000000000000000000000000000000000000000000000612116565b90670de0b6b3a7640000810290808204670de0b6b3a7640000149015171561153357670de0b6b3a76400009161230e612600612314936122117f0000000000000000000000000000000000000000000000000000000000000000612116565b846124758161261b816126138689611efd565b049680611efd565b049280611efd565b906123bf91611efd565b6001600160701b0380917f1c411e9a96e071241c2f21f7726b17ae89e3cab4c78be50e062b03a9fffbbad19560409563ffffffff60035460e01c8142160316801515806126f0575b806126e5575b6126b4575b50505016918263ffffffff60e01b4260e01b16918360701b9060701b16171780600355835192835260701c166020820152a1565b84806126d6941692166126c981838502611f10565b6004540160045502611f10565b600554016005555f8080612680565b50848316151561267b565b508482161515612675565b90916001600160a01b03821691821561128f576001600160a01b038416938415611511576127388261272f61273d946127db565b612738836127db565b6128d5565b815f525f516020612ce85f395f51905f5260205260405f20548181106127c257817fddf252ad1be2c89b69c2b068fc378daa952ba7f163c4a11628f55a4df523b3ef92602092855f525f516020612ce85f395f51905f5284520360405f2055845f525f516020612ce85f395f51905f52825260405f20818154019055604051908152a3565b8263391434e360e21b5f5260045260245260445260645ffd5b6001600160a01b03165f8181525f516020612ce85f395f51905f52602052604090205480612827575b50600654815f52600860205260405f2055600754905f52600960205260405f2055565b612840600654835f52600860205260405f205490611ef0565b9061285a600754845f52600960205260405f205490611ef0565b91806128a2575b508161286e575b50612804565b670de0b6b3a76400009161288191611efd565b04815f52600b60205261289960405f20918254611f2e565b90555f80612868565b6128b5670de0b6b3a76400009183611efd565b04835f52600a6020526128cd60405f20918254611f2e565b90555f612861565b6001600160a01b03165f8181525f516020612ce85f395f51905f52602052604090205480612911575b50601154905f52601260205260405f2055565b61292a601154835f52601260205260405f205490611ef0565b9081612937575b506128fe565b670de0b6b3a76400009161294a91611efd565b04815f52601360205261296260405f20918254611f2e565b90555f80612931565b5f809160405160208101906395d89b4160e01b82526004815261298f602482611ece565b51915afa3d15612a55573d906129a4826120b6565b916129b26040519384611ece565b82523d5f602084013e5b15612a335780518101906020818184019303126102c75760208101519067ffffffffffffffff82116102c7570181603f820112156102c757602081015190612a03826120b6565b92612a116040519485611ece565b828452604082840101116102c757815f926040602093018386015e8301015290565b50604051612a42604082611ece565b60038152623f3f3f60e81b602082015290565b6060906129bc565b905f5b60ff8110612a6e5750505090565b83612ab9670de0b6b3a7640000612a9b81612a948582612a8e8280611efd565b04611efd565b0487611efd565b04670de0b6b3a76400006124758482612a8e8a82612a8e8280611efd565b8380821015612b495790612acc91611ef0565b670de0b6b3a7640000810290808204670de0b6b3a764000014901517156115335781612b01612b079261221160019589612c86565b90611f2e565b945b8581811115612b325790612b1c91611ef0565b1115612b2c576001905b01612a60565b50505090565b612b3b91611ef0565b1115612b2c57600190612b26565b612b5291611ef0565b670de0b6b3a7640000810290808204670de0b6b3a7640000149015171561153357816122f8612b879261221160019589612c86565b94612b09565b7fddf252ad1be2c89b69c2b068fc378daa952ba7f163c4a11628f55a4df523b3ef60205f92612bbb846127db565b612bc4816127db565b612bcd846128d5565b612bd6816128d5565b612bee855f516020612d285f395f51905f5254611f2e565b5f516020612d285f395f51905f52556001600160a01b03169384158414612c3957805f516020612d285f395f51905f5254035f516020612d285f395f51905f52555b604051908152a3565b8484525f516020612ce85f395f51905f52825260408420818154019055612c30565b60ff5f516020612d685f395f51905f525460401c1615612c7757565b631afcd79f60e31b5f5260045ffd5b8060030260038104820361153357612475670de0b6b3a7640000612cba819382612cb3886123bf99611efd565b0490611efd565b049282612a8e8280611efd56fe52c63247e1f47db19d5ce0460030c497f067ca4cebf71ba98eeadabe20bace0352c63247e1f47db19d5ce0460030c497f067ca4cebf71ba98eeadabe20bace0052c63247e1f47db19d5ce0460030c497f067ca4cebf71ba98eeadabe20bace0452c63247e1f47db19d5ce0460030c497f067ca4cebf71ba98eeadabe20bace029b779b17422d0df92223018b32b4d1fa46e071723d6817e2486d003becc55f00f0c57e16840df040f15088dc2f81fe391c3923bec73e23a9662efc9c229c6a00a2646970667358221220713807e5725c38fa614f3453da24013d0934b8bef0ce5a4febc873c453415b3d64736f6c634300081b0033f0c57e16840df040f15088dc2f81fe391c3923bec73e23a9662efc9c229c6a00","linkReferences":{}},"methodIdentifiers":{"MINIMUM_LIQUIDITY()":"ba9a7a56","allowance(address,address)":"dd62ed3e","approve(address,uint256)":"095ea7b3","balanceOf(address)":"70a08231","burn(address)":"89afcb44","claimFees()":"d294f093","claimReward()":"b88a802f","claimable0(address)":"4d5a9f8a","claimable1(address)":"a1ac4d13","claimableReward(address)":"e9503425","decimals()":"313ce567","factory()":"c45a0155","getAmountOut(uint256,address)":"f140a35a","getK()":"ee39e7a0","getReserves()":"0902f1ac","index0()":"32c0defd","index1()":"bda39cad","initialize(address,address,bool)":"e4bbb5a8","mint(address)":"6a627842","name()":"06fdde03","notifyRewardAmount(uint256)":"3c6b16ab","observationLength()":"ebeb31db","pendingReward(address)":"f40f0f52","price0CumulativeLast()":"5909c0d5","price1CumulativeLast()":"5a3d5493","rewardIndex()":"e9ee2fa9","rewardToken()":"f7c618c1","skim(address)":"bc25cf77","stable()":"22be3de1","supplyIndex0(address)":"9f767c88","supplyIndex1(address)":"205aabf1","supplyRewardIndex(address)":"31b14218","swap(uint256,uint256,address,bytes)":"022c0d9f","symbol()":"95d89b41","sync()":"fff6cae9","token0()":"0dfe1681","token1()":"d21220a7","totalBTBRewards()":"a2aa9190","totalSupply()":"18160ddd","transfer(address,uint256)":"a9059cbb","transferFrom(address,address,uint256)":"23b872dd"},"id":82}