{"abi":[{"type":"constructor","inputs":[],"stateMutability":"nonpayable"},{"type":"function","name":"MINIMUM_LIQUIDITY","inputs":[],"outputs":[{"name":"","type":"uint256","internalType":"uint256"}],"stateMutability":"view"},{"type":"function","name":"allowance","inputs":[{"name":"owner","type":"address","internalType":"address"},{"name":"spender","type":"address","internalType":"address"}],"outputs":[{"name":"","type":"uint256","internalType":"uint256"}],"stateMutability":"view"},{"type":"function","name":"approve","inputs":[{"name":"spender","type":"address","internalType":"address"},{"name":"value","type":"uint256","internalType":"uint256"}],"outputs":[{"name":"","type":"bool","internalType":"bool"}],"stateMutability":"nonpayable"},{"type":"function","name":"balanceOf","inputs":[{"name":"account","type":"address","internalType":"address"}],"outputs":[{"name":"","type":"uint256","internalType":"uint256"}],"stateMutability":"view"},{"type":"function","name":"burn","inputs":[{"name":"to","type":"address","internalType":"address"}],"outputs":[{"name":"amount0","type":"uint256","internalType":"uint256"},{"name":"amount1","type":"uint256","internalType":"uint256"}],"stateMutability":"nonpayable"},{"type":"function","name":"claimReward","inputs":[],"outputs":[{"name":"","type":"uint256","internalType":"uint256"}],"stateMutability":"nonpayable"},{"type":"function","name":"claimableReward","inputs":[{"name":"","type":"address","internalType":"address"}],"outputs":[{"name":"","type":"uint256","internalType":"uint256"}],"stateMutability":"view"},{"type":"function","name":"decimals","inputs":[],"outputs":[{"name":"","type":"uint8","internalType":"uint8"}],"stateMutability":"view"},{"type":"function","name":"distributeFees","inputs":[],"outputs":[],"stateMutability":"nonpayable"},{"type":"function","name":"factory","inputs":[],"outputs":[{"name":"","type":"address","internalType":"address"}],"stateMutability":"view"},{"type":"function","name":"fees0","inputs":[],"outputs":[{"name":"","type":"uint256","internalType":"uint256"}],"stateMutability":"view"},{"type":"function","name":"fees1","inputs":[],"outputs":[{"name":"","type":"uint256","internalType":"uint256"}],"stateMutability":"view"},{"type":"function","name":"getAmountOut","inputs":[{"name":"amountIn","type":"uint256","internalType":"uint256"},{"name":"tokenIn","type":"address","internalType":"address"}],"outputs":[{"name":"amountOut","type":"uint256","internalType":"uint256"}],"stateMutability":"view"},{"type":"function","name":"getK","inputs":[],"outputs":[{"name":"","type":"uint256","internalType":"uint256"}],"stateMutability":"view"},{"type":"function","name":"getReserves","inputs":[],"outputs":[{"name":"_reserve0","type":"uint112","internalType":"uint112"},{"name":"_reserve1","type":"uint112","internalType":"uint112"},{"name":"_blockTimestampLast","type":"uint32","internalType":"uint32"}],"stateMutability":"view"},{"type":"function","name":"initialize","inputs":[{"name":"_token0","type":"address","internalType":"address"},{"name":"_token1","type":"address","internalType":"address"},{"name":"_stable","type":"bool","internalType":"bool"}],"outputs":[],"stateMutability":"nonpayable"},{"type":"function","name":"mint","inputs":[{"name":"to","type":"address","internalType":"address"}],"outputs":[{"name":"liquidity","type":"uint256","internalType":"uint256"}],"stateMutability":"nonpayable"},{"type":"function","name":"name","inputs":[],"outputs":[{"name":"","type":"string","internalType":"string"}],"stateMutability":"view"},{"type":"function","name":"notifyRewardAmount","inputs":[{"name":"amount","type":"uint256","internalType":"uint256"}],"outputs":[],"stateMutability":"nonpayable"},{"type":"function","name":"observationLength","inputs":[],"outputs":[{"name":"","type":"uint256","internalType":"uint256"}],"stateMutability":"pure"},{"type":"function","name":"pendingFees0","inputs":[],"outputs":[{"name":"","type":"uint256","internalType":"uint256"}],"stateMutability":"view"},{"type":"function","name":"pendingFees1","inputs":[],"outputs":[{"name":"","type":"uint256","internalType":"uint256"}],"stateMutability":"view"},{"type":"function","name":"pendingReward","inputs":[{"name":"account","type":"address","internalType":"address"}],"outputs":[{"name":"","type":"uint256","internalType":"uint256"}],"stateMutability":"view"},{"type":"function","name":"price0CumulativeLast","inputs":[],"outputs":[{"name":"","type":"uint256","internalType":"uint256"}],"stateMutability":"view"},{"type":"function","name":"price1CumulativeLast","inputs":[],"outputs":[{"name":"","type":"uint256","internalType":"uint256"}],"stateMutability":"view"},{"type":"function","name":"rewardIndex","inputs":[],"outputs":[{"name":"","type":"uint256","internalType":"uint256"}],"stateMutability":"view"},{"type":"function","name":"rewardToken","inputs":[],"outputs":[{"name":"","type":"address","internalType":"address"}],"stateMutability":"view"},{"type":"function","name":"skim","inputs":[{"name":"to","type":"address","internalType":"address"}],"outputs":[],"stateMutability":"nonpayable"},{"type":"function","name":"stable","inputs":[],"outputs":[{"name":"","type":"bool","internalType":"bool"}],"stateMutability":"view"},{"type":"function","name":"supplyRewardIndex","inputs":[{"name":"","type":"address","internalType":"address"}],"outputs":[{"name":"","type":"uint256","internalType":"uint256"}],"stateMutability":"view"},{"type":"function","name":"swap","inputs":[{"name":"amount0Out","type":"uint256","internalType":"uint256"},{"name":"amount1Out","type":"uint256","internalType":"uint256"},{"name":"to","type":"address","internalType":"address"},{"name":"","type":"bytes","internalType":"bytes"}],"outputs":[],"stateMutability":"nonpayable"},{"type":"function","name":"swapWithSlippage","inputs":[{"name":"amount0Out","type":"uint256","internalType":"uint256"},{"name":"amount1Out","type":"uint256","internalType":"uint256"},{"name":"minOutput","type":"uint256","internalType":"uint256"},{"name":"to","type":"address","internalType":"address"},{"name":"data","type":"bytes","internalType":"bytes"}],"outputs":[],"stateMutability":"nonpayable"},{"type":"function","name":"symbol","inputs":[],"outputs":[{"name":"","type":"string","internalType":"string"}],"stateMutability":"view"},{"type":"function","name":"sync","inputs":[],"outputs":[],"stateMutability":"nonpayable"},{"type":"function","name":"token0","inputs":[],"outputs":[{"name":"","type":"address","internalType":"address"}],"stateMutability":"view"},{"type":"function","name":"token1","inputs":[],"outputs":[{"name":"","type":"address","internalType":"address"}],"stateMutability":"view"},{"type":"function","name":"totalBTBRewards","inputs":[],"outputs":[{"name":"","type":"uint256","internalType":"uint256"}],"stateMutability":"view"},{"type":"function","name":"totalSupply","inputs":[],"outputs":[{"name":"","type":"uint256","internalType":"uint256"}],"stateMutability":"view"},{"type":"function","name":"transfer","inputs":[{"name":"to","type":"address","internalType":"address"},{"name":"value","type":"uint256","internalType":"uint256"}],"outputs":[{"name":"","type":"bool","internalType":"bool"}],"stateMutability":"nonpayable"},{"type":"function","name":"transferFrom","inputs":[{"name":"from","type":"address","internalType":"address"},{"name":"to","type":"address","internalType":"address"},{"name":"value","type":"uint256","internalType":"uint256"}],"outputs":[{"name":"","type":"bool","internalType":"bool"}],"stateMutability":"nonpayable"},{"type":"event","name":"Approval","inputs":[{"name":"owner","type":"address","indexed":true,"internalType":"address"},{"name":"spender","type":"address","indexed":true,"internalType":"address"},{"name":"value","type":"uint256","indexed":false,"internalType":"uint256"}],"anonymous":false},{"type":"event","name":"Burn","inputs":[{"name":"sender","type":"address","indexed":true,"internalType":"address"},{"name":"amount0","type":"uint256","indexed":false,"internalType":"uint256"},{"name":"amount1","type":"uint256","indexed":false,"internalType":"uint256"},{"name":"to","type":"address","indexed":true,"internalType":"address"}],"anonymous":false},{"type":"event","name":"FeesDistributed","inputs":[{"name":"amount0","type":"uint256","indexed":false,"internalType":"uint256"},{"name":"amount1","type":"uint256","indexed":false,"internalType":"uint256"}],"anonymous":false},{"type":"event","name":"Initialized","inputs":[{"name":"version","type":"uint64","indexed":false,"internalType":"uint64"}],"anonymous":false},{"type":"event","name":"Mint","inputs":[{"name":"sender","type":"address","indexed":true,"internalType":"address"},{"name":"amount0","type":"uint256","indexed":false,"internalType":"uint256"},{"name":"amount1","type":"uint256","indexed":false,"internalType":"uint256"}],"anonymous":false},{"type":"event","name":"Swap","inputs":[{"name":"sender","type":"address","indexed":true,"internalType":"address"},{"name":"amount0In","type":"uint256","indexed":false,"internalType":"uint256"},{"name":"amount1In","type":"uint256","indexed":false,"internalType":"uint256"},{"name":"amount0Out","type":"uint256","indexed":false,"internalType":"uint256"},{"name":"amount1Out","type":"uint256","indexed":false,"internalType":"uint256"},{"name":"to","type":"address","indexed":true,"internalType":"address"}],"anonymous":false},{"type":"event","name":"Sync","inputs":[{"name":"reserve0","type":"uint112","indexed":false,"internalType":"uint112"},{"name":"reserve1","type":"uint112","indexed":false,"internalType":"uint112"}],"anonymous":false},{"type":"event","name":"Transfer","inputs":[{"name":"from","type":"address","indexed":true,"internalType":"address"},{"name":"to","type":"address","indexed":true,"internalType":"address"},{"name":"value","type":"uint256","indexed":false,"internalType":"uint256"}],"anonymous":false},{"type":"error","name":"ERC20InsufficientAllowance","inputs":[{"name":"spender","type":"address","internalType":"address"},{"name":"allowance","type":"uint256","internalType":"uint256"},{"name":"needed","type":"uint256","internalType":"uint256"}]},{"type":"error","name":"ERC20InsufficientBalance","inputs":[{"name":"sender","type":"address","internalType":"address"},{"name":"balance","type":"uint256","internalType":"uint256"},{"name":"needed","type":"uint256","internalType":"uint256"}]},{"type":"error","name":"ERC20InvalidApprover","inputs":[{"name":"approver","type":"address","internalType":"address"}]},{"type":"error","name":"ERC20InvalidReceiver","inputs":[{"name":"receiver","type":"address","internalType":"address"}]},{"type":"error","name":"ERC20InvalidSender","inputs":[{"name":"sender","type":"address","internalType":"address"}]},{"type":"error","name":"ERC20InvalidSpender","inputs":[{"name":"spender","type":"address","internalType":"address"}]},{"type":"error","name":"InsufficientInputAmount","inputs":[]},{"type":"error","name":"InsufficientLiquidity","inputs":[]},{"type":"error","name":"InsufficientLiquidityBurned","inputs":[]},{"type":"error","name":"InsufficientLiquidityMinted","inputs":[]},{"type":"error","name":"InsufficientOutputAmount","inputs":[]},{"type":"error","name":"InvalidInitialization","inputs":[]},{"type":"error","name":"InvalidTo","inputs":[]},{"type":"error","name":"K","inputs":[]},{"type":"error","name":"Locked","inputs":[]},{"type":"error","name":"NotFactory","inputs":[]},{"type":"error","name":"NotInitializing","inputs":[]},{"type":"error","name":"ReentrancyGuardReentrantCall","inputs":[]},{"type":"error","name":"SafeERC20FailedOperation","inputs":[{"name":"token","type":"address","internalType":"address"}]},{"type":"error","name":"SlippageExceeded","inputs":[]}],"bytecode":{"object":"0x60c080604052346100fc5760017f9b779b17422d0df92223018b32b4d1fa46e071723d6817e2486d003becc55f00556012608052601260a0525f5160206132685f395f51905f525460ff8160401c166100ed576002600160401b03196001600160401b0382160161009a575b604051613167908161010182396080518181816126ab0152612a40015260a05181818161270a0152612a9f0152f35b6001600160401b0319166001600160401b039081175f5160206132685f395f51905f525581527fc7f505b2f371ae2175ee4913f4499e1f2633a7b5936321eed1cdaeb6115181d290602090a15f8061006b565b63f92ee8a960e01b5f5260045ffd5b5f80fdfe60806040526004361015610011575f80fd5b5f5f3560e01c8063022c0d9f14611ecf57806306fdde0314611e125780630902f1ac14611dd2578063095ea7b314611d535780630dfe168114611d2c57806318160ddd14611d0357806322be3de114611cde57806323b872dd14611c06578063313ce56714611beb57806331b1421814611bb35780633c6b16ab14611b955780634b81df3a14611b785780634c02a21c14611b785780635909c0d514611b5b5780635a3d549314611b3e5780636a6278421461189457806370a082311461185057806389afcb44146114c257806392e3d8aa146114a557806393f1c442146114a557806395d89b41146113b3578063a2aa919014611396578063a9059cbb14611365578063b88a802f146112ec578063ba9a7a56146112d0578063bb57ad2014611081578063bc25cf7714610f37578063c45a015514610f0e578063d21220a714610ee5578063dd62ed3e14610e9d578063e4bbb5a8146108b6578063e642f72814610433578063e9503425146103fa578063e9ee2fa9146103dc578063ebeb31db146103c0578063ee39e7a014610392578063f140a35a1461036b578063f40f0f521461033f578063f7c618c1146103165763fff6cae9146101d2575f80fd5b346103135780600319360112610313576101ea61294f565b80546040516370a0823160e01b815230600482015290602090829060249082906001600160a01b03165afa80156103085782906102d5575b6001546040516370a0823160e01b81523060048201529250602090839060249082906001600160a01b03165afa9081156102ca578391610290575b61027c9250600354916001600160701b03808460701c16931691612af0565b60015f5160206130f25f395f51905f525580f35b90506020823d6020116102c2575b816102ab6020938361237d565b810103126102be5761027c91519061025d565b5f80fd5b3d915061029e565b6040513d85823e3d90fd5b506020813d602011610300575b816102ef6020938361237d565b810103126102be5760249051610222565b3d91506102e2565b6040513d84823e3d90fd5b80fd5b5034610313578060031936011261031357600a546040516001600160a01b039091168152602090f35b503461031357602036600319011261031357602061036361035e6122c1565b6128d3565b604051908152f35b503461031357604036600319011261031357602061036361038a6122d7565b6004356125e7565b503461031357806003193601126103135760206103636003546001600160701b03808260701c169116612a08565b5034610313578060031936011261031357602060405160018152f35b50346103135780600319360112610313576020600b54604051908152f35b5034610313576020366003190112610313576020906040906001600160a01b036104226122c1565b168152600d83522054604051908152f35b50346103135760a0366003190112610313576064356001600160a01b038116906024356004358383036108b25760843567ffffffffffffffff81116108ae576104809036906004016122ed565b505061048a61294f565b80158015939086816108a15750825b60443511610892576104a961294f565b8061088a575b61087b576104bb612436565b50916001600160701b03821695868510801590610868575b6108595788546001600160a01b0316908882148015610845575b61083657908583602496959493610825575b5050508580610808575b505087546040516370a0823160e01b81523060048201529360209185919082906001600160a01b03165afa9283156107fd5788936107c9575b506001546040516370a0823160e01b815230600482015290936020826024816001600160a01b0389165afa9182156107be578a9261078a575b5061058686896123b3565b811115610783576105a061059a878a6123b3565b826123b3565b975b6001600160701b038516956105b789886123b3565b84111561077c576105d16105cb8a896123b3565b856123b3565b965b8a15918280610774575b6107655760025460405163cc56b2c560e01b815230600482015260a09290921c60ff16151560248301528e9060209083906001600160a01b031681806044810103915afa918215610758578d9192610720575b508161066c94156106fd575b5050886106db575b50610666610654600654866123b3565b610660600754886123b3565b90612a08565b92612a08565b116106cc579061067d939291612af0565b6040519384526020840152604083015260608201527fd78ad95fa46c994b6551d0da85fc275fe613ce37657fb8d5e3d130840159d82260803392a360015f5160206130f25f395f51905f525580f35b63a932492f60e01b8a5260048afd5b6127106106eb6106f4928b6123c0565b046007546123f1565b6007555f610644565b61070d61271091610716936123c0565b046006546123f1565b6006558b8161063c565b939150506020833d602011610750575b8161073d6020938361237d565b810103126102be5791518b61066c610630565b3d9150610730565b50604051903d90823e3d90fd5b63098fb56160e01b8e5260048efd5b5088156105dd565b8b966105d3565b89976105a2565b9091506020813d6020116107b6575b816107a66020938361237d565b810103126102be5751905f61057b565b3d9150610799565b6040513d8c823e3d90fd5b9092506020813d6020116107f5575b816107e56020938361237d565b810103126102be5751915f610542565b3d91506107d8565b6040513d8a823e3d90fd5b60015461081e92906001600160a01b0316612987565b5f85610509565b61082e92612987565b5f85826104ff565b630521f43160e31b8a5260048afd5b506001546001600160a01b031689146104ed565b63bb55fd2760e01b8952600489fd5b506001600160701b0384168610156104d3565b6342301c2360e01b8652600486fd5b5082156104af565b638199f5f360e01b8752600487fd5b8415610499575083610499565b8580fd5b8480fd5b5034610313576060366003190112610313576108d06122c1565b6108d86122d7565b60443591821515908184036108b2575f5160206131125f395f51905f52549360ff8560401c16159467ffffffffffffffff811680159081610e95575b6001149081610e8b575b159081610e82575b50610e735767ffffffffffffffff1981166001175f5160206131125f395f51905f5255602091829187610e47575b508015610e35576109ec60016109686125b7565b6003858a602c8261098161097b8d612d27565b93612d27565b926040519a8b976b0212a21102334b730b731b2960a51b828a0152805191829101858a015e8701906201016960ed1b84830152805192839101602f83015e010190602f60f81b84830152805192839101600483015e01018b838201520301601f19810184528361237d565b15610e2357610a6960016109fe6125b7565b8185610a0988612d27565b8180610a148d612d27565b926040519a878c985191829101848a015e870190602d60f81b83830152805192839101602183015e010190602f60f81b84830152805192839101600283015e01018a838201520301601f19810184528361237d565b610a71613005565b610a79613005565b80519067ffffffffffffffff8211610e0f578190610aa45f5160206130725f395f51905f52546123fe565b601f8111610d95575b50602090601f8311600114610d19578992610d0e575b50508160011b915f199060031b1c1916175f5160206130725f395f51905f52555b80519067ffffffffffffffff8211610cfa578190610b0f5f5160206130b25f395f51905f52546123fe565b601f8111610c80575b50602090601f8311600114610c04578892610bf9575b50508160011b915f199060031b1c1916175f5160206130b25f395f51905f52555b600280546001600160a01b031990811633179091558554166001600160a01b03918216178555600180546001600160a81b031916939091169290921760a09190911b60ff60a01b16179055610ba15780f35b68ff0000000000000000195f5160206131125f395f51905f5254165f5160206131125f395f51905f52557fc7f505b2f371ae2175ee4913f4499e1f2633a7b5936321eed1cdaeb6115181d2602060405160018152a180f35b015190505f80610b2e565b5f5160206130b25f395f51905f5289528189209250601f198416895b818110610c685750908460019594939210610c50575b505050811b015f5160206130b25f395f51905f5255610b4f565b01515f1960f88460031b161c191690555f8080610c36565b92936020600181928786015181550195019301610c20565b5f5160206130b25f395f51905f5289529091507f46a2803e59a4de4e7a4c574b1243f25977ac4c77d5a1a4a609b5394cebb4a2aa601f840160051c81019160208510610cf0575b90601f859493920160051c01905b818110610ce25750610b18565b898155849350600101610cd5565b9091508190610cc7565b634e487b7160e01b87526041600452602487fd5b015190505f80610ac3565b5f5160206130725f395f51905f528a52818a209250601f1984168a5b818110610d7d5750908460019594939210610d65575b505050811b015f5160206130725f395f51905f5255610ae4565b01515f1960f88460031b161c191690555f8080610d4b565b92936020600181928786015181550195019301610d35565b5f5160206130725f395f51905f528a529091507f2ae08a8e29253f69ac5d979a101956ab8f8d9d7ded63fa7a83b16fc47648eab0601f840160051c81019160208510610e05575b90601f859493920160051c01905b818110610df75750610aad565b8a8155849350600101610dea565b9091508190610ddc565b634e487b7160e01b88526041600452602488fd5b610a696001610e30612595565b6109fe565b6109ec6001610e42612595565b610968565b68ffffffffffffffffff191668010000000000000001175f5160206131125f395f51905f52555f610954565b63f92ee8a960e01b8752600487fd5b9050155f610926565b303b15915061091e565b879150610914565b503461031357604036600319011261031357610eb76122c1565b610ec8610ec26122d7565b91612345565b9060018060a01b03165f52602052602060405f2054604051908152f35b50346103135780600319360112610313576001546040516001600160a01b039091168152602090f35b50346103135780600319360112610313576002546040516001600160a01b039091168152602090f35b503461031357602036600319011261031357610f516122c1565b610f5961294f565b81546040516370a0823160e01b8152306004820152906001600160a01b0316602082602481845afa91821561103e5783908593611049575b50610fab610fb1936001600160701b0360035416906123b3565b91612987565b6001546040516370a0823160e01b8152306004820152916001600160a01b0390911690602083602481855afa92831561103e578493611008575b50610fab61027c936001600160701b0360035460701c16906123b3565b92506020833d602011611036575b816110236020938361237d565b810103126102be57915191610fab610feb565b3d9150611016565b6040513d86823e3d90fd5b9250506020823d602011611079575b816110656020938361237d565b810103126102be5790519082610fab610f91565b3d9150611058565b50346102be575f3660031901126102be5761109a61294f565b600654600754816111e7575b806110f0575b7f771d362663b46bd788cd13fc183c9432449a2be6bcb81051bfeb484afd9c5dd89160409182519182526020820152a160015f5160206130f25f395f51905f525580f35b60078390556002546040516311b25aab60e21b81528491602090829060049082906001600160a01b03165afa9081156103085782916111b8575b5060015461114490849083906001600160a01b0316612987565b6001546001600160a01b039081169116803b156111b45760405163280cff3560e21b81526001600160a01b039290921660048301526024820184905282908290604490829084905af180156103085761119f575b50506110ac565b816111a99161237d565b6111b457825f611198565b8280fd5b6111da915060203d6020116111e0575b6111d2818361237d565b810190612458565b5f61112a565b503d6111c8565b5f6006556002546040516311b25aab60e21b815290602090829060049082906001600160a01b03165afa9081156112a6575f916112b1575b505f5461123890849083906001600160a01b0316612987565b5f546001600160a01b039081169116803b156102be5760405163280cff3560e21b81526001600160a01b03929092166004830152602482018490525f908290604490829084905af180156112a657611291575b506110a6565b61129e9193505f9061237d565b5f915f61128b565b6040513d5f823e3d90fd5b6112ca915060203d6020116111e0576111d2818361237d565b5f61121f565b346102be575f3660031901126102be5760206040516103e88152f35b346102be575f3660031901126102be5761130461294f565b61130d33612c91565b335f52600d602052602060405f20548061133b575b60015f5160206130f25f395f51905f5255604051908152f35b335f818152600d84526040812055600a546113609183916001600160a01b0316612987565b611322565b346102be5760403660031901126102be5761138b6113816122c1565b6024359033612bbe565b602060405160018152f35b346102be575f3660031901126102be576020600e54604051908152f35b346102be575f3660031901126102be576040515f5f5160206130b25f395f51905f52546113df816123fe565b80845290600181169081156114815750600114611417575b611413836114078185038261237d565b6040519182918261231b565b0390f35b5f5160206130b25f395f51905f525f9081527f46a2803e59a4de4e7a4c574b1243f25977ac4c77d5a1a4a609b5394cebb4a2aa939250905b808210611467575090915081016020016114076113f7565b91926001816020925483858801015201910190929161144f565b60ff191660208086019190915291151560051b8401909101915061140790506113f7565b346102be575f3660031901126102be576020600654604051908152f35b346102be5760203660031901126102be576114db6122c1565b6114e361294f565b6114eb612436565b505f546001546040516370a0823160e01b815230600482015293946001600160a01b0392831694939092909116602084602481885afa9384156112a6575f9461181c575b506040516370a0823160e01b815230600482015294602086602481855afa9586156112a6575f966117e8575b50305f525f5160206130925f395f51905f526020526115af6115a36115a36115a860405f20549861158b89612c91565b5f5160206130d25f395f51905f52549384918b6123c0565b6123d3565b98886123c0565b94861580156117e0575b6117d15730156117be576115cc30612c91565b6115d55f612c91565b305f525f5160206130925f395f51905f5260205260405f20548181106117a557915f82602093602496953084525f5160206130925f395f51905f528652036040832055805f5160206130d25f395f51905f5254035f5160206130d25f395f51905f52556040519081527fddf252ad1be2c89b69c2b068fc378daa952ba7f163c4a11628f55a4df523b3ef843092a361166e888783612987565b611679878785612987565b6040516370a0823160e01b815230600482015293849182905afa9182156112a6575f92611770575b50906020602492604051938480926370a0823160e01b82523060048301525afa9182156112a6575f92611735575b50956116de9291604097612af0565b83519083825282602083015260018060a01b0316907fdccd412f0b1252819cb1fd330b93224ca42612892bb3f4f789976e6d81936496853392a360015f5160206130f25f395f51905f525582519182526020820152f35b929150956020833d602011611768575b816117526020938361237d565b810103126102be579151919590919060406116cf565b3d9150611745565b91506020823d60201161179d575b8161178b6020938361237d565b810103126102be5790519060206116a1565b3d915061177e565b63391434e360e21b5f523060045260245260445260645ffd5b634b637e8f60e11b5f525f60045260245ffd5b63749383ad60e01b5f5260045ffd5b5085156115b9565b9095506020813d602011611814575b816118046020938361237d565b810103126102be5751948761155b565b3d91506117f7565b9093506020813d602011611848575b816118386020938361237d565b810103126102be5751928661152f565b3d915061182b565b346102be5760203660031901126102be576001600160a01b036118716122c1565b165f525f5160206130925f395f51905f52602052602060405f2054604051908152f35b346102be5760203660031901126102be576118ad6122c1565b6118b561294f565b60246118bf612436565b505f546040516370a0823160e01b81523060048201529360209185919082906001600160a01b03165afa9283156112a6575f93611b09575b506001546040516370a0823160e01b8152306004820152939490602090859060249082906001600160a01b03165afa9384156112a6575f94611ad5575b506001600160701b0383169161194a83876123b3565b936001600160701b03821661195f81886123b3565b9461196985612c91565b5f5160206130d25f395f51905f52549182611aa35750505061198b84866123c0565b5f6003821115611a955750808060011c60018101809111611a6257905b828210611a765750505b6103e7198101908111611a6257956119cd6103e86001612f49565b8615611a53576001600160a01b03841615611a40576020976119f2886119f796612f49565b612af0565b604051918252838201527f4c209b5fc8ad50758f13e2e1088ba56a560dff690a1c6fef26394f4c03821c4f60403392a260015f5160206130f25f395f51905f5255604051908152f35b63ec442f0560e01b5f525f60045260245ffd5b633489be7560e21b5f5260045ffd5b634e487b7160e01b5f52601160045260245ffd5b909150611a8c82611a8781846123d3565b6123f1565b60011c906119a8565b90156119b2575060016119b2565b6115a3611ab7611abe936115a3868c6123c0565b93886123c0565b80821015611ace57505b956119cd565b9050611ac8565b9093506020813d602011611b01575b81611af16020938361237d565b810103126102be57519285611934565b3d9150611ae4565b92506020833d602011611b36575b81611b246020938361237d565b810103126102be5760249251926118f7565b3d9150611b17565b346102be575f3660031901126102be576020600554604051908152f35b346102be575f3660031901126102be576020600454604051908152f35b346102be575f3660031901126102be576020600754604051908152f35b346102be5760203660031901126102be57611bb1600435612477565b005b346102be5760203660031901126102be576001600160a01b03611bd46122c1565b165f52600c602052602060405f2054604051908152f35b346102be575f3660031901126102be57602060405160128152f35b346102be5760603660031901126102be57611c1f6122c1565b611c276122d7565b60443590611c3483612345565b335f9081526020919091526040902054925f198410611c58575b61138b9350612bbe565b828410611cc3576001600160a01b03811615611cb0573315611c9d5761138b93611c8182612345565b60018060a01b0333165f526020528360405f2091039055611c4e565b634a1406b160e11b5f525f60045260245ffd5b63e602df0560e01b5f525f60045260245ffd5b8284637dc7a0d960e11b5f523360045260245260445260645ffd5b346102be575f3660031901126102be57602060ff60015460a01c166040519015158152f35b346102be575f3660031901126102be5760205f5160206130d25f395f51905f5254604051908152f35b346102be575f3660031901126102be575f546040516001600160a01b039091168152602090f35b346102be5760403660031901126102be57611d6c6122c1565b602435903315611cb0576001600160a01b0316908115611c9d57611d8f33612345565b825f526020528060405f20556040519081527f8c5be1e5ebec7d5bd14f71427d1e84f3dd0314c0f7b2291e5b200ac8c7c3b92560203392a3602060405160018152f35b346102be575f3660031901126102be5760606001600160701b0363ffffffff611df9612436565b9193908160405195168552166020840152166040820152f35b346102be575f3660031901126102be576040515f5f5160206130725f395f51905f5254611e3e816123fe565b80845290600181169081156114815750600114611e6557611413836114078185038261237d565b5f5160206130725f395f51905f525f9081527f2ae08a8e29253f69ac5d979a101956ab8f8d9d7ded63fa7a83b16fc47648eab0939250905b808210611eb5575090915081016020016114076113f7565b919260018160209254838588010152019101909291611e9d565b346102be5760803660031901126102be576044356001600160a01b038116906024356004358383036102be5760643567ffffffffffffffff81116102be57611f1b9036906004016122ed565b5050611f2561294f565b801580806122b9575b6122aa57611f3a612436565b506001600160701b038293921695868510801590612297575b612288575f546001600160a01b03168881148015612274575b61226557858260249515612254575b5050508580612237575b50505f546040516370a0823160e01b81523060048201529260209184919082906001600160a01b03165afa9182156112a6575f92612203575b506001546040516370a0823160e01b81523060048201529093906020816024816001600160a01b0389165afa9081156112a6575f916121d1575b5061200386896123b3565b8411156121ca576120176105cb878a6123b3565b975b6001600160701b0384169561202e89886123b3565b8311156121c3576120486120428a896123b3565b846123b3565b965b8a159182806121bb575b6121ac5760025460405163cc56b2c560e01b815230600482015260a09290921c60ff161515602483015260209082906001600160a01b031681806044810103915afa9081156112a6578c905f92612174575b50816120d6941561215a575b505088612141575b506106666120ca600654896123b3565b610660600754876123b3565b11612132576120e493612af0565b6040519384526020840152604083015260608201527fd78ad95fa46c994b6551d0da85fc275fe613ce37657fb8d5e3d130840159d82260803392a360015f5160206130f25f395f51905f5255005b63a932492f60e01b5f5260045ffd5b6127106106eb612151928b6123c0565b6007558c6120ba565b61070d6127109161216a936123c0565b6006558b816120b2565b939150506020833d6020116121a4575b816121916020938361237d565b810103126102be5791518b6120d66120a6565b3d9150612184565b63098fb56160e01b5f5260045ffd5b508815612054565b5f9661204a565b5f97612019565b90506020813d6020116121fb575b816121ec6020938361237d565b810103126102be575189611ff8565b3d91506121df565b9091506020813d60201161222f575b8161221f6020938361237d565b810103126102be57519087611fbe565b3d9150612212565b60015461224d92906001600160a01b0316612987565b8785611f85565b61225d92612987565b888582611f7b565b630521f43160e31b5f5260045ffd5b506001546001600160a01b03168914611f6c565b63bb55fd2760e01b5f5260045ffd5b506001600160701b038216861015611f53565b6342301c2360e01b5f5260045ffd5b508215611f2e565b600435906001600160a01b03821682036102be57565b602435906001600160a01b03821682036102be57565b9181601f840112156102be5782359167ffffffffffffffff83116102be57602083818601950101116102be57565b602060409281835280519182918282860152018484015e5f828201840152601f01601f1916010190565b6001600160a01b03165f9081527f52c63247e1f47db19d5ce0460030c497f067ca4cebf71ba98eeadabe20bace016020526040902090565b90601f8019910116810190811067ffffffffffffffff82111761239f57604052565b634e487b7160e01b5f52604160045260245ffd5b91908203918211611a6257565b81810292918115918404141715611a6257565b81156123dd570490565b634e487b7160e01b5f52601260045260245ffd5b91908201809211611a6257565b90600182811c9216801561242c575b602083101461241857565b634e487b7160e01b5f52602260045260245ffd5b91607f169161240d565b6003546001600160701b038116916001600160701b038260701c169160e01c90565b908160209103126102be57516001600160a01b03811681036102be5790565b6002546040516311b25aab60e21b815290602090829060049082906001600160a01b03165afa9081156112a6575f9161255a575b506001600160a01b03163303612529578015612526575f5160206130d25f395f51905f525490816124e9575b6124e49150600e546123f1565b600e55565b670de0b6b3a7640000810291818304670de0b6b3a764000003611a625761251661251e916124e4946123d3565b600b546123f1565b600b556124d7565b50565b60405162461bcd60e51b81526020600482015260096024820152682737ba103b37ba32b960b91b6044820152606490fd5b612573915060203d6020116111e0576111d2818361237d565b5f6124ab565b67ffffffffffffffff811161239f57601f01601f191660200190565b604051906125a460408361237d565b600482526376414d4d60e01b6020830152565b604051906125c660408361237d565b600482526373414d4d60e01b6020830152565b604d8111611a6257600a0a90565b906125f0612436565b5060025460015460405163cc56b2c560e01b815230600482015260a09190911c60ff16801515602483015295929392909160209083906001600160a01b031681806044810103915afa9182156112a6575f9261289d575b5061271061265861265f93836123c0565b04906123b3565b9315612847576001600160701b03809116911661267c8183612a08565b91670de0b6b3a7640000810290808204670de0b6b3a76400001490151715611a62576001600160701b036126da7f0000000000000000000000000000000000000000000000000000000000000000926126d4846125d9565b906123d3565b1692670de0b6b3a7640000830292808404670de0b6b3a76400001490151715611a62576001600160701b036127337f0000000000000000000000000000000000000000000000000000000000000000946126d4866125d9565b5f549116956001600160a01b03908116911614938415612839576001600160701b0390955b1684156127e557670de0b6b3a7640000870296808804670de0b6b3a76400001490151715611a62576127bb816127c1936127b66127d7996001600160701b036127ad670de0b6b3a76400009d6126d48b6125d9565b915b16906123f1565b612e19565b906123b3565b92156127db57506127d1906125d9565b906123c0565b0490565b6127d191506125d9565b670de0b6b3a7640000870296808804670de0b6b3a76400001490151715611a62576127bb816127c1936127b66127d7996001600160701b03612833670de0b6b3a76400009d6126d48c6125d9565b916127af565b6001600160701b0390612758565b5f546128829491936001600160a01b039081169116036128855761287c6001600160701b03806126d494951694165b826123c0565b926123f1565b90565b61287c6001600160701b03806126d494169416612876565b91506020823d6020116128cb575b816128b86020938361237d565b810103126102be57905190612710612647565b3d91506128ab565b6001600160a01b03165f8181525f5160206130925f395f51905f526020526040902054801561293f57670de0b6b3a764000061293861288293612925600b54825f52600c60205260405f2054906123b3565b905f52600d60205260405f2054936123c0565b04906123f1565b505f52600d60205260405f205490565b60025f5160206130f25f395f51905f5254146129785760025f5160206130f25f395f51905f5255565b633ee5aeb560e01b5f5260045ffd5b916040519163a9059cbb60e01b5f5260018060a01b031660045260245260205f60448180865af19060015f51148216156129e7575b604052156129c75750565b635274afe760e01b5f9081526001600160a01b0391909116600452602490fd5b9060018115166129ff57823b15153d151616906129bc565b503d5f823e3d90fd5b60015460a01c60ff1615612ae657670de0b6b3a7640000810290808204670de0b6b3a76400001490151715611a6257612a64906126d47f00000000000000000000000000000000000000000000000000000000000000006125d9565b90670de0b6b3a7640000810290808204670de0b6b3a76400001490151715611a6257670de0b6b3a7640000916127d1612ac36127d7936126d47f00000000000000000000000000000000000000000000000000000000000000006125d9565b8461293881612ade81612ad686896123c0565b0496806123c0565b0492806123c0565b90612882916123c0565b6001600160701b0380917f1c411e9a96e071241c2f21f7726b17ae89e3cab4c78be50e062b03a9fffbbad19560409563ffffffff60035460e01c814216031680151580612bb3575b80612ba8575b612b77575b50505016918263ffffffff60e01b4260e01b16918360701b9060701b16171780600355835192835260701c166020820152a1565b8480612b9994169216612b8c818385026123d3565b60045401600455026123d3565b600554016005555f8080612b43565b508483161515612b3e565b508482161515612b38565b90916001600160a01b0382169182156117be576001600160a01b038416938415611a4057612bee612bf392612c91565b612c91565b815f525f5160206130925f395f51905f5260205260405f2054818110612c7857817fddf252ad1be2c89b69c2b068fc378daa952ba7f163c4a11628f55a4df523b3ef92602092855f525f5160206130925f395f51905f5284520360405f2055845f525f5160206130925f395f51905f52825260405f20818154019055604051908152a3565b8263391434e360e21b5f5260045260245260445260645ffd5b6001600160a01b03165f8181525f5160206130925f395f51905f52602052604090205480612ccd575b50600b54905f52600c60205260405f2055565b612ce6600b54835f52600c60205260405f2054906123b3565b9081612cf3575b50612cba565b670de0b6b3a764000091612d06916123c0565b04815f52600d602052612d1e60405f209182546123f1565b90555f80612ced565b5f809160405160208101906395d89b4160e01b825260048152612d4b60248261237d565b51915afa3d15612e11573d90612d6082612579565b91612d6e604051938461237d565b82523d5f602084013e5b15612def5780518101906020818184019303126102be5760208101519067ffffffffffffffff82116102be570181603f820112156102be57602081015190612dbf82612579565b92612dcd604051948561237d565b828452604082840101116102be57815f926040602093018386015e8301015290565b50604051612dfe60408261237d565b60038152623f3f3f60e81b602082015290565b606090612d78565b905f5b60ff8110612e2a5750505090565b83612e75670de0b6b3a7640000612e5781612e508582612e4a82806123c0565b046123c0565b04876123c0565b04670de0b6b3a76400006129388482612e4a8a82612e4a82806123c0565b8380821015612f055790612e88916123b3565b670de0b6b3a7640000810290808204670de0b6b3a76400001490151715611a625781612ebd612ec3926126d460019589613030565b906123f1565b945b8581811115612eee5790612ed8916123b3565b1115612ee8576001905b01612e1c565b50505090565b612ef7916123b3565b1115612ee857600190612ee2565b612f0e916123b3565b670de0b6b3a7640000810290808204670de0b6b3a76400001490151715611a6257816127bb612f43926126d460019589613030565b94612ec5565b7fddf252ad1be2c89b69c2b068fc378daa952ba7f163c4a11628f55a4df523b3ef60205f92612f7784612c91565b612f8081612c91565b612f98855f5160206130d25f395f51905f52546123f1565b5f5160206130d25f395f51905f52556001600160a01b03169384158414612fe357805f5160206130d25f395f51905f5254035f5160206130d25f395f51905f52555b604051908152a3565b8484525f5160206130925f395f51905f52825260408420818154019055612fda565b60ff5f5160206131125f395f51905f525460401c161561302157565b631afcd79f60e31b5f5260045ffd5b80600302600381048203611a6257612938670de0b6b3a764000061306481938261305d88612882996123c0565b04906123c0565b049282612e4a82806123c056fe52c63247e1f47db19d5ce0460030c497f067ca4cebf71ba98eeadabe20bace0352c63247e1f47db19d5ce0460030c497f067ca4cebf71ba98eeadabe20bace0052c63247e1f47db19d5ce0460030c497f067ca4cebf71ba98eeadabe20bace0452c63247e1f47db19d5ce0460030c497f067ca4cebf71ba98eeadabe20bace029b779b17422d0df92223018b32b4d1fa46e071723d6817e2486d003becc55f00f0c57e16840df040f15088dc2f81fe391c3923bec73e23a9662efc9c229c6a00a2646970667358221220d74c6743b966b48ec49fa3d418f2c0b5f08ea0cdd6aff42499ad7428d94c711b64736f6c634300081b0033f0c57e16840df040f15088dc2f81fe391c3923bec73e23a9662efc9c229c6a00","linkReferences":{}},"methodIdentifiers":{"MINIMUM_LIQUIDITY()":"ba9a7a56","allowance(address,address)":"dd62ed3e","approve(address,uint256)":"095ea7b3","balanceOf(address)":"70a08231","burn(address)":"89afcb44","claimReward()":"b88a802f","claimableReward(address)":"e9503425","decimals()":"313ce567","distributeFees()":"bb57ad20","factory()":"c45a0155","fees0()":"93f1c442","fees1()":"4c02a21c","getAmountOut(uint256,address)":"f140a35a","getK()":"ee39e7a0","getReserves()":"0902f1ac","initialize(address,address,bool)":"e4bbb5a8","mint(address)":"6a627842","name()":"06fdde03","notifyRewardAmount(uint256)":"3c6b16ab","observationLength()":"ebeb31db","pendingFees0()":"92e3d8aa","pendingFees1()":"4b81df3a","pendingReward(address)":"f40f0f52","price0CumulativeLast()":"5909c0d5","price1CumulativeLast()":"5a3d5493","rewardIndex()":"e9ee2fa9","rewardToken()":"f7c618c1","skim(address)":"bc25cf77","stable()":"22be3de1","supplyRewardIndex(address)":"31b14218","swap(uint256,uint256,address,bytes)":"022c0d9f","swapWithSlippage(uint256,uint256,uint256,address,bytes)":"e642f728","symbol()":"95d89b41","sync()":"fff6cae9","token0()":"0dfe1681","token1()":"d21220a7","totalBTBRewards()":"a2aa9190","totalSupply()":"18160ddd","transfer(address,uint256)":"a9059cbb","transferFrom(address,address,uint256)":"23b872dd"},"id":82}