{"abi":[{"type":"constructor","inputs":[{"name":"_veBTB","type":"address","internalType":"address"}],"stateMutability":"nonpayable"},{"type":"function","name":"authorizePool","inputs":[{"name":"pool","type":"address","internalType":"address"},{"name":"authorized","type":"bool","internalType":"bool"}],"outputs":[],"stateMutability":"nonpayable"},{"type":"function","name":"authorizedPools","inputs":[{"name":"","type":"address","internalType":"address"}],"outputs":[{"name":"","type":"bool","internalType":"bool"}],"stateMutability":"view"},{"type":"function","name":"claimFees","inputs":[{"name":"token","type":"address","internalType":"address"}],"outputs":[],"stateMutability":"nonpayable"},{"type":"function","name":"collectFees","inputs":[{"name":"token","type":"address","internalType":"address"},{"name":"amount","type":"uint256","internalType":"uint256"}],"outputs":[],"stateMutability":"nonpayable"},{"type":"function","name":"getClaimable","inputs":[{"name":"user","type":"address","internalType":"address"},{"name":"token","type":"address","internalType":"address"}],"outputs":[{"name":"","type":"uint256","internalType":"uint256"}],"stateMutability":"view"},{"type":"function","name":"owner","inputs":[],"outputs":[{"name":"","type":"address","internalType":"address"}],"stateMutability":"view"},{"type":"function","name":"rescueTokens","inputs":[{"name":"token","type":"address","internalType":"address"},{"name":"amount","type":"uint256","internalType":"uint256"}],"outputs":[],"stateMutability":"nonpayable"},{"type":"function","name":"totalFeesClaimed","inputs":[{"name":"","type":"address","internalType":"address"}],"outputs":[{"name":"","type":"uint256","internalType":"uint256"}],"stateMutability":"view"},{"type":"function","name":"totalFeesCollected","inputs":[{"name":"","type":"address","internalType":"address"}],"outputs":[{"name":"","type":"uint256","internalType":"uint256"}],"stateMutability":"view"},{"type":"function","name":"userClaimed","inputs":[{"name":"","type":"address","internalType":"address"},{"name":"","type":"address","internalType":"address"}],"outputs":[{"name":"","type":"uint256","internalType":"uint256"}],"stateMutability":"view"},{"type":"function","name":"veBTB","inputs":[],"outputs":[{"name":"","type":"address","internalType":"contract IVotingEscrow"}],"stateMutability":"view"},{"type":"event","name":"FeesClaimed","inputs":[{"name":"user","type":"address","indexed":true,"internalType":"address"},{"name":"token","type":"address","indexed":true,"internalType":"address"},{"name":"amount","type":"uint256","indexed":false,"internalType":"uint256"}],"anonymous":false},{"type":"event","name":"FeesCollected","inputs":[{"name":"pool","type":"address","indexed":true,"internalType":"address"},{"name":"token","type":"address","indexed":true,"internalType":"address"},{"name":"amount","type":"uint256","indexed":false,"internalType":"uint256"}],"anonymous":false},{"type":"error","name":"NotAuthorized","inputs":[]},{"type":"error","name":"NotOwner","inputs":[]},{"type":"error","name":"NothingToClaim","inputs":[]},{"type":"error","name":"ReentrancyGuardReentrantCall","inputs":[]},{"type":"error","name":"SafeERC20FailedOperation","inputs":[{"name":"token","type":"address","internalType":"address"}]}],"bytecode":{"object":"0x60803460a057601f61088638819003918201601f19168301916001600160401b0383118484101760a45780849260209460405283398101031260a057516001600160a01b0381169081900360a05760017f9b779b17422d0df92223018b32b4d1fa46e071723d6817e2486d003becc55f008190555f80546001600160a01b03199081169390931790558054909116331790556040516107cd90816100b98239f35b5f80fd5b634e487b7160e01b5f52604160045260245ffdfe60806040526004361015610011575f80fd5b5f3560e01c806315a0ea6a1461032d578063289b2df1146102dd5780633fb81428146102a9578063573761981461026357806388a40eed1461022b5780638da5cb5b14610203578063a033fcd41461019e578063c921634414610132578063e816b393146100f5578063f0aeeb68146100ce5763f804ee9314610092575f80fd5b346100ca5760203660031901126100ca576001600160a01b036100b3610405565b165f526005602052602060405f2054604051908152f35b5f80fd5b346100ca575f3660031901126100ca575f546040516001600160a01b039091168152602090f35b346100ca5760203660031901126100ca576001600160a01b03610116610405565b165f526002602052602060ff60405f2054166040519015158152f35b346100ca5760403660031901126100ca5761014b610405565b602435908115158092036100ca576001546001600160a01b0316330361018f5760018060a01b03165f52600260205260405f209060ff801983541691161790555f80f35b6330cd747160e01b5f5260045ffd5b346100ca5760403660031901126100ca576101b7610405565b335f52600260205260ff60405f205416156101f4576101e1906101d86106c7565b602435906105fc565b60015f5160206107785f395f51905f5255005b63ea8e4eb560e01b5f5260045ffd5b346100ca575f3660031901126100ca576001546040516001600160a01b039091168152602090f35b346100ca5760203660031901126100ca576001600160a01b0361024c610405565b165f526004602052602060405f2054604051908152f35b346100ca5760403660031901126100ca5761027c610405565b6001546001600160a01b0316903382900361018f576102a791602435916001600160a01b03166106ff565b005b346100ca5760403660031901126100ca5760206102d56102c7610405565b6102cf61041b565b90610495565b604051908152f35b346100ca5760403660031901126100ca576102f6610405565b6102fe61041b565b6001600160a01b039182165f908152600360209081526040808320949093168252928352819020549051908152f35b346100ca5760203660031901126100ca57610346610405565b61034e6106c7565b6103588133610495565b9081156103f657335f52600360205260405f2060018060a01b0382165f5260205260405f20610388838254610431565b905560018060a01b031690815f52600560205260405f206103aa828254610431565b90556103b78133846106ff565b6040519081527ffe3464cd748424446c37877c28ce5b700222c5bc9f90d908afcc4e5cb22707ff60203392a360015f5160206107785f395f51905f5255005b6312d37ee560e31b5f5260045ffd5b600435906001600160a01b03821682036100ca57565b602435906001600160a01b03821682036100ca57565b9190820180921161043e57565b634e487b7160e01b5f52601160045260245ffd5b90601f8019910116810190811067ffffffffffffffff82111761047457604052565b634e487b7160e01b5f52604160045260245ffd5b9190820391821161043e57565b5f546040516370a0823160e01b81526001600160a01b039283166004820181905293909290911690602083602481855afa9283156105bd575f936105c8575b508215610581576020600492604051938480926318160ddd60e01b82525afa9182156105bd575f92610589575b5081156105815760018060a01b031691825f52600460205261053460405f2054845f52600560205260405f205490610488565b8015610578578082029182040361043e5704915f52600360205260405f20905f5260205260405f20548082115f146105725761056f91610488565b90565b50505f90565b50505050505f90565b505050505f90565b9091506020813d6020116105b5575b816105a560209383610452565b810103126100ca5751905f610501565b3d9150610598565b6040513d5f823e3d90fd5b9092506020813d6020116105f4575b816105e460209383610452565b810103126100ca5751915f6104d4565b3d91506105d7565b81156106c35760018060a01b0316906040516323b872dd60e01b5f5233600452306024528160445260205f60648180875af19060015f51148216156106a2575b6040525f6060521561068f57815f52600460205260405f2061065f828254610431565b90556040519081527f9bcb6d1f38f6800906185471a11ede9a8e16200853225aa62558db6076490f2d60203392a3565b50635274afe760e01b5f5260045260245ffd5b9060018115166106ba57833b15153d1516169061063c565b503d5f823e3d90fd5b5050565b60025f5160206107785f395f51905f5254146106f05760025f5160206107785f395f51905f5255565b633ee5aeb560e01b5f5260045ffd5b916040519163a9059cbb60e01b5f5260018060a01b031660045260245260205f60448180865af19060015f511482161561075f575b6040521561073f5750565b635274afe760e01b5f9081526001600160a01b0391909116600452602490fd5b9060018115166106ba57823b15153d1516169061073456fe9b779b17422d0df92223018b32b4d1fa46e071723d6817e2486d003becc55f00a264697066735822122052d121eb27dd7758a42b673b1f7612adb82e38c8cc4ee1b675604ca22db869d064736f6c634300081b0033","linkReferences":{}},"methodIdentifiers":{"authorizePool(address,bool)":"c9216344","authorizedPools(address)":"e816b393","claimFees(address)":"15a0ea6a","collectFees(address,uint256)":"a033fcd4","getClaimable(address,address)":"3fb81428","owner()":"8da5cb5b","rescueTokens(address,uint256)":"57376198","totalFeesClaimed(address)":"f804ee93","totalFeesCollected(address)":"88a40eed","userClaimed(address,address)":"289b2df1","veBTB()":"f0aeeb68"},"id":85}