{"abi":[{"type":"constructor","inputs":[{"name":"_protocolFeeRecipient","type":"address","internalType":"address"}],"stateMutability":"nonpayable"},{"type":"function","name":"MAX_FEE","inputs":[],"outputs":[{"name":"","type":"uint256","internalType":"uint256"}],"stateMutability":"view"},{"type":"function","name":"MAX_TICK","inputs":[],"outputs":[{"name":"","type":"int24","internalType":"int24"}],"stateMutability":"view"},{"type":"function","name":"MIN_TICK","inputs":[],"outputs":[{"name":"","type":"int24","internalType":"int24"}],"stateMutability":"view"},{"type":"function","name":"approveHook","inputs":[{"name":"hook","type":"address","internalType":"address"},{"name":"approved","type":"bool","internalType":"bool"}],"outputs":[],"stateMutability":"nonpayable"},{"type":"function","name":"approvedHooks","inputs":[{"name":"","type":"address","internalType":"address"}],"outputs":[{"name":"","type":"bool","internalType":"bool"}],"stateMutability":"view"},{"type":"function","name":"currencyDeltas","inputs":[{"name":"","type":"address","internalType":"address"}],"outputs":[{"name":"","type":"int256","internalType":"int256"}],"stateMutability":"view"},{"type":"function","name":"initialize","inputs":[{"name":"key","type":"tuple","internalType":"struct PoolManager.PoolKey","components":[{"name":"token0","type":"address","internalType":"address"},{"name":"token1","type":"address","internalType":"address"},{"name":"fee","type":"uint24","internalType":"uint24"},{"name":"hooks","type":"address","internalType":"address"}]},{"name":"sqrtPriceX96","type":"uint160","internalType":"uint160"}],"outputs":[{"name":"poolId","type":"bytes32","internalType":"bytes32"}],"stateMutability":"nonpayable"},{"type":"function","name":"modifyLiquidity","inputs":[{"name":"poolId","type":"bytes32","internalType":"bytes32"},{"name":"params","type":"tuple","internalType":"struct PoolManager.ModifyLiquidityParams","components":[{"name":"tickLower","type":"int24","internalType":"int24"},{"name":"tickUpper","type":"int24","internalType":"int24"},{"name":"liquidityDelta","type":"int128","internalType":"int128"}]},{"name":"hookData","type":"bytes","internalType":"bytes"}],"outputs":[{"name":"amount0","type":"int256","internalType":"int256"},{"name":"amount1","type":"int256","internalType":"int256"}],"stateMutability":"nonpayable"},{"type":"function","name":"owner","inputs":[],"outputs":[{"name":"","type":"address","internalType":"address"}],"stateMutability":"view"},{"type":"function","name":"pay","inputs":[{"name":"token","type":"address","internalType":"address"},{"name":"amount","type":"uint256","internalType":"uint256"}],"outputs":[],"stateMutability":"nonpayable"},{"type":"function","name":"poolHooks","inputs":[{"name":"","type":"bytes32","internalType":"bytes32"}],"outputs":[{"name":"","type":"address","internalType":"address"}],"stateMutability":"view"},{"type":"function","name":"pools","inputs":[{"name":"","type":"bytes32","internalType":"bytes32"}],"outputs":[{"name":"sqrtPriceX96","type":"uint160","internalType":"uint160"},{"name":"tick","type":"int24","internalType":"int24"},{"name":"feeProtocol","type":"uint24","internalType":"uint24"},{"name":"initialized","type":"bool","internalType":"bool"},{"name":"reserve0","type":"uint256","internalType":"uint256"},{"name":"reserve1","type":"uint256","internalType":"uint256"},{"name":"liquidity","type":"uint128","internalType":"uint128"}],"stateMutability":"view"},{"type":"function","name":"positions","inputs":[{"name":"","type":"bytes32","internalType":"bytes32"},{"name":"","type":"bytes32","internalType":"bytes32"}],"outputs":[{"name":"liquidity","type":"uint128","internalType":"uint128"},{"name":"feeGrowthInside0LastX128","type":"uint256","internalType":"uint256"},{"name":"feeGrowthInside1LastX128","type":"uint256","internalType":"uint256"},{"name":"tokensOwed0","type":"uint128","internalType":"uint128"},{"name":"tokensOwed1","type":"uint128","internalType":"uint128"}],"stateMutability":"view"},{"type":"function","name":"protocolFee","inputs":[],"outputs":[{"name":"","type":"uint24","internalType":"uint24"}],"stateMutability":"view"},{"type":"function","name":"protocolFeeRecipient","inputs":[],"outputs":[{"name":"","type":"address","internalType":"address"}],"stateMutability":"view"},{"type":"function","name":"setProtocolFee","inputs":[{"name":"newFee","type":"uint24","internalType":"uint24"}],"outputs":[],"stateMutability":"nonpayable"},{"type":"function","name":"settle","inputs":[],"outputs":[],"stateMutability":"nonpayable"},{"type":"function","name":"swap","inputs":[{"name":"poolId","type":"bytes32","internalType":"bytes32"},{"name":"params","type":"tuple","internalType":"struct PoolManager.SwapParams","components":[{"name":"zeroForOne","type":"bool","internalType":"bool"},{"name":"amountSpecified","type":"int256","internalType":"int256"},{"name":"sqrtPriceLimitX96","type":"uint160","internalType":"uint160"}]},{"name":"hookData","type":"bytes","internalType":"bytes"}],"outputs":[{"name":"result","type":"tuple","internalType":"struct PoolManager.SwapResult","components":[{"name":"amount0","type":"int256","internalType":"int256"},{"name":"amount1","type":"int256","internalType":"int256"}]}],"stateMutability":"nonpayable"},{"type":"function","name":"take","inputs":[{"name":"token","type":"address","internalType":"address"},{"name":"to","type":"address","internalType":"address"},{"name":"amount","type":"uint256","internalType":"uint256"}],"outputs":[],"stateMutability":"nonpayable"},{"type":"function","name":"ticks","inputs":[{"name":"","type":"bytes32","internalType":"bytes32"},{"name":"","type":"int24","internalType":"int24"}],"outputs":[{"name":"liquidityGross","type":"uint128","internalType":"uint128"},{"name":"liquidityNet","type":"int128","internalType":"int128"},{"name":"feeGrowthOutside0X128","type":"uint256","internalType":"uint256"},{"name":"feeGrowthOutside1X128","type":"uint256","internalType":"uint256"},{"name":"initialized","type":"bool","internalType":"bool"}],"stateMutability":"view"},{"type":"function","name":"transferOwnership","inputs":[{"name":"newOwner","type":"address","internalType":"address"}],"outputs":[],"stateMutability":"nonpayable"},{"type":"event","name":"HookApproved","inputs":[{"name":"hook","type":"address","indexed":true,"internalType":"address"},{"name":"approved","type":"bool","indexed":false,"internalType":"bool"}],"anonymous":false},{"type":"event","name":"LiquidityModified","inputs":[{"name":"poolId","type":"bytes32","indexed":true,"internalType":"bytes32"},{"name":"sender","type":"address","indexed":true,"internalType":"address"},{"name":"tickLower","type":"int24","indexed":false,"internalType":"int24"},{"name":"tickUpper","type":"int24","indexed":false,"internalType":"int24"},{"name":"liquidityDelta","type":"int128","indexed":false,"internalType":"int128"}],"anonymous":false},{"type":"event","name":"PoolInitialized","inputs":[{"name":"poolId","type":"bytes32","indexed":true,"internalType":"bytes32"},{"name":"token0","type":"address","indexed":true,"internalType":"address"},{"name":"token1","type":"address","indexed":true,"internalType":"address"},{"name":"fee","type":"uint24","indexed":false,"internalType":"uint24"},{"name":"hooks","type":"address","indexed":false,"internalType":"address"}],"anonymous":false},{"type":"event","name":"ProtocolFeeUpdated","inputs":[{"name":"newFee","type":"uint24","indexed":false,"internalType":"uint24"}],"anonymous":false},{"type":"event","name":"Swap","inputs":[{"name":"poolId","type":"bytes32","indexed":true,"internalType":"bytes32"},{"name":"sender","type":"address","indexed":true,"internalType":"address"},{"name":"zeroForOne","type":"bool","indexed":false,"internalType":"bool"},{"name":"amount0","type":"int256","indexed":false,"internalType":"int256"},{"name":"amount1","type":"int256","indexed":false,"internalType":"int256"}],"anonymous":false},{"type":"error","name":"InvalidFee","inputs":[]},{"type":"error","name":"InvalidHook","inputs":[]},{"type":"error","name":"InvalidSqrtPrice","inputs":[]},{"type":"error","name":"InvalidTickRange","inputs":[]},{"type":"error","name":"NotOwner","inputs":[]},{"type":"error","name":"PoolAlreadyInitialized","inputs":[]},{"type":"error","name":"PoolNotInitialized","inputs":[]},{"type":"error","name":"ReentrancyGuardReentrantCall","inputs":[]},{"type":"error","name":"SafeERC20FailedOperation","inputs":[{"name":"token","type":"address","internalType":"address"}]},{"type":"error","name":"Unauthorized","inputs":[]}],"bytecode":{"object":"0x60803460ab57601f61210f38819003918201601f19168301916001600160401b0383118484101760af5780849260209460405283398101031260ab57516001600160a01b0381169081900360ab5760017f9b779b17422d0df92223018b32b4d1fa46e071723d6817e2486d003becc55f0055600580546001600160a01b03191633179055600480546001600160b81b031916909117607d60a51b17905560405161204b90816100c48239f35b5f80fd5b634e487b7160e01b5f52604160045260245ffdfe60806040526004361015610011575f80fd5b5f3560e01c80630b0d9c09146116ff57806311da60b4146116d457806313170bdc146116565780633095b2c01461161e57806364df049e146115f65780636882a888146115d95780637feedaa11461154c5780638da5cb5b14611524578063a1634b1414611506578063ad0797861461147f578063b0e21e8a1461145a578063b5217bb4146113d6578063bbb62ba914611363578063bc063e1a14611346578063c407687614611272578063cccb649d14611235578063d4f05d1a14610d67578063ebedaed91461083c578063f2fde38b146107e4578063f59990f8146107b25763fe78a96414610100575f80fd5b346107ae57366003190160a081126107ae576080136107ae576084356001600160a01b038116908181036107ae57620f424062ffffff61013e611a06565b161161079f576401000276a382109081159182610782575b610773576001600160a01b0361016a611a18565b1615158061074c575b61073d5761017f611a2e565b6001600160a01b0361018f611a44565b166001600160a01b039091161015610726576101a9611a2e565b906101b2611a44565b905b6101bc611a06565b926101c5611a18565b6040519062ffffff602083019360018060a01b03169586855260018060a01b03169687604085015216606083015260018060a01b031660808201526080815261020f60a08261183f565b51902093845f525f60205260ff60405f205460d01c1661071757806106fa575b156106d157640100000000600160c01b039060201b16806001600160801b03811160071b90811c67ffffffffffffffff811160061b90811c63ffffffff811160051b90811c61ffff811160041b90811c9060ff821160031b91821c92600f841160021b93841c94600160038711811b96871c1196171717171717179060808210155f146106c757607e1982011c5b800280607f1c8160ff1c1c800280607f1c8160ff1c1c800280607f1c8160ff1c1c800280607f1c8160ff1c1c800280607f1c8160ff1c1c800280607f1c8160ff1c1c80029081607f1c8260ff1c1c80029283607f1c8460ff1c1c80029485607f1c8660ff1c1c80029687607f1c8860ff1c1c80029889607f1c8a60ff1c1c80029a8b607f1c8c60ff1c1c80029c8d80607f1c9060ff1c1c800260cd1c6604000000000000169d60cc1c6608000000000000169c60cb1c6610000000000000169b60ca1c6620000000000000169a60c91c6640000000000000169960c81c6680000000000000169860c71c670100000000000000169760c61c670200000000000000169660c51c670400000000000000169560c41c670800000000000000169460c31c671000000000000000169360c21c672000000000000000169260c11c674000000000000000169160c01c6780000000000000001690607f190160401b1717171717171717171717171717693627a301d71055774c85026f028f6481ab7f045a5af012a19d003aa919810160801d60020b906fdb2df09e81959a81455e260799a0632f0160801d60020b8082145f146106a157505b62ffffff60045460a01c16906040519060e0820182811067ffffffffffffffff82111761068d57604090815287835260029190910b60208084018281528484019586526001606086019081525f6080870181815260a080890183815260c08a018481528e8552968490529790922097518854945190921b62ffffff60a01b166001600160a01b039092166001600160b81b03199094169390931717865592956001600160801b03946003948694939192519088549060ff60d01b9051151560d01b169162ffffff60b81b9060b81b169063ffffffff60b81b1916171787555160018701555160028601555116920191166001600160801b031982541617905561057a611a18565b5f85815260076020526040902080546001600160a01b0319166001600160a01b039283161790556105a9611a18565b1661060a575b5060209350827fdbad4127ee35501700c969e3a62722a954cbfe650992b4ce3a72ef8cd19f20cd60406105e0611a06565b6105e8611a18565b825162ffffff9290921682526001600160a01b031688820152a4604051908152f35b60209060646001600160a01b0361061f611a18565b16965f604051988994859363753b3e7560e01b85528a6004860152602485015260448401525af193841561068257602094156105af5761067490853d871161067b575b61066c818361183f565b810190611861565b505f6105af565b503d610662565b6040513d5f823e3d90fd5b634e487b7160e01b5f52604160045260245ffd5b90856001600160a01b036106b484611ac3565b16116106c05750610473565b9050610473565b81607f031b6102bd565b60405162461bcd60e51b81526020600482015260016024820152602960f91b6044820152606490fd5b5073fffd8963efd1fc6a506488495d951d5263988d26851061022f565b637983c05160e01b5f5260045ffd5b61072e611a44565b90610737611a2e565b906101b4565b639c9d882360e01b5f5260045ffd5b506001600160a01b0361075d611a18565b165f52600660205260ff60405f20541615610173565b63063df5fd60e31b5f5260045ffd5b5073fffd8963efd1fc6a506488495d951d5263988d268311610156565b6358d620b360e01b5f5260045ffd5b5f80fd5b346107ae5760203660031901126107ae576004355f526007602052602060018060a01b0360405f205416604051908152f35b346107ae5760203660031901126107ae576107fd61179f565b600554906001600160a01b038216330361082d576001600160a01b03166001600160a01b03199190911617600555005b6330cd747160e01b5f5260045ffd5b346107ae5761084a366117c3565b919290610855611a5a565b815f525f60205260405f209160ff835460d01c1615610d58575f818152600760205260409020546001600160a01b03168015159283610cc4575b5f838152602081905260409020546001600160a01b0316916108b86108b38961198a565b611ac3565b9660208901956108ca6108b38861198a565b9860408b01955f6108da88611998565b600f0b1315610c72576108ec87611998565b6001600160801b03169a61090c6109048d8386611e66565b9c8285611edd565b926001600160a01b03168211610c59575050505f975b61092b8b61198a565b6109348961198a565b6040519060208201923360601b845260e81b603483015260e81b6037820152601a8152610962603a8261183f565b519020875f52600260205260405f20905f5260205260405f205f61098588611998565b600f0b1315610beb576001600160801b036109ad6109a289611998565b8216828454166119e6565b166001600160801b03198254161790556109c686611998565b6001600160801b03166001600160801b036109e86003840192828454166119e6565b166001600160801b03198254161790555b5f8a1315610bc45760018101610a108b8254611944565b90555b5f891315610b9657600201610a29898254611944565b90555b5f8052600360205260405f20610a438a8254611827565b90555f8052600360205260405f20610a5c898254611827565b9055610ade575b505050610a83610a7d610a7760409861198a565b9461198a565b91611998565b9086519360020b845260020b6020840152600f0b858301527ff893b216b0cd67cc4a5ceb21ec0c04a33409f95d5e05df43035e2f8620bdd3bc60603393a360015f516020611ff65f395f51905f525582519182526020820152f35b91602091610b3499935f8a6040519c8d958694859363b496462d60e01b85528c6004860152336024860152610b16604486018c611951565b60a48501528d60c485015261010060e48501526101048401916118b6565b03925af196871561068257610a77610a8392610b7060409a610a7d945f91610b77575b506001600160e01b03191663b496462d60e01b146118d6565b9850610a63565b610b90915060203d60201161067b5761066c818361183f565b8c610b57565b5f8912610ba4575b50610a2c565b610bbc6002610bb28b611927565b9201918254611937565b90558a610b9e565b5f8a1215610a1357610bd58a611927565b610be460018301918254611937565b9055610a13565b610bfc610bf788611998565b6119a6565b6001600160801b0316906001600160801b03610c1b83828454166119c6565b166001600160801b03198254161790556001600160801b03610c446003840192828454166119c6565b166001600160801b03198254161790556109f9565b9199916001600160a01b031611610922575f9950610922565b610c9d9a610caa610c9d610ca2610c8b610bf78c611998565b6001600160801b03169e8f8588611e66565b611927565b9d8386611edd565b926001600160a01b03168211610c59575050505f97610922565b6040516390f6bd7960e01b815260048101849052336024820152610ceb6044820189611951565b60c060a482015260208180610d0460c482018b876118b6565b03815f875af1801561068257610d34915f91610d39575b506001600160e01b0319166390f6bd7960e01b146118d6565b61088f565b610d52915060203d60201161067b5761066c818361183f565b89610d1b565b63486aa30760e01b5f5260045ffd5b346107ae57610d75366117c3565b909192604051926040840184811067ffffffffffffffff82111761068d576040525f845260208401925f8452610da9611a5a565b825f525f60205260405f209060ff825460d01c1615610d58575f848152600760205260409020546001600160a01b03169182151590816111a1575b610ded8961191a565b60208a013560408b01356001600160a01b038116036107ae578254905f811390811561119257925b156110df575f898152602081905260409020600181015460029091015490911561107b576103e58402918483046103e5148515171561106757610e6d610c9d92610e676103e8610e7396049182611a92565b92611944565b90611aa5565b905b835462ffffff60a01b82166001600160b81b0319909116176001600160a01b039190911617835588528089525f81131561104857508751610ebb60018301918254611944565b90555b86515f8113156110335750610eda600288519201918254611944565b90555b86515f80526003602052610ef660405f20918254611827565b905585515f80526003602052610f1160405f20918254611827565b9055610f81575b505050610f2660409461191a565b908351835190865193151584526020840152858301527f4f10780b85f95ae7a0a095cfc5d9704e910c16bdd2b0e749f1a7be7fec85128660603393a360015f516020611ff65f395f51905f5255825191518252516020820152f35b91602091610fd897935f604051809a8195829463d1640c5760e01b84528a6004850152336024850152610fb7604485018b611881565b8c5160a48501528b5160c485015261010060e48501526101048401916118b6565b03925af19081156106825761100d610f26926040975f91611014575b506001600160e01b03191663d1640c5760e01b146118d6565b9486610f18565b61102d915060203d60201161067b5761066c818361183f565b88610ff4565b6002610bb261104192611927565b9055610edd565b61105190611927565b61106060018301918254611937565b9055610ebe565b634e487b7160e01b5f52601160045260245ffd5b906110869084611a92565b906103e88202918083046103e8149015171561106757836110a691611937565b6103e58102908082046103e51490151715611067576110c491611aa5565b60018101809111611067576110d99092611927565b90610e75565b5f89815260208190526040902060018101546002909101549293929115611134576103e58302918383046103e5148415171561106757610e6d610c9d92610e676103e861112e96049182611a92565b91610e75565b9061113f9083611a92565b906103e88202918083046103e81490151715611067578261115f91611937565b6103e58102908082046103e514901517156110675761117d91611aa5565b600181018091116110675761112e9091611927565b61119b90611927565b92610e15565b604051635889a42f60e11b8152600481018790523360248201526111c8604482018b611881565b60c060a4820152602081806111e160c48201888b6118b6565b03815f895af1801561068257611211915f91611216575b506001600160e01b031916635889a42f60e11b146118d6565b610de4565b61122f915060203d60201161067b5761066c818361183f565b8b6111f8565b346107ae5760203660031901126107ae576001600160a01b0361125661179f565b165f526006602052602060ff60405f2054166040519015158152f35b346107ae5760403660031901126107ae5761128b61179f565b60243590611297611a5a565b6001600160a01b03165f8181526003602052604081208054929392808401921380158484129081169015909116176110675755604051906323b872dd60e01b5f52336004523060245260445260205f60648180865af19060015f5114821615611326575b50156113145760015f516020611ff65f395f51905f5255005b635274afe760e01b5f5260045260245ffd5b600182151661133e5750813b15153d151616826112fb565b3d5f823e3d90fd5b346107ae575f3660031901126107ae576020604051620f42408152f35b346107ae5760403660031901126107ae576004355f52600260205260405f206024355f5260205260a060405f206001600160801b03815416906001810154906003600282015491015491604051938452602084015260408301526001600160801b038116606083015260801c6080820152f35b346107ae5760203660031901126107ae576004355f525f60205260e060405f208054906001810154906001600160801b0360036002830154920154169160ff6040519460018060a01b03811686528060a01c60020b602087015262ffffff8160b81c16604087015260d01c1615156060850152608084015260a083015260c0820152f35b346107ae575f3660031901126107ae57602062ffffff60045460a01c16604051908152f35b346107ae5760403660031901126107ae5761149861179f565b602435908115158092036107ae576005546001600160a01b0316330361082d5760207fbfb1a2311b31e06912fad88e9bd0be9b5fbcfd56a821de65e49f9a2d922211cb9160018060a01b031692835f526006825260405f2060ff1981541660ff8316179055604051908152a2005b346107ae575f3660031901126107ae576020604051620d89e7198152f35b346107ae575f3660031901126107ae576005546040516001600160a01b039091168152602090f35b346107ae5760203660031901126107ae5760043562ffffff8116908181036107ae576005546001600160a01b0316330361082d57620f4240821161079f576004805462ffffff60a01b191660a09290921b62ffffff60a01b169190911790556040519081527f2edf7eef14cb246dab2aac555e300928981632918159d9e33fcaa24dcd38cb4090602090a1005b346107ae575f3660031901126107ae576020604051620d89e88152f35b346107ae575f3660031901126107ae576004546040516001600160a01b039091168152602090f35b346107ae5760203660031901126107ae576001600160a01b0361163f61179f565b165f526003602052602060405f2054604051908152f35b346107ae5760403660031901126107ae576024358060020b8091036107ae576004355f52600160205260405f20905f5260205260a060405f2080549060018101549060ff600360028301549201541691604051936001600160801b038116855260801d600f0b60208501526040840152606083015215156080820152f35b346107ae575f3660031901126107ae576116ec611a5a565b60015f516020611ff65f395f51905f5255005b346107ae5760603660031901126107ae5761171861179f565b6024356001600160a01b038116908190036107ae5760443591611739611a5a565b60018060a01b031691825f52600360205260405f20611759828254611827565b90556040519163a9059cbb60e01b5f5260045260245260205f60448180865af19060015f51148216156113265750156113145760015f516020611ff65f395f51905f5255005b600435906001600160a01b03821682036107ae57565b35908160020b82036107ae57565b9060a06003198301126107ae576004359160606023198201126107ae5760249160843567ffffffffffffffff81116107ae5760040182601f820112156107ae5780359267ffffffffffffffff84116107ae57602084818401930101116107ae579190565b81810392915f13801582851316918412161761106757565b90601f8019910116810190811067ffffffffffffffff82111761068d57604052565b908160209103126107ae57516001600160e01b0319811681036107ae5790565b8035908115158092036107ae5760409183526020810135602084015201359060018060a01b0382168092036107ae5760400152565b908060209392818452848401375f828201840152601f01601f1916010190565b156118dd57565b60405162461bcd60e51b8152602060048201526015602482015274496e76616c696420686f6f6b20726573706f6e736560581b6044820152606490fd5b3580151581036107ae5790565b600160ff1b8114611067575f0390565b9190820391821161106757565b9190820180921161106757565b60409061195d816117b5565b60020b835261196e602082016117b5565b60020b602084015201359081600f0b8092036107ae5760400152565b358060020b81036107ae5790565b3580600f0b81036107ae5790565b600f0b6f7fffffffffffffffffffffffffffffff198114611067575f0390565b906001600160801b03809116911603906001600160801b03821161106757565b906001600160801b03809116911601906001600160801b03821161106757565b60443562ffffff811681036107ae5790565b6064356001600160a01b03811681036107ae5790565b6004356001600160a01b03811681036107ae5790565b6024356001600160a01b03811681036107ae5790565b60025f516020611ff65f395f51905f525414611a835760025f516020611ff65f395f51905f5255565b633ee5aeb560e01b5f5260045ffd5b8181029291811591840414171561106757565b8115611aaf570490565b634e487b7160e01b5f52601260045260245ffd5b60020b5f811215611e4757805f03905b620d89e88211611e1e576001821615611e0c576001600160881b036ffffcb933bd6fad37aa2d162d1a5940015b169160028116611df0575b60048116611dd4575b60088116611db8575b60108116611d9c575b60208116611d80575b60408116611d64575b60808116611d48575b6101008116611d2c575b6102008116611d10575b6104008116611cf4575b6108008116611cd8575b6110008116611cbc575b6120008116611ca0575b6140008116611c84575b6180008116611c68575b620100008116611c4c575b620200008116611c31575b620400008116611c16575b6208000016611bfd575b5f12611bef575b63ffffffff8116611be7575f905b60201c60ff91909116016001600160a01b031690565b600190611bd1565b8015611aaf575f1904611bc3565b6b048a170391f7dc42444e8fa290910260801c90611bbc565b6d2216e584f5fa1ea926041bedfe9890920260801c91611bb2565b916e5d6af8dedb81196699c329225ee6040260801c91611ba7565b916f09aa508b5b7a84e1c677de54f3e99bc90260801c91611b9c565b916f31be135f97d08fd981231505542fcfa60260801c91611b91565b916f70d869a156d2a1b890bb3df62baf32f70260801c91611b87565b916fa9f746462d870fdf8a65dc1f90e061e50260801c91611b7d565b916fd097f3bdfd2022b8845ad8f792aa58250260801c91611b73565b916fe7159475a2c29b7443b29c7fa6e889d90260801c91611b69565b916ff3392b0822b70005940c7a398e4b70f30260801c91611b5f565b916ff987a7253ac413176f2b074cf7815e540260801c91611b55565b916ffcbe86c7900a88aedcffc83b479aa3a40260801c91611b4b565b916ffe5dee046a99a2a811c461f1969c30530260801c91611b41565b916fff2ea16466c96a3843ec78b326b528610260801c91611b38565b916fff973b41fa98c081472e6896dfb254c00260801c91611b2f565b916fffcb9843d60f6159c9db58835c9266440260801c91611b26565b916fffe5caca7e10e4e61c3624eaa0941cd00260801c91611b1d565b916ffff2e50f5f656932ef12357cf3c7fdcc0260801c91611b14565b916ffff97272373d413259a46990580e213a0260801c91611b0b565b6001600160881b03600160801b611b00565b60405162461bcd60e51b81526020600482015260016024820152601560fa1b6044820152606490fd5b80611ad3565b6001600160a01b03918216908216039190821161106757565b611ed4929091611ec391906001600160a01b0380821690851611611ed7575b6001600160a01b03611e978583611e4d565b6001600160a01b039092169291169060601b6fffffffffffffffffffffffffffffffff60601b16611f70565b6001600160a01b0390911690611aa5565b90565b92611e85565b611ed492916001600160801b03916001600160a01b0380831690821611611f1a575b6001600160a01b0391611f129190611e4d565b169116611f20565b90611eff565b5f91905f198282099180820293848085109403938085039414611f6657600160601b841015611f635750600160601b910990828211900360a01b910360601c1790565b80fd5b5050505060601c90565b915f198284099282810292838086109503948086039514611fe757848311156107ae57829109815f0382168092046002816003021880820260020302808202600203028082026002030280820260020302808202600203028091026002030293600183805f03040190848311900302920304170290565b5050809250156107ae57049056fe9b779b17422d0df92223018b32b4d1fa46e071723d6817e2486d003becc55f00a26469706673582212202b7b039a047bde33a8aba386d9f94c5f5ac09cd6c51704562f2e24f1928f77fa64736f6c634300081b0033","linkReferences":{}},"methodIdentifiers":{"MAX_FEE()":"bc063e1a","MAX_TICK()":"6882a888","MIN_TICK()":"a1634b14","approveHook(address,bool)":"ad079786","approvedHooks(address)":"cccb649d","currencyDeltas(address)":"3095b2c0","initialize((address,address,uint24,address),uint160)":"fe78a964","modifyLiquidity(bytes32,(int24,int24,int128),bytes)":"ebedaed9","owner()":"8da5cb5b","pay(address,uint256)":"c4076876","poolHooks(bytes32)":"f59990f8","pools(bytes32)":"b5217bb4","positions(bytes32,bytes32)":"bbb62ba9","protocolFee()":"b0e21e8a","protocolFeeRecipient()":"64df049e","setProtocolFee(uint24)":"7feedaa1","settle()":"11da60b4","swap(bytes32,(bool,int256,uint160),bytes)":"d4f05d1a","take(address,address,uint256)":"0b0d9c09","ticks(bytes32,int24)":"13170bdc","transferOwnership(address)":"f2fde38b"},"id":85}